:020000040800F2
:10000000E809002079020008752F0008712F000808
:10001000732F0008431C0008293500080000000069
:100020000000000000000000000000009D2F0008FC
:10003000451C0008000000008F0200089102000823
:10004000930200089302000893020008930200083C
:10005000930200089302000893020008930200082C
:10006000930200089302000893020008930200081C
:10007000930200089302000893020008930200080C
:1000800093020008930200089302000893020008FC
:1000900093020008930200089302000893020008EC
:1000A00093020008930200089302000893020008DC
:1000B00093020008A12F0008930200089302000891
:1000C00093020008930200089302000893020008BC
:1000D000930200086934000893020008893400087C
:1000E000930200089302000893020008930200089C
:1000F000930200089302000893020008930200088C
:10010000930200089302000893020008930200087B
:10011000930200089302000893020008930200086B
:10012000930200089302000893020008930200085B
:1001300000F002F800F090F80AA090E8000C824469
:100140008344AAF10107DA4501D100F085F8AFF246
:10015000090EBAE80F0013F0010F18BFFB1A43F0A5
:1001600001031847C8BD0000E8BD0000103A24BFD5
:1001700078C878C1FAD8520724BF30C830C144BF0C
:1001800004680C607047000000230024002500264E
:10019000103A28BF78C1FBD8520728BF30C148BFEA
:1001A0000B6070476E2900F02A83702900F05F8190
:1001B000662908F08285652908F07F85672908F09F
:1001C0007C85612908F07B8503681B0A28BF41F004
:1001D0008001692900F0D080642900F0CD80752964
:1001E00000F0CA806F2900F02384782900F02B8169
:1001F000E92900F0BD83E42900F0BA83F52900F075
:10020000B783EF2900F02084F82900F02A810368E1
:10021000DB0928BF41F08001632900F02C8373299A
:1002200000F03183E32900F0F787F32900F0FC8721
:10023000002070471FB501F051F804000020002194
:1002400007F04AFC401C60600020002107F02EFCF3
:10025000E0601FBD10B510BD01F012F81146FFF7A8
:10026000E9FF07F0E1FA01F0EBF803B4FFF7F2FF62
:1002700003BC03F0E6F9000009488047094800473D
:10028000FEE7FEE7FEE7FEE7FEE7FEE7FEE7FEE746
:10029000FEE7FEE704480549054A064B70470000A3
:1002A0009F2F000831010008E8030020E809002022
:1002B000E8050020E8050020704700001CB50C464A
:1002C000064B7B4469460090204600F0B2FA044693
:1002D0000020694600F0C0FA20461CBD93050000CE
:1002E0000FB4044910B503AA029800F0D1FA10BC6B
:1002F0005DF814FB7C0000200FB41CB5084B06AA67
:100300007B4469460090059800F093FA044600206B
:10031000694600F0A1FA20461CBC5DF814FB000001
:100320005505000070B50C460546012A05D0287811
:10033000800600D5EA69002302E0012305E05B1C8A
:10034000934202D2E05C0028F9D1A869E618C01AED
:10035000A861286A18442862284600F0BEF904E023
:10036000D5E9012114F8010B9047B442F8D328468F
:1003700000F0C9F970BD00002DE9F04106460024E7
:1003800010687529314616A510D000F0CDF9002867
:1003900002DA404213A507E031688A0701D512A5A9
:1003A00002E0490704D511A5012401E000F0C5F9D8
:1003B00000210A2206F1240709E0B0FBF2FCB0FBA1
:1003C000F2F302FB1C00303078541846491C002818
:1003D000F3D123462A463046BDE8F04100F0B6B9D5
:1003E000000000002D0000002B0000002000000095
:1003F000F0B40D460188090502D5214C7C4402E089
:100400001F4C7C440E34002100F1240608E002F069
:100410000F071209E75D42EA03721B097754491C72
:1004200052EA0307F3D102780023120704D5702D96
:1004300006D009B1022311342246F0BC00F086B97F
:1004400001231034F8E770B504460D4621461068C4
:1004500000F073F9024629462046BDE870400023AB
:10046000C6E7D21D22F00703D3E90023C0E70368E3
:10047000126843F0200303600823C3610023B7E739
:1004800096B900002DE9F05F894604464FF0000A56
:10049000DFF874B1FB44C0F820A02046E16888472B
:1004A000002874D0252806D0D4E901219047206A7D
:1004B000401C2062F1E700265F462046E16888473D
:1004C0002028054607DB312D05D2781910F8200CBD
:1004D00008B10643F1E7B00701D526F00406C4F8D9
:1004E0001CA00027C4F818A02A2D09D0284603F024
:1004F000A1F838B304EB8708303DC8F8185019E06C
:1005000059F8041B204604EB87029161E168884793
:10051000012F054618D1E069002820DA26F02006D0
:100520001DE0D8F8180000EB800005EB40003038E3
:10053000C8F818002046E1688847054603F07AF8B5
:100540000028EED1012F0AD02E2D08D12046E168D7
:1005500088477F1C0546022F46F02006C4DBA069B1
:10056000002803DA404246F00106A061F00701D0FE
:1005700026F010066C2D0BD0682D09D04C2D39D0EB
:100580006A2D35D0742D35D07A2D33D016E038E071
:10059000E1682F4620468847B842054609D16C2FAE
:1005A00026D04FF48060E168064320468847054620
:1005B00004E06C2F1AD04FF4807006430DB3A5F100
:1005C0004100192802D8203546F400664A462946DB
:1005D000204626604E46FFF7E5FD80B101280BD08E
:1005E000F61D26F0070000F1080956E74020E4E771
:1005F0008020D8E70020D6E706F104094DE7284619
:1006000052E7206ABDE8F09F26B9000030B50546E4
:100610000B462A4613F8014B12F8010B08B1A04211
:10062000F8D01CB1002802D06D1CF1E7284630BD7F
:1006300010B5431C02E010F8011B71B18107FAD11B
:100640004FF0013202C88C1A8C4314EAC211F9D05F
:10065000C01A0A0603D0C01E10BDC01A10BD0A047D
:1006600001D0801E10BD0902FCD0401E10BD4FF00D
:10067000000200B5134694469646203922BFA0E8F2
:100680000C50A0E80C50B1F12001BFF4F7AF0907FE
:1006900028BFA0E80C5048BF0CC05DF804EB8900EF
:1006A00028BF40F8042B08BF704748BF20F8022B32
:1006B00011F0804F18BF00F8012B7047704770474A
:1006C0007047704710B500F0C9F9006810BD10B54B
:1006D000044600F0C3F9046010BD70B50446856996
:1006E0000068C10601D5302600E02026C00707D0EB
:1006F00070BDD4E9012130469047206A401C206239
:100700006D1EF6D570BD70B5044685690078C007CA
:1007100007D170BDD4E9012120209047206A401CF8
:1007200020626D1EF6D570BD09684A0501D540B23C
:100730007047C905FCD500B2704709684A0501D564
:10074000C0B27047C905FCD580B270472DE9F047AB
:100750000D4699469246044600F124080168880631
:1007600004D5E06921F01001216000E00120A842D9
:1007700001DD471B00E00027A1697A1902EB09009F
:10078000081AA0612078C00602D42046FFF7A5FF12
:10079000002608E0D4E901211AF806009047206AF3
:1007A000401C761C20624E45F4DB2078C0060AD53A
:1007B0002046FFF792FF06E0D4E901213020904760
:1007C000206A401C2062381EA7F10107F4DC07E014
:1007D000D4E9012118F805009047206A401C2062E6
:1007E000281EA5F10105F3DC2046FFF78CFF2078D9
:1007F000000602D50220BDE8F0870120FBE7116862
:100800000268006A530501D508700AE0D30501D5D6
:10081000088006E0130603D5C217C1E9000200E014
:10082000086001207047000001694A1C02610878D5
:10083000704700B58FB0CDE9013100210591054920
:100840007944CDE9031011466846FFF71BFE0FB04F
:1008500000BD0000E5FFFFFF0A6802F8010B0A6017
:10086000704710B5436913B1AFF3008001E0FFF7A3
:1008700059FD012010BD127800F124010A700022F8
:100880004A700122EDE711684FF0FF32E9E70000FE
:10089000074B70B50D467B44FFF7CBFF0446284657
:1008A00000F0C6FC10B14FF0FF3070BD204670BDA7
:1008B000473B00002DE9FF5F15468A460446DFF8F6
:1008C000AC80F8440027D8E900103E46CDE900107E
:1008D00010E03AF816106A4602A800F0ADFC411C80
:1008E00007D02178890603D5E269391891420DD8DD
:1008F0000744761C2078800602D5E069B84205DD01
:10090000AE42E6DB3AF816000028E2D1A069C01B2F
:10091000A0612046FFF7E1FED8E90010CDE9001004
:10092000002017E03AF818106A4602A800F084FC8C
:10093000B0F1FF3F81460BD000250DF1080B05E01B
:10094000D4E901211BF8050090476D1C4D45F7D3F4
:1009500008F10100B0428046E4DB206A384420629E
:100960002046FFF7D0FEBDE8FF9F0000A2B50000C3
:100970002DE9F0418046D21D22F007020025D2E980
:100980000002F52915A614D0011E72F1000106DA45
:100990000023D0EB030063EB020211A608E0D8F8B5
:1009A00000108B0701D50FA602E0490701D50EA65E
:1009B00001251146002408F1240704E000F052F854
:1009C00030323A55641C50EA0102F7D12B463246C8
:1009D00021464046BDE8F041FFF7B8BE00000000E8
:1009E0002D0000002B0000002000000030B400218A
:1009F00000F1240408E002F00705D208303542EA8D
:100A00004372DB086554491C52EA0305F3D10468BC
:100A1000002310A2250708D504F020040C4304D0BD
:100A2000C46901230CA2641EC46130BCFFF78EBEF2
:100A300010B5044621461068FFF77FFE02462046A7
:100A4000BDE810400023D1E7D21D22F00701D1E913
:100A50000023CBE700000000300000000048704792
:100A60008403002030B5B0F10A024FEA900E71F114
:100A700000034EEA817EB0EB0E0061EB91014FEA7C
:100A8000101E4EEA017E10EB0E0041EB11114FEAF1
:100A9000102E4EEA016E10EB0E0041EB11214FEAD1
:100AA000104E4EEA014E10EB0E0041EB1141401882
:100AB00041F100014FEAD00040EA41704FEAD10114
:100AC00010EB80054FEA810444EA907444EB010482
:100AD0006D1944EB0404521BA3414FF0000348BFBF
:100AE0000A3200D530BD401C41F1000130BD7047D5
:100AF0002DE9FF4F0C461E464FF0FF378BB0D2E971
:100B00000001DDF860800A908A46C1F30A5505B9F4
:100B10003D46002108464FF00000BAF1000F00F4F6
:100B2000400005DA00EB80004FF4400101EA50007C
:100B30004FEA9059B9F1010F00DDB9460A9850EA21
:100B40004A000ED044F61050A5F2FF3545432F144D
:100B5000B8F1000F1ED07542291E1EDDC9F100023A
:100B60001CE0B8F1010F4FF0000001D0302103E08C
:100B7000F24305E02154401CB042FBDB304600222A
:100B8000002121540B99C1F80880C1E900200FB061
:100B9000BDE8F08FBD1B6D1CDEE74A4600DA6942F6
:100BA00006A800F0DFFB06AB93E8070003AB83E881
:100BB000070050460A9900F089FC8DE80700A0F56F
:100BC00000501F3800900398002D09DD42F21F01EC
:100BD0004A46084403A90390684600F0E8FE08E08E
:100BE000A0F500504A461F3803A90390684600F05C
:100BF000F2FE8DE807000004000C03D04FF0FF3038
:100C0000410800E01046B8F1000F03D00022009226
:100C100015461EE0751E05D4FFF724FF30326255DD
:100C20006D1EF9D5B3460122084302D000227F1C75
:100C300004E02078302801D100227F1E002A099785
:100C400086D01DE0112D07DAFFF70CFF3032625518
:100C50006D1C50EA0102F5D1084302D00098C8B1DA
:100C60000EE00021681E05E0235C625C63542254A0
:100C7000401E491C8142F7DBAB46A81B401E099071
:100C8000002004F80B000B98099AC0F80880C0E90E
:100C9000002B7CE711264FF0000859E72DE9F04FB3
:100CA00088460446D21D22F0070191B0D1E9000127
:100CB000CDE90A0102F039FC02460B98C00F01D0C1
:100CC0002D2007E02068810701D52B2002E020219C
:100CD00001EAC000032A099001D0072A05DB034678
:100CE0004146204600F0FEFA0BE12078800601D54F
:100CF000E06900E00620B8F1650F814606D0B8F142
:100D0000660F18D0B8F1670F70D131E00020B9F14B
:100D1000110F009001DB112301E009F101030AAA80
:100D200001A90CA8FFF7E4FEDDE90C70002609F12B
:100D30000105834647E001204B4600904FF00047F5
:100D40000AAA01A90CA8FFF7D3FEDDE90DB00C99A2
:100D50005D46002610B909F101000D18B9EB050038
:100D600003D4C0F1FF3609F10105A5EB09002BE022
:100D7000B9F1010F01DA4FF001090020B9F1110FAB
:100D80000090484601DD112300E003460AAA01A9AC
:100D90000CA8FFF7ADFEDDE90C704D46002683463A
:100DA000207800070AD4AB4500DA5D4601A8012D82
:100DB00004DD411911F8011C302907D04F4502DA32
:100DC00017F1040F04DA012082460FE06D1EEEE7F2
:100DD000002F02DCED1B3E4403E0781CA84200DD3E
:100DE0007D1CB81B00F1010A4FF000472078000776
:100DF00003D4AA4501DB4FF0FF3A0021B7F1004FC1
:100E00000DF143088DF8431024D002202B23002F2E
:100E100001DA7F422D230A21021EA0F1010000DC2D
:100E20005FB197FBF1FC97FBF1F201FB1C7C1746CD
:100E30000CF1300C08F801CDEEE7A8F101000370C9
:100E40002188090501D5452100E06521A0F10108AF
:100E500000F8011C09980FA9A1EB0807FF1D00B1BC
:100E60000120411901EBEA70A1693844081A401EBB
:100E7000A0612078C00602D42046FFF72EFC099816
:100E800028B1D4E901219047206A401C20622078D3
:100E9000C00622D52046FFF720FC1EE0002E04DB12
:100EA000B34502DD01A8805D00E03020D4E90121D6
:100EB0009047206A401C2062761CAAF101005FEA7C
:100EC000000A0AD100F00AFAC0680168405CD4E95F
:100ED00001219047206A401C2062281EA5F10105CF
:100EE000DCDC07E0D4E9012118F8010B9047206A07
:100EF000401C2062381EA7F10107F3DC2046FFF7F3
:100F000002FC032011B043E62DE9F04F04460D46E4
:100F1000D21D22F0070089B0D0E90092484617465A
:100F2000394602F002FB0246F80F01D02D2307E0FC
:100F30002068810701D52B2302E0202101EAC003AC
:100F40008DF820300BB1012000E00020032A8246FA
:100F500001D0072A04DB2946204600F0C3F93DE111
:100F60002078800601D40D2500E0E569C7F30A5614
:100F70000D2D49DA00214FEA175B08464FF00000BB
:100F8000002F00F4400007DA00EB80004FF440012E
:100F900000EBD07001EA60008115012901DD4FF0FE
:100FA000FF3100224FEA850CBCF1180F06D313461F
:100FB000ACF118004FF08052C24003E04FF48013B0
:100FC00023FA0CF30CF10C0CBCF1200F04D3ACF1A0
:100FD000200C09FA0CF001E007FA0CF000294FF0A0
:100FE000004801DD18B90FE00ED140450CD319EBD4
:100FF00002095F4121B9404502D19F4329EA020914
:10100000BBEB175F00D0761C2088000502D57B481B
:10101000784402E079487844193808AA302302F865
:101020000A30037C0AF10101002E0AF1020A53542E
:101030006A4602DC4FF0300101E04FF031014FF021
:1010400001088DF8001002D0A6F2FF3603E059EA3D
:10105000470100D06A4E002D02DC2178090704D533
:101060004FF002082E218DF80110C44600210BE03C
:10107000C7F303433F01C35C491C6D1E02F80830EF
:10108000052908F1010801DA002DF1DC00210CE04E
:1010900000EB1973491C1B786D1E082902F80830F3
:1010A0004FEA091908F1010801DA002DF0DC217876
:1010B000890602D514E0A8F10108E04505DD02EB40
:1010C000080111F8011C3029F5D0B8F1000F07DD37
:1010D00002EB080111F8011C2E2901D1A8F1010829
:1010E000002D05DD3E2102F808106D1E08F10108F3
:1010F000407C002E02F8080008F1010804DA2D20D7
:10110000764202F8080002E02B2002F808000A21CB
:101110004FF47A70864208F101080BDB96FBF0F37E
:10112000303302F8083096FBF0F308F1010800FBB9
:10113000136601E0642E0CDB642096FBF0F3303381
:1011400002F8083096FBF0F308F1010800FB136683
:1011500001E00A2E06DB96FBF1F0303002F80800C1
:1011600008F1010896FBF1F001FB1060303002F845
:101170000800A16908F1010808EB050202EB0A006A
:10118000081AA0612078C00602D42046FFF7A5FA0D
:10119000216A08AE01EB0A00206204E0D4E90121D3
:1011A00016F8010B9047BAF1010AF7D22078C00671
:1011B00002D52046FFF791FA6E4609E016F8010BBA
:1011C0003E280FD0D4E901219047206A401C2062BC
:1011D000B8F10108F2D22046FFF795FA09B00320D2
:1011E000BDE8F08F206A2844206203E0D4E90121A1
:1011F000302090476D1EEBD3F8E700006FAE000083
:1012000002FCFFFF10B5436913B1AFF3008001E0AA
:10121000FFF750FB012010BD128800F124018284E9
:101220000022C2840122EDE711684FF0FF32E9E7A6
:10123000007B00F08000704770B516460C460546EE
:1012400000F044F8036893F80101012806D0FF2C50
:101250000FD8185D68B101202C7070BDD3F807015C
:101260003246214603F2071303442846BDE8704086
:1012700018474FF0FF3070BD0048704784030020CE
:101280007546FFF7F9FFAE4605006946534620F064
:101290000700854618B020B5FEF7FCFFBDE82040EA
:1012A0004FF000064FF000074FF000084FF0000B22
:1012B00021F00701AC46ACE8C009ACE8C009ACE8D5
:1012C000C009ACE8C0098D467047000010B500F0B9
:1012D00005F8001D10BD00BF016800000048704700
:1012E000A40300202DE9F0411F46044603260168AF
:1012F000072A01F4006004DB08B116A505E016A575
:1013000003E008B115A500E015A521F0100020604C
:10131000A069C01EA0610FB1401EA0612046FFF76A
:10132000DCF94FB1D4E9012138469047206A401CCE
:101330002062C01C206206E0206AFAE7D4E901219D
:1013400015F8010B9047761EF8D22046FFF7DBF91F
:10135000BDE8F0814E414E006E616E00494E460080
:10136000696E66002DE9F047814616468AB033481B
:1013700078440DC88DE80D0030487844801C03ACDB
:101380000DC884E80D0041F69B300844372190FBDE
:10139000F1F290FBF1F5A5F1800501FB12041B3C75
:1013A00002D56442012000E00020DFF890A08046D2
:1013B0000027FA44AAF1BE0A0DE0E00709D0324640
:1013C000684607EB47010AEB810100F004FB8DE85A
:1013D000070064107F1C002CEFD1184F7F44AC3FF6
:1013E00018E0E80714D007EB04100DF1180A90E894
:1013F0000E008AE80E00C068F04201D198190890EA
:10140000324606A903A800F0E6FA03AB83E807001A
:101410006D10641C002DE4D132466946B8F1000F0E
:1014200003A802D000F0C3FA01E000F0D4FAC9E941
:101430000001C9F808200AB0BDE8F087A0AB0000A1
:101440000446AFF300802046FEF70FFF4FF0013C4B
:1014500050F8042B51F8043B9A4221D1A2EB0C0323
:10146000934313EACC1317D150F8042B51F8043BE3
:101470009A4215D1A2EB0C03934313EACC130BD180
:1014800050F8042B51F8043B9A4209D1A2EB0C030B
:10149000934313EACC13DBD04FF00000704700BF3A
:1014A000D01A01BAB1FA81F101F0180122FA01F063
:1014B000CB40C1F12001DBB2C0B2C01A2CFA01F35B
:1014C000D11A914311EAC311E6D170475FEA400C8B
:1014D00008BF91F0000F4FEA8C234FEAC12243EA84
:1014E00051514FEA1C5018BF00F5F0404FEA300050
:1014F00018BF41F000415FEA6C5C00F02980BCF14C
:10150000FF3F08BF40F080407047130C06BF120435
:101510004FF0100C4FF0000C130E04BF12020CF130
:10152000080C130F04BF12010CF1040C930F04BF3D
:1015300092000CF1020CD30F04BF52000CF1010C0D
:1015400011464FF00002A0F11F00A0EB0C00704705
:1015500011F0004F08BF704731F000413FF4D5AFA4
:101560000B0C06BF09044FF0100C4FF0000C0B0ED3
:1015700004BF09020CF1080C0B0F04BF09010CF1A8
:10158000040C8B0F04BF89000CF1020CCB0F04BFBD
:1015900049000CF1010CCCF12003A0EB0C0022FA65
:1015A00003F302FA0CF241EA030100F10100704773
:1015B00020F07F4C80EA030023F07F47ACEB070369
:1015C00003F57C5300F0004003F1FF032DE980494F
:1015D0004FEA154B09B44FEA144325EA0B4E24EAAF
:1015E00003480FF2042606EB132749083E785FEA0A
:1015F000320203FB0667C7F5000707FB06F64FEA52
:1016000054374FEAD64606F1020607FB066CCCF1CA
:10161000005C4FEA1C472CEA074C07FB06F40CFB66
:1016200006F504EB15464FEA961634BF00204FF03E
:1016300000404FEAD13706FB07FC4FEA1C4C0CFB7D
:101640000BF7D21B03FB0CF761EB07010CFB0EF74A
:10165000B0EB074072EB17420CFB08F734BFA2EB6C
:101660000742B2EB074261EB17414FEA0C444FEAE5
:10167000910706FB07FC4FEA1C4C0CFB0BF7B0EB89
:10168000C74072EB573203FB0CF734BFA2EBC742E3
:10169000B2EBC74261EB57310CFB0EF7B0EBC70062
:1016A00072EB57720CFB08F734BFA2EBC702B2EB28
:1016B000C70261EB5771039F4FEA816141EA9211C2
:1016C00004EBCC044FEAD1374FEA826206FB07FCF9
:1016D00042EA90124FEA80604FEA1C4C0CFB0BF779
:1016E000D21B03FB0CF761EB07010CFB0EF7B0EB11
:1016F000074072EB17420CFB08F734BFA2EB07421E
:10170000B2EB074261EB17414FEA8C554FEA910764
:1017100004EB9C2406FB07FC4FEA1C4C0CFB0BF76C
:10172000B0EBC74072EB573203FB0CF734BFA2EBB0
:10173000C742B2EBC74261EB57310CFB0EF7B0EB7F
:10174000C70072EB57720CFB08F734BFA2EBC7025D
:10175000B2EBC70261EB577115EB4C254FEA816183
:1017600041EA92114FEA82624FEAD13742EA90127F
:1017700006FB07FC44F100044FEA80604FEA1C4C72
:101780000CFB0BF7D21B03FB0CF761EB07010CFB07
:101790000EF7B0EB074072EB17420CFB08F734BFB3
:1017A000A2EB0742B2EB074261EB174115EB1C15A8
:1017B0004FEA813141EA92414FEA823242EA904255
:1017C0004FEA80304FEA0C7644F1000448EA0343C4
:1017D0004EEA0B484FF0000EB2EB080C71EB03071A
:1017E00024BF624639464EEB0E0E4FF0000B001838
:1017F000524149414BEB0B0BB2EB080C71EB030769
:101800007BF1000B24BF624639464EEB0E0E4FF0C3
:10181000000B0018524149414BEB0B0BB2EB080C8B
:1018200071EB03077BF1000B24BF624639464EEB98
:101830000E0E51EA020718BF46F0010616EB0E76AF
:1018400055F1000254F1000103D5BDE88901BDE85E
:101850000088BDE88901BDE80048B619524141EB56
:101860000101A3F10103704780807F7E7D7C7B7A3C
:101870007978777676757473727171706F6E6E6D3C
:101880006C6C6B6A6A6968686766666564646363E2
:1018900062616160605F5F5E5E5D5D5C5C5B5B5A68
:1018A0005A595958585757565655555554545353D5
:1018B00052525251515050504F4F4F4E4E4D4D4D30
:1018C0004C4C4C4B4B4B4A4A4A494949484848477B
:1018D00047474746464645454544444444434343B9
:1018E0004342424242414141002B26D4770021D05D
:1018F0001CB54FEA370703B44FF010004FF010014A
:101900004FF000000FBCBDE810400BF1010BBBF124
:10191000010F08BF5FEA170722BF12F1010211F1A0
:1019200001014FF0004143F1000300F0004043EAA1
:1019300000007047F9D35708DAE746EA064613F184
:10194000400F4FEA16461FDD13F1200FDFBF16438D
:101950000A46002120335B42C8D0C3F1200746EA83
:10196000064602FA07F74FEA164646EA0706C3F1AB
:10197000200722FA03F201FA07F721FA03F14FF0E8
:10198000000342EA0702B1E746EA020646EA0646D3
:101990004FEA164646EA0106BCBF46EA0646360C42
:1019A0004FF000034FF000024FF000019EE72DE9D9
:1019B000C048934630B491E8380007C831EA400C7B
:1019C00048BF34EA430C03D5FFF7F2FDFFF78CFF65
:1019D000F0BCBDE800882DE9C048934630B491E8DA
:1019E000380007C810F0804F08BF13F0804F03D1B4
:1019F00000F005F8FFF778FFF0BCBDE8008820F0A4
:101A00007F4780EA030023F07F4C07EB0C03A3F52C
:101A10007C5300F00040A3F1FE0392F0000F00F0B1
:101A2000B38095F0000F00F077802DE901494FEA6F
:101A300011404FEA144621EA004800FB06FC24EA64
:101A4000064708FB06F607FB08F800FB07F718EB4C
:101A500006484CEB164C4FEA124B18EB07484FEA7E
:101A600015464CEB174022EA0B4E0BFB06FC25EA11
:101A700006470EFB06F607FB0EFE0BFB07F71EEBF9
:101A8000064E4CEB164C4FF000061EEB074E4CEB8F
:101A9000174B18EB0B0840F1000018EB0E0B58EB3E
:101AA000000840F100008F1A4FF000013CBFC9430D
:101AB000661B14BFB5EB040C00213CBFC943F61BE9
:101AC0004FEA17444EEA8E0E27EA04454FEA1C47B8
:101AD00004FB07622CEA074C05FB07F70CFB05F635
:101AE00004FB0CFC16EB074642EB174216EB0C46C8
:101AF00042EB1C421BEB060658EB0202414146EA50
:101B00009E0601D5BDE80189B619524141EB01019C
:101B1000A3F10103BDE801894FEA14454FEA1147DB
:101B200024EA054621EA074C05FB07F406FB07F704
:101B30000CFB06F105FB0CFC11EB074144EB1744D1
:101B40004FEA124711EB0C4144EB1C4422EA074CCC
:101B500005FB07F206FB07F70CFB06F605FB0CFC82
:101B600016EB074642EB174216EB0C4642EB1C45C0
:101B70006A1854F1000148BF7047B619524141EB51
:101B80000101A3F10103704795F0000F37D04FEA30
:101B900011424FEA144721EA024624EA074C02FBAD
:101BA00007F106FB07F70CFB06F402FB0CFC14EB39
:101BB000074441EB17414FEA154714EB0C4441EB46
:101BC0001C4125EA074C02FB07F506FB07F70CFB57
:101BD00006F602FB0CFC16EB074645EB174516EB29
:101BE0000C4645EB1C42121951F1000148BF7047E9
:101BF000B619524141EB0101A3F1010370474FEACD
:101C000014454FEA114724EA054621EA074C05FB33
:101C100007F106FB07F70CFB06F24FF0000605FB89
:101C20000CFC12EB074241EB174112EB0C4251EB5B
:101C30001C4148BF7047921841EB0101A3F1010319
:101C40007047FEE77047000030B5B3F5804F05D010
:101C50006FF0704140F82210002030BD8C690B6895
:101C60008D6823434C688989240144EA0524234371
:101C700043EA014150F82230024C2340194340F816
:101C80002210E9E70000F0CF10B50A6850F82230C2
:101C900023F0010340F822308B68082B23D0002268
:101CA0004C681C43CB6813430A691C4314434A69BC
:101CB0001443CA6914430A6A14434A6A14438A6A79
:101CC0001443CA6A14430A6B14438A6922434B6B58
:101CD0001343064C096850F82120A2431A4340F8E8
:101CE0002120002010BD4022DAE700007FFF0F0016
:101CF00030B5D1E9003443EA04138C688D8924029D
:101D000044EA054423430C8A641E43EA04540B7DD1
:101D100089699B1E44EA03630B43521C50F822104E
:101D200001F040410B4340F82230002030BD00005C
:101D30002DE9F05F002590F82110022903D004213D
:101D40008163012595E001680A6822F00E020A60AD
:101D500001680A6822F001020A60474E464FB21538
:101D6000DFF814C1DFF81081DFF80C91DFF808A16B
:101D7000DFF804B10168783F13011402ACF1640C80
:101D8000A8F15008A9F13C09AAF1280AABF1140BFB
:101D90004FF4801EB1422FD9B94201D1012227E070
:101DA000614501D1102223E0414521D0494501D1AF
:101DB0001A461DE0514501D1224619E0594501D18D
:101DC000724615E02D4EB14201D1012210E02B4E9A
:101DD0001436B14201D110220AE0284E2836B14211
:101DE00006D0264A3C32914201D11A4600E02246F2
:101DF0002249091F0A6033E0B94201D101222CE0D7
:101E0000614501D1102228E0414526D0494501D144
:101E10001A4622E0514501D122461EE0594501D122
:101E200072461AE0B14202D14FF0807215E0134EB3
:101E3000B14201D1012210E0104E1436B14201D15D
:101E400010220AE00D4E2836B14206D00B4A3C3231
:101E5000914201D11A4600E02246074980394A6082
:101E6000012180F82110002180F82010416B01B180
:101E700088472846BDE8F09F8000024008040240E1
:101E80002DE9F84F00240023DFF8E0914FF00F0810
:101E900009F1040A0AF1040B0BF1040EDFE001273B
:101EA000A7403A40BA4275D1DFF8C4C14D68A5EBEE
:101EB0000C0665452BD00DDC032D34D005DC35B385
:101EC000012D19D0022D2FD11BE0112D16D0122D6E
:101ED0002AD119E0B6F5881F19D006DCB6F5803F87
:101EE00015D0B6F5801F1FD111E0B6F5001F0ED03A
:101EF000B6F5041F18D10AE0CB6815E0CB681B1DAE
:101F000012E0CB6808330FE0CB680C330CE08B6831
:101F100023B1012B04D00823476105E0042303E02B
:101F20000823076100E00023FF2A01D8054601E0ED
:101F300000F1040502D84FEA840603E0A4F1080684
:101F40004FEA86062F6808FA06FC27EA0C0703FA10
:101F500006F647EA06072F604D68ED007ED5454D31
:101F6000AE6946F00106AE61AD6905F00105009568
:101F7000414D24F003067719BE68A5072D0F08FA16
:101F800005FC26EA0C06DFF8F4C0604503D14FF0EB
:101F9000000C25E062E0DFF8E8C0604502D14FF0B8
:101FA000010C1DE0DFF8DCC0604502D14FF0020CEF
:101FB00016E0DFF8D4C0604502D14FF0030C0FE00B
:101FC000DFF8C8C0604502D14FF0040C08E0DFF82C
:101FD000C0C0604502D14FF0050C01E04FF0060C87
:101FE0000CFA05FC4CEA060CC7F808C04D68ED0376
:101FF00005D5D9F800501543C9F8005004E0D9F8C8
:1020000000509543C9F800504D68AD0305D5DAF886
:1020100000501543CAF8005004E0DAF80050954328
:10202000CAF800504D68ED0205D5DBF800501543A5
:10203000CBF8005004E0DBF800509543CBF800509B
:102040004D68AD0205D5DEF800501543CEF80050BE
:1020500004E0DEF800509543CEF80050641C0A6896
:1020600032FA04F57FF41BAFBDE8F88F000401409D
:102070000000111000100240000001400008014063
:10208000000C014000100140001401400018014004
:10209000001C01408068084201D0012070470020E8
:1020A0007047C26821EA02030A4043EA0241016123
:1020B0007047002A01D0016170470904016170472F
:1020C00001488068704700008000002010B5074874
:1020D000016841F010010160052000F059F80F205F
:1020E00000F006F800F026F8002010BD00200240A5
:1020F00070B504460D4D4FF47A712878B1FBF0F0BD
:102100000B490968B1FBF0F000F09AFB08B101201F
:1021100070BD102C07D200222146501E00F018F886
:102120006C60002070BD012070BD000080000020A8
:10213000000000207047002809DB00F01F02012189
:1021400091404009800000F1E020C0F80011704784
:10215000F0B40D460D4B1B68C3F30223C3F1070413
:10216000042C00D90424191D072901D2002300E002
:10217000DB1E012606FA04F1491E294099409E40C3
:10218000761E16403143F0BC01F0E3B90CED00E0DF
:1021900000F00701054A10684FF6FF03184040EAB7
:1021A0000120034908431060704700000CED00E077
:1021B0000000FA052DE9F04704460D46002C17D023
:1021C000DFF83081D8F8000000F00700A84211D2F3
:1021D000D8F8000020F007002843C8F80000D8F81D
:1021E000000000F00700A84204D00120BDE8F087FD
:1021F0000120FBE72068404E810712D5400703D538
:10220000706840F4E06070602078000703D5706863
:1022100040F4605070607068A16820F0F0000843DE
:1022200070602078C0072CD06068012806D0022892
:1022300009D0316889070BD40120D7E731688903B9
:1022400006D40120D2E73168890101D40120CDE70D
:10225000716821F0030101437160FFF731FF074608
:1022600041F2883906E0FFF72BFFC01B484501D932
:102270000320BBE77068616800F00C00B0EB810FD1
:10228000F1D1D8F8000000F00700A8420ED9D8F824
:10229000000020F007002843C8F80000D8F800002C
:1022A00000F00700A84201D001209FE720784007F6
:1022B00005D57068E16820F4E0600843706020781C
:1022C000000706D57068216920F4605040EAC1001B
:1022D000706000F03FF87168084AC1F30311515C67
:1022E000C8400749086007480068FFF701FF002061
:1022F0007CE700000020024000100240FE8D000834
:1023000000000020840000200148006870470000A1
:102310000000002000B5FFF7F7FF04494968044AB0
:10232000C1F30221515CC84000BD00000010024012
:102330000E8E000800B5FFF7E7FF04494968044A1C
:10234000C1F3C221515CC84000BD00000010024032
:102350000E8E000885B014A090E80E00C068CDE98C
:1023600002230191049014A000680090134B596857
:10237000134801F00C02042A10D0082A0ED101A83B
:10238000C1F38342805CC9030AD55968C1F3404157
:102390001DF801100A4A5043B0FBF1F005B0704738
:1023A00008494843FAE70000020304050607080944
:1023B0000A0B0C0D0E0F101001020000001002405D
:1023C00000127A0000093D002DE9F84F0446002C68
:1023D0000ED02078D94DC0075ED06868C0F3810068
:1023E00001280BD06868C0F38100022803D00CE0FC
:1023F0000120BDE8F88F6868C00306D5286880030F
:102400004AD56068A8BB0120F3E76068B0F5803F5B
:1024100011D0A8B1B0F5A02F1BD0286820F48030CF
:102420002860286820F480202860606830B3FFF7B7
:1024300047FE06461EE0286840F480302860F4E736
:10244000286820F480302860286820F480202860E4
:10245000EBE7286840F480202860286840F480304A
:102460002860E2E7FFF72CFE801B642802D90320D6
:10247000BFE711E028688003F4D50DE0FFF720FEE8
:10248000064606E0FFF71CFE801B642801D90320E6
:10249000AFE728688003F5D42078DFF8A4828007AE
:1024A0004FF0010A4FF0000945D5686810F00C0F95
:1024B00007D06868C0F38100022812D16868C003A1
:1024C0000FD42868800704D52069012801D0012095
:1024D0008FE72868616920F0F80040EAC1002860B1
:1024E00029E02069B8B1C8F800A0FFF7E9FD064669
:1024F00006E0FFF7E5FD801B022801D9032078E7FD
:1025000028688007F5D52868616920F0F80040EA5E
:10251000C10028600FE0C8F80090FFF7D1FD064623
:1025200006E0FFF7CDFD801B022801D9032060E7FC
:1025300028688007F5D42078000726D58148A1694E
:1025400099B1C0F800A0FFF7BBFD064606E0FFF713
:10255000B7FD801B022801D903204AE7686A80077B
:10256000F5D5012000F008FD0FE0C0F80090FFF75E
:10257000A7FD064606E0FFF7A3FD801B022801D950
:10258000032036E7686A8007F5D42078400773D5C2
:102590000026E869C00008D4E86940F08050E8618E
:1025A000E86900F0805000900126DFF89CB1DBF86C
:1025B0000000C00514D4DBF8000040F48070CBF8B4
:1025C0000000FFF77DFD074606E0FFF779FDC01B21
:1025D000642801D903200CE7DBF80000C005F4D51E
:1025E000E068012812D0B0B105281DD0286A20F07B
:1025F00001002862286A20F004002862E06841F2A5
:10260000883B28B3FFF75CFD07461DE0286A40F0D1
:1026100001002862F2E7286A20F001002862286A97
:1026200020F004002862E9E7286A40F004002862EC
:10263000286A40F001002862E0E7FFF741FDC01B77
:10264000584501D90320D4E6286A8007F5D50DE066
:10265000FFF736FD074606E0FFF732FDC01B584581
:1026600001D90320C5E6286A8007F5D4012E03D1DD
:10267000E86920F08050E861E069A0B36968C1F3BF
:102680008101022946D0022805D0C8F86090FFF7E2
:1026900017FD04463AE0C8F86090FFF711FD0646C2
:1026A00006E0FFF70DFD801B022801D90320A0E6FC
:1026B00028688001F5D4206AB0F5803F05D16868AC
:1026C000A16820F4003008436860D4E90801084399
:1026D000696821F4741108436860C8F860A0FFF7C6
:1026E000EFFC044607E026E0FFF7EAFC001B0228A7
:1026F00001D903207DE628688001F5D51BE0FFF7AE
:10270000DFFC001B022801D9032072E62868800143
:10271000F5D410E001280CD06868226A00F48031FA
:10272000914204D1616A00F47010884203D0012004
:102730005FE601205DE600205BE60000001002403D
:1027400000004242800442420070004070B50446DE
:102750000E461546002C07D0A069B0F5807F03D047
:1027600094F8410010B107E0012070BD002084F80A
:102770004000204600F01EF804F108012068FFF731
:1027800083FA3146A2682068FFF7B2FAD4E9010261
:102790002946236BFFF758FAA168206850F82120DA
:1027A00042F0010240F82120012084F8410000207D
:1027B00070BD000000B585B01748416941F48071D3
:1027C0004161416901F480710091816941F020010A
:1027D0008161816901F020010091816941F040012E
:1027E0008161806900F0400000904CF2037001901C
:1027F00002200290012003900320049001A90748C1
:10280000FFF73EFB4FF68070019001A90448FFF7E7
:1028100037FB05B000BD000000100240001401406D
:10282000001801404FF0E021042804D0086920F08E
:10283000040008617047086940F0040008617047AF
:1028400010B5401EB0F1807F01D3012010BD4FF0C4
:10285000E02460610F21601700F07BFE0020A06182
:1028600007202061002010BD70B504460D4694F885
:102870003C0001280AD0012084F83C0042B1042A1F
:102880001AD0082A2DD00C2A53D13EE0022070BD68
:102890002946206800F0EEFB2068816941F00801BC
:1028A00081612068816921F004018161206881696A
:1028B0002A69114381613CE02946206800F00EFC42
:1028C0002068816941F4006181612068816921F497
:1028D00080618161206881692A6941EA0221816100
:1028E00027E02946206800F033FC2068C16941F0E8
:1028F0000801C1612068C16921F00401C16120683B
:10290000C1692A691143C16113E02946206800F0BA
:1029100057FC2068C16941F40061C1612068C16948
:1029200021F48061C1612068C1692A6941EA0221FC
:10293000C161002084F83C0070BD10B50446002C35
:1029400003D094F83D0010B107E0012010BD002035
:1029500084F83C00204600F015F8022084F83D0081
:10296000211D206800F030FB01203D346072607052
:10297000A070E07020716071A071E0712072207011
:10298000002010BD00B585B00068114988421CD1F7
:102990001048816941F004018161816901F00401FD
:1029A0000091C16941F00201C161C06900F00200FB
:1029B0000090C0200190022002900120039003208B
:1029C000049001A90448FFF75BFA05B000BD0000C0
:1029D00000040040001002400008014010B5044609
:1029E000002909D004290AD008290BD094F8410005
:1029F00001280AD0012010BD94F83E00F8E794F8B1
:102A00003F00F5E794F84000F2E7022079B304298B
:102A100031D0082932D084F841000122206800F02A
:102A20001BFB1B4A20681B49904201D0884203D1FE
:102A3000436C43F400434364206890420DD08842C5
:102A40000BD0B0F1804F08D01349884205D013490C
:102A5000884202D01249884213D1816801F00701EF
:102A6000062912D0016841F0010101600DE0FFE785
:102A700084F83E00D1E784F83F00CEE784F84000B8
:102A8000CBE7016841F001010160002010BD0000AA
:102A9000002C0140003401400004004000080040C8
:102AA000000C00407047000070B5044622681068B2
:102AB000D168526900F00F03002B08D1850606D5B6
:102AC0008D0604D52046BDE8704000F0C6BB002B43
:102AD00061D002F0010301F490751D435BD0C5077E
:102AE00005D0CD0503D5E56B45F00105E563450748
:102AF00005D5D50703D0E56B45F00205E5638507ED
:102B000005D5D20703D0E26B42F00402E26302076C
:102B100007D501F020021A4303D0E26B42F008020D
:102B2000E263E26B002A2BD0800604D5880602D52A
:102B3000204600F092FB20684069C0F38010E16BF2
:102B400001F00801014320D0204600F06BFB206813
:102B50004169490615D5416921F040014161606B29
:102B600058B116494163606BFFF7E2F8002807D0BF
:102B7000606B416BBDE8704008472046FFF792FF4D
:102B800070BD2046FFF78EFF70BD2046FFF78AFF1D
:102B90000020E06370BD020606D50A0604D5204673
:102BA000BDE8704000F0FEBB4006F3D54806F1D505
:102BB0002046BDE8704000F043BB0000153200081D
:102BC00070B50446002C04D094F83900002510B1EB
:102BD00006E0012070BD84F83850204600F022F84D
:102BE000242084F839002068C16821F40051C160B4
:102BF000204600F07BFB2068016921F490410161CF
:102C00002068416921F02A0141612068C16841F4CE
:102C10000051C160E563202084F8390084F83A004F
:102C2000002070BDF0B585B004463F493D4B20689B
:102C30000025022203260F15984232D1886940F000
:102C400004008861886900F004000090886940F001
:102C500004008861886900F004000090886940F4ED
:102C600080408861886900F4804000904815019098
:102C700002920120039004962C4C01A92046FFF7F4
:102C8000FFF80197029501A92046FFF7F9F82520E2
:102C9000FFF751FA032211462520FFF759FA05B034
:102CA000F0BD234B9842FAD1886940F00800886152
:102CB000886900F008000090886940F00800886189
:102CC000886900F008000090C86940F48020C8615D
:102CD000C86900F480200090019702920395049641
:102CE000144F01A93846FFF7CBF8F814019002956C
:102CF0000395049601A93846FFF7C2F80022114651
:102D00002720FFF725FA2720FFF715FA2068C1686A
:102D100041F02001C1602068C16841F01001C1602C
:102D2000BDE70000003801400010024000080140EB
:102D300000480040000C01402DE9F84F04460E46C3
:102D40001546984694F83A00202802D00220BDE8A3
:102D5000F88FFEB1F5B194F8380001281CD001209D
:102D600084F838004FF0000AC4F83CA0222084F810
:102D70003A00FFF7A5F98146A585E585A0684FF4DF
:102D80008057B84201D1206940B13546002684F809
:102D900038A028E00120DAE70220D8E70025F6E78E
:102DA0004B46002220212046CDF8008000F029FB70
:102DB00008B10320CBE725B1A068B8421BD038B1D9
:102DC00008E020684068C0F3080026F8020B07E01E
:102DD000206980B12068406800F07F0028706D1C79
:102DE000E08D401EE085E08D0028D9D1202084F8B8
:102DF0003A000020ABE7206840682870EFE790F8C1
:102E00003A30202B01D002207047F9B1F2B190F88E
:102E10003830012B1CD081628285C2850021C163BC
:102E2000222280F83A2080F838100168CA6842F4FB
:102E30008072CA6001684A6942F001024A61006812
:102E4000C16841F02001C160002070470120704737
:102E50000220704730B50068124988420CD1124AEE
:102E60005088010408D41146440409784FF0000347
:102E700007D50A2901D0538030BD40F4004050806E
:102E800030BD0D290AD0094DC0F30D042955401C51
:102E900080B25080C728F3D9538030BD40F48040C1
:102EA000508030BD0038014078000020E80000204C
:102EB0002DE9F84304460E4615461F4694F839009E
:102EC000202802D00220BDE8F883C6B1BDB194F835
:102ED0003800012815D0012084F838004FF000098F
:102EE000C4F83C90212084F83900FFF7E9F88046C7
:102EF000A584E584A068B0F5805F04D005E00120DA
:102F0000E1E70220DFE7206920B13546002684F89A
:102F1000389013E00025FAE743460022802120463E
:102F2000009700F06EFA08B10320CCE79DB121684C
:102F300015F8010B4860E08C401EE084E08C00280E
:102F4000EAD14346002240212046009700F059FA7A
:102F500040B10320B7E736F8020B2168C0F3080040
:102F60004860E8E7202084F839000020ABE770478C
:102F7000FEE7FEE77047000008B507494FF4FA5234
:102F80000968B1FBF2F14143009100BF0098411E76
:102F90000091FAD208BD0000000000207047704781
:102FA00010B5074C20680069C043C00707D1202135
:102FB0000448FFF776F821686FF00100086110BD42
:102FC000F4020020001801402DE9F04102681D4D77
:102FD0001D4E1E4FDFF878C01E4B4FF08048A842B0
:102FE00009D0984207D0404505D0B04203D0B8423E
:102FF00001D0604503D122F070044A682243A84200
:1030000009D0984207D0404505D0B04203D0B8421D
:1030100001D0604503D122F44074CA6822434C6950
:1030200022F08002224302608A68C2620A688262D9
:10303000A84201D0984201D109690163012141618F
:10304000BDE8F081002C0140000400400008004071
:10305000000C00400034014010B501F01F010123B5
:103060008B40046A9C430462036A8A4013430362F0
:1030700010BD0000F0B5026A22F001020262026A8D
:103080004368846924F0700424F003050C682C4321
:1030900022F002058A682A430E4E0F4FB04201D03B
:1030A000B84205D122F00805CA682A4322F004027A
:1030B000B04201D0B84207D123F4807323F40073E7
:1030C0004D691D438B692B434360846149684163AB
:1030D0000262F0BD002C014000340140F0B5026AEC
:1030E00022F010020262036A4268846924F4E04418
:1030F00024F440740D6844EA052423F020038D680D
:1031000043EA0513104D114EA84201D0B04206D13A
:1031100023F08003CF6843EA071323F04003A8425B
:1031200001D0B04209D122F4806222F400624D69DC
:1031300042EA85028D6942EA8502426084614968FB
:1031400081630362F0BD0000002C014000340140A7
:10315000F0B5026A22F480720262026A4368C469AE
:1031600024F0700424F003050C682C4322F4007250
:103170008D6842EA0522104D104EA84201D0B0429F
:1031800006D122F40062CF6842EA072222F480626C
:10319000A84201D0B04209D123F4805323F4005354
:1031A0004D6943EA05138D6943EA05134360C46121
:1031B0004968C1630262F0BD002C01400034014047
:1031C00030B5026A22F480520262046A4268C3691E
:1031D00023F4E04323F440730D6843EA052324F409
:1031E00000548D6844EA0534084DA84202D0084DC9
:1031F000A84204D122F480424D6942EA851242601D
:10320000C36149680164046230BD0000002C0140C4
:103210000034014010B5406A0021C185C184FFF728
:1032200041FC10BD0168CA6822F49072CA6001684E
:103230004A6922F001024A61202180F83A10704761
:1032400010B50168CA6822F04002CA60202180F8E7
:103250003910FFF78CFE002010BD10B590F83A1021
:10326000222901D0022010BD82684FF480539A4277
:1032700001D1016921B1816A9A421DD052B10BE09E
:10328000816A02685268C2F308020A80816A891C56
:10329000816209E002697AB10268526802F07F0235
:1032A0000A70816A491C8162C18D491E0904090C9A
:1032B000C18505D0002010BD026852680A70F0E791
:1032C0000168CA6822F02002CA600168CA6822F454
:1032D0008072CA6001684A6922F001024A612021B5
:1032E00080F83A10FFF7B6FD002010BD70B5044617
:1032F00020680169E26821F4405111430161A1682D
:1033000020690143606901432068C26841F20C638F
:103310009A430A43C26020684169A26921F440715E
:10332000114341611E492068884202D1FFF702F82B
:1033300001E0FEF7EFFF00EBC00101EB0010616858
:1033400064228900B0FBF1F3B3FBF2F36FF01806CF
:103350007343B0FBF1F5B0FBF1F605EB83053223C7
:1033600003EB0515B5FBF2F5B6FBF2F605F0F0053B
:1033700005EB0615B0FBF1F6B0FBF1F0B0FBF2F097
:103380006FF01801484306EB800003EB0010B0FB20
:10339000F2F0216800F00F002844886070BD000042
:1033A0000038014090F83910212901D002207047DF
:1033B0008168B1F5805F01D1016961B1016A4A1C80
:1033C0000262026809785160C18C491E0904090C27
:1033D000C1840AD013E0016A02680988C1F30801B8
:1033E0005160016A891C0162EEE70168CA6822F037
:1033F0008002CA600068C16841F04001C1600020DD
:1034000070472DE9F04104460E4617469846069D42
:103410001DE0681C1BD02DB1FEF752FEA0EB08008A
:10342000A84214D92068C16821F4D071C160206815
:10343000416921F001014161202084F8390084F8BC
:103440003A00002084F838000320BDE8F0812068AD
:10345000006836EA000004D00020B842D9D000202D
:10346000F3E70120F9E7000010B50548FFF71CFB62
:10347000012204490248FFF7C2FC0028F8D110BD20
:10348000B0010020780000207CB5264D2868016836
:10349000C943090704D40168416800910168416883
:1034A0000068204CC0438006A4F184042BD44FF064
:1034B000FF33012201A91B48FFF73EFCB4F880004E
:1034C0004FF40032C0F30E017F290BD29DF80400A7
:1034D0006054B4F8800002EBF0304FEA7040A4F87A
:1034E000800010E06FF30E00A4F88000C0F30E001F
:1034F0009DF804102154B4F8800002EBF0304FEA3C
:103500007040A4F8800028680168C943C90607D440
:1035100034F8801F41F40041218001684068009028
:103520007CBD000074020020FEE7490050EAC12083
:1035300018BF04204A0D18BF40F0010040F2FF728E
:10354000B2EB515F08BF40F00200012808BF052020
:1035500070470907090E002804DB00F1E02080F81D
:103560000014704700F00F0000F1E02080F8141DF7
:1035700070472DE9F0414F1E00EBC7010446D1E929
:10358000000115461E4637F006020DD02A46334686
:1035900004F0C2FD7F1E04EBC703D3E9002304F04F
:1035A000E3FA37F00602F1D1022F25D0042F13D011
:1035B000062F18BFBDE8F0812A46334604F0ACFD63
:1035C000D4E90A2304F0D0FA2A46334604F0A4FDD5
:1035D000D4E9082304F0C8FA2A46334604F09CFDD7
:1035E000D4E9062304F0C0FA2A46334604F094FDD9
:1035F000D4E9042304F0B8FA2A46334604F08CFDDB
:10360000D4E9022304F0B0FA2A46334604F084FDDC
:10361000D4E90023BDE8F04104F0A6BA012205F088
:1036200082BB0000024A0020110705F07CBB0000AD
:1036300001FDFFFF30380A2801D201207047002029
:10364000704770472DE9F84F04460D4621F00040C1
:1036500000917349814211DC7249884201DC06D134
:103660002CB120462946BDE8F84FFFF7D7BF6E487A
:10367000002DCCBF6D496E49BDE8F88F6D49814280
:1036800011DD6D498142D8BF4FF0FF366DDD204618
:103690002946FFF74AFF042808BFFFF7C3FF20466B
:1036A0002946BDE8F88F6549654F25F00045814200
:1036B00033DD6449814219DD002632464FF08043F4
:1036C0002046294604F050FA80468A4601222046C8
:1036D000294605F028FB00223B4604F043FF424602
:1036E000534604F0FDFA04460D463EE00126002252
:1036F000BA463B462046294604F036FA80460F4635
:10370000002253462046294604F02CFF42463B4601
:1037100004F0E6FA04460D4627E04B4981421BDDE2
:10372000DFF828A10226002253462046294604F04D
:10373000F3FC00223B4604F017FA80460F460022B5
:1037400053462046294604F00DFF42463B4604F00E
:10375000C7FA04460D4608E0032622462B46002001
:103760003B4904F0BDFA04460D4622462B4610465E
:10377000194604F0D1FC8B46824602460B4604F003
:10378000CBFC07460246334888460B460621784460
:10379000FFF7EFFE52465B4604F0BEFC82462E4821
:1037A0008B463A46434605217844FFF7E2FE3A4607
:1037B000434604F0B1FC02460B46002E50465946E3
:1037C0000CDA04F0D1F922462B4604F0A5FC01B036
:1037D00022462B46BDE8F04F04F0D2BD04F0C4F9F8
:1037E00022462B4604F098FC1C4A7A4402EBC6039E
:1037F000D3E9002304F0B6FE22462B4604F0B2FEC5
:10380000174A7A4402EBC603D3E9002304F0B8FD5B
:10381000009A002AB8BF81F00041BDE8F88F00008F
:10382000000010440000F07F182D4454FB21F93FA4
:10383000FB21F9BF0000DC3F0000203E0000F33F09
:103840000000F03F0000E63F008003400000F83F2A
:103850000000F0BFA686000064860000028600001B
:10386000CA85000070B500244FF4FA752A4606A1F7
:1038700006A000F02DF928B1641CE4B20A2CF5D39F
:10388000012070BD002070BD4F4B0000415400006E
:1038900010B54FF4FA72002803D0012806D0032097
:1038A00010BD07A107A000F013F903E004A107A0D1
:1038B00000F00EF908B1012010BD002010BD00007D
:1038C0004F4B000041544530000000004154453149
:1038D0000000000000B591B00B46024607A101A808
:1038E000FCF70AFD41F288320BA101A800F0F0F8C4
:1038F00010B1012011B000BD0020FBE741542B4363
:10390000495053544152543D22544350222C2225B5
:1039100073222C2573000000434F4E4E4543540044
:1039200070B54FF4FA752A4608A109A000F0D0F846
:1039300004462A460AA10BA000F0CAF82044C0B2EF
:1039400008B1012070BD002070BD00004F4B000089
:1039500041542B4349504D4F44453D310000000038
:103960003E00000041542B43495053454E44000053
:1039700001A000F02BB900002B2B2B0070B50546E1
:103980004FF4FA720CA10DA000F0A2F808B10120CA
:1039900070BD00F033F90CA1FCF738FE04460AA113
:1039A000601CFCF733FE00210170621C07A1284651
:1039B000FCF7A2FC002070BD4F4B000041542B438C
:1039C0004946535200000000220000002573000009
:1039D00000B585B00B48816941F0040181618069BF
:1039E00000F00400009010200190012002900020BF
:1039F00003900320049001A90348FEF741FA05B0A3
:103A000000BD0000001002400008014010B50A4C43
:103A1000002210212046FEF74CFB642000F018F92C
:103A2000012210212046FEF744FBBDE810404FF470
:103A3000FA7000F00DB900000008014010B504460E
:103A4000FFF7C6FFFFF7E2FF204600F0ABF8FFF7F5
:103A500009FF08B1012010BD002010BD00B591B0D4
:103A60000B46024607A101A8FCF746FC42F2107281
:103A700009A101A800F02CF810B1012011B000BD7F
:103A80000020FBE741542B43574A41503D22257308
:103A9000222C2225732200005749464920474F54C3
:103AA0002049500010B540F6B83204A105A000F03E
:103AB0000FF808B1012010BD002010BD72656164CF
:103AC0007900000041542B524553544F5245000099
:103AD00070B506460D46144600F0A0F831460DA01C
:103AE00000F074F805B184B9002070BD00F086F8CC
:103AF00038B12946FCF78AFD08B1002070BD00F0FE
:103B00008DF8641E012000F0A3F8002CEED10220F5
:103B100070BD000025730D0A0000000010B54FF4C1
:103B2000FA72012805D0022808D003280BD0032000
:103B300010BD09A109A0FFF7CBFF08E006A10AA06C
:103B4000FFF7C6FF03E004A10AA0FFF7C1FF08B119
:103B5000012010BD002010BD4F4B000041542B43ED
:103B6000574D4F44453D310041542B43574D4F4431
:103B7000453D320041542B43574D4F44453D3300A2
:103B800010B54FF4FA7204A104A0FFF7A1FF08B129
:103B9000012010BD002010BD4F4B000041542B529E
:103BA000535400000849074A0A60486000208860B2
:103BB000C86008610C224A618861C8610846FEF746
:103BC000FFBF000000480040740200200FB410B591
:103BD00003AA09480299FCF771FB0748FCF728FD86
:103BE00082B205494FF0FF33A1F14000FFF760F9C1
:103BF00010BC5DF814FB0000B40200200649B1F8C7
:103C00008000020405D5C0F30E0000220A540846C5
:103C10007047002070470000F00100200349088829
:103C20006FF30E0020F400400880704770020020FF
:103C300010B504464FF0E022002111610020FEF78C
:103C4000F1FD0249E008088010BD0000720000206C
:103C500070B54FF47A71B0FBF1F4B0FBF1F201FBF7
:103C60001205094E03E0304600F010F8641E002CE7
:103C7000F9D1002D06D04FF47A706843BDE870404A
:103C800000F004B870BD000040420F000B490988E5
:103C900048434FF0E021486100238B61086940F000
:103CA000010008610869C20701D0C003FAD508699C
:103CB00020F0010008618B61704700007200002055
:103CC00010B5002804D0BDE8104008A0FFF77EBF63
:103CD000FFF7C8FD20B1BDE810400EA0FCF700BB07
:103CE000BDE8104010A0FCF7FBBA000054686973EF
:103CF0002041544B2D4D57383236364420544350D2
:103D000020436F6E6E65637420546573742E0D0AC4
:103D10000000000041542074657374206661696C72
:103D20006564210D0A0000004154207465737420FD
:103D300073756363657373210D0A000010B5044643
:103D40002078002808D0FFF713FE00202070BDE87F
:103D5000104009A0FCF7C4BAFFF7E2FD20B1BDE8AE
:103D600010400AA0FCF7BCBA01202070BDE810404A
:103D70000DA0FCF7B5BA00004578697420756E7621
:103D800061726E6973686564210D0A00456E746521
:103D90007220756E7661726E697368656420666103
:103DA000696C6564210D0A00456E74657220756E3C
:103DB0007661726E6973686564210D0A0000000007
:103DC00088B0002003904FF4E130FFF737FEB94C84
:103DD00050B1B9A0FCF784FA20212046FEF761F922
:103DE000C820FFF735FFF7E7BAA0FCF779FAC0A0C3
:103DF000FCF776FAFFF756FE0546FFF733FD05445C
:103E00000120FFF78BFE0544FFF7BAFE05440020B2
:103E1000FFF73EFD0544BBA1BDA0FFF71FFE054413
:103E200004A8FFF7ABFD2844C0B250B1BAA0FCF71C
:103E300057FA20212046FEF734F9C820FFF708FF83
:103E4000F7E704A800F09EF9B8A1BAA0FFF742FD79
:103E500050B1BCA0FCF744FA20212046FEF721F91E
:103E6000C820FFF7F5FEF7E7FFF7D8FEBD4C0020AE
:103E700000F034FB0746012F02D0022F08D104E0E6
:103E80009DF80C00FFF71CFF02E003A8FFF756FFA8
:103E90009DF80C0000F08EF90A20FFF7D9FE4FF6CE
:103EA000FF7000F06DFB28260025AE485830FCF767
:103EB000BFFB8146DFF8AC82AA464FF4784B08F18D
:103EC00058080EE0CDE900AB18F80520B0B2102379
:103ED0008C2103F043FB18F80500292807D06D1C3E
:103EE0000A36B9F1000F02D060680128EAD098F8CC
:103EF0000900282801D101206060032F05D1D4E9F1
:103F0000080181F00041C4E90801B4F9000004F09F
:103F10009CF8D4E9082304F025FB05460E46C4E9C5
:103F20000E01B4F9020004F090F8D4E90A2304F079
:103F300019FBC4E910012A4633462846314604F0ED
:103F4000EBF805460E46D4E90C0102460B4604F098
:103F5000E3F82A46334603F007FE03F043FD04F07E
:103F600017F80746D4E90C23D4E90E0103F0B8FE94
:103F7000FFF768FB05460E46C4E91201384604F017
:103F800064F802460B46D4E9100103F0A9FEFFF7DE
:103F900059FB07468846C4E91401DFF8CCA100228A
:103FA00053462846314604F0B7F8D4E906231546AF
:103FB0001E4603F095FEDFF8B4B100225B4604F024
:103FC000DFF903F09FFD8146A0600022534638468A
:103FD000414604F0A1F82A46334603F081FE002250
:103FE0005B4604F0CDF903F08DFD0546E060604EC0
:103FF0004846314604F034FC5E4F394604F012FD69
:10400000DFF87481414604F0C3FBDFF870A151462C
:1040100004F0D4FD20613146284604F021FC3946E5
:1040200004F000FD414604F0B3FB514604F0C6FD28
:1040300060610321484604F0A4FE04F07DFB0746BE
:1040400088460321284604F09CFE04F075FB0546D3
:104050000E462A4633463846414604F05BF90ED2F6
:104060003846414603F0C4FF02461F201021CDE927
:1040700000100223C821502003F0E6FA0DE0284684
:10408000314603F0B5FF02461F201021CDE9001094
:104090000223C821502003F0D7FA206904F0A2FCC3
:1040A000374D29684863606904F09CFC296888637F
:1040B000DDE60000000C014041544B2D4D573832D5
:1040C00036364420696E6974206661696C656421C6
:1040D0000D0A000041544B2D4D57383236364420DE
:1040E000696E69742053756363657373210D0A00EB
:1040F0004A6F696E696E6720746F2041502E2E2EB4
:104100000D0A0000313233343536373800000000F4
:10411000616E6979000000004572726F7220746FE1
:10412000206A6F696E206170210D0A0038303830C6
:10413000000000003139322E3136382E332E313521
:10414000000000004572726F7220746F20636F6E02
:104150006E65637420746370207365727665722176
:104160000D0A0000080000200080664000805640D4
:10417000000034430000FA440000FA4300409C462B
:104180003C0300203EB50446214607A0FCF7A8F8F2
:104190001F22CDE901421020034600908022972182
:1041A0003C2003F08FFA3EBD49503A2025730D0A9A
:1041B000000000002DE9F041012871D1FFF71EFD3C
:1041C00000286DD0814D017869724778AF7281788F
:1041D000E972C6782E7303796B734279AA73847976
:1041E000EC7390F8078085F8108090F808C085F887
:1041F00011C0583D6FF02F0C2D2F23D02D2E71D0D4
:104200002D2B6FD02C296ED0292A6DD0303F07EB93
:1042100087000CEB400008442880303B03EB830010
:104220000CEB400010446880B5F9001068A0FCF762
:1042300057F8B5F9021068A0FCF752F8BDE8F04154
:10424000FFF7ECBC2D2B15D02D2A13D02C2E4CD0E3
:10425000292C5DD0303901EB810006EB4000C0F124
:1042600030002880303A02EB82000CEB4000204402
:104270006880D9E72C2E14D0B8F1290F26D0303918
:1042800001EB810006EB4000C0F130002880303C9B
:1042900004EB840008EB4000C0F130006880C3E705
:1042A00092E0292C0BD0303948422880303A02EB7A
:1042B000820004EB4000C0F130006880B4E7303980
:1042C00048422880303A50426880ADE7303901EBEF
:1042D000810006EB4000C0F130002880303C604295
:1042E0006880A1E71FE050E064E0292A0AD0303955
:1042F00048422880303B03EB83000CEB4000104425
:10430000688091E7303948422880303B6B808BE7EA
:10431000303901EB810006EB4000C0F1300028800D
:10432000303A6A8080E72C2911D0292C22D0303FE6
:1043300007EB87000CEB400008442880303A02EB82
:10434000820004EB4000C0F1300068806CE7292A4D
:104350000AD0303F2F80303B03EB830002EB40005C
:10436000C0F1300068805FE7303F2F80303B58421B
:10437000688059E7303F07EB87000CEB40000844AA
:104380002880303A504268804EE7292B0BD0417884
:1043900030392980C078303800EB80000CEB4000C9
:1043A0001844688040E7417830392980C078303837
:1043B000688039E7303F07EB87000CEB400008448A
:1043C0002880303B6B802FE7BDE8F0816000002043
:1043D0002825642C0900000025642909000000003C
:1043E00004490A685206FCD5024AC1B2121D116086
:1043F000704700000038014030B587B004460D46D4
:104400001C216846FCF733F9124A114810605560C8
:1044100000209060D4601046FEF78FFA6020009074
:104420006008019002200290002269460948FEF7C8
:104430001BFA042269460748FEF716FA00210548D0
:10444000FEF7CCFA04210348FEF7C8FA07B030BDE6
:10445000000400403C030020F0B585B01C48816991
:1044600041F040018161816901F040010091816961
:1044700041F040018161816901F040010091816951
:1044800041F004018161806900F004000090102077
:1044900001900024029401250395032604960D4FF4
:1044A00001A93846FDF7ECFC08210191029403951F
:1044B000049601A93846FDF7E3FC01950294022019
:1044C0000390049601A90448FDF7DAFC05B0F0BD9D
:1044D0000010024000180140000801402DE9F041A1
:1044E00000240126234D002800D02E702878DFF804
:1044F0008880224F78B110213846FDF7CBFD88B176
:1045000008213846FDF7C6FD60B101214046FDF7A0
:10451000C1FD012806D010213846FDF7BBFD01285A
:1045200019D024E00A20FFF793FB00202870102107
:104530003846FDF7AFFD00B9012408213846FDF7E4
:10454000A9FD00B9022401214046FDF7A3FD012881
:104550000DD103240BE008213846FDF79BFD01280F
:1045600005D101214046FDF795FD00B92E7020468A
:10457000BDE8F0818C0000200008014000180140D7
:1045800070B505460024084908884E884643002136
:10459000084602F061FF03F0FDF8044901E00D80D8
:1045A000641CB442FBD370BDD80000200008006C2E
:1045B0002DE9F04F3A4B987119462C272B252A26C6
:1045C00089884FF430584FF4285941F6631A4FF058
:1045D000F00B45F2105E4FF448744FF4A07C4FF49A
:1045E000F07200280ED0A3F800C0A3F802B0714505
:1045F00035D1A3F80880A3F80A90280298811C807E
:104600005A8035E0A3F800B0A3F802C0714509D183
:10461000A3F80880A3F80A904FF42C5098811A80D0
:104620005C800AE0514505D11F815D819E811A8021
:104630005C8002E01F815E819D81A1F5A64010385B
:1046400003D0A1F5EE40963802D1A3F800C05A80FD
:10465000A1F5184006381DD11A805C801AE051453A
:104660000FD0A1F5184006380BD01F815E819D81C7
:10467000A1F5A64010380AD0A1F5EE40963806D034
:1046800008E01F815E819D811C805A80F0E71A80BE
:10469000A3F802C0BDE8F04F002002F005BE000004
:1046A000D800002010B5144602F0D6FE03F072F8D0
:1046B0000148048010BD00000008006C10B5CF2038
:1046C00003F05CF8002003F04DF8C12003F04AF835
:1046D000302003F047F8ED2003F050F8642003F099
:1046E00041F8032003F03EF8122003F03BF881204C
:1046F00003F038F8E82003F041F8852003F032F8A1
:10470000102003F02FF87A2003F02CF8CB2003F0D0
:1047100035F8392003F026F82C2003F023F8002088
:1047200003F020F8342003F01DF8022003F01AF8FB
:10473000F72003F023F8202003F014F8EA2003F018
:104740001DF8002003F00EF8002003F00BF8C02045
:1047500003F014F81B2003F005F8C12003F00EF855
:10476000012002F0FFFFC52003F008F8302002F01E
:10477000F9FF302002F0F6FFC72002F0FFFFB7205C
:1047800002F0F0FF362002F0F9FF482002F0EAFFC5
:104790003A2002F0F3FF552002F0E4FFB12002F0CE
:1047A000EDFF002002F0DEFF1A2002F0DBFFB62052
:1047B00002F0E4FF0A2002F0D5FFA22002F0D2FFAF
:1047C000F22002F0DBFF002002F0CCFF262002F0F6
:1047D000D5FF012002F0C6FFE02002F0CFFF0F203E
:1047E00002F0C0FF2A2002F0BDFF282002F0BAFF2D
:1047F000082002F0B7FF0E2002F0B4FF082002F0FC
:10480000B1FF542002F0AEFFA92002F0ABFF43201D
:1048100002F0A8FF0A2002F0A5FF0F2002F0A2FF7D
:10482000002002F09FFF002002F09CFF002002F019
:1048300099FF002002F096FFE12002F09FFF002088
:1048400002F090FF152002F08DFF172002F08AFF82
:10485000072002F087FF112002F084FF062002F0FB
:1048600081FF2B2002F07EFF562002F07BFF3C20D0
:1048700002F078FF052002F075FF102002F072FFB1
:104880000F2002F06FFF3F2002F06CFF3F2002F08C
:1048900069FF0F2002F066FF2B2002F06FFF00205F
:1048A00002F060FF002002F05DFF012002F05AFFDD
:1048B0003F2002F057FF2A2002F060FF002002F0A4
:1048C00051FF002002F04EFF002002F04BFFEF20CE
:1048D00002F048FF112002F051FF7820FFF7B8F9ED
:1048E000BDE81040292002F049BF10B5FF2002F0BA
:1048F00045FFFF2002F036FF982002F033FF06202C
:1049000002F030FFBC2002F039FF012002F02AFF44
:104910000F2002F027FF612002F024FFFF2002F0A9
:1049200021FF012002F01EFF012002F01BFF0B20DF
:1049300002F018FF102002F015FF372002F012FFDE
:10494000632002F00FFFFF2002F00CFFFF2002F0B7
:1049500009FF012002F006FF012002F003FF002002
:1049600002F000FF002002F0FDFEFF2002F0FAFE40
:10497000522002F0F7FE012002F0F4FE002002F0C7
:10498000F1FE402002F0EEFEBD2002F0F7FE012015
:1049900002F0E8FE232002F0E5FE452002F0E2FEF0
:1049A000672002F0DFFE012002F0DCFE232002F08F
:1049B000D9FE452002F0D6FE672002F0D3FEBE20CD
:1049C00002F0DCFE002002F0CDFE012002F0CAFE63
:1049D000AB2002F0C7FE602002F0C4FE222002F0ED
:1049E000C1FE222002F0BEFE222002F0BBFE2220E9
:1049F00002F0B8FE222002F0B5FEC72002F0BEFE93
:104A0000362002F0AFFEED2002F0B8FE7F2002F06B
:104A1000A9FE0F2002F0A6FEC02002F0AFFE0F207C
:104A200002F0A0FE0B2002F09DFE0A2002F09AFE8A
:104A3000FC2002F0A3FE082002F094FEDF2002F02A
:104A40009DFE002002F08EFE002002F08BFE002072
:104A500002F088FE002002F085FE002002F082FEB7
:104A6000202002F07FFEF32002F088FE742002F086
:104A700079FEB42002F082FE002002F073FE0020D6
:104A800002F070FE002002F06DFEF72002F076FECC
:104A9000822002F067FEB12002F070FE002002F0DA
:104AA00061FE132002F05EFE132002F05BFEF22096
:104AB00002F064FE802002F055FE042002F052FE57
:104AC000402002F04FFE282002F04CFEC12002F0F0
:104AD00055FE172002F046FE882002F043FE882093
:104AE00002F040FE202002F03DFEE02002F046FEF3
:104AF000002002F037FE0A2002F034FE122002F0FD
:104B000031FE102002F02EFE0E2002F02BFE20209F
:104B100002F028FECC2002F025FE072002F022FE43
:104B2000062002F01FFE0B2002F01CFE0E2002F0F9
:104B300019FE0F2002F016FE0D2002F013FE1520C4
:104B400002F010FE102002F00DFE002002F00AFE1E
:104B5000E12002F013FE002002F004FE0B2002F020
:104B600001FE132002F0FEFD0D2002F0FBFD0E20E1
:104B700002F0F8FD1B2002F0F5FD712002F0F2FDBD
:104B8000062002F0EFFD062002F0ECFD0A2002F004
:104B9000E9FD0F2002F0E6FD0E2002F0E3FD0F20FC
:104BA00002F0E0FD152002F0DDFD0C2002F0DAFD40
:104BB000002002F0D7FD2A2002F0E0FD002002F0E4
:104BC000D1FD002002F0CEFD012002F0CBFDDF2060
:104BD00002F0C8FD2B2002F0D1FD002002F0C2FD42
:104BE000002002F0BFFD032002F0BCFD1F2002F0F8
:104BF000B9FD3A2002F0C2FD552002F0B3FD362087
:104C000002F0BCFD002002F0ADFD112002F0B6FD67
:104C10007820FFF71DF8292002F0B0FD1420FFF7DF
:104C200017F8BDE810402C2002F0A8BD10B5ED200B
:104C300002F0A4FD012002F095FDFE2002F092FD9D
:104C4000EE2002F09BFDDE2002F08CFD212002F020
:104C500089FDF12002F092FD012002F083FDDF20AA
:104C600002F08CFD102002F07DFDC42002F086FDD4
:104C70008F2002F077FDC62002F080FD002002F0B8
:104C800071FDE22002F06EFDE22002F06BFDE220F9
:104C900002F068FDBF2002F071FDAA2002F062FD63
:104CA000B02002F06BFD0D2002F05CFD002002F050
:104CB00059FD0D2002F056FD002002F053FD112099
:104CC00002F050FD002002F04DFD192002F04AFDD7
:104CD000002002F047FD212002F044FD002002F0F8
:104CE00041FD2D2002F03EFD002002F03BFD3D2065
:104CF00002F038FD002002F035FD5D2002F032FDAB
:104D0000002002F02FFD5D2002F02CFD002002F0BB
:104D100029FDB12002F032FD802002F023FD0020A9
:104D200002F020FD8B2002F01DFD002002F01AFD94
:104D3000962002F017FD002002F014FDB22002F0D0
:104D40001DFD002002F00EFD002002F00BFD0220F0
:104D500002F008FD002002F005FD032002F002FD34
:104D6000002002F0FFFCB32002F008FD002002F05A
:104D7000F9FC002002F0F6FC002002F0F3FC002019
:104D800002F0F0FC002002F0EDFC002002F0EAFC52
:104D9000002002F0E7FC002002F0E4FC002002F01A
:104DA000E1FC002002F0DEFC002002F0DBFC002031
:104DB00002F0D8FC002002F0D5FC002002F0D2FC6A
:104DC000002002F0CFFC002002F0CCFC002002F01A
:104DD000C9FC002002F0C6FC002002F0C3FC002049
:104DE00002F0C0FC002002F0BDFC002002F0BAFC82
:104DF000002002F0B7FC002002F0B4FCB42002F066
:104E0000BDFC8B2002F0AEFC002002F0ABFC962033
:104E100002F0A8FC002002F0A5FCA12002F0A2FCF8
:104E2000002002F09FFCB52002F0A8FC022002F056
:104E300099FC002002F096FC032002F093FC002075
:104E400002F090FC042002F08DFC002002F08AFCAD
:104E5000B62002F093FC002002F084FC002002F057
:104E600081FCB72002F08AFC002002F07BFC0020CD
:104E700002F078FC3F2002F075FC002002F072FC8A
:104E80005E2002F06FFC002002F06CFC642002F057
:104E900069FC002002F066FC8C2002F063FC00201C
:104EA00002F060FCAC2002F05DFC002002F05AFC35
:104EB000DC2002F057FC002002F054FC702002F0CD
:104EC00051FC002002F04EFC902002F04BFC002030
:104ED00002F048FCEB2002F045FC002002F042FC0E
:104EE000DC2002F03FFC002002F03CFCB82002F085
:104EF00045FC002002F036FC002002F033FC0020CC
:104F000002F030FC002002F02DFC002002F02AFC10
:104F1000002002F027FC002002F024FC002002F018
:104F200021FCBA2002F02AFC242002F01BFC002005
:104F300002F018FC002002F015FC002002F012FC28
:104F4000C12002F01BFC202002F00CFC002002F02B
:104F500009FC542002F006FC002002F003FCFF20B4
:104F600002F000FC002002F0FDFBC22002F006FC73
:104F70000A2002F0F7FB002002F0F4FB042002F00C
:104F8000F1FB002002F0EEFBC32002F0F7FB3C2017
:104F900002F0E8FB002002F0E5FB3A2002F0E2FB21
:104FA000002002F0DFFB392002F0DCFB002002F0E1
:104FB000D9FB372002F0D6FB002002F0D3FB3C20C7
:104FC00002F0D0FB002002F0CDFB362002F0CAFB3D
:104FD000002002F0C7FB322002F0C4FB002002F0E8
:104FE000C1FB2F2002F0BEFB002002F0BBFB2C20F7
:104FF00002F0B8FB002002F0B5FB292002F0B2FB62
:10500000002002F0AFFB262002F0ACFB002002F0F3
:10501000A9FB242002F0A6FB002002F0A3FB242021
:1050200002F0A0FB002002F09DFB232002F09AFB7F
:10503000002002F097FB3C2002F094FB002002F0DD
:1050400091FB362002F08EFB002002F08BFB322019
:1050500002F088FB002002F085FB2F2002F082FB8B
:10506000002002F07FFB2C2002F07CFB002002F0ED
:1050700079FB292002F076FB002002F073FB26204A
:1050800002F070FB002002F06DFB242002F06AFBAE
:10509000002002F067FB242002F064FB002002F0F5
:1050A00061FB232002F05EFB002002F05BFBC420CA
:1050B00002F064FB622002F055FB002002F052FB7C
:1050C000052002F04FFB002002F04CFB842002F090
:1050D00049FB002002F046FBF02002F043FB0020D9
:1050E00002F040FB182002F03DFB002002F03AFBEA
:1050F000A42002F037FB002002F034FB182002F05D
:1051000031FB002002F02EFB502002F02BFB002090
:1051100002F028FB0C2002F025FB002002F022FB0D
:10512000172002F01FFB002002F01CFB952002F06C
:1051300019FB002002F016FBF32002F013FB002005
:1051400002F010FBE62002F00DFB002002F00AFB4B
:10515000C52002F013FB322002F004FB002002F015
:1051600001FB442002F0FEFA002002F0FBFA652069
:1051700002F0F8FA002002F0F5FA762002F0F2FAD6
:10518000002002F0EFFA882002F0ECFA002002F092
:10519000E9FAC62002F0F2FA202002F0E3FA002039
:1051A00002F0E0FA172002F0DDFA002002F0DAFA4D
:1051B000012002F0D7FA002002F0D4FAC72002F052
:1051C000DDFA002002F0CEFA002002F0CBFA002037
:1051D00002F0C8FA002002F0C5FAC82002F0CEFAA8
:1051E000002002F0BFFA002002F0BCFA002002F01A
:1051F000B9FA002002F0B6FAC92002F0BFFA002086
:1052000002F0B0FA002002F0ADFA002002F0AAFA93
:10521000002002F0A7FA002002F0A4FA002002F019
:10522000A1FA002002F09EFA002002F09BFA002072
:1052300002F098FA002002F095FA002002F092FAAB
:10524000002002F08FFA002002F08CFA002002F019
:1052500089FA002002F086FA002002F083FAE020AA
:1052600002F08CFA162002F07DFA002002F07AFAA1
:105270001C2002F077FA002002F074FA212002F0DC
:1052800071FA002002F06EFA362002F06BFA00206C
:1052900002F068FA462002F065FA002002F062FA95
:1052A000522002F05FFA002002F05CFA642002F063
:1052B00059FA002002F056FA7A2002F053FA002040
:1052C00002F050FA8B2002F04DFA002002F04AFA68
:1052D000992002F047FA002002F044FAA82002F0D8
:1052E00041FA002002F03EFAB92002F03BFA002019
:1052F00002F038FAC42002F035FA002002F032FA47
:10530000CA2002F02FFA002002F02CFAD22002F07C
:1053100029FA002002F026FAD92002F023FA002010
:1053200002F020FAE02002F01DFA002002F01AFA42
:10533000F32002F017FA002002F014FAE12002F044
:105340001DFA162002F00EFA002002F00BFA1C20C3
:1053500002F008FA002002F005FA222002F002FA18
:10536000002002F0FFF9362002F0FCF9002002F0E4
:10537000F9F9452002F0F6F9002002F0F3F9522085
:1053800002F0F0F9002002F0EDF9642002F0EAF9F1
:10539000002002F0E7F97A2002F0E4F9002002F0A0
:1053A000E1F98B2002F0DEF9002002F0DBF9992010
:1053B00002F0D8F9002002F0D5F9A82002F0D2F9C5
:1053C000002002F0CFF9B92002F0CCF9002002F061
:1053D000C9F9C42002F0C6F9002002F0C3F9CA20BE
:1053E00002F0C0F9002002F0BDF9D22002F0BAF9B3
:1053F000002002F0B7F9D82002F0B4F9002002F042
:10540000B1F9E02002F0AEF9002002F0ABF9F32090
:1054100002F0A8F9002002F0A5F9E22002F0AEF9AE
:10542000052002F09FF9002002F09CF90B2002F009
:1054300099F9002002F096F91B2002F093F9002060
:1054400002F090F9342002F08DF9002002F08AF980
:10545000442002F087F9002002F084F94F2002F086
:1054600081F9002002F07EF9612002F07BF9002032
:1054700002F078F9792002F075F9002002F072F953
:10548000882002F06FF9002002F06CF9972002F0FA
:1054900069F9002002F066F9A62002F063F9002005
:1054A00002F060F9B72002F05DF9002002F05AF92D
:1054B000C22002F057F9002002F054F9C72002F090
:1054C00051F9002002F04EF9D12002F04BF90020F2
:1054D00002F048F9D62002F045F9002002F042F926
:1054E000DD2002F03FF9002002F03CF9F32002F049
:1054F00039F9002002F036F9E32002F03FF90520E7
:1055000002F030F9002002F02DF90A2002F02AF909
:10551000002002F027F91C2002F024F9002002F0FC
:1055200021F9332002F01EF9002002F01BF944207B
:1055300002F018F9002002F015F9502002F012F9DB
:10554000002002F00FF9622002F00CF9002002F0B6
:1055500009F9782002F006F9002002F003F988200A
:1055600002F000F9002002F0FDF8972002F0FAF8AE
:10557000002002F0F7F8A62002F0F4F8002002F074
:10558000F1F8B72002F0EEF8002002F0EBF8C220AC
:1055900002F0E8F8002002F0E5F8C72002F0E2F897
:1055A000002002F0DFF8D12002F0DCF8002002F049
:1055B000D9F8D52002F0D6F8002002F0D3F8DD208B
:1055C00002F0D0F8002002F0CDF8F32002F0CAF883
:1055D000002002F0C7F8E42002F0D0F8012002F029
:1055E000C1F8002002F0BEF8012002F0BBF8002054
:1055F00002F0B8F8022002F0B5F8002002F0B2F88C
:105600002A2002F0AFF8002002F0ACF83C2002F0B3
:10561000A9F8002002F0A6F84B2002F0A3F8002021
:1056200002F0A0F85D2002F09DF8002002F09AF848
:10563000742002F097F8002002F094F8842002F021
:1056400091F8002002F08EF8932002F08BF80020F1
:1056500002F088F8A22002F085F8002002F082F81B
:10566000B32002F07FF8002002F07CF8BE2002F0A8
:1056700079F8002002F076F8C42002F073F80020D8
:1056800002F070F8CD2002F06DF8002002F06AF808
:10569000D32002F067F8002002F064F8DD2002F069
:1056A00061F8002002F05EF8F32002F05BF80020C1
:1056B00002F058F8E52002F061F8002002F052F8FC
:1056C000002002F04FF8002002F04CF8002002F019
:1056D00049F8022002F046F8002002F043F82920A1
:1056E00002F040F8002002F03DF83C2002F03AF8C9
:1056F000002002F037F84B2002F034F8002002F0CE
:1057000031F85D2002F02EF8002002F02BF8742012
:1057100002F028F8002002F025F8842002F022F898
:10572000002002F01FF8932002F01CF8002002F085
:1057300019F8A22002F016F8002002F013F8B320A6
:1057400002F010F8002002F00DF8BE2002F00AF876
:10575000002002F007F8C42002F004F8002002F054
:1057600001F8CD2001F0FEFF002001F0FBFFD32067
:1057700001F0F8FF002001F0F5FFDC2001F0F2FF5E
:10578000002001F0EFFFF32001F0ECFF002001F01A
:10579000E9FFE62001F0F2FF112001F0E3FF002015
:1057A00001F0E0FF342001F0DDFF002001F0DAFF1E
:1057B000562001F0D7FF002001F0D4FF762001F041
:1057C000D1FF002001F0CEFF772001F0CBFF0020B9
:1057D00001F0C8FF662001F0C5FF002001F0C2FF04
:1057E000882001F0BFFF002001F0BCFF992001F0EC
:1057F000B9FF002001F0B6FFBB2001F0B3FF00208D
:1058000001F0B0FF992001F0ADFF002001F0AAFFE8
:10581000662001F0A7FF002001F0A4FF552001F051
:10582000A1FF002001F09EFF552001F09BFF00200A
:1058300001F098FF452001F095FF002001F092FF54
:10584000432001F08FFF002001F08CFF442001F085
:1058500089FF002001F086FFE72001F08FFF322052
:1058600001F080FF002001F07DFF552001F07AFF5C
:10587000002001F077FF762001F074FF002001F096
:1058800071FF662001F06EFF002001F06BFF6720C2
:1058900001F068FF002001F065FF672001F062FF62
:1058A000002001F05FFF872001F05CFF002001F085
:1058B00059FF992001F056FF002001F053FFBB2053
:1058C00001F050FF002001F04DFF992001F04AFF48
:1058D000002001F047FF772001F044FF002001F095
:1058E00041FF442001F03EFF002001F03BFF562025
:1058F00001F038FF002001F035FF232001F032FFD6
:10590000002001F02FFF332001F02CFF002001F0D8
:1059100029FF452001F026FF002001F023FFE820A9
:1059200001F02CFF002001F01DFF002001F01AFF04
:10593000992001F017FF002001F014FF872001F0EB
:1059400011FF002001F00EFF882001F00BFF002066
:1059500001F008FF772001F005FF002001F002FFB1
:10596000662001F0FFFE002001F0FCFE882001F01F
:10597000F9FE002001F0F6FEAA2001F0F3FE00205F
:1059800001F0F0FEBB2001F0EDFE002001F0EAFE88
:10599000992001F0E7FE002001F0E4FE662001F00E
:1059A000E1FE002001F0DEFE552001F0DBFE0020CC
:1059B00001F0D8FE552001F0D5FE002001F0D2FE06
:1059C000442001F0CFFE002001F0CCFE442001F085
:1059D000C9FE002001F0C6FE552001F0C3FE0020E4
:1059E00001F0C0FEE92001F0C9FEAA2001F0BAFED4
:1059F000002001F0B7FE002001F0B4FE002001F00D
:105A0000B1FE002001F0BAFEAA2001F0ABFECF20CB
:105A100001F0B4FE002001F0A5FE002001F0A2FE7E
:105A2000002001F09FFE002001F09CFE002001F00C
:105A300099FE002001F096FE002001F093FE002068
:105A400001F090FE002001F08DFE002001F08AFEA2
:105A5000002001F087FE002001F084FE002001F00C
:105A600081FE002001F07EFE002001F07BFE002080
:105A700001F078FE002001F075FEF02001F07EFEBE
:105A8000002001F06FFE502001F06CFE002001F0BC
:105A900069FE002001F066FE002001F063FEF320A5
:105AA00001F06CFE002001F05DFEF92001F066FEC1
:105AB000062001F057FE102001F054FE292001F0CD
:105AC00051FE002001F04EFE3A2001F057FE552015
:105AD00001F048FE112001F051FE6420FEF7B8F8F5
