:020000040800F2
:1000000010060020AD010008912600081523000805
:1000100019260008290A000887300008000000009F
:10002000000000000000000000000000672A000837
:10003000DD0A000800000000652A0008692A00089F
:10004000C7010008C7010008C7010008C701000870
:10005000C7010008C7010008C7010008C701000860
:10006000C7010008C7010008C7010008C701000850
:10007000C7010008C7010008C7010008C701000840
:10008000C7010008C7010008C70100080000000000
:10009000000000000000000000000000C701000890
:1000A000C70100080D2B0008C7010008C7010008A0
:1000B000C7010008C7010008C7010008C701000800
:1000C000C7010008C7010008C7010008C7010008F0
:1000D000C7010008C7010008C701000800000000B0
:1000E000C7010008C7010008C701000800000000A0
:1000F000000000000000000000000000C701000830
:1001000000000000C7010008C7010008C70100087F
:1001100000000000000000000000000000000000DF
:100120002D0A0008C7010008C7010008C701000820
:10013000C7010008000000000000000000000000EF
:10014000000000000000000000000000C7010008DF
:10015000C7010008C7010008C7010008C70100085F
:10016000C7010008C70100080000000000000000EF
:10017000000000000000000000000000000000007F
:1001800000000000C701000800000000000000009F
:10019000C7010008C7010008DFF80CD000F056FBCB
:1001A000004800479D390008100600200648804797
:1001B00006480047FEE7FEE7FEE7FEE7FEE7FEE74C
:1001C000FEE7FEE7FEE7FEE7FD2A000899010008CA
:1001D0002DE9F05F0546002092469B46884606467C
:1001E000814640241BE0284641464746224600F00F
:1001F0005EFA53465A46C01A914110D3114618462A
:10020000224600F045FA2D1A67EB01084F462246B8
:100210000120002100F03CFA17EB00094E41201E9E
:10022000A4F10104DFDC484631462A464346BDE8D6
:10023000F09FD2B201E000F8012B491EFBD27047BB
:100240000022F6E710B513460A4604461946FFF7A2
:10025000F0FF204610BD2DE9FE4F804681EA0300E5
:10026000C00F0C46009021F0004123F00045B8EB90
:100270000200A94105D24046214690461C460B4645
:10028000024623F00040104347D0270DC7F30A0071
:10029000C3F30A510290401A019040286BDAC3F36D
:1002A000130040F4801B0098924620B10023D2EB4B
:1002B000030A63EB0B0B01985946C0F1400250460C
:1002C00000F0E6F906460D4650465946019A00F000
:1002D000FEF910EB08006141002487EA115284EA1C
:1002E000E7731A4340D0009A62B3019A012A4FEA99
:1002F000075215DC001B61EB02014FF0004202EADD
:100300000752CDE90042001C41F5801132462B46D0
:1003100000F035FA03B0BDE8F08F40462146F9E71A
:10032000001B61EB0201001C41F5801300185B41CA
:100330002018A2F5001747EB030140EAD570B61963
:100340006D4111E06D084FEA360645EAC0754FEA87
:100350000752001B61EB0201001C41F580114908A6
:100360004FEA30000019514132462B4603B0BDE838
:10037000F04F00F0F5B90098012240000023D0EBC7
:10038000020263EBE073009821464FEAE074B8EB99
:10039000000061EB0401E9E783F000435BE781F0D3
:1003A000004158E72DE9FE4F81EA030404F00044C0
:1003B00021F0004100944FF0000B23F0004350EA7D
:1003C00001045ED052EA03045BD0C3F30A54C1F3C4
:1003D0000A552C44A4F2F3340194A0FB0254C1F357
:1003E000130141F48011C3F3130343F4801301FBA1
:1003F000024400FB034E840A970A44EA815447EA08
:100400008357A4FB076802958D0A05FB07854FEA11
:10041000932C04FB0C542705029D4FEA065847EA2B
:100420001637B5EB08056EEB070C870E920E47EA00
:10043000811742EA8312A7FB0201B6EB0B0164EBC2
:1004400000042B0D43EA0C335E1844EB1C50DA46D3
:100450005146E7FB0201C5F313044FEA0B3343EAAD
:1004600014534FEA0432019C43EA0603A4F10C043E
:100470000294009CCDE900B400F081F903B0BDE81E
:10048000F08F00200146F9E72DE9F04D81EA0304E1
:1004900004F0004B21F0004514464FF0000A23F011
:1004A000004150EA050220D054EA01021DD0C5F3F4
:1004B0000A570246C5F31303C1F31300C1F30A56EA
:1004C00040F4801543F48013A7EB0608101BD646B2
:1004D00008F2FD3873EB050002D308F1010801E0D2
:1004E00092185B41B8F1000F03DA00200146BDE825
:1004F000F08D00204FF48011064684460EE0171B55
:1005000073EB050705D3121B63EB050306434CEAA7
:10051000010C49084FEA300092185B4150EA01078C
:10052000EDD152EA030012D082EA040083EA050109
:10053000084305D0101BAB4106D20122002306E080
:1005400000224FF0004302E06FF0010253101AEB5B
:1005500006004CEB085110EB0A0041EB0B01BDE823
:10056000F04D00F0FDB80EB5C10F80EAE070084410
:10057000CA07002140F233438DE80E000A460B46BD
:1005800000F0FDF803B000BD0EB540F2334102911A
:100590000021CDE900110A460B4600F0F0F803B047
:1005A00000BDC1F30A5210B5C1F3130140F2FF338D
:1005B00041F480119A4201DA002010BD40F2334329
:1005C0009A42A2F2334203DC524200F070F810BDAE
:1005D000904010BD00F0004230F000400AD0C10D44
:1005E00001F56071C0F3160042EA0151C2084007EC
:1005F00011437047002001467047000030B5041ECB
:1006000071F1000404DB4FF00044404264EB01014F
:10061000141E73F1000405DB1C464FF000435242E8
:1006200063EB0403994208BF904230BD01F00043E0
:1006300030B421F0004150EA010206D00A0DA2F5C3
:100640006072C1F31301002A02DC30BC0020704745
:10065000440F44EAC104C100E01830BC00EBC250B2
:1006600000F047B830B50B46014600202022012497
:1006700009E021FA02F59D4205D303FA02F5491B70
:1006800004FA02F52844151EA2F10102F1DC30BD86
:10069000202A04DB203A00FA02F100207047914042
:1006A000C2F1200320FA03F3194390407047202A37
:1006B00004DB203A21FA02F00021704721FA02F30C
:1006C000D040C2F120029140084319467047202AC9
:1006D00006DBCB17203A41FA02F043EAE07306E06A
:1006E00041FA02F3D040C2F120029140084319467A
:1006F00070470029A8BF7047401C490008BF20F080
:100700000100704710B4B0FA80FC00FA0CF050EA17
:10071000010404BF10BC704749B1CCF1200421FA98
:1007200004F411FA0CF118BF012121430843A3EB93
:100730000C01CB1D4FEA00614FEA102042BF0020A0
:1007400010BC704700EBC35010440029A4BF10BC7C
:100750007047401C490008BF20F0010010BC7047E2
:1007600010B5141E73F1000408DA401C41F10001B9
:1007700092185B411A4301D120F0010010BD2DE910
:10078000F04D92469B4611B1B1FA81F202E0B0FA07
:1007900080F220329046FFF77BFF04460F4640EA86
:1007A0000A0041EA0B0153465A46084313D011464A
:1007B00053EA010019D0C8F140025046FFF777FF15
:1007C00005460E46504659464246FFF761FF08432C
:1007D00005D0012004E020463946BDE8F08D002018
:1007E000054346EAE0762C4337430A986305E40A5A
:1007F000A0EB08000022FD0A44EA47540A3002D563
:1008000000200146E9E7010510196941DDE90845C5
:1008100000196941BDE8F04DA2E7C1F30A52C1F3E6
:10082000130140F2FF3341F480119A4202DA0020B2
:100830000146704740F233439A42A2F2334202DC4F
:100840005242FFF734BFFFF723BF0000064C074DAD
:1008500006E0E06840F0010394E807009847103490
:10086000AC42F6D3FFF79CFC20420008404200084F
:1008700010B50146806B026C12F0500F05D0026C6F
:10088000D20626D500F0FAF910BD016C41F40071D2
:10089000016401688A6812F0405F17D1027EAAB92C
:1008A000CA6A12F4700F02D08A6852050ED44A68E0
:1008B00022F020024A60016C21F480710164016C15
:1008C000C90403D4016C41F00101016400F0D4F9C2
:1008D00010BD806BC26CBDE810400846104710B5D3
:1008E000806B40210164416C41F00401416400F0DF
:1008F000C5F910BD10B5806B00F0BFF910BD000048
:10090000464910B54A6822F440324A604A68436852
:100910001A434A6001684A6822F480724A6001689A
:100920004A68036942EA03224A6001684A6822F081
:1009300040724A6001684A6883681A434A600168E5
:100940008A6822F400628A6001688A68C3681A4370
:100950008A60816A6FF07062D14201688A6822F011
:1009600070628A6001688A680CD0836A1A438A6060
:1009700001688A6822F040528A6001688A68C36A06
:100980001A4301E022F040528A6001688A6822F02E
:1009900002028A6001688A68037E42EA43028A6032
:1009A00090F82010002901684A680FD042F40062D4
:1009B0004A6001684A6822F460424A6001684A68F5
:1009C000174C436A04EB43331A4301E022F40062FC
:1009D0004A600168CA6A22F47002CA620168CA6A7F
:1009E000838B104C04EB03531A43CA6201688A6874
:1009F00022F400728A6001688A6890F8303042EA16
:100A000043228A6001688A6822F480628A600168F1
:100A10008A68406942EA8020886010BD0023014056
:100A200000E0FFFF0000F0FFFEE70000014800F0DB
:100A30003FBA00009000002001681823CAB2103AA3
:100A4000B2FBF3F2054B6FF30901032A9B5CC3650C
:100A500000D9091D8165084670470000103C000858
:100A600010B5014600208B698A6A4FF0C07453B1FB
:100A7000B3F5005F15D072B1012A0CD0022A0AD05A
:100A8000032A09D104E01AB1012A06D0022A03D1AF
:100A9000C96AC90100D5012010BDC96AA142FAD0B6
:100AA00010BD002AF7D0012AF2D0022AF3D0032A7F
:100AB000F3D010BD30B50468256825F48025256085
:100AC000046863608368402B036803D09960006802
:100AD000C26030BD9A600068C16030BD704764215B
:100AE00048434FF0E02148610020886105200861FB
:100AF0000869C003FCD504200861704703480168F9
:100B0000486A002200B24A6270470000800100205B
:100B100072B6FEE778B50024009490F83C20012AD4
:100B200019D0012280F83C200A6807230568092AA9
:100B300013D9EE680A3A02EB420293409E43EE60FC
:100B40000B788A680A3B03EB43039A400368DD682D
:100B50002A43DA6010E0022078BD2E6902EB4202DF
:100B600093409E432E610B788A6803EB43039A40BF
:100B700003681D692A431A614A681F23072A13D292
:100B800005686E6B521E02EB820293409E436E63B9
:100B90000A8893B20A79521E02EB820293400268DD
:100BA000556B2B43536327E005680D2A12D22E6B39
:100BB000D21F02EB820293409E432E630B790A8878
:100BC000DB1F92B203EB83039A4003681D6B2A4339
:100BD0001A6311E0EE6A0D3A02EB820293409E43E3
:100BE000EE620B790A880D3B92B203EB83039A40C5
:100BF0000368DD6A2A43DA621B4B0568194A9D4285
:100C00000AD10D68122D07D1556825F400055560ED
:100C1000556845F48005556005689D421DD1134D0A
:100C20000B68AB4201D0112B17D1536823F480031A
:100C30005360536843F4000353600968A9420CD120
:100C40000B490C4A0968B1FBF2F101EB8101490043
:100C500000E0491E00910029FBD180F83C400020B3
:100C600078BD000000230140002001401200001068
:100C70003C00002040420F0070477047704770B53D
:100C800004004FF0000503D0206C002610B107E0EF
:100C9000012070BD204600F01DF8666484F83C60B9
:100CA000206CC00610D4206C20F4885040F0020064
:100CB00020642046FFF724FE6664206C20F00200CA
:100CC00040F00100206400E0012584F83C602846E3
:100CD00070BD000070B586B0064614216846FFF767
:100CE000AFFA24493068884242D123480025016880
:100CF00041F48071016000681F4900F4807014396C
:100D00000590086840F001000860086800F00100E4
:100D10000590086840F0020008600868032400F0AD
:100D20000200059007208DE831006946134800F065
:100D300031FA01208DE831006946114800F02AFAA5
:100D4000114C1048C4E900050015A560C4E9035022
:100D5000400060618000A0614011C4E907052046A1
:100D6000656200F075F908B1FFF7D2FEB463A663BF
:100D700006B070BD0020014044380240000002402F
:100D8000000402401064024090000020F8B50446C0
:100D900000200E46009094F83C10012907D0012154
:100DA00084F83C1021688B68DB0702D011E0022038
:100DB000F8BD8B6843F001038B603649364B0968F8
:100DC000B1FBF3F101EB410100E0491E0091002964
:100DD000FBD121688B68DB0503D58B6823F4807316
:100DE0008B6021688B68DB0749D0236C40F201657A
:100DF000AB4343F4807323644968490505D5216CEE
:100E000021F4005141F480512164216CC90404D5BE
:100E1000616C21F00601616400E0606484F83C00CC
:100E2000A16B1F481D4DC863A16B1E480864A16BD0
:100E30001D48C86421686FF022000860206841687E
:100E400041F0806141602068816841F48071816077
:100E50002168134632464C31A06B00F063F9686894
:100E6000C006206802D01149884210D1816811F073
:100E7000405F0CD1816841F08041816007E0206CC7
:100E800040F010002064606C40F0010060640020BD
:100E9000F8BD00003C00002040420F00002301404C
:100EA00071080008F5080008DF080008002001406C
:100EB0002DE9F84304464FF00009CDF8009063484F
:100EC0004FF41651A56D0068B0FBF1F72E6894F849
:100ED0005C10082000FA01F131420FD021680A6845
:100EE00052070BD50A6822F004020A6094F85C10DD
:100EF0008840A860606D40F00100606594F85C1067
:100F00004FF0010808FA01F0304208D02168496921
:100F1000090604D5A860606D40F00200606594F891
:100F20005C1004208840304208D021680968890795
:100F300004D5A860606D40F00400606594F85C1012
:100F400010208840304218D021680968090714D55C
:100F5000A86020680168490304D50068000308D52B
:100F6000A16C07E00168C90503D4016821F00801FC
:100F70000160216C09B12046884794F85C1020205C
:100F80008840304231D021680968C9062DD5A86053
:100F900094F8350005282068016806D0490347D534
:100FA000006800031DD4616C1CE021F01601016093
:100FB0002068416921F080014161206C08B9A06C72
:100FC00020B12068016821F00801016094F85C10EC
:100FD0003F208840A86084F8358084F83490216DE3
:100FE0001FE0E16B09B120468847606D00282BD0D7
:100FF000606DC00714D0052084F8350020680168B2
:1010000021F0010101600098401C0090B84203D813
:1010100020680068C007F6D184F8358084F83490E1
:10102000E16C002910D001B02046BDE8F04308472C
:101030000168C905D5D4016821F01001016084F868
:10104000358084F83490CCE7BDE8F8833C0000207C
:101050002DE9F041044600F097F906465CB1022004
:1010600084F83500002584F834502068016821F0A8
:10107000010101600DE00120BDE8F08100F084F97C
:10108000801B052805D920206065032084F83500E1
:10109000F2E720680068C007F0D122681168204894
:1010A0000140D4E901031843D4E90336334318431C
:1010B00063691843A3691843E3691843236A184313
:1010C0000843616A042903D1D4E90B131943084387
:1010D000106020684069666A20F0070130460E43C0
:1010E000012704280CD1A06A0643E06A40B12046DB
:1010F000FFF7B6FC20B14020606584F83570BAE790
:10110000206846612046FFF797FC94F85C203F2159
:1011100091408160656584F835700020ACE700007F
:101120003F8010F02DE9F0410446866D90F83400C0
:10113000002501280DD0012084F8340094F8357082
:101140000020012F07D084F8340002252846BDE88E
:10115000F0810220FBE7022784F8357060652046A5
:10116000FFF7A8FC94F85C103F208840B06020682E
:10117000016841F016010160206C20B1206801680F
:1011800041F0080101602068016841F0010101603F
:10119000DCE700002DE9F84FDFF8B8A100220124B8
:1011A00003254FF00F090AF1040BAAF1040E00BF4A
:1011B0000B6804FA02F63340B34273D10F7907F09B
:1011C0000307012F01D0022F16D187684FEA42088A
:1011D00005FA08FC27EA0C07D1F80CC00CFA08FC49
:1011E0004CEA070CC0F808C04768B7430E79C6F34D
:1011F000001696403E4346600E79F643B6070DD082
:10120000C768560005FA06FC27EA0C07D1F808C0A3
:101210000CFA06FC4CEA070CC0F80CC00E7906F07C
:101220000306022E10D1D60800EB8608D8F82060FD
:1012300057074FEAD76C09FA0CF7BE430F6907FA54
:101240000CF73743C8F8207006684FEA420C05FADD
:101250000CF7BE430F7907F0030707FA0CF7374383
:1012600007604E6816F4403F6DD03B4E376847F438
:1012700080473760366822F0030706F48046009600
:10128000364E07EB060CDCF8086897073F0F09FAA3
:1012900007F826EA0806DFF8C880404503D14FF07A
:1012A00000081EE04FE0DFF8BC80404502D14FF05F
:1012B000010816E0DFF8B080404502D14FF0020887
:1012C0000FE0DFF8A880404502D14FF0030808E0A6
:1012D000DFF89C80404502D14FF0040801E04FF058
:1012E000070808FA07F848EA0608CCF80888DAF888
:1012F00000605746D1F804C09E435FEACC2C00D56D
:101300001E433E60DBF800605F46D1F804C09E4398
:101310005FEA8C2C00D51E433E60DEF80060774605
:10132000D1F804C09E435FEA8C3C00D51E433E606A
:10133000084F083F3E68D1F804C09E435FEACC3CAA
:1013400000D51E433E60521C102AFFF431AFBDE8A9
:10135000F88F0000083C0140443802400030014052
:10136000000002400004024000080240000C02405D
:10137000001002400069084000D0012070470AB107
:10138000816170470904FBE70148806870470000ED
:101390003000002002488168027811448160704763
:1013A000300000200B4810B5016841F40071016065
:1013B000016841F480610160016841F4807101605D
:1013C000032000F06FF80F2000F006F800F024F87A
:1013D000002010BD003C024070B50D4D04464FF496
:1013E0007A712878B1FBF0F00A490968B1FBF0F096
:1013F00000F00CFB48B9102C07D200222146501EE9
:1014000000F030F800206C6070BD012070BD00005D
:10141000300000203C0000200A4808B5016841F473
:1014200080410160006800F4804000900548001F82
:10143000016841F080510160006800F08050009028
:1014400008BD000044380240002809DB00F01F02FC
:10145000012191404009800000F1E020C0F8001116
:1014600070470000F0B40E4B1B680C46C3F3022318
:10147000C3F10705042D00D90425191D072901D240
:10148000002300E0DB1E012606FA05F1491E21407B
:1014900099409E40761E16403143F0BC01F004BED8
:1014A0000CED00E0064900F0070208684FF6FF0364
:1014B000184040EA0220034A1043086070470000C9
:1014C0000CED00E00000FA052DE9F0470E4605009E
:1014D00065D0DFF81481D8F80000F7B200F00700FB
:1014E000B04207D288F80070D8F8000000F007007A
:1014F000B04254D128683D4C810712D5400703D52E
:10150000206840F4E05020602878000703D5206868
:1015100040F4604020602068A96820F0F000084393
:1015200020602878C0072DD0304968680839012824
:1015300012D0022813D0032811D009688907002986
:101540002DDA216821F0030101432160FFF71CFF20
:10155000814641F2883A0EE009688903EFE709689D
:101560008901ECE7FFF710FFA0EB0901514502D913
:101570000320BDE8F0872068696800F00C00B0EB3C
:10158000810FEFD1D8F80010404601F00701B142B9
:1015900007D90770006800F00700B04201D00120B1
:1015A000E7E72878400705D52068E96820F4E0508F
:1015B000084320602878000706D52068296920F4B0
:1015C000604040EAC100206000F038F82168084A15
:1015D000C1F30311515CC840064908600648006821
:1015E000FFF7FAFE0020C4E7003C02400838024042
:1015F000183C00083C000020340000200448054945
:1016000000680968044AC1F38221515CC8407047F0
:101610003C00002008380240283C000804480549E6
:1016200000680968044AC1F34231515CC840704700
:101630003C00002008380240283C0008154810B53E
:10164000006810F00C02144813D01449042A0FD07B
:10165000082A0ED10F4C241F2268236802F03F0293
:101660005B0207D52068C0F38810A0FB010106E0EB
:10167000084610BD2168C1F38811A1FB00010023B9
:10168000FEF7A6FD2168C1F30141491C4900B0FBEA
:10169000F1F010BD083802400024F40040787D01CC
:1016A0002DE9F84F04006ED02078DFF84C93C00786
:1016B000A9F104054AD009F104000168C1F38101D0
:1016C000012908D00068C0F3810002280AD1D9F8A6
:1016D0000000400206D52868800337D560680028DE
:1016E000E1D033E06068B0F5803F10D0B0F5A02FB6
:1016F000286810D020F480302860286820F48020EA
:1017000028606068A8B1FFF73FFE06460DE0286834
:1017100040F48030F4E740F480202860F7E700BF11
:10172000FFF732FE801B642873D828688003F7D542
:101730000CE0FFF729FE064605E000BFFFF724FE98
:10174000801B6428F0D828688003F7D42078DFF85D
:10175000AC8280074FF0000A3ED5A748001D016803
:1017600011F00C0F08D00068C0F3810002280BD1E3
:10177000D9F80000400207D42868800716D5E06831
:10178000012800D112E033E1E068B8B10120C8F8C7
:101790000000FFF7F9FD064605E000BFFFF7F4FD86
:1017A000801B0228C0D828688007F7D528682169DF
:1017B00020F0F80040EAC10028600DE0C8F800A061
:1017C000FFF7E2FD064604E0FFF7DEFD801B02287E
:1017D0001FD828688007F7D42078000722D5864FC5
:1017E00087486169703771B101210160FFF7CCFD55
:1017F000064604E0FFF7C8FD801B022809D83868B8
:101800008007F7D50EE0C0F800A0FFF7BDFD064643
:1018100005E082E0FFF7B8FD801B02287DD838681C
:101820008007F7D42078400768D5DFF8CCB10027CF
:101830000BF13C0BDBF80000C0000BD4DBF8001010
:1018400041F08051CBF80010DBF80000012700F0D8
:10185000805000906B4E3068C00510D4306840F462
:1018600080703060FFF790FD009005E0FFF78CFD81
:101870000099401A022850D83068C005F6D55E4E4F
:10188000A0686C3601280FD00528306810D020F0F1
:1018900001003060306820F004003060A068B8B10A
:1018A000FFF772FD00900FE0306840F00100F4E7B0
:1018B00040F004003060F7E7FFF766FD0099411A39
:1018C00041F28830814266D830688007F4D50EE056
:1018D000FFF75AFD009007E0FFF756FD0099411A07
:1018E00041F28830814256D830688007F4D42FB155
:1018F000DBF8001021F08051CBF80010A069C8B3CC
:101900003D49091D0968C1F3810102294AD0022815
:10191000504607D0C8F8600000E03CE0FFF734FD17
:1019200004463BE04746C8F86000FFF72DFD064639
:1019300005E000BFFFF728FD801B02282BD8286890
:101940008001F7D4D4E907010843A16A2E4A490867
:1019500002EB0141626A41EA8211084394F82C10BB
:1019600040EA0161C9F8001001203866FFF70CFD5C
:10197000044606E03EE000BFFFF706FD001B02281C
:1019800009D828688001F7D534E000BFFFF7FCFCD8
:10199000001B022802D90320BDE8F88F28688001C7
:1019A000F4D427E00128F7D0D9F80000E26900F468
:1019B000800191421CD1226A00F03F01914217D16F
:1019C00047F6C071626A0140B1EB821F10D1A26A72
:1019D0004FF0FF3300F4403103EB5202B1EB024F02
:1019E00006D194F82C1000F07060B0EB016F01D0BC
:1019F0000120D1E70020CFE7043802400000474231
:101A0000800E4742007000400000FFFF10B5401EEE
:101A1000B0F1807F01D3012010BD4FF0E024606160
:101A20000F21601701F040FB0020A061072020611A
:101A3000002010BD7047704770B590F83C20012A17
:101A40002CD0012480F83C40022280F83D2003681D
:101A50005A689D6822F070060A6832435A60104B3B
:101A600002689A420ED0B2F1804F0BD00D4B9A42D1
:101A700008D00D4B9A4205D00C4B9A4202D00C4B29
:101A80009A4204D1496825F080031943916080F897
:101A90003D40002180F83C10084670BD022070BD1A
:101AA000000001400004004000080040000C00401D
:101AB0000040014010B5040003D094F83D0010B17F
:101AC00007E0012010BD002084F83C00204600F013
:101AD0001FF8022084F83D00211D206801F0B6F8AF
:101AE000012084F8460084F83E0084F83F0084F822
:101AF000400084F8410084F8420084F8430084F8F0
:101B0000440084F8450084F83D00002010BD00002A
:101B100008B500681149884212D11148016841F0A6
:101B2000010101600068002200F001000090032123
:101B30001920FFF797FCBDE808401920FFF784BC87
:101B4000B0F1804F09D10648001F016841F0010142
:101B50000160006800F00100009008BD0000014035
:101B60004438024090F83D10012901D0012070470F
:101B7000022180F83D100168CA6842F00102CA6083
:101B800000680E4988420ED0B0F1804F0BD00C494E
:101B9000884208D00B49884205D00B49884202D0C0
:101BA0000A49884204D1816801F00701062903D05F
:101BB000016841F001010160002070470000014010
:101BC0000004004000080040000C004000400140BC
:101BD00070B5044690F83C000025012817D0012676
:101BE00084F83C60022084F83D002068826822F07E
:101BF000770222F47F4282600868502838D00DDCDA
:101C000020284FD005DC90B3102811D14AE00220E3
:101C100070BD302846D040280AD13BE060282FD044
:101C200070280DD0B0F5805F03D0B0F5005F12D002
:101C3000012584F83D60002084F83C00284670BDF2
:101C4000CB68D1E90121206801F05FF82068816844
:101C500041F0770109E0CB68D1E90121206801F06A
:101C600054F82068816841F480418160E1E719E01F
:101C7000CA684968206801F0FDF85021206806E034
:101C8000CA684968206801F006F96021206801F0FF
:101C900046F8CEE7CA684968206801F0EBF84021B1
:101CA0002068F4E7226801461046F0E72DE9F0418C
:101CB0000D46040003D094F83D0018B108E001205F
:101CC000BDE8F081002084F83C00204600F040F898
:101CD000022084F83D002068816844F207029143A5
:101CE0008160211D206800F0B1FF22689068916931
:101CF000166A2B68AF69034340F20330814341EA1F
:101D00000721A868EF6908434FF6FC418843E9685A
:101D100040EA0720014328692F6A000140EA0730A2
:101D2000084369686D6926F0AA0646EA0515294345
:101D300093602268906154F8460B0162012004F818
:101D40001F09E0752076E0762077A0750020B7E7C0
:101D500010B586B0044614216846FEF771FA1249A0
:101D6000206888421ED111480021026842F0020218
:101D70000260006800F0020005900C48103802680C
:101D800042F001020260006800F001000590C020EE
:101D900000900220CDE90101CDE903106946044815
:101DA000FFF7F8F906B010BD0004004040380240CB
:101DB0000000024070B590F83E60044690F83F5035
:101DC00090F8423090F84320022021B104290ED02F
:101DD000012E1BD114E0012E18D1012B16D184F84D
:101DE0003E0084F8420001220021206820E0012DFD
:101DF0000CD1012A0AD184F83F0084F8430014E092
:101E0000012D03D1012B01D1012A01D0012070BD88
:101E100084F83E0084F83F0084F8420084F84300D0
:101E200001220021206800F063FF012204212068C4
:101E300000F05EFF2068016841F0010101600020B0
:101E400070BD70472DE9F04104460068C668056919
:101E50004FF00007A90713D5B10711D5F91E01618D
:101E600001202077206880698007204602D0FFF794
:101E7000E8FF04E000F0A6F8204600F038F92777E4
:101E8000680716D5700714D521686FF00400086143
:101E9000022020772068806910F4407F204602D01D
:101EA000FFF7CFFF04E000F08DF8204600F01FF9A7
:101EB0002777280715D5300713D521686FF008005C
:101EC0000861042020772068C0698007204602D07E
:101ED000FFF7B7FF04E000F075F8204600F007F9BF
:101EE0002777E80616D5F00614D521686FF01000A4
:101EF0000861082020772068C06910F4407F2046E0
:101F000002D0FFF79EFF04E000F05CF8204600F0EE
:101F1000EEF82777E80708D0F00706D021686FF0C1
:101F200001000861204600F03BF9280608D530067C
:101F300006D521686FF0800008612046FFF77AFD22
:101F4000680608D5700606D521686FF04000086164
:101F5000204600F026F9A8060AD5B00608D5216863
:101F60006FF0200008612046BDE8F041FFF763BD37
:101F7000BDE8F08110B586B0044614216846FEF72E
:101F80005FF92068B0F1804F15D10C48002102683C
:101F900042F001020260006800F00100059020207C
:101FA00000900220CDE901010120CDE9031069462E
:101FB0000348FFF7EFF806B010BD000030380240CC
:101FC00000000240704770B5044690F83C000026BF
:101FD0000D4601280FD0012084F83C006AB1042A84
:101FE0001DD0082A2FD00C2A3FD00126002084F8CB
:101FF0003C00304670BD022070BD206800F098FEA5
:102000002068816941F0080181612068816921F0BF
:1020100004018161206881692A69114311E0206807
:1020200000F0AEFE2068816941F4006181612068A2
:10203000816921F480618161206881692A6941EAAE
:1020400002218161D2E7206800F0C6FE2068C169E4
:1020500041F00801C1612068C16921F00401C1613A
:102060002068C1692A69114311E0206800F0E0FE90
:102070002068C16941F40061C1612068C16921F42F
:102080008061C1612068C1692A6941EA0221C16198
:10209000ACE710B5040003D094F83D0010B107E0A0
:1020A000012010BD002084F83C00204600F01EF8FE
:1020B000022084F83D00211D206800F0C7FD0120AA
:1020C00084F8460084F83E0084F83F0084F840001D
:1020D00084F8410084F8420084F8430084F8440006
:1020E00084F8450084F83D00002010BD704770471B
:1020F00010B50446022249B104290ED0082913D094
:1021000094F84100012816D0012010BD94F83E003B
:102110000128F9D184F83E200FE094F83F0001280F
:10212000F2D184F83F2008E094F840000128EBD178
:1021300084F8402001E084F841200122206800F06A
:10214000D7FD12492068884203D1426C42F4004214
:102150004264206888420ED0B0F1804F0BD00C4909
:10216000884208D00B49884205D00B49884202D0EA
:102170000A49884204D1816801F00701062903D089
:10218000016841F001010160002010BD0000014024
:102190000004004000080040000C004000400140E6
:1021A0007047704770B5040004D094F841000025D2
:1021B00010B106E0012070BD84F84050204600F0C8
:1021C00023F8242084F841002068C16821F40051DC
:1021D000C160204600F098FE2068016921F490411A
:1021E00001612068416921F02A0141612068C168CC
:1021F00041F40051C1606564202084F8410084F8F6
:1022000042006563002070BD10B586B004461421FD
:102210006846FEF715F814492068884221D1134812
:102220000021026842F010020260006800F0100015
:1022300005900E481438026842F0010202600068FE
:1022400000F0010005904FF4C06000900220CDE93D
:102250000101032003900720049069460448FEF71B
:1022600099FF06B010BD0000001001404438024044
:10227000000002402DE9F843044690F841009846DA
:1022800016460D46202802D00220BDE8F88385B10D
:102290007EB100206064212084F84100FFF774F8CB
:1022A000A6848146E684A0682027B0F5805F02D02E
:1022B00003E00120E9E7206910B12E4600250EE079
:1022C00000260CE08021204600F0A4FEA8B9C6B18B
:1022D00016F8010B21684860E08C401EE084E08C19
:1022E0004B464FF00002CDF800800028EAD14FF0B5
:1022F0004001204600F08EFE40B184F8417003207A
:10230000C3E735F8020BC0F30800E3E784F8417037
:102310000020BAE7FEE7000010B50C4C0121204672
:10232000FFF728F801280CD002212046FFF722F8F9
:10233000012807D004212046FFF71CF8012803D00C
:10234000002010BD022010BD032010BD000402407B
:1023500010B50A4CE078401CC0B2E07014280CD3D1
:102360000020E070A0786070FFF7D6FFA070002812
:1023700003D06178002900D1207010BD40000020FA
:102380007FB50025244800950195029521490395C4
:10239000016001244FF440310461C0E90115047665
:1023A00080F820501D49C0E90A150426C661C560A1
:1023B00080F830404461FEF762FC08B1FEF7A8FBEC
:1023C000CDE900540325694613480295FEF7A2FBA8
:1023D00008B1FEF79DFB0094022469460E48019463
:1023E000FEF798FB08B1FEF793FB69460A48CDE972
:1023F0000045FEF78FFB08B1FEF78AFB0820CDE908
:10240000000669460448FEF785FB002801D0FEF768
:102410007FFB7FBD00200140480000200100000F2D
:10242000094808B5016841F4800101600068002294
:1024300000F48000009011463820FFF713F8BDE843
:1024400008403820FFF700B830380240094808B586
:10245000016841F001010160016801F00101009192
:10246000016841F002010160006800F00200009084
:1024700008BD00003038024010B586B0002417486F
:102480000094019402940394049413490594016008
:102490006321C0E9011440F2E731C0E9031444614B
:1024A0008461FFF707FB08B1FEF732FB4FF4805061
:1024B000009069460948FFF78BFB08B1FEF728FB3F
:1024C000049404A905480594FFF7B6FA002801D042
:1024D000FEF71EFB06B010BD00000140F00000201A
:1024E00010B58EB000240794089409940A940B94B4
:1024F0001C2168460C94FDF7A3FE1D484FF0804157
:1025000001606321C0E90114C0E903148461FFF78D
:10251000D1FA08B1FEF7FCFA4FF48050079007A9F2
:102520001348FFF755FB08B1FEF7F2FA1048FFF722
:10253000B0FD08B1FEF7ECFA0B940BA90C480C9413
:10254000FFF77AFA08B1FEF7E3FA6020CDE900045C
:1025500002940022694606480494FFF734FD08B14E
:10256000FEF7D6FA0248FFF705FD0EB010BD0000D9
:102570003801002010B58CB024216846FDF760FEBC
:1025800000241648099414490A94C0E900144FF62F
:10259000FF71C0E90241046184610320CDE90004B8
:1025A0000120CDE902040494CDE905400794694671
:1025B0000A480894FFF77AFB08B1FEF7A9FA0994D4
:1025C00009A906480A94FFF737FA002801D0FEF758
:1025D0009FFA0CB010BD00000004004080010020F4
:1025E0000C4810B50A4901604FF4E1314160002107
:1025F00081600C22C160C0E904128161C161FFF7F2
:10260000D1FD002803D0BDE81040FEF781BA10BD0F
:1026100000100140C8010020FEE7000000B585B0B1
:102620000120019002200390182000906946044880
:10263000FEF7B0FD00210348FFF75AFD05B000BDCD
:10264000000002403801002070B50F4D0F4E04000D
:102650000CD4012210212846FEF791FE0022082109
:102660002846FEF78CFE3068446370BD00221021BE
:102670002846FEF784FE012208212846FEF77FFE49
:1026800031686042486370BD00000240380100209C
:10269000FEE770B500240021204600F0CAF80025AE
:1026A000002000F0CEF96D1CEDB2802DF8D3641C33
:1026B000E4B2082CEFD370BD124810B5016886B0A3
:1026C00041F00201016000680F4C00F0020005902B
:1026D0001120019002200390C0020090694620461C
:1026E000FEF758FD4FF40050009069462046FEF773
:1026F00051FD012000F078F9012000F083F906B0C7
:1027000010BD0000303802400004024070B50024C3
:102710000546802626FA04F0284000F073F90120CF
:1027200000F062F9002000F05FF9641CE4B2082CAC
:10273000F0D3012000F058F9BDE87040002000F00F
:1027400053B910B5012000F05DF9012000F04CF9FB
:10275000002000F057F9BDE81040002000F044B917
:1027600010B5002000F04EF9012000F03DF9BDE861
:102770001040012000F046B910B500204FF47A72E5
:102780000021491C9142FCD3401C9042F8D3FFF732
:1027900093FFAE2000F044F9D52000F041F98020ED
:1027A00000F03EF9A82000F03BF93F2000F038F996
:1027B000D32000F035F9002000F032F9402000F07D
:1027C0002FF9A12000F02CF9C82000F029F9DA2017
:1027D00000F026F9122000F023F9812000F020F902
:1027E000CF2000F01DF9D92000F01AF9F12000F0F7
:1027F00017F9DB2000F014F9302000F011F9A420C3
:1028000000F00EF9A62000F00BF98D2000F008F979
:10281000142000F005F9AF2000F002F9BDE81040E7
:10282000FFF737BF0246012000E05043491EFCD2AB
:10283000704710B50C4640F0B00000F0F1F81020E1
:1028400040EA141000F0ECF804F00F00BDE810406E
:1028500000F0E6B82DE9F0410746CE004000083E02
:10286000801E15464FF0FF38F1B2C0B2FFF7E1FF0E
:102870001148002400EB05152819A0F5805090F8A8
:10288000000E00F0DEF8641CE4B2082CF4D308EB70
:102890004700F1B2C0B2FFF7CCFF00242819A0F521
:1028A000805090F8080E00F0CCF8641CE4B2082CBC
:1028B000F4D3BDE8F0810000303C00082DE9F04180
:1028C0001E462DED028BB0EE408AF0EE608A9FED41
:1028D0002A0B17460D46804653EC102B51EC180B73
:1028E000FDF78CFE05D82B2229464046FFF7B2FFA4
:1028F0000AE02D2229464046FFF7ACFF51EC180BA9
:1029000081F0004141EC180B51EC180BFDF749FE2A
:102910000446681CC1B222463B46404600F030F8EF
:102920003D44681CC1B22E224046FFF793FF20466B
:10293000FDF72AFE53EC182BFDF731FD41EC180B87
:1029400031460A20FFF76EFF0446FDF71DFE53ECEB
:10295000182BFDF727FDFDF724FEB0FBF4F104FB77
:102960001102AD1CBDEC028BE9B233464046BDE816
:10297000F04100F005B80000000000000000000079
:102980002DE9F04700241D461646884681460A2751
:1029900013E0291B0A20491EFFF744FFB6FBF0F0A5
:1029A000B0FBF7F107FB110208EB0400C1B2484687
:1029B0003032FFF74FFF641CE4B2AC42E9D3BDE80C
:1029C000F0872DE9F04115460E460746002406E043
:1029D0003019C1B23846FFF73DFF641CE4B22A5DEE
:1029E000002AF5D1BDE8F08110B502464FF48051C0
:1029F0000348FEF7C4FCBDE810400120FEF76FB8A5
:102A00000004024010B502464FF400510348FEF79F
:102A1000B6FCBDE810400120FEF761B8000402409A
:102A200010B50446FFF78DFE7820FFF76FFE0020FB
:102A3000FFF76CFE2046FFF769FEBDE81040FFF788
:102A40008FBE10B50446FFF77CFE7820FFF75EFED0
:102A50004020FFF75BFE2046FFF758FEBDE8104020
:102A6000FFF77EBE70477047FEF794BC30B593B059
:102A700030216846FDF7E4FB14210CA8FDF7E0FBCC
:102A80001C480024016841F080510160006800F09A
:102A9000805011901848016841F44041016000687D
:102AA000022500F440401190012003901020009571
:102AB00006950490CDE90740C820CDE9090504201A
:102AC0000B906846FEF7ECFD08B172B6FEE70F20EA
:102AD000CDE90C054FF48050CDE90E4003210CA840
:102AE0001094FEF7F1FC002801D072B6FEE713B097
:102AF00030BD0000403802400070004002480168CC
:102B000041F470010160704788ED00E010B5FFF7F7
:102B10001FFC394C2088142866D300202080FDF744
:102B2000EDFF00EE100A35483649B8EEC00A384AC3
:102B300080ED000A324890ED001A81ED001A32490A
:102B4000D1ED000A70EEC00AC0ED000A2F48D0EDAA
:102B5000001A3048B0EEE10A10EE101A914204DD7E
:102B600090ED000A30EE200A01E09FED2B0A2B4A7F
:102B700010EE101A80ED000A914202DB9FED280A48
:102B800004E0284A914203D39FED270A80ED000A12
:102B9000264990ED002A264891ED000A2549264A4B
:102BA00020EE200A70EEC10A90ED001A01EE820AB2
:102BB00001EE200A10EE100A81ED000A904203DDBA
:102BC0009FED1E0A81ED000A10EE100A1C4A904289
:102BD00003D99FED1C0A81ED000ABDEEC00A10EE7C
:102BE000100A40B2FFF730FD2088401C2080BDE86D
:102BF00010401548FFF726B92C00002010000020D7
:102C000020000020240000200C00002004000020F0
:102C100017B7D1382800002000000000000016443B
:102C200000001644000016C4000016C40000002076
:102C300008000020140000200000C8420000C84224
:102C40000000C8C20000C8C2F0000020F0B5026851
:102C5000204B214C9F03214D214E984207D0B84272
:102C600005D0A04203D0A84201D0B04204D122F046
:102C7000700C4A6842EA0C02984210D0B8420ED05A
:102C8000A0420CD0A8420AD0B04208D0154CA042B5
:102C900005D0154CA04202D0144CA04203D122F41E
:102CA0004074CA6822434C6922F0800222430260C9
:102CB0008A68C2620A688262984201D10969016326
:102CC000012141610169C90703D0016921F00101B6
:102CD0000161F0BD00000140000400400008004018
:102CE000000C004000400140004401400048014009
:102CF00010B501F01F030121046A99408C4304625E
:102D0000016A9A401143016210BD10B5846842EA1D
:102D1000032224F47F440A432243826010BD826868
:102D200022F070020A4342F0070181607047000000
:102D300030B5036A026A22F00102026242688469C5
:102D400024F073050C682C4323F002058B682B4399
:102D50000A4DA8420BD123F00805CB6822F440723B
:102D60002B434D6923F0040315438A692A434260CB
:102D7000846149684163036230BD00000000014086
:102D800030B5026A036A23F0100303624368846962
:102D90000D6824F4E64444EA05248D6822F02002FC
:102DA00042EA05120B4DA8420ED1CD6822F08002F6
:102DB00042EA05124D6923F4406343EA85038D69B5
:102DC00022F0400243EA85034360846149688163DD
:102DD000026230BD0000014030B5036A026A22F48D
:102DE000807202624268C46923F4007324F07305A0
:102DF0000C682C438D6843EA05230C4DA8420ED184
:102E0000CD6823F4006343EA05234D6922F4405260
:102E100042EA05128D6923F4806342EA051242609A
:102E2000C4614968C163036230BD00000000014015
:102E300030B5046A026A22F4805202624268C369B1
:102E40000D6823F4E64343EA05238D6824F4005417
:102E500044EA0534064DA84204D14D6922F480426B
:102E600042EA85124260C36149680164046230BD70
:102E70000000014010B5036A046A24F001040462F2
:102E8000846924F0F00444EA021423F00A020A439D
:102E90008461026210BD10B5036A046A24F0100454
:102EA0000462846923F0A00324F4704444EA0232EB
:102EB00043EA01118261016210BD01680C3151E8E1
:102EC000002F22F4907241E80023002BF5D1016815
:102ED000143151E8002F22F0010241E80023002BB9
:102EE000F5D1016B012909D101680C3151E8002F9E
:102EF00022F0100241E80023002BF5D1202180F8B8
:102F0000421000210163704770B5044600680169F2
:102F1000E26821F44051114301612169A068E2692E
:102F200008436169114308432168CA6849F20C6388
:102F30009A430243CA6020684169A26921F4407142
:102F40001143416131492068884202D030498842AA
:102F500002D1FEF763FB01E0FEF750FBE2690023BC
:102F6000192164253226B2F5004F626828D0A0FBF3
:102F70000101930F9200FDF72BF90146B0FBF5F02C
:102F80006FF01802504301EB800006EB0010B0FB1D
:102F9000F5F000F0F002B1FBF5F002EB0012B1FB2E
:102FA000F5F06FF01803584301EB800006EB0010BA
:102FB000B0FBF5F000F00F0021681044886070BD90
:102FC000A0FB010192185B41FDF702F90146B0FB3D
:102FD000F5F00201B1FBF5F06FF01803584301EB77
:102FE000800006EBC000B0FBF5F000F0F80002EB4B
:102FF0004002B1FBF5F0584301EB800006EBC00046
:10300000B0FBF5F000F00700D6E70000001001402B
:10301000001401402DE9F843984617460D46044632
:10302000089E24E0701C22D0FEF7AEF9A0EB080049
:10303000B0421AD8CEB12068C168490717D5802D93
:1030400015D0402D13D00168C94309070FD401687A
:103050000025406800902046FFF72FFF082060649D
:1030600084F840500120BDE8F8830320FBE7206886
:10307000006835EA000004D00020B842D2D0002019
:10308000F1E70120F9E7FEE70FB4054B10B503A9FE
:10309000044A029800F0DAF810BC5DF814FB000056
:1030A0007D390008440000200907090E002804DBD0
:1030B00000F1E02080F80014704700F00F0000F1EC
:1030C000E02080F8141D704702E008C8121F08C1F4
:1030D000002AFAD170477047002001E001C1121F99
:1030E000002AFBD1704700002DE9FF5FDDE90220D7
:1030F000010DDDF838B0024318D044F61050A1F2AB
:10310000FF3141430D140F98012820D0A5EB0B008F
:10311000401C5FEA000A4FF00004474EDFF81C91A4
:10312000A046504616D5CAF1000728E00F980124A2
:1031300043A2012808D0002100980F9BC0E900217C
:10314000C0E90243BDE8FF9F6FEA0B01F4E7CBF152
:103150000000DEE7074612E0F80707D022463346B4
:1031600040464946FDF71EF98046894622463346C9
:1031700010461946FDF716F904460E467F10002F3B
:10318000EAD1DDE90201BAF1000F42464B4602DA0C
:10319000FDF708F901E0FDF777F904460E46002235
:1031A000284BFDF72BFA03D84FF0FF30014607E01C
:1031B0000022254B20463146FDF74DF8FDF72DFB4B
:1031C000102409E0002C0ADB0A220023FDF700F896
:1031D000019B30321A55641E50EA0102F2D1641C80
:1031E000019AC4F1110314440F9A012A03D0012259
:1031F00008430DD10AE0084304D000204FF0110B22
:103200000F9080E7A3EB0B056D1E0DE05B4504DD21
:103210004FF0000205F1010504E003DA4FF000026F
:10322000A5F10105002AECD000980F99C0E9023100
:10323000C0E9004586E70000000024400000F03FA0
:10324000300000000000F0430000E03F2DE9FF4F98
:1032500095B09B468946064600250FE2252877D182
:1032600000242746F84A0121059400E0044316F89B
:10327000013F203B01FA03F01042F7D130782A28B1
:1032800011D06FF02F033078A0F13002092A16D840
:10329000059A44F0020402EB820203EB420210445E
:1032A000761C0590EFE759F8042B0592002A03DA03
:1032B000504244F40054059044F00204761C3078E7
:1032C0002E2816D116F8010F44F004042A280DD038
:1032D0006FF02F023078A0F13003092B09D807EBEB
:1032E000870302EB4303C718761CF3E759F8047B06
:1032F000761C30786C280FD006DC4C2817D0682854
:103300000DD06A2814D104E0742810D07A280FD187
:103310000DE044F400140AE044F4801401E044F4A5
:1033200040147278824202D104F58014761C761C17
:10333000307866280BD013DC582877D009DC0028B9
:1033400075D04528F6D04628F4D047281AD19DE1FB
:1033500018E0632835D0642879D0652812D195E12A
:10336000702873D008DC6728F1D069286FD06E28E8
:103370000DD06F2806D1B5E073282CD0752875D0F4
:10338000782874D05A46179990476D1C75E1C4F39C
:103390000250022809D003280DD0D9F800100428C3
:1033A0000DD00D6009F1040967E1D9F80010EA17A2
:1033B000C1E90052F6E7D9F800100D80F2E70D7070
:1033C000F0E719F8041B8DF8001000208DF80100BB
:1033D000EA46012003E059F804AB4FF0FF306107E3
:1033E0004FF0000102D40DE008F101018846B94216
:1033F0000FDA8045F8DB1AF808100029F4D108E04C
:1034000008F1010188468142FADB1AF80810002908
:10341000F6D105985B46A0EB080721463846179A77
:1034200000F094FA284400EB080507E04DE029E19C
:103430000DE01AF8010B5A4617999047B8F10108A8
:10344000F7D25B4621463846179A13E142E00A223A
:103450000092C4F302524FF0000A022A08D059F831
:1034600004CB032A4FEAEC710AD00DE029E02AE0F0
:1034700009F1070121F00702F2E802C1914609E0D3
:103480000FFA8CFC4FEAEC71042A03D14FFA8CFC42
:103490004FEAEC71002907DA0A460021DCF1000C42
:1034A00061EB02012D2202E0220504D52B228DF8CA
:1034B0000420012203E0E20701D02022F7E7904632
:1034C00059E00A2102E010220DE010214FF0000A1D
:1034D00000910BE010224FF0000A44F0040408278A
:1034E000009203E008224FF0000A0092C4F3025257
:1034F000022A05D059F804CB0021032A08D009E09C
:1035000009F1070121F00702F2E802C1914605E046
:103510001FFA8CFC042A01D10CF0FF0C4FF00008BC
:10352000220728D5702806D0009B83F0100353EAA9
:103530000A0305D00EE040228DF80420012208E0A5
:103540005CEA010206D030228DF804208DF80500D7
:1035500002229046009B83F0080353EA0A030AD133
:103560005CEA010201D1620705D530228DF8042002
:103570004FF001087F1E582804D034A003900EA8F5
:1035800002900DE036A0F9E753466046009AFCF73A
:103590001FFE84460398825C0298401E02900270CF
:1035A0005CEA0100F0D1029806A9081A00F1200A8D
:1035B000600702D524F4803400E00127574502DD7E
:1035C000A7EB0A0000E0002000EB0A01009005983C
:1035D0004144401A0590E00306D45B462146179A01
:1035E000059800F0B3F90544002706E001A85A4603
:1035F000C05D179990476D1C7F1C4745F6DBE003C3
:103600000CD55B462146179A059800F09FF90544B2
:1036100004E030205A46179990476D1C0099481EC7
:1036200000900029F5DC08E0029802995A460078DB
:10363000491C0291179990476D1CBAF10001AAF13B
:10364000010AF1DC65E10000092801003031323364
:1036500034353637383961626364656600000000CE
:1036600030313233343536373839414243444546B8
:103670000000000000F058F90544761C307800285E
:103680007FF4ECAD19B02846BDE8F08F620700D496
:10369000062709F1070222F0070CFCE80223E146A5
:1036A00003F000485FEA080C02D00FF2702C0DE026
:1036B0005FEA045C02D50FF2682C07E05FEAC47C85
:1036C00002D00FF2602C01E0AFF2700C4FF0FF3827
:1036D00023F00043CDF850C065280CD006DC452807
:1036E00009D046281DD047283DD13DE0662818D096
:1036F00067287ED138E00021112F01DB112000E086
:10370000781CCDE9000106A90EA8FFF7EDFCDDE964
:103710000F010E9A03910021009207F1010A049112
:103720004DE04FF000400097CDE9011006A90EA82A
:10373000FFF7DAFCDDE90F0203920E9B11990022DC
:10374000DDF80CA00093049211B9791C00EB010A7A
:10375000B7EB0A0004D4C0F1FF3007F1010A04906E
:10376000AAEB0700019044E0012F00DA01270021B5
:10377000112F01DD112000E03846CDE9000106A936
:103780000EA8FFF7B1FCDDE90F010E9A03910021AD
:1037900004910092BA4621070CD40399514500DAEE
:1037A0008A46BAF1010F05DD009AAAF10101515CC8
:1037B000302908D0B84202DA10F1040F06DA0121EC
:1037C000CDE9011015E0AAF10101E9E7002805DCC7
:1037D000049901440491AAEB000102E0411C514507
:1037E00000DD8A460499401A401C01904FF00040C9
:1037F0000290200704D40198504501DBCDF80480E5
:1038000000208DF84F0002980DF14F07B0F1004FE6
:1038100025D02B200E9002984FF0020800280CDAD9
:10382000404202902D200E9007E00A210298FCF7FA
:1038300019FF3031029007F8011DB8F10001A8F11D
:103840000108F2DC02980028EFD1791E0E9808706A
:10385000307800F0200040F0450007F8020D12A873
:10386000C01B00F107081498007800B1012000EB9C
:103870000A01019801EBE07105984144401A401E8D
:103880000590E00306D45B462146179A059800F0A0
:103890005DF805441498007818B15A461799904776
:1038A0006D1CE00324D55B462146179A059800F06D
:1038B0004DF805441CE00498002807DBDDE903010E
:1038C000884203DD0098405C179901E01799302089
:1038D0005A469047049805F10105401C0490019850
:1038E000401E019004D12E205A46179990476D1C16
:1038F000BAF10001AAF1010ADDDC05E017F8010BBD
:103900005A46179990476D1CB8F10001A8F10108BB
:10391000F4DC5B462146179A0598ABE62D000000C3
:103920002B000000200000002DE9F0410446002596
:103930001E461746880404D405E039462020B047C7
:103940006D1C641EF9D52846BDE8F0812DE9F041D3
:10395000044600251E469046C80301D5302700E0E6
:103960002027880404D505E041463846B0476D1C41
:10397000641EF9D52846BDE8F081000038B504463C
:103980008DF800004FF6FF73012269460248FEF7EA
:1039900071FC204638BD0000C80100202DED088BC9
:1039A0008AB0FDF7FFFCFFF761F8FEF74FFDFEF769
:1039B00037FDFEF7DFFDFEF75FFDFEF7E1FCFEF7EA
:1039C0008FFDFEF70DFEFEF7D7FEFEF727FE002166
:1039D0007848FEF7EFF904217648FEF7EBF97648D0
:1039E000FEF7C0F8042275497548FDF7CFF932207B
:1039F000FEF72AFE012173A20846FEF7E2FF73A23A
:103A000001210220FEF7DDFF72A201210320FEF753
:103A1000D8FF71A207210320FEF7D3FF6FA20C216C
:103A20000320FEF7CEFF34232B2220216CA0FFF7CA
:103A30002BFBDFF888910DF1100A9FED6CBB9FED19
:103A40006DAB9FED6E9B002457464D46B9F90000C3
:103A5000FCF789FD88460646B0EE4B8AF0EE6B8A8D
:103A600048EC106B53EC182B51EC100BFCF70CFDD1
:103A7000B0EE4A1AF0EE6A1A53EC112BFCF792FCE6
:103A8000B0EE491AF0EE691A53EC112BFCF784FCE6
:103A9000FCF7CCFD47F82400641CE4B2052CDFD30E
:103AA000464CB5F90200183CFCF75DFD53EC182BB1
:103AB000FCF7EAFCFCF7BAFD2060B5F90400FCF75E
:103AC00052FD53EC182BFCF7DFFCFCF7AFFD6060F8
:103AD000B5F90600FCF747FD53EC182BFCF7D4FCB6
:103AE000FCF7A4FDA0609DED040ADDED050AB1EE32
:103AF000041A30EE200ADDED060A30EE200ADDED74
:103B0000070A30EE200ADDED080A70EE200A80EE8A
:103B1000810A84ED030A10EE100AFCF75BFD41EC0C
:103B2000100B0123032208211846FEF7C7FE206967
:103B3000FCF750FD41EC100B012303220821022069
:103B4000FEF7BCFE2068FCF745FD41EC100B01229E
:103B5000022311460420FEF7B1FE6068FCF73AFD2F
:103B600041EC100B0223012207210420FEF7A6FEE0
:103B7000A068FCF72FFD41EC100B022301220C2161
:103B80000420FEF79BFE6069FCF724FD074688468B
:103B90002069FCF71FFD05460E46E068FCF71AFD9C
:103BA0008DE8E00141EC100B16A053EC102BFFF751
:103BB0006BFA48E780010020F00000201800002088
:103BC000480000205461726765743A00416374755F
:103BD000616C3A004B703A004B693A004B643A0012
:103BE00025642C25642C25640D0A000000000000CB
:103BF00000FEAF40000000000040694000000000EF
:103C00000040594025662C25662C25660D0A0000CB
:103C1000000610160006101600000000000000004C
:103C20000102030406070809000000000102030462
:103C30000000000000000000000000000000000084
:103C4000000000F800000000000000333000000019
:103C500000100C06100C0600000000000000000020
:103C600040C07840C0784000043F04043F04040092
:103C7000007088FC08300000001820FF211E0000A2
:103C8000F008F000E018000000211C031E211E00B7
:103C900000F00888700000001E212324192721103D
:103CA00010160E00000000000000000000000000E0
:103CB000000000E018040200000000071820400087
:103CC00000020418E0000000004020180700000077
:103CD000404080F0804040000202010F01020200DB
:103CE000000000F0000000000101011F01010100BF
:103CF000000000000000000080B070000000000024
:103D000000000000000000000001010101010101AC
:103D10000000000000000000003030000000000043
:103D20000000000080601804006018060100000018
:103D300000E010080810E000000F102020100F0015
:103D4000001010F8000000000020203F202000009C
:103D500000700808088870000030282422213000F4
:103D600000300888884830000018202020110E00FC
:103D70000000C02010F8000000070424243F2400A5
:103D800000F80888880808000019212020110E007A
:103D900000E0108888180000000F112020110E008C
:103DA00000380808C83808000000003F0000000084
:103DB0000070880808887000001C222121221C0045
:103DC00000E010080810E0000000312222110F006E
:103DD000000000C0C0000000000000303000000003
:103DE0000000008000000000000080600000000073
:103DF000000080402010080000010204081020008C
:103E000040404040404040000404040404040400D6
:103E1000000810204080000000201008040201006B
:103E2000007048080808F00000000030360100006B
:103E3000C030C828E810E0000718272423140B001E
:103E40000000C038E0000000203C23020227382098
:103E500008F8888888700000203F202020110E007C
:103E6000C030080808083800071820202010080073
:103E700008F808080810E000203F202020100F005C
:103E800008F88888E8081000203F20202320180028
:103E900008F88888E8081000203F20000300000090
:103EA000C03008080838000007182020221E020031
:103EB00008F808000008F808203F210101213F20F0
:103EC000000808F8080800000020203F202000001B
:103ED00000000808F8080800C08080807F0000000B
:103EE00008F888C028180800203F20012638200044
:103EF00008F8080000000000203F202020203000AB
:103F000008F8F800F8F80800203F003F003F2000C4
:103F100008F830C00008F808203F200007183F00CC
:103F2000E01008080810E0000F10202020100F00FB
:103F300008F808080808F000203F210101010000EE
:103F4000E01008080810E0000F18242438504F0033
:103F500008F8888888887000203F2000030C3020F3
:103F600000708808080838000038202121221C0031
:103F7000180808F8080818000000203F200000007A
:103F800008F808000008F808001F202020201F0063
:103F90000878880000C83808000007380E010000C3
:103FA000F80800F80008F800033C0700073C03008D
:103FB000081868808068180820302C03032C3020F3
:103FC0000838C800C83808000000203F2000000062
:103FD00010080808C83808002038262120201800BA
:103FE000000000FE020202000000007F404040008E
:103FF000000C30C000000000000000010638C000C6
:1040000000020202FE000000004040407F0000006D
:104010000000040202020400000000000000000092
:104020000000000000000000808080808080808090
:104030000002020400000000000000000000000078
:1040400000008080808000000019242222223F206E
:1040500008F8008080000000003F112020110E00B1
:104060000000008080800000000E11202020110040
:10407000000000808088F800000E112020103F20F2
:104080000000808080800000001F22222222130076
:10409000008080F0888888180020203F20200000C1
:1040A0000000808080808000006B94949493600076
:1040B00008F8008080800000203F210000203F2081
:1040C00000809898000000000020203F2020000081
:1040D000000000809898000000C08080807F000071
:1040E00008F8000080808000203F24022D3020004E
:1040F000000808F8000000000020203F20200000F9
:104100008080808080808000203F20003F20003F12
:104110008080008080800000203F210000203F2020
:104120000000808080800000001F202020201F00D1
:10413000808000808000000080FFA12020110E0000
:104140000000008080808000000E112020A0FF80F1
:10415000808080008080800020203F21200001009E
:1041600000008080808080000033242424241900F3
:10417000008080E0808000000000001F2020000000
:104180008080000000808000001F202020103F2041
:10419000808080000080808000010E3008060100D1
:1041A00080800080008080800F300C030C300F0076
:1041B00000808000808080000020312E0E312000A1
:1041C000808080000080808080818E7018060100D1
:1041D00000808080808080000021302C22213000EF
:1041E00000000000807C020200000000003F404010
:1041F00000000000FF00000000000000FF000000C1
:104200000002027C800000000040403F00000000EF
:10421000000601010202040400000000000000008A
:10422000404200080000002048000000C83000089C
:104230008842000848000020C8050000D830000867
:10424000000000000000000000000000000000006E
:10425000000000000000000000000000000000005E
:10426000000000000000000000000000000000004E
:104270000100000010000000000000000024F40015
:08428000000000000000000036
:040000050800019955
:00000001FF
