:020000040800F2
:10000000500D0020AD010008D12E00083725000852
:100010006D2D000819030008B93C0008000000001D
:100020000000000000000000000000000533000890
:100030007D05000800000000DD3100084D34000897
:10004000C7010008C7010008C7010008C701000870
:10005000C7010008C7010008C7010008C701000860
:10006000C7010008C7010008C7010008C701000850
:10007000C7010008C7010008C7010008C701000840
:10008000B5040008C7010008C7010008000000000F
:10009000000000000000000000000000C701000890
:1000A000C701000801360008C7010008C7010008A1
:1000B00015360008C7010008C7010008C70100087D
:1000C000C7010008C7010008C7010008C7010008F0
:1000D000C7010008D93B00082D3C000800000000C3
:1000E000C7010008C7010008C701000800000000A0
:1000F000000000000000000000000000C701000830
:1001000000000000C7010008C7010008C70100087F
:1001100000000000000000000000000000000000DF
:10012000C7010008C1040008CD040008C701000889
:10013000C7010008000000000000000000000000EF
:10014000000000000000000000000000C7010008DF
:10015000C7010008C7010008C7010008393C0008B2
:10016000C7010008C70100080000000000000000EF
:10017000000000000000000000000000000000007F
:1001800000000000C701000800000000000000009F
:10019000C7010008C7010008DFF80CD000F0AAF87A
:1001A00000480047F9400008500D002006488047ED
:1001B00006480047FEE7FEE7FEE7FEE7FEE7FEE74C
:1001C000FEE7FEE7FEE7FEE7E134000899010008DC
:1001D0002DE9F05F0546002092469B46884606467C
:1001E000814640241BE0284641464746224600F00F
:1001F00070F853465A46C01A914110D3114618461A
:10020000224600F057F82D1A67EB01084F462246A8
:100210000120002100F04EF817EB00094E41201E8E
:10022000A4F10104DFDC484631462A464346BDE8D6
:10023000F09FD2B201E000F8012B491EFBD27047BB
:100240000022F6E710B513460A4604461946FFF7A2
:10025000F0FF204610BD30B505462A460B4612F881
:10026000010B13F8014B08B1A042F8D01CB10028D3
:1002700002D06D1CF1E7284630BD421C10F8011B6E
:100280000029FBD1801A704730B50B46014600208B
:100290002022012409E021FA02F59D4205D303FA48
:1002A00002F5491B04FA02F52844151EA2F10102C9
:1002B000F1DC30BD202A04DB203A00FA02F10020F4
:1002C00070479140C2F1200320FA03F31943904094
:1002D0007047202A04DB203A21FA02F000217047FF
:1002E00021FA02F3D040C2F120029140084319469E
:1002F00070470000064C074D06E0E06840F001033F
:1003000094E8070098471034AC42F6D3FFF748FF53
:100310004061000860610008FEE700000020064917
:1003200002464FF4806300BF21F81020401C80B2C9
:100330009842F9D3704700005003002010B5002404
:1003400004E0641CE4B2012000F02FF900F03AF858
:10035000012803D0642C0ED2002407E0642CF0D3D3
:1003600009E0641CE4B2012000F01FF900F02AF853
:1003700018B1642C04D3012010BD642CF1D3FAE72A
:10038000002010BD0D4800B5016887B041F00201A2
:1003900001600068694600F002000590112001909C
:1003A0000220039080030090054800F07FFB00F0DE
:1003B00069F8FFF7C3FF07B000BD00003038024006
:1003C000000002404FF40041014800F05FBC000013
:1003D0000000024010B5002404E0641CE4B20120D7
:1003E00000F0E3F8FFF7EEFF012801D1642CF4D30D
:1003F000002404E0641CE4B2012000F0D6F8FFF70A
:10040000E1FF08B9642CF5D3282000F0CEF8FFF7FF
:10041000D9FF012800D0002010BD70B5002420466F
:100420004006050EFFF7D6FF641C2843E4B2082CF3
:10043000F6D370BD2DE9FC410D460646002400F0C0
:1004400021F8FFF77BFF10B10120BDE8FC816F466A
:10045000FFF7E3FF3855641CE4B2052CF8D39DF890
:1004600000109DF802009DF801309DF803400A1825
:1004700023441A449DF804309A4201D12970307007
:100480000020E2E710B5002000F00CF8142000F086
:1004900076F8012000F006F8BDE810401E2000F0BC
:1004A00084B8000002464FF40041014800F0F3BB5D
:1004B00000000240014800F075B9000090020020E1
:1004C000014800F06FB90000F0020020014800F080
:1004D00069B900003002002001681823CAB2103A3E
:1004E000B2FBF3F2054B6FF30901032A9B5CC36572
:1004F00000D9091D81650846704700005051000869
:1005000010B5014600208B698A6A4FF0C07453B160
:10051000B3F5005F15D072B1012A0CD0022A0AD0BF
:10052000032A09D104E01AB1012A06D0022A03D114
:10053000C96AC90100D5012010BDC96AA142FAD01B
:1005400010BD002AF7D0012AF2D0022AF3D0032AE4
:10055000F3D010BD30B50468256825F480252560EA
:10056000046863608368402B036803D09960006867
:10057000C26030BD9A600068C16030BD704700B590
:1005800002464FF47A7302E0184600F00EF8521E4D
:10059000FAD200BD30B504464FF47A7502E0284621
:1005A000FFF7EDFF641EFAD230BD642148434FF0DF
:1005B000E021486100208861052008610869C003C6
:1005C000FCD5042008617047F0B587B0044601A946
:1005D0006846FFF72FFF9DF800000026012533280D
:1005E0000AD29DF804005F2806D8142804D3257188
:1005F000207840F0100003E02671207820F01000F1
:10060000207005AB04AA03A902A802F071FFBDF88F
:10061000081042F21070814210D2BDF80C108142D5
:100620000CD2BDF81010814208D2BDF814108142DE
:1006300004D2E570207840F0080003E0E6702078EE
:1006400020F00800207003F038FBB42832D0667127
:10065000207820F004001D4F2070012211463846FA
:1006600000F019FB01220221384600F014FB184863
:1006700001684E62026847F22F51D162C16001F0F9
:10068000F3FAA570207840F00200207011A003F06A
:100690002FFC0A20FFF773FF1248FFF7EEFD00045E
:1006A000000C0CD0B0F5806F09D26570207840F056
:1006B000010008E06571207840F00400CBE7667027
:1006C000207820F00100207007B0F0BD000002404B
:1006D0001001002054657374204D6567676167657C
:1006E0000D0A00005003002072B6FEE72DE9F0412C
:1006F0000446876D00F0D4FA064694F835000025CC
:10070000022806D08020606584F834500120BDE8BE
:10071000F0812068016821F01601016020684169BC
:1007200021F080014161206C08B9A06C20B12068E3
:10073000016821F0080101602068016821F00101D1
:1007400001600CE000F0ACFA801B052807D92020DE
:100750006065032084F8350084F83450D7E72068BA
:100760000068C007EED194F85C103F208840B86064
:10077000012084F8350084F834500020C7E790F851
:100780003510022903D080214165012070470521E1
:1007900080F835100068016821F001010160002037
:1007A000704700002DE9F84304464FF00009CDF8EA
:1007B000009063484FF41651A56D0068B0FBF1F747
:1007C0002E6894F85C10082000FA01F131420FD035
:1007D00021680A6852070BD50A6822F004020A60F1
:1007E00094F85C108840A860606D40F0010060657E
:1007F00094F85C104FF0010808FA01F0304208D07C
:1008000021684969090604D5A860606D40F00200BE
:10081000606594F85C1004208840304208D021685C
:100820000968890704D5A860606D40F00400606520
:1008300094F85C1010208840304218D02168096874
:10084000090714D5A86020680168490304D5006829
:10085000000308D5A16C07E00168C90503D401684D
:1008600021F008010160216C09B12046884794F805
:100870005C1020208840304231D021680968C906C8
:100880002DD5A86094F8350005282068016806D0A9
:10089000490347D5006800031DD4616C1CE021F0BA
:1008A000160101602068416921F080014161206CDE
:1008B00008B9A06C20B12068016821F0080101602E
:1008C00094F85C103F208840A86084F8358084F854
:1008D0003490216D1FE0E16B09B120468847606DBF
:1008E00000282BD0606DC00714D0052084F8350097
:1008F0002068016821F0010101600098401C00900F
:10090000B84203D820680068C007F6D184F8358063
:1009100084F83490E16C002910D001B02046BDE885
:10092000F04308470168C905D5D4016821F01001DA
:10093000016084F8358084F83490CCE7BDE8F88312
:10094000100000202DE9F041044600F0A9F9064608
:100950005CB1022084F83500002584F8345020680A
:10096000016821F0010101600DE00120BDE8F08186
:1009700000F096F9801B052805D92020606503202A
:1009800084F83500F2E720680068C007F0D12268DB
:10099000116820480140D4E901031843D4E9033623
:1009A0003343184363691843A3691843E369184341
:1009B000236A18430843616A042903D1D4E90B135D
:1009C00019430843106020684069666A20F00701F7
:1009D00030460E43012704280CD1A06A0643E06A82
:1009E00040B12046FFF78CFD20B14020606584F8BF
:1009F0003570BAE7206846612046FFF76DFD94F830
:100A00005C203F2191408160656584F8357000204D
:100A1000ACE700003F8010F02DE9F0410446866D00
:100A200090F83400002501280DD0012084F834000E
:100A300094F835700020012F07D084F83400022587
:100A40002846BDE8F0810220FBE7022784F83570D4
:100A500060652046FFF77EFD94F85C103F208840DB
:100A6000B0602068016841F016010160206C20B17F
:100A70002068016841F0080101602068016841F0C8
:100A800001010160DCE7000070B5044600F008F9E0
:100A90000546601C02D004480078044400F000F9C8
:100AA000401BA042FAD370BD040000202DE9F84F8E
:100AB000DFF8B8A10022012403254FF00F090AF145
:100AC000040BAAF1040E00BF0B6804FA02F63340CF
:100AD000B34273D10F7907F00307012F01D0022F22
:100AE00016D187684FEA420805FA08FC27EA0C0786
:100AF000D1F80CC00CFA08FC4CEA070CC0F808C08E
:100B00004768B7430E79C6F3001696403E434660E9
:100B10000E79F643B6070DD0C768560005FA06FCF5
:100B200027EA0C07D1F808C00CFA06FC4CEA070CBF
:100B3000C0F80CC00E7906F00306022E10D1D608BC
:100B400000EB8608D8F8206057074FEAD76C09FAFF
:100B50000CF7BE430F6907FA0CF73743C8F820704B
:100B600006684FEA420C05FA0CF7BE430F7907F00E
:100B7000030707FA0CF7374307604E6816F4403F47
:100B80006DD03B4E376847F480473760366822F0B7
:100B9000030706F480460096364E07EB060CDCF899
:100BA000086897073F0F09FA07F826EA0806DFF8F2
:100BB000C880404503D14FF000081EE04FE0DFF849
:100BC000BC80404502D14FF0010816E0DFF8B0804C
:100BD000404502D14FF002080FE0DFF8A880404501
:100BE00002D14FF0030808E0DFF89C80404502D1B5
:100BF0004FF0040801E04FF0070808FA07F848EA48
:100C00000608CCF80888DAF800605746D1F804C026
:100C10009E435FEACC2C00D51E433E60DBF80060AB
:100C20005F46D1F804C09E435FEA8C2C00D51E437A
:100C30003E60DEF800607746D1F804C09E435FEA6C
:100C40008C3C00D51E433E60084F083F3E68D1F8FB
:100C500004C09E435FEACC3C00D51E433E60521C5C
:100C6000102AFFF431AFBDE8F88F0000083C0140C6
:100C700044380240003001400000024000040240BD
:100C800000080240000C02400010024000690840C9
:100C900000D0012070470AB1816170470904FBE769
:100CA00001488068704700000400002070B504000F
:100CB00025D094F83D00002520B984F83C5020460A
:100CC00000F052FA242084F83D002068016821F0E9
:100CD000010101602068016841F400410160206861
:100CE000016821F40041016000F0BEFB4D4A6168DB
:100CF000914201D84C4900E04C49884201D2012080
:100D000070BD4B492368B0FBF1F15E6826F03F06E9
:100D10000E435E606368934206D94FF4967359435D
:100D20004FF47A73B1FBF3F12368491C1E6A26F075
:100D30003F06314319626168914210D84900401E54
:100D4000B0FBF1F2521CC2F30B02042A01D20420C0
:100D500022E0B0FBF1F0401CC0F30B001CE0A268E5
:100D6000F2B301EBC10303EB0116431EB3FBF6F331
:100D70005B1C43F480431B0549D092B301EBC102D5
:100D800002EB0111401EB0FBF1F0401CC0F30B0060
:100D900040F4804040F400402168CA694CF6FF737B
:100DA0009A431043C861D4E90710014320680268E0
:100DB00022F0C00211430160D4E90301014320681D
:100DC000826848F2FF339A4311438160D4E90501F8
:100DD00008432168CA6822F0FF021043C86001E09E
:100DE0000EE016E02068016841F001010160256411
:100DF000202084F83D00256384F83E50002070BD1B
:100E000001EB4106431EB3FBF6F35B1CB3E7012085
:100E1000C2E701EB4101401EB0FBF1F0401CC0F302
:100E20000B00B7E7A086010080841E0000093D008A
:100E300040420F002DE9FF4F83B09A46DDE911874C
:100E400093460446DDF84090FFF72AFF054694F8E4
:100E50003D00202870D119230122744920460095B5
:100E600001F080FC0028F5D194F83C00012863D003
:100E7000012084F83C0020680168C90703D101689B
:100E800041F0010101602068016821F40061016006
:100E9000222084F83D00402084F83E00002626648D
:100EA000C4F82490A4F82A80608D20856048E06210
:100EB000CDE9007553465A462046049901F054FB8B
:100EC000002879D1208DD0B1012821D002282068B6
:100ED00024D0416980690090208D032866D80128BC
:100EE0002BD0544902283B464FF00002009557D0C2
:100EF0008846204601F036FC00285DD13AE02068A3
:100F0000416981690091016841F4007101607DE0EF
:100F10002068016821F480610160F0E7016821F434
:100F2000806101602068016841F40061016020680F
:100F300041698069009069E075E02A46394620469B
:100F400001F0B6FC88BB54E02068016841F40071F0
:100F5000016020680069616A0870606A401C606214
:100F6000218D491E2185618D491E61852168096990
:100F7000017042E02068016821F48061016020680E
:100F80000069616A0870606A401C6062208D401EC2
:100F90002085608D401E60853B46002241460095BD
:100FA000204601F0DFFB00B9CEE705E02A463946CE
:100FB000204601F07DFC18B1012007B0BDE8F08F9C
:100FC00020680069616A0870606A401C6062208D58
:100FD000401E81B22185608D401E60852068426977
:100FE000D243520712D4032903D1016821F480614E
:100FF000016020680069616A0870606A401C606274
:10100000208D401E2085608D401E6085208D00282B
:101010007FF462AF202084F83D0084F83E6084F8BD
:101020003C600020C9E70220C7E700000200100072
:101030000000FFFF040001002DE9FF4F83B09A4636
:10104000DDE9119793460446DDF84080FFF728FE5E
:10105000054694F83D0020287FD1192301224049FC
:101060002046009501F07EFB002876D194F83C00E4
:10107000012872D0012084F83C0020680168C9076B
:1010800003D1016841F0010101602068016821F489
:1010900000610160212084F83D00402084F83E007A
:1010A00000262664C4F82480A4F82A90608D208548
:1010B0002C48E062CDE9007553465A462046049913
:1010C00001F0D0FA70B930E02A463946204601F0E6
:1010D00027FC58B1206C042804D12068016841F431
:1010E00000710160012007B0BDE8F08F606A2168DF
:1010F00000780861606A401C6062218D491E89B2D7
:101100002185628D521E628522685369DB435B072D
:101110000BD469B100781061606A401C6062208D58
:10112000401E2085608D401E6085208D0028CBD11B
:101130002A463946204601F0E9FA0028CAD154F877
:101140003D0B016841F400710160202004F81E0984
:10115000E67766770020C6E7FFE70220C3E70000D6
:10116000020010000000FFFFF0B587B00446142114
:101170006846FFF765F81D492068884233D11C484E
:101180000024016841F004010160016801F00401DC
:101190000591016841F0010101600068122500F02D
:1011A000010005904FF40070CDE9000502AA032666
:1011B000042782E8D00069460E48FFF777FCB801A3
:1011C000CDE9000502AA694682E8D0000A48FFF787
:1011D0006DFC07481030016841F4000101600068AF
:1011E00000F40000059007B0F0BD0000005C004076
:1011F0003038024000080240000002400248816886
:101200000278114481607047040000200B4810B53B
:10121000016841F400710160016841F4806101607E
:10122000016841F480710160032000F071F8002032
:1012300000F006F800F024F8002010BD003C024049
:1012400070B50D4D04464FF47A712878B1FBF0F07B
:101250000A490968B1FBF0F000F051FC48B9102CC4
:1012600007D200222146501E00F032F800206C60A8
:1012700070BD012070BD000004000020100000209F
:101280000B4882B0016841F480410160006800F4BD
:10129000804000900648001F016841F080510160C5
:1012A000006800F080500090072002B000F030B8D5
:1012B00044380240002809DB00F01F020121914060
:1012C0004009800000F1E020C0F8001170470000E4
:1012D000F0B40E4B1B680C46C3F30223C3F10705A1
:1012E000042D00D90425191D072901D2002300E08F
:1012F000DB1E012606FA05F1491E214099409E4059
:10130000761E16403143F0BC02F016BE0CED00E034
:10131000064900F0070208684FF6FF03184040EA4C
:101320000220034A10430860704700000CED00E003
:101330000000FA052DE9F0470E46050065D0DFF8FC
:101340001481D8F80000F7B200F00700B04207D2CD
:1013500088F80070D8F8000000F00700B04254D1BF
:1013600028683D4C810712D5400703D5206840F41A
:10137000E05020602878000703D5206840F46040E2
:1013800020602068A96820F0F000084320602878D9
:10139000C0072DD0304968680839012812D00228CA
:1013A00013D0032811D00968890700292DDA216894
:1013B00021F0030101432160FFF772FC814641F2F5
:1013C000883A0EE009688903EFE709688901ECE7CC
:1013D000FFF766FCA0EB0901514502D90320BDE8E7
:1013E000F0872068696800F00C00B0EB810FEFD146
:1013F000D8F80010404601F00701B14207D9077044
:10140000006800F00700B04201D00120E7E728782B
:10141000400705D52068E96820F4E05008432060C3
:101420002878000706D52068296920F4604040EA42
:10143000C100206000F038F82168084AC1F30311A8
:10144000515CC8400649086006480068FFF7F8FE8E
:101450000020C4E7003C0240083802405851000810
:1014600010000020080000200448054900680968B1
:10147000044AC1F38221515CC8407047100000202B
:1014800008380240685100080448054900680968A6
:10149000044AC1F34231515CC8407047100000203B
:1014A0000838024068510008154810B5006810F06F
:1014B0000C02144813D04110042A0FD0082A0ED170
:1014C0000F4C241F2268236802F03F025B0207D5FD
:1014D0002068C0F38810A0FB010106E0084610BD9B
:1014E0002168C1F38811A1FB00010023FEF770FE03
:1014F0002168C1F30141491C4900B0FBF1F010BD66
:10150000083802400024F4002DE9F84F04006ED0A2
:101510002078DFF84C93C007A9F104054AD009F1FF
:1015200004000168C1F38101012908D00068C0F3FB
:10153000810002280AD1D9F80000400206D52868A7
:10154000800337D560680028E1D033E06068B0F5EB
:10155000803F10D0B0F5A02F286810D020F4803044
:101560002860286820F4802028606068A8B1FFF710
:1015700097FB06460DE0286840F48030F4E740F41D
:1015800080202860F7E700BFFFF78AFB801B6428F4
:1015900073D828688003F7D50CE0FFF781FB064677
:1015A00005E000BFFFF77CFB801B6428F0D82868AB
:1015B0008003F7D42078DFF8AC8280074FF0000A70
:1015C0003ED5A748001D016811F00C0F08D0006837
:1015D000C0F3810002280BD1D9F80000400207D4E3
:1015E0002868800716D5E068012800D112E033E1B1
:1015F000E068B8B10120C8F80000FFF751FB0646CB
:1016000005E000BFFFF74CFB801B0228C0D828680C
:101610008007F7D52868216920F0F80040EAC1006A
:1016200028600DE0C8F800A0FFF73AFB064604E08A
:10163000FFF736FB801B02281FD828688007F7D4E5
:101640002078000722D5864F87486169703771B1CD
:1016500001210160FFF724FB064604E0FFF720FBB1
:10166000801B022809D838688007F7D50EE0C0F83B
:1016700000A0FFF715FB064605E082E0FFF710FB30
:10168000801B02287DD838688007F7D4207840076F
:1016900068D5DFF8CCB100270BF13C0BDBF800007C
:1016A000C0000BD4DBF8001041F08051CBF80010E3
:1016B000DBF80000012700F0805000906B4E30688E
:1016C000C00510D4306840F480703060FFF7E8FA4D
:1016D000009005E0FFF7E4FA0099401A022850D87C
:1016E0003068C005F6D55E4EA0686C3601280FD074
:1016F0000528306810D020F001003060306820F0FC
:1017000004003060A068B8B1FFF7CAFA00900FE09B
:10171000306840F00100F4E740F004003060F7E783
:10172000FFF7BEFA0099411A41F28830814266D82B
:1017300030688007F4D50EE0FFF7B2FA009007E0BA
:10174000FFF7AEFA0099411A41F28830814256D82B
:1017500030688007F4D42FB1DBF8001021F08051FD
:10176000CBF80010A069C8B33D49091D0968C1F351
:10177000810102294AD00228504607D0C8F86000EB
:1017800000E03CE0FFF78CFA04463BE04746C8F82F
:101790006000FFF785FA064605E000BFFFF780FA14
:1017A000801B02282BD828688001F7D4D4E90701D0
:1017B0000843A16A2E4A490802EB0141626A41EAE4
:1017C0008211084394F82C1040EA0161C9F8001016
:1017D00001203866FFF764FA044606E03EE000BFE9
:1017E000FFF75EFA001B022809D828688001F7D5A8
:1017F00034E000BFFFF754FA001B022802D903208F
:10180000BDE8F88F28688001F4D427E00128F7D0DC
:10181000D9F80000E26900F4800191421CD1226AEB
:1018200000F03F01914217D147F6C071626A014052
:10183000B1EB821F10D1A26A4FF0FF3300F44031A8
:1018400003EB5202B1EB024F06D194F82C1000F0DA
:101850007060B0EB016F01D00120D1E70020CFE72D
:101860000438024000004742800E474200700040AA
:101870000000FFFF70B5040009D0606A002540B188
:1018800025616561A56294F8510040B10CE001202A
:1018900070BD6068B0F5827FF4D0E561F2E784F84E
:1018A0005050204600F044F8022084F8510020688F
:1018B000016821F040010160A088218900F4827054
:1018C00001F404410843A18901F400610843217C2B
:1018D00001F002010843217D01F001010843218B41
:1018E00001F400710843217F01F03801084394F8A6
:1018F000201001F080010843218D01F400510843BC
:1019000021680860A069042101EA104094F82410BD
:1019100001F010010843216848602068C16921F482
:101920000061C1616565012084F85100002070BD2F
:1019300010B586B0044614216846FEF781FC1349B1
:101940002068884220D112480021026842F4805267
:101950000260006800F4805005900D481438026859
:1019600042F001020260006800F001000590E020F2
:1019700000900220CDE9010103200390052004908E
:1019800069460448FFF792F806B010BD00300140E8
:1019900044380240000002402DE9F84F98461646B0
:1019A0008A460446FFF77CF9814694F851000128E5
:1019B0001ED1BAF1000F73D0002E71D094F85000F0
:1019C000012815D0012784F85070032084F85100B5
:1019D00000256565C4F830A0A686E686A563A587C0
:1019E000E58765642564A068B0F5004F03D00CE07E
:1019F0000220BDE8F88F2068016821F040010160F5
:101A00002068016841F4804101602068016849064E
:101A100003D4016841F040010160E068B0F5006F57
:101A2000606803D048B3012E27D047E008B1012EEB
:101A30001FD1206B21680088C86006E0206881689B
:101A4000890709D5216B0988C160206B801C206340
:101A5000E08E401EE0860CE0FFF722F9A0EB0901C2
:101A6000414503D3B8F1FF3F03D035E0B8F1000F93
:101A700032D0E08E0028E1D123E0206B216800788D
:101A8000087306E02068816889070AD5216B097808
:101A90000173206B401C2063E08E401EE0860DE049
:101AA0002BE0FFF7FDF8A0EB0901414503D3B8F1A6
:101AB000FF3F03D010E0B8F1000F0DD0E08E0028FA
:101AC000E0D14A464146204601F08AFB08B1202079
:101AD0006065A06830B109E084F8517084F8505016
:101AE000032086E72068C1688068009084F8517000
:101AF00004F8505F60680028F3D0012079E710B542
:101B0000401EB0F1807F01D3012010BD4FF0E024D2
:101B100060610F21601702F00FFA0020A06107201A
:101B20002061002010BD70477047000070B590F82C
:101B30003C20012A2CD0012480F83C40022280F86D
:101B40003D2003685A689D6822F070060A68324397
:101B50005A60104B02689A420ED0B2F1804F0BD0FF
:101B60000D4B9A4208D00D4B9A4205D00C4B9A422D
:101B700002D00C4B9A4204D1496825F080031943E6
:101B8000916080F83D40002180F83C10084670BD0F
:101B9000022070BD00000140000400400008004029
:101BA000000C00400040014010B5040003D094F840
:101BB0003D0010B107E0012010BD002084F83C007A
:101BC000204600F01FF8022084F83D00211D206807
:101BD00001F05EFD012084F8460084F83E0084F8A0
:101BE0003F0084F8400084F8410084F8420084F803
:101BF000430084F8440084F8450084F83D00002048
:101C000010BD000008B50068154988420FD115487D
:101C1000016841F0010101600068022200F001004A
:101C2000009000211920FFF753FB192012E0B0F1BA
:101C3000804F13D10B48001F016841F00101016082
:101C40000068032200F00100009000211C20FFF733
:101C50003FFB1C20BDE80840FFF72CBB08BD00007F
:101C6000000001404438024090F83D10012901D0A5
:101C700001207047022180F83D1000680E4988421B
:101C80000ED0B0F1804F0BD00C49884208D00C49DF
:101C9000884205D00B49884202D00B49884204D1C2
:101CA000816801F00701062903D0016841F00101B4
:101CB0000160002070470000000001400004004067
:101CC00000080040000C00400040014090F83D102A
:101CD000012901D001207047022180F83D100168E0
:101CE000CA6842F00102CA6000680E4988420ED0FC
:101CF000B0F1804F0BD00C49884208D00B49884284
:101D000005D00B49884202D00A49884204D1816833
:101D100001F00701062903D0016841F001010160CB
:101D2000002070470000014000040040000800400F
:101D3000000C00400040014001680A6A41F21113A2
:101D40001A4207D10A6A9B101A4203D10A6822F08C
:101D500001020A60012180F83D100020704770B533
:101D6000044690F83C000025012817D0012684F88D
:101D70003C60022084F83D002068826822F07702EF
:101D800022F47F4282600868502838D00DDC202879
:101D90004FD005DC90B3102811D14AE0022070BD6D
:101DA000302846D040280AD13BE060282FD0702848
:101DB0000DD0B0F5805F03D0B0F5005F12D00125E3
:101DC00084F83D60002084F83C00284670BDCB6854
:101DD000D1E90121206801F0ADFC2068816841F063
:101DE000770109E0CB68D1E90121206801F0A2FC6C
:101DF0002068816841F480418160E1E719E0CA68A8
:101E00004968206801F0A8FC5021206806E0CA68F3
:101E10004968206801F0B1FC6021206801F094FC61
:101E2000CEE7CA684968206801F096FC4021206826
:101E3000F4E7226801461046F0E770472DE9F041CB
:101E400004460068C66805694FF00007A90713D566
:101E5000B10711D5F91E0161012020772068806942
:101E60008007204602D0FFF7E8FF04E000F07EF88C
:101E7000204600F07CF82777680716D5700714D540
:101E800021686FF0040008610220207720688069D3
:101E900010F4407F204602D0FFF7CFFF04E000F0AF
:101EA00065F8204600F063F82777280715D5300736
:101EB00013D521686FF0080008610420207720689E
:101EC000C0698007204602D0FFF7B7FF04E000F0AA
:101ED0004DF8204600F04BF82777E80616D5F006B7
:101EE00014D521686FF01000086108202077206861
:101EF000C06910F4407F204602D0FFF79EFF04E047
:101F000000F034F8204600F032F82777E80708D0D0
:101F1000F00706D021686FF001000861204600F04C
:101F200027F8280608D5300606D521686FF080000E
:101F300008612046FFF7F7FD680608D5700606D54C
:101F400021686FF040000861204600F012F8A806F2
:101F50000AD5B00608D521686FF020000861204638
:101F6000BDE8F041FFF7E0BDBDE8F0817047704784
:101F700070477047704710B504460068406994F890
:101F80004110C0F3C010212911D180B12068143054
:101F900050E8001F21F0800140E80012002AF5D12E
:101FA000A06B08B1FEF7A2FB204601F09EFC206862
:101FB000406994F84210C0F38010222911D180B1F9
:101FC0002068143050E8001F21F0400140E8001262
:101FD000002AF5D1E06B08B1FEF788FB204601F03E
:101FE0005DFC002010BD7047F8B501680446086824
:101FF000CA684B6910F00F0F4FF000055AD003F07C
:10200000010602F49077374365D0C10705D0D105AA
:1020100003D5616C41F001016164410705D5D90721
:1020200003D0616C41F002016164810705D5D907D5
:1020300003D0616C41F004016164010707D502F02F
:102040002001314303D0616C41F008016164616C8F
:1020500000293BD0800604D5900602D5204601F029
:1020600052FC20684069616CC0F3801001F00801E7
:10207000014320462BD001F011FC20684069400646
:1020800021D52068143050E8001F21F0400140E8BD
:102090000012002AF5D1E06BA8B16E490165E06B32
:1020A000FEF76DFB002811D0E06B016D01B0BDE8BB
:1020B000F040084783060ED593060CD52046BDE8B0
:1020C000F84001F020BC2046FFF78DFFF8BDFFF778
:1020D0008AFF6564F8BD266B2023012E7DD1C606DC
:1020E0007BD5D60679D508684868009048694FF0D6
:1020F0000206400641D5E16B086840680004000C08
:10210000E8D0A28D8242E5D9E085C869B0F5807F2C
:102110002DD020680C3050E8001F21F4807140E879
:102120000012002AF5D12168143151E8000F20F087
:10213000010041E80002002AF5D12068143050E87F
:10214000001F21F0400140E80012002AF5D184F878
:102150004230256320680C3050E8001F21F0100148
:1021600040E80012002AF5D1E06BFEF7BFFA666383
:10217000A08DE18D401A81B22AE0A08DE18D401A38
:1021800081B2E08D0028A5D00029A3D022680C32AE
:1021900052E8000F20F4907042E80007002FF5D1BC
:1021A0002068143050E8002F22F0010240E8002798
:1021B000002FF5D184F84230256320680C3050E8B8
:1021C000002F22F0100240E80023002BF5D16663B7
:1021D0002046FFF7CFFEF8BDFFE705062BD5150615
:1021E00029D594F841002128F5D1A068B0F5805F89
:1021F00001D12069B0B1206A411C216221680078B8
:102200004860E08C401E0004000CE084E3D12068AC
:10221000C16821F08001C1602068C16841F04001BF
:10222000C160D8E7206A0088C0F308004860206ACF
:10223000801C2062E5E74006CDD55006CBD5CA68A4
:10224000204622F04002CA6084F8413000F072F962
:10225000C1E700009F37000870B5040004D094F86F
:102260004100002510B106E0012070BD84F8405007
:10227000204600F023F8242084F841002068C1683B
:1022800021F40051C160204601F09EFB20680169E5
:1022900021F4904101612068416921F02A014161E6
:1022A0002068C16841F40051C1606564202084F851
:1022B000410084F842006563002070BD2DE9F047BD
:1022C00086B0054614216846FDF7BAFF61486149AA
:1022D000DFF87C812F680024143902220323DFF801
:1022E00078A106154FF0070C4FF00069474533D130
:1022F000076847F010070760006800F010000590BD
:10230000086840F0010008600868694600F00100B4
:10231000059058028DE81500CDE9033C5046FEF7C4
:10232000C5FB4F4F4D483860C7E90194C7E90346E4
:102330007C61BC61FC613C6238467C62FEF702FB5A
:1023400008B1FEF7D1F9EF63022200212520BD6319
:10235000FEF7BEFF252039E0DFF8088147453AD176
:102360003C48001F076847F400370760006800F426
:1023700000300590086840F0010008600868694670
:1023800000F0010005900C208DE81500CDE9033C1C
:102390005046FEF78BFB324F334860373860C7E951
:1023A0000194C7E903467C61BC61FC613C6238462C
:1023B0007C62FEF7C7FA08B1FEF796F9EF630222D6
:1023C00000212620BD63FEF783FF2620FEF772FF63
:1023D00006B0BDE8F087DFF894C06745F8D107681C
:1023E00047F020070760006800F0200005900868AB
:1023F00040F0040008600868694600F00400059099
:10240000C0208DE815000820CDE903301848FEF7FC
:102410004DFB134F1148C037183838608005C7E9A5
:102420000104C7E903467C61BC61FC613C6238463B
:102430007C62FEF787FA08B1FEF756F9EF630022D7
:1024400011464720BD63FEF743FF4720BEE700006B
:102450000010014044380240000002404064024045
:102460003002002000440040886002400014014017
:102470000008024090F84230202B01D00220704723
:1024800021B11AB10023036301F024BB012070477E
:10249000704770472DE9F843044690F8410098468C
:1024A00016460D46202802D00220BDE8F88385B1EB
:1024B0007EB100206064212084F84100FEF7F0FB2B
:1024C000A6848146E684A0682027B0F5805F02D00C
:1024D00003E00120E9E7206910B12E4600250EE057
:1024E00000260CE08021204601F03CFBA8B9C6B1D3
:1024F00016F8010B21684860E08C401EE084E08CF7
:102500004B464FF00002CDF800800028EAD14FF092
:102510004001204601F026FB40B184F841700320C1
:10252000C3E735F8020BC0F30800E3E784F8417015
:102530000020BAE77047FEE701684A69D2435205B6
:102540000FD46FF480624A61002140F8301F2022CE
:1025500042738173026942F0040202610173012037
:1025600070470020704700002DE9F84F04460068CE
:1025700089460B9D01689846174641F480610160C9
:102580002068016841F48071016000954FF0011BE3
:102590000022594620460A9B00F0E4F84FF4007AE6
:1025A00040B120680068C00501D5C4F840A00320F0
:1025B000BDE8F88F216809F0FE0008612B46284924
:1025C00020460A9A00F016F9F0BB2068416980693C
:1025D00000902A4620460A9900F0A2F940B1206CEA
:1025E00004283AD12068016841F40071016034E0A8
:1025F000FEB2B8F1010F09D02168380A08612A46F5
:1026000020460A9900F08CF90028E8D1206806617C
:102610002A4620460A9900F083F90028DFD1206875
:10262000016841F4807101600095002259462046FE
:102630000A9B00F097F80028B3D1216809F0FF0049
:1026400040F00100086100E007E02B460449204605
:102650000A9A00F0CFF80028AAD00120A8E70000CD
:10266000020001002DE9F843044600680D46DDE94B
:10267000089701689846164641F4807101604B4600
:1026800000224FF001112046009700F06BF848B18E
:1026900020680068C00502D54FF400702064032054
:1026A000BDE8F883216805F0FE0008613B464A4614
:1026B0001549204600F09EF888B920684169806974
:1026C00000903A464946204600F02AF948B1206C6D
:1026D000042804D12068016841F4007101600120E0
:1026E000DEE7F5B2B8F1010F09D02168300A0861C0
:1026F0003A464946204600F013F90028E7D1206801
:1027000005610020CCE700000200010070B516460C
:102710000D4604461EE02046FFF70EFF08B10120DB
:1027200070BD681C16D0FEF7BBFA801BA84200D80B
:1027300085B920684069C04340070BD5002044F8A4
:10274000300F20216173A073216941F020012161C4
:102750002073E4E720684069C0434007DBD40020D1
:1027600070BD00002DE9F047984617460D46044617
:10277000C1F30746DDF820902AE000BFB8F1FF3F23
:1027800026D0FEF78DFAA0EB0901414502D8B8F139
:10279000000F1DD12068012E16D0806925EA0000A7
:1027A0000004000C12D00020B84211D1002044F8DF
:1027B000300F20216173A073216941F02001216154
:1027C00020730120BDE8F0874069E7E70120EBE7CF
:1027D0002068012E0AD0806925EA00000004000C60
:1027E00006D00020B842C9D00020EBE74069F3E7EB
:1027F0000120F7E72DE9F047984616460D460446B6
:102800004FF000094FF0200AC1F3074723E020688A
:102810004069C043400515D42068016841F4007147
:10282000016021686FF480604861C4F8309084F8DA
:102830003DA084F83E90216C41F00401216484F8AD
:102840003C9021E0701C06D0FEF72AFAA0EB0800AD
:10285000B04203D816B1012F1FD021E02068012F0C
:1028600015D0806925EA00000004000C18D000BFD4
:1028700044F8309F84F80DA084F80E90216941F04F
:102880002001216184F80C900120BDE8F0874069A7
:1028900025EA00000004000CEAD12068406901E04C
:1028A0002068806925EA00000004000CAFD1ECE745
:1028B0002DE9F041002590460E460446202728E0E9
:1028C0004069C043C0060CD454F8301B6FF01000B0
:1028D000486144F810596777A577206A2062257708
:1028E00014E0FEF7DDF9A0EB0800B04200D886B98D
:1028F00020684069C04340060BD544F8305F6773D9
:10290000A573206940F02000206125730120BDE8F7
:10291000F08120684169C9434906D1D40020F6E717
:1029200070B516460D4604461EE02046FFF704FE2D
:1029300008B1012070BD681C16D0FEF7B1F9801BEC
:10294000A84200D885B920684069C04300060BD56D
:10295000002044F8300F20216173A073216941F0F9
:10296000200121612073E4E720684069C04300062C
:10297000DBD4002070BD000003490878002801D096
:1029800000220A70704700001400002010B5154C9A
:1029900010212046FEF77AF901281AD0202120467E
:1029A000FEF774F9012815D021152046FEF76EF9BF
:1029B000012811D04FF480412046FEF767F9012825
:1029C0000CD04FF400412046FEF760F9012807D0F3
:1029D000002010BD022010BD032010BD042010BD3A
:1029E000052010BD000402400C4800B5026887B005
:1029F000002142F002020260006800F0020005902F
:102A00000220CDE9011003904CF23040009069465D
:102A10000348FEF74BF807B000BD00003038024015
:102A20000004024010B50A4CE078401CC0B2E070CF
:102A300014280CD30020E070A0786070FFF7A6FF88
:102A4000A070002803D06178002900D1207010BD4B
:102A500014000020154808B5016841F480010160A8
:102A6000016801F480010091016841F400110160E6
:102A70000068002200F40010009011461020FEF7BC
:102A800027FC1020FEF716FC002211463920FEF725
:102A90001FFC3920FEF70EFC002211463A20FEF7FB
:102AA00017FCBDE808403A20FEF704BC303802406D
:102AB0002DE9F04387B014216846FDF7C1FB284893
:102AC0000024016841F004010160016801F0040183
:102AD0000591016841F080010160016801F0800109
:102AE0000591016841F001010160016801F00101F7
:102AF0000591016841F0020101600068DFF864801F
:102B000000F002000590002203214046FEF7C3F8C2
:102B10000122DFF85490550329464846FEF7BBF8DA
:102B20004FF404100095CDE9010469460F48FDF704
:102B3000BDFF032001260227CDE90006CDE90247AB
:102B400069464046FDF7B2FF03970095CDE9016461
:102B500069464846FDF7AAFF07B0BDE8F0830000CC
:102B600030380240000002400004024000080240E9
:102B70000D4810B50B4901600C49416000214FF42C
:102B800080428160C0E9031241618161C1610162DB
:102B9000FEF78CF8002803D0BDE81040FDF7A4BD77
:102BA00010BD0000005C00401C000020A086010059
:102BB000104810B50E4901604FF482714160002148
:102BC0008160C1604FF400720161C0E905123022DA
:102BD000C0E90721416281620A21C162FEF74AFE13
:102BE000002803D0BDE81040FDF77EBD10BD0000F9
:102BF000003001407000002010B586B00024174856
:102C00000094019402940394049413490594016080
:102C100040F2E731C0E901146321C0E903144461C3
:102C20008461FEF7C1FF08B1FDF75EFD4FF48050EF
:102C3000009069460948FFF792F808B1FDF754FD86
:102C4000049404A905480594FEF770FF002801D0FC
:102C5000FDF74AFD06B010BD00000140C80000208D
:102C600010B586B000241648009401940294039491
:102C700004944FF080410594016042F20F71C0E965
:102C80000114C0E903148461FEF78EFF08B1FDF75B
:102C90002BFD4FF48050009069460948FFF75FF81C
:102CA00008B1FDF721FD049404A905480594FEF739
:102CB0003DFF002801D0FDF717FD06B010BD000054
:102CC000100100200C4810B50A4901604FF4E131B1
:102CD0004160002181600C22C160C0E90412816161
:102CE000C161FFF7B9FA002803D0BDE81040FDF735
:102CF000FBBC10BD00100140580100200C4810B56D
:102D00000A4901604FF4E1314160002181600C22E9
:102D1000C160C0E904128161C161FFF79DFA00281A
:102D200003D0BDE81040FDF7DFBC10BD00440040FB
:102D3000A00100200C4810B50A4901604FF4E131B0
:102D40004160002181600C22C160C0E904128161F0
:102D5000C161FFF781FA002803D0BDE81040FDF7FC
:102D6000C3BC10BD00140140E8010020FEE70000D4
:102D70000E4810B5016886B041F00201016000689C
:102D80000B4C00F0020005901120019002200390EE
:102D90008020009069462046FDF788FE4020009084
:102DA00069462046FDF782FE06B010BD303802406D
:102DB0000004024010B580210448FDF767FF044677
:102DC0000A20FDF7F2FB204610BD0000000402407F
:102DD00010B5012000F06EF8012000F05DF8FFF75B
:102DE000E9FF0446002000F057F8204610BD70B5FA
:102DF0000025012000F05EF800248026012000F06C
:102E00004BF8FFF7D7FF012802D126FA04F005435B
:102E1000002000F041F8641C64B2082CEEDB284668
:102E200070BD10B500F046F8012000F035F8BDE89F
:102E30001040002000F030B870B500240546802610
:102E400026FA04F0284000F035F8012000F024F8BC
:102E5000002000F021F8641C64B2082CF0DB70BD87
:102E600010B5012000F026F8012000F015F8002030
:102E700000F020F8BDE81040002000F00DB810B5BB
:102E8000002000F017F8012000F006F8BDE810401F
:102E9000012000F00FB8000010B5024640210448A0
:102EA000FDF7F9FEBDE810400A20FDF77EBB0000EB
:102EB0000004024010B5024680210448FDF7EBFEF5
:102EC000BDE810400A20FDF770BB0000000402407E
:102ED000FEE770B500240021204600F0C8F8002568
:102EE000002000F06AF96D1CEDB2802DF8D3641C4F
:102EF000E4B2082CEFD370BD30B5114887B001683B
:102F000041F00401016000680E4D00F004000590DE
:102F10001120019001200224009003946946284664
:102F2000FDF7C4FD694628460094FDF7BFFD01206A
:102F300000F016F9012000F021F907B030BD0000C3
:102F4000303802400008024070B500240546802653
:102F500026FA04F0284000F011F9012000F000F9F1
:102F6000002000F0FDF8641CE4B2082CF0D301202E
:102F700000F0F6F8BDE87040002000F0F1B810B5A0
:102F8000012000F0FBF8012000F0EAF8002000F03A
:102F9000F5F8BDE81040002000F0E2B810B50020C0
:102FA00000F0ECF8012000F0DBF8BDE81040012053
:102FB00000F0E4B810B500204FF47A720021491CEB
:102FC0009142FCD3401C9042F8D3FFF795FFAE200E
:102FD00000F0E2F8D52000F0DFF8802000F0DCF807
:102FE000A82000F0D9F83F2000F0D6F8D32000F058
:102FF000D3F8002000F0D0F8402000F0CDF8A12058
:1030000000F0CAF8C82000F0C7F8DA2000F0C4F8D1
:10301000122000F0C1F8812000F0BEF8CF2000F0AF
:10302000BBF8D92000F0B8F8F12000F0B5F8DB20AB
:1030300000F0B2F8302000F0AFF8A42000F0ACF8B7
:10304000A62000F0A9F88D2000F0A6F8142000F0CA
:10305000A3F8AF2000F0A0F8BDE81040FFF739BF9B
:103060000246012000E05043491EFCD2704710B5D3
:103070000C4640F0B00000F08FF8102040EA141029
:1030800000F08AF804F00F00BDE8104000F084B8AA
:103090002DE9F0410746CE004000083E801E15464F
:1030A0004FF0FF38F1B2C0B2FFF7E1FF1148002442
:1030B00000EB05152819A0F5805090F8000E00F0DF
:1030C0007CF8641CE4B2082CF4D308EB4700F1B29E
:1030D000C0B2FFF7CCFF00242819A0F5805090F86B
:1030E000080E00F06AF8641CE4B2082CF4D3BDE8C2
:1030F000F0810000705100082DE9F04700241D46C2
:103100001646884681460A2713E0291B0A20491ED5
:10311000FFF7A6FFB6FBF0F0B0FBF7F107FB1102DB
:1031200008EB0400C1B248463032FFF7B1FF641C1F
:10313000E4B2AC42E9D3BDE8F0872DE9F041154691
:103140000E460746002406E03019C1B23846FFF7A4
:103150009FFF641CE4B22A5D002AF5D1BDE8F0812E
:1031600010B5024601210448FDF795FDBDE8104069
:103170000120FDF71ABA00000008024010B502460F
:1031800002210448FDF787FDBDE810400120FDF74E
:103190000CBA00000008024010B50446FFF7EFFE2D
:1031A0007820FFF7D1FE0020FFF7CEFE2046FFF784
:1031B000CBFEBDE81040FFF7F1BE10B50446FFF7A7
:1031C000DEFE7820FFF7C0FE4020FFF7BDFE204660
:1031D000FFF7BAFEBDE81040FFF7E0BE7047000001
:1031E000F8B515460E460B46009204460122022110
:1031F00000F02CF8A0B9134813490068B0FBF1F0B7
:103200004FF47A71484300906068B0F5827F0DD129
:103210003346002280212046009500F017F870B157
:10322000606D40F0200060650320F8BD009830B16B
:10323000401E009020688068C0430006F6D500203C
:10324000F8BD00001000002000366E012DE9F843A3
:103250001E46914688460446089DFDF721FD401B09
:10326000351AFDF71DFD074625480068C0F3CB3031
:10327000684338E0701C37D0FDF712FDC01BA84230
:1032800003D215B1009860B32CE02068416821F0AA
:10329000E00141606068B0F5827F0BD1A068B0F5B5
:1032A000004F02D0B0F5806F04D12068016821F092
:1032B00040010160A06AB0F5005F09D12068016893
:1032C00021F4005101602068016841F4005101605F
:1032D000012084F85100002084F850000320BDE84C
:1032E000F8830025401E00902068816838EA0100BC
:1032F00004D000214945BDD10020F0E70121F9E7C4
:10330000100000207047000010B50446FFF7E1FDF3
:10331000012138A20846FFF710FF6078012812D07B
:10332000FFF7D7FD012133A20846FFF706FF35A2BC
:1033300001210220FFF701FF0121BDE8104036A264
:103340000320FFF7FABE207938A201284FF00101CF
:103350004FF0020039D0FFF7F0FE012300220521D3
:103360000220FFF7C9FEA07832A201284FF0080121
:103370004FF002002ED0FFF7E0FE012300220D21C6
:103380000220FFF7B9FEE0782CA201284FF00101DE
:103390004FF0030023D0FFF7D0FE012300220521C8
:1033A0000320FFF7A9FE607926A201284FF008014B
:1033B0004FF0030018D0FFF7C0FE012300220E21BA
:1033C000BDE810400320FFF797BEFFF7B6FE0123CC
:1033D0001A46C4E7FFF7B1FE01231A46CFE7FFF70D
:1033E000ACFE01231A46DAE7FFF7A7FE01231A46CF
:1033F000E5E700004D61696E74656E616E63653A64
:103400000000000020204572726F723A54686572A5
:1034100065206973000000006E6F20486F73742090
:10342000436F6D7075746572210000004448543A12
:1034300000000000465047413A0000005443533A10
:1034400000000000564C3631383A0000FDF7D6BE79
:1034500030B593B030216846FCF7F2FE14210CA879
:10346000FCF7EEFE1C480024016841F08051016029
:10347000006800F0805011901848016841F4404104
:1034800001600068022500F4404011900120039083
:103490001020009506950490CDE907404FF4C870C0
:1034A000099004200A900B906846FEF72DF808B1A9
:1034B00072B6FEE70F20CDE90C054FF48050CDE940
:1034C0000E4003210CA81094FDF734FF002801D012
:1034D00072B6FEE713B030BD4038024000700040C5
:1034E0000248016841F470010160704788ED00E016
:1034F0002DE9F0410746984615460E46132000F088
:1035000046F8C00729D0152000F041F804461420E1
:1035100000F03DF840EA04203880172000F037F82A
:103520000446162000F033F840EA042030801920C9
:1035300000F02DF80446182000F029F840EA042095
:1035400028801B2000F023F804461A2000F01FF802
:1035500040EA0420A8F800000120BDE8F08110B581
:10356000FFF706FC0121802000F031F80520FDF76F
:1035700006F8802000F00BF840F00201802000F0F7
:1035800026F8D621BDE81040012000F020B810B583
:103590000446FFF765FC5220FFF74EFCFFF718FCCE
:1035A00044F08000FFF748FCFFF712FCFFF758FCDF
:1035B0005320FFF741FCFFF70BFCFFF718FC044614
:1035C0000120FFF72EFCFFF75AFC204610BD70B516
:1035D0000D460446FFF744FC5220FFF72DFCFFF791
:1035E000F7FB44F08000FFF727FCFFF7F1FB2846CC
:1035F000FFF722FCFFF7ECFBBDE87040FFF73FBC94
:1036000010B5FFF70FFABDE810400148FEF716BCF1
:10361000C800002010B51548FEF78EFB13490020A6
:1036200009684862124C012211462046FDF733FB1F
:10363000002202212046FDF72EFB4FF6FF742346A1
:1036400002220CA10C48FEF725FF23460F220BA1F6
:103650000948FEF71FFF23460F2208A10B48FEF77B
:1036600019FFBDE810400148FEF7E8BB100100203B
:10367000000002400D0A000058010020465047415A
:103680002069732073746F70210D0A00E801002017
:10369000F0B50268204B214C9F03214D214E9842EA
:1036A00007D0B84205D0A04203D0A84201D0B04212
:1036B00004D122F0700C4A6842EA0C02984210D001
:1036C000B8420ED0A0420CD0A8420AD0B04208D0D6
:1036D000154CA04205D0154CA04202D0144CA0427B
:1036E00003D122F44074CA6822434C6922F080025C
:1036F000224302608A68C2620A688262984201D1EB
:1037000009690163012141610169C90703D00169A8
:1037100021F001010161F0BD000001400004004002
:1037200000080040000C00400040014000440140FF
:103730000048014010B5846842EA032224F47F4423
:103740000A432243826010BD826822F070020A435D
:1037500042F007018160704710B5036A046A24F0E3
:1037600001040462846924F0F00444EA021423F0A2
:103770000A020A438461026210BD10B5036A046A3A
:1037800024F010040462846923F0A00324F470443C
:1037900044EA023243EA01118261016210BD10B5B0
:1037A000806B0021C185C184FEF71DFC10BD70B582
:1037B000846B2068406994F84110C0F3C010002564
:1037C000212904D118B1E584204600F08EF8206844
:1037D000406994F84210C0F38010222904D118B136
:1037E000E585204600F05AF8606C40F010006064F7
:1037F0002046FEF7F8FB70BD10B50146806B0968E6
:1038000009684FF00002C9052ED4C28501680C3149
:1038100051E8003F23F4807341E80034002CF5D1D7
:103820000168143151E8003F23F0010341E80034FE
:10383000002CF5D10168143151E8003F23F040031A
:1038400041E80034002CF5D1202180F84210016BB2
:10385000012909D101680C3151E8003F23F0100320
:1038600041E80034002CF5D14263016B012902D0FC
:10387000FEF70EFE10BD818DFEF77CFB10BD10B56E
:10388000806B01214163016B012902D0FEF701FE2B
:1038900010BD818D4908FEF76DFB10BD01680C312C
:1038A00051E8002F22F4907241E80023002BF5D15B
:1038B0000168143151E8002F22F0010241E8002391
:1038C000002BF5D1016B012909D101680C3151E8B8
:1038D000002F22F0100241E80023002BF5D1202117
:1038E00080F8421000210163704701680C3151E8F3
:1038F000002F22F0C00241E80023002BF5D1202147
:1039000080F84110704708B590F84210222901D084
:10391000022008BD82684FF480539A4201D10169A8
:1039200021B1816A9A421BD04AB10AE00268816AD9
:103930005268C2F308020A80816A891C08E00269A1
:1039400072B10268526802F07F020A70816A491CF3
:103950008162C18D491E0904090CC18503D01BE099
:1039600002685268F1E70168CA6822F02002CA6062
:103970000168CA6822F48072CA6001684A6922F04C
:1039800001024A61202180F8421000214163026B4C
:10399000012A03D0FEF77CFD002008BD0163016809
:1039A0000C3151E8002F22F0100241E80023002BD7
:1039B000F5D101680A68D20602D50A684968009103
:1039C000818DFEF7D7FAE7E770B504460068016914
:1039D000E26821F44051114301612169A068E26964
:1039E00008436169114308432168CA6849F20C63BE
:1039F0009A430243CA6020684169A26921F4407178
:103A00001143416131492068884202D030498842DF
:103A100002D1FDF739FD01E0FDF726FDE269002343
:103A2000192164253226B2F5004F626828D0A0FB28
:103A30000101930F9200FCF7CBFB0146B0FBF5F0C0
:103A40006FF01802504301EB800006EB0010B0FB52
:103A5000F5F000F0F002B1FBF5F002EB0012B1FB63
:103A6000F5F06FF01803584301EB800006EB0010EF
:103A7000B0FBF5F000F00F0021681044886070BDC5
:103A8000A0FB010192185B41FCF7A2FB0146B0FBD1
:103A9000F5F00201B1FBF5F06FF01803584301EBAC
:103AA000800006EBC000B0FBF5F000F0F80002EB80
:103AB0004002B1FBF5F0584301EB800006EBC0007B
:103AC000B0FBF5F000F00700D6E700000010014061
:103AD0000014014038B581620446828500201346F7
:103AE0006064222284F84220E56B1B4AEA63E56B9E
:103AF0001A4A2A64E56B1A4AEA64E26B10650A46C0
:103B00002168E06B091DFCF787FF206801684068A9
:103B10000090206948B120680C3050E8001F41F443
:103B2000807140E80012002AF5D12068143050E876
:103B3000001F41F0010140E80012002AF5D1206881
:103B4000143050E8001F41F0400140E80012002A04
:103B5000F5D1002038BD0000F93700087F38000893
:103B6000AF3700082DE9F843984617460D4604463E
:103B7000089E24E0701C22D0FDF792F8A0EB08000C
:103B8000B0421AD8CEB12068C168490717D5802D38
:103B900015D0402D13D00168C94309070FD401681F
:103BA0000025406800902046FFF778FE08206064FA
:103BB00084F840500120BDE8F8830320FBE720682B
:103BC000006835EA000004D00020B842D2D00020BE
:103BD000F1E70120F9E7000038B5114C20680168D1
:103BE000C943C90616D401680025406800902046E4
:103BF000FEF7C1F9E06B006840680A4A0121C0F590
:103C000080601170084980B24FF480620D542046E4
:103C1000FEF730FCBDE838400148FEF7E5B900008A
:103C20005801002000000020500300200148FEF74A
:103C3000DBB90000A0010020F8B51B4C206801682A
:103C4000C943C9062AD4016800254068009020466F
:103C5000FEF791F9E06B006840684FF6FF76C0F51B
:103C6000007084B23346022210A10F48FEF712FC06
:103C7000334622460E490C48FEF70CFC334602221E
:103C80000AA10948FEF706FC09480A490555012022
:103C90004870420206490448FEF7ECFBBDE8F840D4
:103CA0000148FEF7A1B90000E80100200D0A00005C
:103CB0005007002000000020FEE708B569460020FC
:103CC00000F0F4F810B100208DF800009DF800001D
:103CD00008BD1CB569464D2000F0E8F806E06946CD
:103CE0004D2000F0E3F80A20FCF7CEFE9DF800001E
:103CF000C007F4D001218DF80410182000F0E6F878
:103D000069464F2000F0D2F806E069464F2000F0E7
:103D1000CDF86420FCF7B8FE9DF800004007F4D50C
:103D200001A9622000F0C2F80721152000F0CEF8AA
:103D30009DF804001CBD08B500208DF80000694600
:103D4000162000F0B3F89DF8000001287CD1012175
:103D500040F2072000F0BAF801214FF4027000F0A1
:103D6000B5F80021962000F0B1F8FD21972000F071
:103D7000ADF80121E32000F0A9F80321E42000F0D0
:103D8000A5F80221E52000F0A1F80121E62000F0CD
:103D90009DF80321E72000F099F80221F52000F0BA
:103DA00095F80521D92000F091F8CE21DB2000F014
:103DB0008DF80321DC2000F089F8F821DD2000F0E7
:103DC00085F800219F2000F081F83C21A32000F01D
:103DD0007DF80021B72000F079F83C21BB2000F0ED
:103DE00075F80921B22000F071F80921CA2000F00D
:103DF0006DF801214FF4CC7000F068F817214FF4F2
:103E0000D87000F063F8002140F2AD1000F05EF8C9
:103E10000521FF2000F05AF805214FF4807000F0D2
:103E200055F8052140F2991000F050F81B214FF48D
:103E3000D37000F04BF83E214FF4D67000F046F8F6
:103E40001F2140F2A71000E02EE000F03FF8002113
:103E5000302000F03BF81021112000F037F830211D
:103E60004FF4857000F032F846213F2000F02EF824
:103E7000FF21312000F02AF86321402000F026F8CD
:103E800001212E2000F022F809211B2000F01EF84D
:103E900031213E2000F01AF82421142000F016F8F9
:103EA0000021162000F012F808BD00003EB50A46B9
:103EB0001E2401238DE81C000246532102230248E0
:103EC000FCF7B8FF3EBD00001C00002013B584B015
:103ED0001E24012305AA8DE81C000246522102235C
:103EE0000248FDF7A9F806B010BD00001C00002034
:103EF0000FB4054B10B503A9044A029800F03CF832
:103F000010BC5DF814FB0000D94000081800002028
:103F10000FB4084B10B504A902AA039800F02CF8BE
:103F2000044602A9002000F0D1F8204610BC5DF83C
:103F300014FB0000CD4000080907090E002804DB2F
:103F400000F1E02080F80014704700F00F0000F14D
:103F5000E02080F8141D704702E008C8121F08C155
:103F6000002AFAD170477047002001E001C1121FFA
:103F7000002AFBD1704700002DE9FF4F89B09B4616
:103F80000446002506E025280BD05A460B99904799
:103F9000641C6D1C20780028F5D10DB02846BDE8C2
:103FA000F08F0027B8460122474900E0074314F884
:103FB000013F203B02FA03F00842F7D120782E2877
:103FC00019D114F8010F47F004072A280ED06FF01A
:103FD0002F022078A0F1300109290CD808EB8801C4
:103FE00002EB410100EB0108641CF2E70A98641C33
:103FF00050F8048B0A9020780028CED0642808D08E
:10400000692806D075281ED05A460B9990476D1C1A
:1040100058E00A994FF00A0901C90A91002802DA0A
:1040200040422D2102E0390504D52B218DF82010C6
:10403000012103E0F90704D02021F7E78A4608AE02
:104040000DE00021FAE70A994FF00A0901C90A9127
:10405000F7E74946FCF718F9303106F8011D00284A
:10406000F7D1ADEB060000F12009780701D44FF03D
:104070000108C84502DDA8EB090000E000208046E9
:10408000002706E008A85A46C05D0B9990476D1CB2
:104090007F1C5745F6DB04E030205A460B999047C9
:1040A0006D1CB8F10001A8F10108F5DC05E016F877
:1040B000010B5A460B9990476D1CB9F10001A9F10B
:1040C0000109F4DC641C65E7092801000A68531C37
:1040D0000B6010707047000038B504468DF8000082
:1040E0004FF6FF73012269460248FEF7D3F92046D6
:1040F00038BD00005801002098B0FDF787F8FFF7A1
:10410000A7F9FEF7D5FCFEF7A5FCFEF731FDFEF79B
:1041100073FDFEF7D7FDFEF7F1FDFEF7A1FDFEF7FB
:1041200047FDFEF707FEFEF745FFFEF75DFCFCF7D7
:1041300029F9FFF714FAFFF7FEFD4FF48062F84902
:10414000F848FEF797F90622F749F848FEF792F982
:10415000F748FDF7BBFDF748FDF7EEFDDFF8D49318
:104160000024D9F8000044624846FDF7AFFDED4851
:104170000068C16841F01001C160EC480068C16886
:1041800041F01001C1600121EBA20846FEF7D5FF06
:104190000120FCF7FFF9ECA0FFF7AAFEEC4F3878FE
:1041A0000128FCD13C70EBA1DD48FCF754F880B14C
:1041B000FCF7B4F8E9A0FFF79BFEFEF78AFE0121A9
:1041C000ECA20846FEF7B9FF0120FCF7E3F9ECA0EA
:1041D0002AE00120FCF7DEF9DBA0FFF789FE0120D1
:1041E000FCF7D8F9DBE738780128FCD13C70E8A16E
:1041F000CB48FCF730F888B1FCF790F8E7A0FFF760
:1042000077FE0121E9A20846FEF797FF0120FCF79F
:10421000C1F9E948FFF76CFE022040E0FCF77EF8A8
:104220000120FCF7B7F9E5A0FFF762FE0120FCF7DB
:10423000B1F9D8E738780128FCD13C70E3A1B8483F
:10424000FCF709F810B3FCF769F8E3A0FFF750FE9C
:104250000121E5A20846FEF770FF0120FCF79AF95C
:10426000002540F2D2482E46FEF733FE0121E1A29E
:104270000846FEF762FFE4A201210220FEF75DFF7F
:10428000FEF77AFB02464FF00A0A10E0FCF746F808
:104290000120FCF77FF9C848FFF72AFE0120FCF750
:1042A00079F9C7E7FEF768FB0246032D1ED0002A06
:1042B000F8D06D1CEDB2052A09D0B01800EB8000D3
:1042C0004600012329460320FEF716FFEAE70DB159
:1042D0006D1EEDB296FBFAF6CEA229460320FEF73C
:1042E0002CFF002DDED06D1EEDB2DBE7002AD9D009
:1042F0000421052A29D0164401230320FEF7FCFEE1
:10430000002546452AD1C4A201210420FEF715FF4D
:10431000C3A201210420FEF710FFC820FCF72FF9EB
:10432000FEF7D7FD0121BFA20846FEF706FFBEA299
:1043300001210220FEF701FFDFF8FCA2DFF8FCB24A
:104340004FF6FF75784EB84621E096FBFAF603214A
:10435000B0A20846FEF7F1FE0225A3E70026AEA2B2
:1043600001210420FEF7E9FEB5A201210420FEF799
:10437000E4FE0120FCF70EF9B3A201210320FEF7B1
:10438000DCFEA5A201210420FEF7D7FE8AE798F8FB
:10439000001001297ED188F80040ADA16048FBF7EC
:1043A0005AFF00B3012211465F465846FCF773FCE2
:1043B000012202213846FCF76EFCFEF78AFD01213E
:1043C000A6A20846FEF7B9FEA8A201210220FEF728
:1043D000B4FEA948FFF78CFDD9F8001048464C629E
:1043E00044F61F6122E0A5A14D48FBF734FF70B3EE
:1043F000012211465F465846FCF74DFC012202217E
:104400003846FCF748FC0121A0A20846FEF795FEBD
:1044100096A201210220FEF790FEA048FFF768FD5A
:10442000D9F8001048464C624CF24F310268D16214
:104430004048C9F80C10FDF717FC2B46022262A178
:104440003848FEF727F82B460D2295A104E3FFE735
:1044500097A13348FBF7FFFEF8B1012198A2084667
:10446000FEF76BFE81A201210220FEF766FE01220B
:1044700011465F465846FCF70EFC012202213846E1
:10448000FCF709FC9348FFF733FDD9F800104846C4
:104490004C6200E0E7E29049C8E790A12048FBF7B2
:1044A000DAFE002838D0FFF714FC0290FEF711FD69
:1044B00001218EA20846FEF740FE91A201210220B2
:1044C000FEF73BFE03230A210220029AFEF714FEA8
:1044D00002986328014601D98C4800E08C48FFF718
:1044E00007FD0120FCF756F88AA10D48FBF7B3FE43
:1044F00000272AE17F1CFFB20A2F0ED0FBF70EFF28
:1045000087A0FFF7F5FC0120FCF744F80298632828
:10451000014603D97D480EE11EE119E10AE10000E0
:10452000500300205801002050070020E80100201F
:10453000C8000020100100204D616368696E65208D
:10454000496E69742E2E2E004154490D0A00000058
:10455000000000204669626F636F6D0076657273BC
:10456000696F6EE4BFA1E681AFE6ADA3E7A1AE0D32
:104570000A0000007465737431204F4B2E00000058
:1045800041542B4D495043414C4C3F0D0A00000013
:104590002B4D495043414C4C3D310000E88EB7E56E
:1045A0008F964950E68890E58A9F00007465737481
:1045B00032204F4B2E000000B860000841542B4DB4
:1045C000495043414C4C3D310D0A00002B484D43AE
:1045D0004F4E204F4B000000E8BF9EE68EA5E688B8
:1045E00090E58A9F000000007465737433204F4B80
:1045F0002E000000506C6561736520656E746572F5
:10460000207468650000000070617373776F7264D6
:104610003A00000020000000202020202020000080
:104620004F4B21002A2A2A005761697420436D6488
:10463000202E2E2E0000000001000020000002406D
:104640004572726F722100002020202000000000BF
:104650004D6F746F725F536D616C6C00436D643AA3
:104660004D74725F536D616C6C0000005374617423
:10467000653A4F4B00000000145800084D6F746FEE
:10468000725F4D6964646C6500000000436D643ABC
:104690004D74725F4D6964646C650000305A0008A7
:1046A00046504741205375636365737321000000D2
:1046B0004D6F746F725F4E756D65726F757300002C
:1046C000436D643A4D74725F4E756D65726F7573AC
:1046D00000000000E45A00089F86010052616E67E6
:1046E000655F64697374616E63650000436D643A6D
:1046F0005267655F64697374616E636500000000F2
:1047000044697374616E63653A000000985B000849
:10471000505C00082B484D505542204F4B00000084
:10472000E8B79DE7A6BBE4B88AE68AA5E5A4B1E8A8
:10473000B4A50000FA48FFF7DBFB0120FBF72AFFD6
:10474000AFF23001F748FBF786FD00283FF4D2AE08
:10475000FBF7E4FDF4A093E0F8A1F248FBF77BFD42
:10476000002871D0FEF7B5FB0121F7A20846FEF73D
:10477000E4FCF9A201210220FEF7DFFC08AB11AA3C
:1047800010A912A8FEF7B4FEBDF84000BDF8441011
:1047900088420AD9BDF82020904206D9F0A207210C
:1047A0000220FEF7CAFCF04818E081420AD9BDF8A1
:1047B0002020914206D9EDA207210220FEF7BDFC80
:1047C000EC480BE0BDF820208A4209D9824207D983
:1047D000E9A207210220FEF7B0FCE948FFF788FBB9
:1047E0000120FBF7D7FEAFF2D401CE48FBF733FD33
:1047F000002740E07F1CFFB20A2F3ED0FBF78EFD62
:10480000E0A0FFF775FB0120FBF7C4FEBDF84010E8
:10481000BDF8440081420AD9BDF82020914206D952
:10482000CFA207210220FEF788FCCF4819E088427A
:104830000BD9BDF82020904207D9CCA20721022035
:10484000FEF77BFCCB480CE024E0BDF82020824240
:1048500009D98A4207D9C8A207210220FEF76DFCB8
:10486000C748FFF745FB0120FBF794FEAFF25C1150
:10487000AC48FBF7F0FC0028BCD0FBF74FFDC6A00E
:10488000FFF736FB2B460222AFF2C421C748FDF7E3
:1048900001FEDEE0C6A1A348FBF7DDFCD8B30BA9FF
:1048A0000AA8FBF7C7FDFEF714FB0121C4A20846C6
:1048B000FEF743FCC6A201210220FEF73EFC0223C4
:1048C0009DF8282006211846FEF716FC9DF82810B2
:1048D000092901D9C04800E0C048FFF709FB0120C1
:1048E000FBF758FEAFF2D4118E48FBF7B4FC00275B
:1048F0001DE07F1CFFB20A2F1BD0FBF70FFDB8A0F5
:10490000FFF7F6FA0120FBF745FE9DF8281009296C
:1049100002D9B14801E010E0B048FFF7E9FA012000
:10492000FBF738FEAFF214217E48FBF794FC002819
:10493000DFD0FBF7F3FCAFA0A2E7B3A17948FBF708
:104940008AFCE8B30BA90AA8FBF774FDFEF7C1FACD
:104950000121B1A20846FEF7F0FBB4A2012102201A
:10496000FEF7EBFB02239DF82C2006211846FEF7EC
:10497000C3FB9DF82C0002900146AE48FFF7B8FA41
:104980000120FBF707FEAFF274216648FBF763FCDA
:10499000002719E07F1CFFB20A2F17D0FBF7BEFCDF
:1049A000A5A0FFF7A5FA0120FBF7F4FDA1480299A5
:1049B000FFF79EFA0120FBF7EDFDAFF2A82100E022
:1049C00008E05848FBF747FC0028E3D0FBF7A6FCBB
:1049D0009EA055E7A2A15348FBF73DFCF0B30EA8FB
:1049E000FBF7F2FD0EA8FEF78FFC9DF838100929A1
:1049F00001D9A14800E0A148FFF77AFA0120FBF7AE
:104A0000C9FDAFF2F0214748FBF725FC00271CE069
:104A10007F1CFFB20A2F1AD0FBF780FC98A0FFF78B
:104A200067FA0120FBF7B6FD9DF83810092901D976
:104A3000914800E09148FFF75BFA0120FBF7AAFDDF
:104A4000AFF230313748FBF706FC0028E0D0FBF727
:104A500065FC2B46082291A1544800E001E0FDF7D7
:104A600019FDFBF75BFC9AF8001001297FF46CAC90
:104A70008AF80040307864281DD0652849D0632822
:104A800048D0772847D0422846D0432845D04428EC
:104A900044D04E2843D0FEF71CFA012182A20846DA
:104AA000FEF74BFB82A201210220FEF746FB2B46BC
:104AB000102281A1B2E1FFF70CF907466420FBF751
:104AC0005EFDFFF706F909906420FBF758FD099891
:104AD00038444708FEF7FDF901217BA20846FEF79E
:104AE0002CFB7CA201210220FEF727FB03233A4680
:104AF00001210220FEF700FB79A204210220FEF72B
:104B00001CFB3A4677A16846FFF702FA2B460F22B4
:104B1000B9E1EFE027E18EE1BDE1E7E10CE236E249
:104B2000505C000850030020E8B79DE7A6BBE4B83E
:104B30008AE68AA5E68890E58A9F00004765745F4B
:104B4000436F6C6F72000000436D643A4765745F99
:104B5000436F6C6F72000000436F6C6F723A00001D
:104B60005265642020200000605700084772656588
:104B70006E202000C8580008426C75652020000097
:104B80007C590008E9A29CE889B2E4B88AE68AA5C3
:104B9000E5A4B1E8B4A50000E9A29CE889B2E4B8B4
:104BA0008AE68AA5E68890E58A9F000058010020E1
:104BB0004765745F74656D706572617475726500C8
:104BC000436D643A4765745F74656D700000000062
:104BD00054656D703A000000C45D0008085D00086F
:104BE000E6B8A9E5BAA6E4B88AE68AA5E5A4B1E8DC
:104BF000B4A50000E6B8A9E5BAA6E4B88AE68AA595
:104C0000E68890E58A9F00004765745F68756D6966
:104C10006469747900000000436D643A4765745F0D
:104C200068756D69646974790000000048756D6984
:104C30003A00000000600008E6B9BFE5BAA6E4B893
:104C40008AE68AA5E5A4B1E8B4A50000E6B9BFE507
:104C5000BAA6E4B88AE68AA5E68890E58A9F0000AD
:104C60004D61696E74656E616E63655F50617261FE
:104C70006D65746572000000405F0008805E00088A
:104C8000E6A8A1E59D97E58F82E695B0E4B88AE6AF
:104C90008AA5E5A4B1E8B4A50D0A000053756363C5
:104CA0006573732100000000436D643A000000004A
:104CB0004572726F72320000436F6D6D616E6420D9
:104CC0004572726F720D0A0064697374616E636578
:104CD0003A0000002020202020202020200000007A
:104CE0006D6D0000E8B79DE7A6BBE4B8BA3A25644D
:104CF0000D0A0000FEF7EDF80121BAA20846FEF702
:104D00001CFA012211465F465846FBF7C4FF0122F8
:104D100002213846FBF7BFFFD9F800104C62D9F8E2
:104D2000002047F22F51D162B248C9F80C10FCF7AD
:104D30009BFFB1A113A8FFF7EBF82B461122B4A1FA
:104D4000B848FDF7A7FBB8A201210220FEF7F5F94C
:104D50002B46142213A9B348FDF79CFB2B460222D5
:104D6000AFF2CC015AE0FEF7B4F8AFF21422012101
:104D70000846FEF7E2F908AB11AA10A912A8FEF73F
:104D8000B7FBBDF84010BDF84400814211D9BDF811
:104D9000202091420DD9AFF2C40201210220FEF77A
:104DA000CCF9AFF2442201210220FEF7C6F99FA1FF
:104DB00012E0884214D9BDF82020904210D9AFF2F9
:104DC000EC0201210220FEF7B8F9AFF260220121C6
:104DD0000220FEF7B2F99AA16846FFF799F814E0AD
:104DE000BDF8202082421CD98A421AD9AFF21C1287
:104DF00001210220FEF7A1F996A16846FFF788F885
:104E000099A201210220FEF798F92B461322BCE05B
:104E10008448FDF73FFB2B4611227DA18148FDF719
:104E200039FB00204FF400713454401C80B288429A
:104E3000FAD3FFF7ACBA0BA90AA8FBF7FBFAFEF707
:104E400048F801218BA20846FEF777F902239DF866
:104E5000282006210120FEF74FF988A20121022017
:104E6000FEF76BF902239DF82C2006211846FEF769
:104E700043F99DF82C309DF8282082A16846FFF761
:104E800047F82B461E2269466648FDF703FB2B4672
:104E900002226AA1BCE7012211465F465846FBF791
:104EA000FAFE012202213846FBF7F5FED9F8001080
:104EB0004C62D9F8002044F61F61D1624D48C9F810
:104EC0000C10FCF7D1FEFEF704F8012174A208468D
:104ED000FEF733F974A201210220FEF72EF975A125
:104EE0006846FFF715F82B461B224EE001221146BB
:104EF0005F465846FBF7CFFE012202213846FBF7FA
:104F0000CAFED9F800104C62D9F800204CF24F319B
:104F1000D1623848C9F80C10FCF7A6FEFDF7D9FF9E
:104F200001215FA20846FEF708F969A201210220CB
:104F3000FEF703F969A123E0012211465F465846B6
:104F4000FBF7A9FE012202213846FBF7A4FED9F89F
:104F500000104C62D9F800206749D1622548C9F891
:104F60000C10FCF781FEFDF7B4FF01214CA20846AE
:104F7000FEF7E3F861A201210220FEF7DEF863A14B
:104F80006846FEF7C5FF2B461E22694640E74FF4F0
:104F900000578DF82440002239466348FBF77BFE1A
:104FA000FF23012209A96148FCF7F6FC01223946DA
:104FB0005D48FBF770FED9F8000044622B461222D0
:104FC0005BA11848FDF766FAFDF783FF012134A2C3
:104FD0000846FEF7B2F85BA201210220FEF7ADF809
:104FE00019E700004D6F746F725F53746174653A16
:104FF0000000000010010020E888B5E69CBAE78AAE
:10500000B6E68081E6ADA3E5B8B80D0A0000000061
:105010005375636365737320526563656976650DC7
:105020000A000000E80100204F4B0000E9A29CE8C4
:1050300089B2E4B8BA3AE7BAA2E889B20D0A000028
:10504000E9A29CE889B2E4B8BA3AE7BBBFE889B202
:105050000D0A0000E9A29CE889B2E4B8BA3AE893E4
:105060009DE889B20D0A0000426C75652020202061
:105070002000000074656D703A00000068756D696D
:105080003A000000E6B8A9E5BAA6E4B8BA3A256441
:105090002CE6B9BFE5BAA6E4B8BA3A256400000028
:1050A0004D6F746F723A0000536D616C6C204D6FE0
:1050B00064650000E888B5E69CBAE5B08FE6A8A173
:1050C000E5BC8FE5B7B2E590AFE58AA80D0A000010
:1050D0004D656469756D204D6F646500E888B5E6BF
:1050E0009CBAE4B8ADE6A8A1E5BC8FE5B7B2E590FF
:1050F000AFE58AA80D0A00009F8601004E756D6518
:10510000726F7573204D6F6465000000E888B5E626
:105110009CBAE5A4A7E6A8A1E5BC8FE5B7B2E5BCBB
:1051200080E590AF0D0A00000004024070000020EE
:10513000E888B5E69CBAE5B7B2E5819CE6ADA20D7C
:105140000A00000053746F70204D6F64650000000A
:1051500000061016000610160000000000000000F7
:10516000010203040607080900000000010203040D
:10517000000000000000000000000000000000002F
:10518000000000F8000000000000003330000000C4
:1051900000100C06100C06000000000000000000CB
:1051A00040C07840C0784000043F04043F0404003D
:1051B000007088FC08300000001820FF211E00004D
:1051C000F008F000E018000000211C031E211E0062
:1051D00000F00888700000001E21232419272110E8
:1051E00010160E000000000000000000000000008B
:1051F000000000E018040200000000071820400032
:1052000000020418E0000000004020180700000021
:10521000404080F0804040000202010F0102020085
:10522000000000F0000000000101011F0101010069
:10523000000000000000000080B0700000000000CE
:105240000000000000000000000101010101010157
:1052500000000000000000000030300000000000EE
:1052600000000000806018040060180601000000C3
:1052700000E010080810E000000F102020100F00C0
:10528000001010F8000000000020203F2020000047
:10529000007008080888700000302824222130009F
:1052A00000300888884830000018202020110E00A7
:1052B0000000C02010F8000000070424243F240050
:1052C00000F80888880808000019212020110E0025
:1052D00000E0108888180000000F112020110E0037
:1052E00000380808C83808000000003F000000002F
:1052F0000070880808887000001C222121221C00F0
:1053000000E010080810E0000000312222110F0018
:10531000000000C0C00000000000003030000000AD
:10532000000000800000000000008060000000001D
:105330000000804020100800000102040810200036
:105340004040404040404000040404040404040081
:105350000008102040800000002010080402010016
:10536000007048080808F000000000303601000016
:10537000C030C828E810E0000718272423140B00C9
:105380000000C038E0000000203C23020227382043
:1053900008F8888888700000203F202020110E0027
:1053A000C03008080808380007182020201008001E
:1053B00008F808080810E000203F202020100F0007
:1053C00008F88888E8081000203F202023201800D3
:1053D00008F88888E8081000203F2000030000003B
:1053E000C03008080838000007182020221E0200DC
:1053F00008F808000008F808203F210101213F209B
:10540000000808F8080800000020203F20200000C5
:1054100000000808F8080800C08080807F000000B5
:1054200008F888C028180800203F200126382000EE
:1054300008F8080000000000203F20202020300055
:1054400008F8F800F8F80800203F003F003F20006F
:1054500008F830C00008F808203F200007183F0077
:10546000E01008080810E0000F10202020100F00A6
:1054700008F808080808F000203F21010101000099
:10548000E01008080810E0000F18242438504F00DE
:1054900008F8888888887000203F2000030C30209E
:1054A00000708808080838000038202121221C00DC
:1054B000180808F8080818000000203F2000000025
:1054C00008F808000008F808001F202020201F000E
:1054D0000878880000C83808000007380E0100006E
:1054E000F80800F80008F800033C0700073C030038
:1054F000081868808068180820302C03032C30209E
:105500000838C800C83808000000203F200000000C
:1055100010080808C8380800203826212020180064
:10552000000000FE020202000000007F4040400038
:10553000000C30C000000000000000010638C00070
:1055400000020202FE000000004040407F00000018
:10555000000004020202040000000000000000003D
:10556000000000000000000080808080808080803B
:105570000002020400000000000000000000000023
:1055800000008080808000000019242222223F2019
:1055900008F8008080000000003F112020110E005C
:1055A0000000008080800000000E112020201100EB
:1055B000000000808088F800000E112020103F209D
:1055C0000000808080800000001F22222222130021
:1055D000008080F0888888180020203F202000006C
:1055E0000000808080808000006B94949493600021
:1055F00008F8008080800000203F210000203F202C
:1056000000809898000000000020203F202000002B
:10561000000000809898000000C08080807F00001B
:1056200008F8000080808000203F24022D302000F8
:10563000000808F8000000000020203F20200000A3
:105640008080808080808000203F20003F20003FBD
:105650008080008080800000203F210000203F20CB
:105660000000808080800000001F202020201F007C
:10567000808000808000000080FFA12020110E00AB
:105680000000008080808000000E112020A0FF809C
:10569000808080008080800020203F212000010049
:1056A000000080808080800000332424242419009E
:1056B000008080E0808000000000001F20200000AB
:1056C0008080000000808000001F202020103F20EC
:1056D000808080000080808000010E30080601007C
:1056E00080800080008080800F300C030C300F0021
:1056F00000808000808080000020312E0E3120004C
:10570000808080000080808080818E70180601007B
:1057100000808080808080000021302C2221300099
:1057200000000000807C020200000000003F4040BA
:1057300000000000FF00000000000000FF0000006B
:105740000002027C800000000040403F000000009A
:105750000006010102020404000000000000000035
:1057600041542B484D5055423D312C22246F632F1C
:10577000646576696365732F3637643936616537DA
:1057800033373565363934616136393364643831DD
:105790005F7A68696875696E6F6E6779652F73796E
:1057A000732F70726F706572746965732F72657094
:1057B0006F7274222C37352C227B5C2273657276D3
:1057C000696365735C223A5B7B5C22736572766900
:1057D00063655F69645C223A5C225370726179731D
:1057E0007769746368636F6E74726F6C5C222C5C93
:1057F0002270726F706572746965735C223A7B5CAB
:1058000022436F6C6F725C223A317D7D5D7D220D8B
:105810000A00000041542B484D5055423D312C2286
:10582000246F632F646576696365732F3637643937
:10583000366165373337356536393461613639332A
:10584000646438315F7A68696875696E6F6E67790C
:10585000652F7379732F70726F70657274696573D9
:105860002F7265706F7274222C37352C227B5C226C
:1058700073657276696365735C223A5B7B5C227345
:105880006572766963655F69645C223A5C22537075
:10589000726179737769746368636F6E74726F6C29
:1058A0005C222C5C2270726F706572746965735C27
:1058B000223A7B5C224D6F746F725C223A317D7D9F
:1058C0005D7D220D0A00000041542B484D50554289
:1058D0003D312C22246F632F646576696365732FD5
:1058E0003637643936616537333735653639346173
:1058F00061363933646438315F7A68696875696E16
:105900006F6E6779652F7379732F70726F70657220
:10591000746965732F7265706F7274222C37352C21
:10592000227B5C2273657276696365735C223A5BE5
:105930007B5C22736572766963655F69645C223A99
:105940005C225370726179737769746368636F6EF8
:1059500074726F6C5C222C5C2270726F7065727452
:105960006965735C223A7B5C22436F6C6F725C22C8
:105970003A327D7D5D7D220D0A00000041542B48A6
:105980004D5055423D312C22246F632F646576695A
:105990006365732F3637643936616537333735655C
:1059A0003639346161363933646438315F7A686915
:1059B0006875696E6F6E6779652F7379732F707272
:1059C0006F706572746965732F7265706F7274227F
:1059D0002C37352C227B5C22736572766963657384
:1059E0005C223A5B7B5C22736572766963655F69F2
:1059F000645C223A5C2253707261797377697463D4
:105A000068636F6E74726F6C5C222C5C2270726FB4
:105A1000706572746965735C223A7B5C22436F6CBB
:105A20006F725C223A337D7D5D7D220D0A0000009D
:105A300041542B484D5055423D312C22246F632F49
:105A4000646576696365732F363764393661653707
:105A5000333735653639346161363933646438310A
:105A60005F7A68696875696E6F6E6779652F73799B
:105A7000732F70726F706572746965732F726570C1
:105A80006F7274222C37352C227B5C227365727600
:105A9000696365735C223A5B7B5C2273657276692D
:105AA00063655F69645C223A5C225370726179734A
:105AB0007769746368636F6E74726F6C5C222C5CC0
:105AC0002270726F706572746965735C223A7B5CD8
:105AD000224D6F746F725C223A337D7D5D7D220DA5
