:020000040800F2
:10000000E81200209D010008FD12000801130008FD
:1000100005130008091300080D1300080000000074
:1000200000000000000000000000000011130008A4
:100030001513000800000000191300081D13000824
:10004000B7010008B7010008B7010008B7010008B0
:10005000B7010008B7010008B7010008B7010008A0
:10006000B7010008B7010008B70100082513000810
:10007000B701000835130008B7010008B7010008F0
:10008000B7010008B7010008B7010008B701000870
:10009000B7010008B7010008B7010008B701000860
:1000A000B7010008B7010008B7010008B701000850
:1000B000B701000845130008B7010008B7010008A0
:1000C000B7010008B7010008B7010008B701000830
:1000D000B7010008B7010008B7010008B701000820
:1000E000B7010008B7010008B701000800000000D0
:1000F0000000000000000000000000000000000000
:10010000000000000000000000000000B70100082F
:10011000B7010008B7010008B7010008000000009F
:10012000B7010008B7010008B7010008B7010008CF
:10013000B7010008000000000000000000000000FF
:10014000B7010008B701000800000000000000002F
:10015000000000000000000000000000000000009F
:100160000000000000000000B7010008B70100080F
:10017000B7010008000000000000000000000000BF
:1001800000000000B7010008DFF80CD016F0E0F91D
:1001900000480047A5080008E812002006488047EC
:1001A00006480047FEE7FEE7FEE7FEE7FEE7FEE75C
:1001B000FEE7FEE7FEE7FEE7F94D010889010008CA
:1001C00084B040F22000C2F20000008858B1FFE77E
:1001D00040F22200C2F20000008820B1FFE70220B6
:1001E0008DF80F0071E040F6E660C2F20000007882
:1001F0000002029040F6E460C2F200000088103075
:10020000B0F5807F04DDFFE702208DF80F005CE091
:1002100000200190FFE701980F2825DCFFE7019AF5
:1002200040F22B01C2F2000101EB420011F8121062
:10023000407840EA0120ADF80200BDF80200029AC1
:1002400040F6E461C2F200010B88134440F6C82274
:10025000C2F2000222F81300088801300880FFE78C
:10026000019801300190D6E740F6E460C2F2000048
:100270000088B0F5807F24DBFFE740F6E660C2F23D
:100280000000007838B9FFE740F22001C2F2000117
:100290000120088006E040F22201C2F200010120A4
:1002A0000880FFE740F6E661C2F200010878C0F17D
:1002B0000100087040F6E461C2F2000100200880ED
:1002C000FFE701208DF80F00FFE79DF80F0004B055
:1002D000704700BF84B0029040F22000C2F20000DC
:1002E0000088E8B1FFE700200190FFE70198FF28B0
:1002F0000FDCFFE7019A40F6C820C2F2000030F898
:100300001200029921F81200FFE7019801300190D4
:10031000ECE740F22001C2F2000100200880FFE774
:1003200040F22200C2F200000088F8B1FFE700208E
:100330000090FFE70098FF2811DCFFE7009A40F6E5
:10034000C820C2F2000000EB4200B0F8000202999F
:1003500021F81200FFE7009801300090EAE740F230
:100360002201C2F2000100200880FFE740F22200D3
:10037000C2F20000008858B9FFE740F22000C2F244
:100380000000008820B9FFE702208DF80F0003E08D
:1003900001208DF80F00FFE79DF80F0004B07047B3
:1003A00080B582B0019040F26E40C2F20000FFF7CB
:1003B00091FF02B080BD00BF80B582B0019040F2D5
:1003C0006E40C2F2000000F50070FFF783FF02B03C
:1003D00080BD00BF80B582B0019040F22400C2F21F
:1003E000000001680131016000684CF6CD41CCF697
:1003F000CC4148434FEA700049F69911C1F6991172
:1004000088420CD8FFE740F22400C2F200000168E5
:1004100047F2D840C0F6010016F0B2F8FFE70199A4
:100420000120087101986A460021116040F26E4275
:10043000C2F200024FF4007307F04EFF02B080BD1D
:1004400080B582B000208DF8070015F04BF9012827
:100450001AD1FFE740F6DC60C2F200000078012804
:100460000DD1FFE740F6DC60C2F200000021017010
:1004700040F6C000C2F2000007F0F0FEFFE7FFF711
:100480009FFE8DF8070025E001208DF8070040F65B
:10049000D860C2F20000018801310180008841F279
:1004A0008831884215DBFFE740F6DC61C2F20001CB
:1004B0000120087040F6C000C2F200000021009147
:1004C00007F026FE009840F6D861C2F200010880CD
:1004D000FFE7FFE702B080BD80B582B015F05EF89F
:1004E00000200190FFE70198B0F5007F0EDAFFE7EA
:1004F000019A40F26E41C2F200014FF4006021F80F
:100500001200FFE7019801300190ECE740F65C1023
:10051000C2F2000008F0EAF968460021016040F6E6
:10052000C000C2F2000040F26E42C2F200024FF47C
:10053000007307F0D1FE40F26D41C2F200010220CB
:10054000087047F2BA40C0F6010016F019F802B080
:1005500080BD000080B584B00390029103988DF8AF
:10056000070040F64020C2F200000DF10701012211
:100570004FF6FF7311F080FE039804B080BD00BFFA
:1005800080B582B0019040F64020C2F200000DF12B
:10059000030101224FF6FF7311F08CFF9DF8030059
:1005A00002B080BD80B582B014F0F8FF0020019049
:1005B000FFE70198FF2815DCFFE7019A40F26C0184
:1005C000C2F200014FF4006021F81200019A40F2DB
:1005D0006C21C2F2000121F81200FFE701980130FE
:1005E0000190E6E740F67000C2F2000040F26C01B4
:1005F000C2F200014FF4807201F0A2FF40F65C10DD
:10060000C2F2000008F0F8F902B080BD80B582B0F7
:10061000019001980068B0F1A04F01D0FFE745E0DC
:1006200040F21400C2F20000016840F6D462C2F247
:1006300000021160006840F26C01C2F200018842C1
:100640000AD1FFE740F21401C2F2000140F26C202F
:10065000C2F20000086009E040F21401C2F2000199
:1006600040F26C00C2F200000860FFE740F6CA6189
:10067000C2F200011020087040F26C41C2F2000189
:100680000120087040F6DA61C2F200010020088003
:1006900040F21400C2F20000016840F67000C2F29D
:1006A00000004FF4807201F04BFFFFE702B080BD05
:1006B00084B040F6D460C2F2000001680291006884
:1006C00000BBFFE700200190FFE701980F2818DC2E
:1006D000FFE740F6AE00ADF80E009DF80F00019A5E
:1006E00040F24B01C2F2000101F81200BDF80E0009
:1006F000019A01EB42014870FFE701980130019037
:10070000E3E75DE000200090FFE700980F2835DC6C
:10071000FFE740F6DA60C2F200000088FF280DDC37
:10072000FFE7029840F6DA63C2F2000319884A1C18
:100730001A8030F81100ADF80E000BE040F6CC61E5
:10074000C2F2000108680130086040F25740ADF87D
:100750000E00FFE79DF80F00009A40F24B01C2F235
:10076000000101F81200BDF80E00009A01EB4201F1
:100770004870FFE7009801300090C6E740F6D0606F
:10078000C2F20000018801310180008842F2C042BB
:10079000C0F2061247F6D501C2F2E96100FB012062
:1007A0004FEA701046F24C21C0F21001884207D87F
:1007B000FFE740F6D061C2F2000100200880FFE7A9
:1007C00004B0704780B582B040F6C860C2F2000045
:1007D0000078C0B9FFE740F26C40C2F20000007838
:1007E00088B1FFE740F6CA60C2F200000078012835
:1007F00009DBFFE7FFF75CFF40F6C861C2F20001CA
:1008000001200870FFE740F6C860C2F200000078DF
:1008100048B3FFE714F0FEFE8DF807009DF80700CF
:10082000012818D1FFE740F6CA60C2F20000017843
:100830000139017040F6C862C2F200020021117055
:10084000007838B9FFE740F26C41C2F200010020A5
:100850000870FFE706E040F6C861C2F20001002020
:100860000870FFE7FFE702B080BD00BF81B0002045
:100870000090FFE700980F2812DCFFE7009A40F293
:100880004B00C2F20000082100F81210009900EBA2
:10089000410100204870FFE7009801300090E9E72F
:1008A00001B0704780B58EB000200D9004F044FA7E
:1008B00000F0B8F800F00AF900F018FB00F084F935
:1008C00000F05AFA00F038FB00F094FC00F076FBE0
:1008D00000F0B8FB15F0F4FA14F06AFB40F6A8102B
:1008E000C2F2000008F088F840F65C10C2F2000086
:1008F00008F082F8FFE741F21400C4F20200016838
:1009000041F400310160006800F400300C900C9854
:10091000FFE701200290089003200A9080200790B2
:100920004FF0904007A906F083F9FFF73BFEFFF771
:10093000D3FD0299002003908DF81B008DF81A005A
:1009400047F2EF42C0F60102084615F0A1F805F0A3
:1009500065FB0299059005984DF68362C4F21B323F
:10096000A0FB0220820C0223184615F0CBF8039856
:100970008DF813008DF81200FFE714F05DFB38B31B
:10098000FFE740F6DE61C2F20001012008809DF819
:10099000130001280AD1FFE740F67000C2F2000000
:1009A00001F07AF900208DF81300FFE79DF812009E
:1009B00058B9FFE740F6C000C2F20000002107F07E
:1009C000A7FB01208DF81200FFE7FFF7FBFE27E0F1
:1009D00040F6DE61C2F20001002008809DF813009D
:1009E00050B9FFE740F67000C2F2000001F096FA3D
:1009F00001208DF81300FFE79DF8120001280CD1AB
:100A0000FFE740F6C000C2F200000021019107F0AC
:100A100025FC01988DF81200FFE7FFF711FDFFE7B5
:100A2000ABE700BF80B59EB014A80190282115F057
:100A3000E6FA0020009013901290119010900F9001
:100A400002A8342115F0DBFA009B019801221492D0
:100A50004FF4803115911693189202221B921C912B
:100A60004FF4E0111D9104F07DFB18B1FFE700F099
:100A700025F8FFE70F200F90022110910020119020
:100A80004FF48062129213900FA805F0A3F818B1EA
:100A9000FFE700F013F8FFE78120029000200490A8
:100AA0004FF480700B9002A805F0BAFB18B1FFE775
:100AB00000F004F8FFE71EB080BD00BF81B0EFF387
:100AC000108072B60090FFE7FEE7000080B590B09E
:100AD00000200F900E900D900C900B90FFE741F2CC
:100AE0001400C4F20200016841F4002101600068B2
:100AF00000F400200A900A98FFE7FFE741F2140093
:100B0000C4F20200016841F480010160006800F451
:100B1000800009900998FFE7FFE741F21400C4F252
:100B20000200016841F400310160006800F4003007
:100B300008900898FFE7FFE741F21400C4F20200B2
:100B4000016841F480210160006800F48020079072
:100B50000798FFE74FF0904001906E21009100222E
:100B6000049206F001FB049A40F20040C4F6000033
:100B700005904FF44051029106F0F6FA009A019860
:100B800004990B92012203920C920D910E910BA9E4
:100B9000069106F04DF8DDF808C0039B049A05980D
:100BA0000699CDF82CC00C930D9203220E9206F0FC
:100BB0003FF8049A0598069920230B930C920D9206
:100BC00006F036F810B080BD80B58CB000210191E0
:100BD0000B910A9109910891079106910591049151
:100BE000039140F67000C2F2000002904FF0A04264
:100BF0000260416081600161417680F820104FF40D
:100C00008062C2624FF430728262C1600122C261AE
:100C100080F83010042242610176416300F03AFC12
:100C200018B1FFE7FFF74AFFFFE70020099040F601
:100C30007000C2F2000009A903F0A2FF18B1FFE79B
:100C4000FFF73CFFFFE7012003900490002006908F
:100C500005900790089040F67000C2F2000003A9CA
:100C600003F08EF818B1FFE7FFF728FFFFE70CB09D
:100C700080BD00BF80B58AB0099000200890079021
:100C800006900590049009980068B0F1A04F52D1E9
:100C9000FFE7FFE741F21400C4F20200016841F0EF
:100CA00080510160006800F0805003900398FFE7D6
:100CB000FFE741F21400C4F20200016841F4003180
:100CC0000160006800F4003002900298FFE7012004
:100CD0000490032005900020009006904FF0904073
:100CE00004A905F0A5FF009940F6D400C2F2000067
:100CF00001900822C4F202020260416081608022F9
:100D0000C2604FF4807202614FF48062426181617F
:100D1000C16106F0A1FA18B1FFE7FFF7CFFEFFE7C8
:100D2000FFE7099840F6D401C2F2000181630998F7
:100D30004862FFE7FFE70AB080BD00BF80B582B020
:100D4000019001980068B0F1A04F12D1FFE741F285
:100D50001401C4F20201086820F0805008604FF0CE
:100D60009040012106F00AF90198806B06F0F6FA2E
:100D7000FFE702B080BD000080B584B00020039082
:100D80000290019040F6C000C2F2000047F200411C
:100D9000C4F20001016007F065F918B1FFE7FFF741
:100DA0008DFEFFE7242001900022029240F6C00051
:100DB000C2F2000001A907F075FB18B1FFE7FFF7C9
:100DC0007DFEFFE704B080BD80B58CB00B900020A5
:100DD0000A9009900890079006900B98006847F2D7
:100DE0000041C4F2000188425ED1FFE7FFE741F213
:100DF0001C00C4F20200016841F00051016000686B
:100E000000F0005005900598FFE7FFE741F214005D
:100E1000C4F20200016841F400310160006800F48E
:100E2000003004900498FFE7102001900690032002
:100E300007900020029008904FF0904006A905F01E
:100E4000F7FE019A029940F61810C2F200000390D2
:100E50003023C4F202030360426081608022C260DA
:100E60004FF4807202614FF48062426120228261FD
:100E7000C16106F0F1F918B1FFE7FFF71FFEFFE7C8
:100E8000FFE70021C4F20101086840F40050086047
:100E9000FFE7FFE70B9840F61811C2F200018160EE
:100EA0000B984862FFE7FFE70CB080BD80B582B0C9
:100EB00001900198006847F20041C4F200018842A5
:100EC00012D1FFE741F21C01C4F20201086820F0D0
:100ED000005008604FF09040102106F04FF8019844
:100EE000806806F03BFAFFE702B080BD80B584B0B1
:100EF000FFE741F21400C4F20200016841F0010171
:100F00000160006800F0010003900398FFE70B20E8
:100F1000009000220192114606F0E6FD009806F0CE
:100F20005DFE019A0D200290114606F0DDFD02984B
:100F300006F054FE04B080BD80B588B00021009159
:100F4000079106910591049103910291019140F658
:100F50005C10C2F200004FF080420260416081608C
:100F600041F61F42C2600161816107F055FB18B173
:100F7000FFE7FFF7A3FDFFE74FF48050049040F632
:100F80005C10C2F2000004A90DF0C6FE18B1FFE724
:100F9000FFF794FDFFE7202001900020039040F62A
:100FA0005C10C2F2000001A910F0AAFA18B1FFE724
:100FB000FFF784FDFFE708B080BD00BF80B588B0B3
:100FC00000210091079106910591049103910291EE
:100FD000019140F6A810C2F2000040F20042C4F2B3
:100FE0000002026063224260816040F2CF22C26050
:100FF0000161816107F010FB18B1FFE7FFF75EFDAB
:10100000FFE74FF48050049040F6A810C2F20000B1
:1010100004A90DF081FE18B1FFE7FFF74FFDFFE7D0
:1010200000200190039040F6A810C2F2000001A930
:1010300010F066FA18B1FFE7FFF740FDFFE708B0D0
:1010400080BD00BF80B588B0002100910791069156
:101050000591049103910291019140F6F410C2F2BE
:10106000000040F60002C4F20002026041608160AC
:1010700041F61F42C2600161816107F0CDFA18B1EB
:10108000FFE7FFF71BFDFFE74FF48050049040F6A9
:10109000F410C2F2000004A90DF03EFE18B1FFE703
:1010A000FFF70CFDFFE700200190039040F6F410DD
:1010B000C2F2000001A910F023FA18B1FFE7FFF710
:1010C000FDFCFFE708B080BD80B586B005900598AF
:1010D0000068B0F1804F10D1FFE7FFE741F21C003C
:1010E000C4F20200016841F001010160006800F0F3
:1010F000010004900498FFE73CE00598006840F286
:101100000041C4F20001884219D1FFE7FFE741F234
:101110001C00C4F20200016841F002010160006895
:1011200000F0020003900398FFE71D2001900321C7
:10113000002206F0D9FC019806F050FD19E0059850
:10114000006840F60001C4F20001884210D1FFE7B8
:10115000FFE741F21C00C4F20200016841F0040103
:101160000160006800F0040002900298FFE7FFE7CA
:10117000FFE7FFE706B080BD80B582B0019001981F
:101180000068B0F1804F09D1FFE741F21C01C4F2C1
:101190000201086820F00100086028E0019800685A
:1011A00040F20041C4F2000188420CD1FFE741F255
:1011B0001C01C4F20201086820F0020008601D2032
:1011C00006F02EFD12E00198006840F60001C4F21E
:1011D0000001884209D1FFE741F21C01C4F202017B
:1011E000086820F004000860FFE7FFE7FFE702B0AF
:1011F00080BD000080B582B040F64020C2F2000001
:10120000019043F60001C4F2010101604FF4E131A5
:10121000416000218160C16001610C2242618161F5
:10122000C1610162416210F01BFB18B1FFE7FFF7DB
:1012300045FCFFE702B080BD80B588B00790002074
:10124000069005900490039002900798006843F67A
:101250000001C4F2010188422FD1FFE7FFE741F20C
:101260001800C4F20200016841F480410160006886
:1012700000F4804001900198FFE7FFE741F214007D
:10128000C4F20200016841F400310160006800F41A
:10129000003000900098FFE74FF4C06002900220F9
:1012A00003900020049003200590072006904FF043
:1012B000904002A905F0BCFCFFE708B080BD00BF6C
:1012C00080B582B001900198006843F60001C4F235
:1012D000010188420FD1FFE741F21801C4F2020177
:1012E000086820F4804008604FF090404FF4C061DF
:1012F00005F044FEFFE702B080BD0000FFE7FEE717
:10130000FFE7FEE7FFE7FEE7FFE7FEE7FFE7FEE7B1
:10131000704700BF704700BF704700BF80B503F043
:1013200079FD80BD80B540F6D400C2F2000006F021
:101330005BFA80BD80B540F61810C2F2000006F0DE
:1013400053FA80BD80B513F08FFE40F6A810C2F2AC
:1013500000000BF095FF80BD82B0FFE741F218005E
:10136000C4F20200016841F001010160006800F070
:10137000010001900198FFE7FFE741F21C00C4F271
:101380000200016841F080510160006800F0805067
:1013900000900098FFE702B07047000081B0009015
:1013A000012001B0704700BF81B00090012001B062
:1013B000704700BF81B0009001B0704781B00090CD
:1013C00001B0704781B00090012001B0704700BFAC
:1013D00081B00090012001B0704700BF82B0019041
:1013E0000091012002B0704783B0029001910092F9
:1013F000012003B0704700BF81B00090012001B010
:10140000704700BF81B00090012001B0704700BF5D
:1014100083B0029001910092012003B0704700BF99
:1014200081B00090012001B0704700BF81B00090F2
:1014300000980068006C01B0704700BF81B0009058
:1014400001B0704781B0009001B0704781B000904A
:1014500001B0704781B0009001B0704781B000903A
:1014600001B0704782B001900091012002B0704736
:1014700082B001900091012002B0704781B00090CD
:101480000098006C01B0704781B000900098406CEB
:1014900001B0704780B59CB01A9000208DF86700AD
:1014A000039002901A9820B9FFE701208DF86F0091
:1014B0008BE11A98006938B1FFE71A9890F820007C
:1014C00008B1FFE7FFE7FFE71A98006CC0060028A5
:1014D00077D4FFE71A98006C002852D1FFE71A99D9
:1014E000002048641A99C8641A9988641A9981F886
:1014F0003C001A98FFF7BEFB1A9800688068C0008D
:1015000000283DD4FFE71A9800F064F98DF86700D1
:101510001A98006CC006002831D4FFE79DF86700D8
:1015200068BBFFE71A98006C40F0020020F4885076
:101530001A9908641A980168886820F040508860F9
:101540001A980168886840F08050886040F2100066
:10155000C2F2000000684DF68361C4F21B31A0FBAB
:101560000110800C00EB800040000290FFE7029821
:1015700020B1FFE7029801380290F8E7FFE7FFE7A4
:10158000FFE71A9800688068C000002807D5FFE7C9
:101590001A98006880688000002811D5FFE71A9823
:1015A000006C40F0100020F002001A9908641A99AB
:1015B000486C40F00100486401208DF86700FFE7A7
:1015C000FFE71A98006CC006002800F1ED80FFE7E5
:1015D0009DF86700002840F0E780FFE71A98006850
:1015E000806800F004010020B0EB910F40F0DC8037
:1015F000FFE71A98006C40F0020020F480701A99FE
:10160000086440F20030C5F2000018901A98006893
:10161000B0F1A04F06D1FFE740F20010C5F2000084
:10162000049003E04FF0A0400490FFE71A98006890
:10163000806800F0030100200129019005D1FFE737
:101640001A98006800680190FFE70198C007F0B998
:10165000FFE7049888B1FFE70498806800F0030171
:1016600000200129009004D1FFE704980068009051
:10167000FFE70098C00750B9FFE71898806820F48A
:1016800040301A994968084318998860FFE71A9A08
:10169000507E4003536B00F58051012B18BF084664
:1016A0009168D268104301430398084303901A9845
:1016B00090F82000012820D1FFE71A98407E68B9F1
:1016C000FFE71A98416A0020CFF6FE7000EB414018
:1016D0000399084340F4803003900DE01A98006CA1
:1016E00040F0200020F002001A9908641A99486C12
:1016F00040F001004864FFE7FFE71A98806A01287C
:1017000008D0FFE71A99886AC96A01430398084319
:101710000390FFE71A980068806810F00C0F12D150
:10172000FFE71A980168C86844F202029043C86053
:101730001A99087E91F83010800340EA410103981D
:1017400008430390FFE71A980068C0684CF207014D
:10175000CFF6F0710840039908431A990968C860E8
:101760001A98006901280CD1FFE71A980068006BED
:1017700020F00F001A9A1168D269013A10430863E9
:1017800006E01A980168086B20F00F000863FFE775
:101790001A99002048641A98006C40F0010020F06B
:1017A00002001A9908640BE01A98006C40F01000CF
:1017B00020F002001A99086401208DF86700FFE705
:1017C0009DF867008DF86F00FFE79DF86F001CB073
:1017D00080BD00BF80B584B00290002001900299C6
:1017E0000968896801F003010129009005D1FFE72C
:1017F0000298006800680090FFE70098C007002882
:101800004BD0FFE702980068806800F00D000128C7
:101810000DD1FFE7FFE702980168886840F00200F9
:1018200088600298016803200860FFE70DE00299D4
:10183000086C40F0100008640299486C40F0010008
:10184000486401208DF80F002BE003F0F1FA0190BD
:10185000FFE7029800688068C007E8B1FFE703F07F
:10186000E7FA0199401A032815D3FFE702980068A8
:101870008068C00770B1FFE70299086C40F0100063
:1018800008640299486C40F00100486401208DF81A
:101890000F0006E0FFE7DCE7FFE700208DF80F0010
:1018A000FFE79DF80F0004B080BD00BF80B59AB07F
:1018B000189000208DF85F00189820B9FFE70120EC
:1018C0008DF8670018E11899086C40F00200086470
:1018D00018986C2100F014F98DF85F009DF85F00F6
:1018E000C0B9FFE718980168C86840F40010C860E4
:1018F0001898FFF76FFF8DF85F009DF85F0020B923
:10190000FFE718990120086403E001208DF85F00CB
:10191000FFE7FFE79DF85F00002840F0E280FFE767
:1019200018980268516840F2FF708143516018991D
:101930000968086018980168886820F0E0408860AD
:1019400018980168886840F000508860189801680D
:10195000C86848F20402C8F200021040C860189833
:10196000016848696FF3DD0048611898016888696B
:1019700000F07840886118980168086A00F0F0204B
:10198000086218980168486A20F0FF1048621898A9
:101990000168886A20F0FF10886218980168086B57
:1019A00040F63002CEF282021040086318980168B7
:1019B000486B40F62002CEF282021040486318982D
:1019C0000168886B1040886318980168C86B40F202
:1019D000DF729043C86318980168086E4FF20002E6
:1019E000C0F2FF321040086618980168486E104037
:1019F000486618980168886E1040886618980168D3
:101A0000C86E1040C86618980168D1F8A0006FF33E
:101A10005200C1F8A00018980168D1F8A4006FF333
:101A20005200C1F8A40018980168D1F8B0006FF313
:101A30005200C1F8B00018980168D1F8B40020F045
:101A40007F10C1F8B40040F20030C5F200001690DB
:101A500018980068B0F1A04F06D1FFE740F20010DF
:101A6000C5F20000029003E04FF0A0400290FFE7B3
:101A700018980068806800F0030100200129019097
:101A800005D1FFE71898006800680190FFE701980A
:101A9000C007E8B9FFE7029888B1FFE702988068BD
:101AA00000F0030100200129009004D1FFE7029813
:101AB00000680090FFE70098C00748B9FFE7169953
:101AC000886841F2E002CFF63C6210408860FFE790
:101AD0001898FFF733F9189900204864189908649A
:101AE000FFE7FFE71899002081F83C00FFE79DF829
:101AF0005F008DF86700FFE79DF867001AB080BDB2
:101B000080B588B006900591002004900390029063
:101B100006980068806810F00C0F03D1FFE70020E2
:101B200028B9B1E00020002840F0AE80FFE7069819
:101B30000068C0688001002836D5FFE70698407E1F
:101B4000012831D1FFE70698007E01282CD1FFE75C
:101B50000C200590FFE706980068006800F040013F
:101B60000020B0EB911F1AD1FFE7029849F2004123
:101B7000C0F2090188420ED3FFE70699086C40F0D5
:101B8000100008640699486C40F001004864012088
:101B90008DF81F007CE0029801300290DBE7069888
:101BA000016840200860FFE70598602816D0FFE72D
:101BB000069800688068400700280ED5FFE7069861
:101BC000006880688007002807D4FFE7069801684E
:101BD000886840F010008860FFE7FFE705980C2850
:101BE00016D0FFE7069800688068000700280ED529
:101BF000FFE70698006880688007002807D4FFE7A1
:101C000006980168886840F020008860FFE7FFE7D9
:101C100005980190602807D0FFE701986C2806D14D
:101C2000FFE70C20049005E00820049002E0042067
:101C30000490FFE703F0FCF80390FFE706980068C4
:101C40008068049908421ED0FFE703F0F1F8039979
:101C5000401A0C2816D3FFE706980068806804999C
:101C600008420ED0FFE70699086C40F010000864A7
:101C70000699486C40F00100486401208DF81F006F
:101C800006E0FFE7DAE7FFE700208DF81F00FFE737
:101C90009DF81F0008B080BD80B584B00290002080
:101CA0008DF8070002990968896801F00401B0EB1A
:101CB000910F40F0BF80FFE7FFE7029890F83C00EB
:101CC000012804D1FFE702208DF80F00BBE0029944
:101CD000012081F83C00FFE7FFE7029800F0B8F828
:101CE0008DF807009DF80700002840F09B80FFE773
:101CF0000298006C40F4807040F6016188430299BC
:101D0000086440F20830C5F200000068C00630B137
:101D1000FFE702980068B0F1A04F16D1FFE70299E3
:101D2000086C20F48010086402980068C068800184
:101D3000002809D5FFE70298006C40F4805020F499
:101D4000005002990864FFE728E00299086C40F40B
:101D50008010086402980068B0F1A04F09D0FFE736
:101D60000298006840F20011C5F20001884208D1D3
:101D7000FFE70C20C5F2000000688001002803D4B2
:101D80000BE0012048B9FFE70298006C40F4805056
:101D900020F4005002990864FFE7FFE70298006C06
:101DA000C004002806D5FFE70299486C20F0060021
:101DB000486403E0029900204864FFE7FFE70299C6
:101DC000002081F83C00FFE7029801681C200860B1
:101DD00040F20830C5F200000068C006D0B1FFE74D
:101DE00040F20830C5F20000006800F01F0005282E
:101DF00010D0FFE740F20830C5F20000006800F0A4
:101E00001F00092806D0FFE702980068B0F1A04F34
:101E100007D1FFE702980168886840F004008860F5
:101E2000FFE706E0FFE70299002081F83C00FFE7AA
:101E3000FFE703E002208DF80700FFE79DF80700A9
:101E40008DF80F00FFE79DF80F0004B080BD00BFC4
:101E500080B584B0029000200190029909688968D9
:101E600001F003010129009005D1FFE70298006805
:101E700000680090FFE70098C007002845D1FFE701
:101E80000298006880683F21C8F2000108420ED025
:101E9000FFE70299086C40F0100008640299486C52
:101EA00040F00100486401208DF80F0031E00298F5
:101EB0000168886840F00100886002F0B9FF019075
:101EC000FFE7029800680068C007E8B9FFE702F082
:101ED000AFFF0199401A032815D3FFE70298006865
:101EE0000068C00770B9FFE70299086C40F0100065
:101EF00008640299486C40F00100486401208DF8A4
:101F00000F0006E0FFE7DCE7FFE700208DF80F0099
:101F1000FFE79DF80F0004B080BD00BF80B584B01E
:101F2000029000208DF80700FFE7029890F83C002F
:101F3000012804D1FFE702208DF80F002DE002995F
:101F4000012081F83C00FFE7FFE702986C21FFF7D2
:101F5000D7FD8DF807009DF8070098B9FFE70298B4
:101F6000FFF738FC8DF807009DF8070048B9FFE738
:101F70000298006C40F0010020F488500299086437
:101F8000FFE7FFE7FFE70299002081F83C00FFE749
:101F90009DF807008DF80F00FFE79DF80F0004B0D3
:101FA00080BD00BF80B588B00690059100200190EB
:101FB00006984069082803D1FFE70820039038E01D
:101FC00040F20030C5F20000029002988068C0061E
:101FD000B0B9FFE706980068C068C00778B1FFE7AE
:101FE0000699086C40F020000864FFE7069900207D
:101FF00081F83C00FFE701208DF81F00B6E015E0F6
:102000000298806810F4404F0FD0FFE70699086CE3
:1020100040F020000864FFE70699002081F83C00AA
:10202000FFE701208DF81F00A0E0FFE70C200390E0
:10203000FFE740F20830C5F200000068C00630B18A
:10204000FFE706980068B0F1A04F05D1FFE70698BA
:102050000068C068019005E00C20C5F2000000682F
:102060000190FFE702F0E4FE0490FFE706980068A5
:1020700000680399084228D1FFE70598013018B39A
:10208000FFE7059840B1FFE702F0D2FE0499401A3D
:102090000599884217D9FFE70698006800680399F8
:1020A00008420FD1FFE70699086C40F0040008646D
:1020B000FFE70699002081F83C00FFE703208DF838
:1020C0001F0053E0FFE7FFE7D0E70699086C40F4F4
:1020D0000070086406980068C06810F4406F36D13C
:1020E000FFE79DF805008006002830D4FFE706983A
:1020F000006800680007002828D5FFE706980068F8
:10210000806800F004010020B0EB910F12D1FFE7CE
:102110000699086C20F4807008640698006CC0046E
:10212000002806D4FFE70699086C40F00100086417
:10213000FFE70AE00699086C40F020000864069961
:10214000486C40F001004864FFE7FFE7FFE79DF8B7
:1021500005004006002805D4FFE7039806990968A2
:102160000860FFE700208DF81F00FFE79DF81F00C3
:1021700008B080BD80B586B004900391029202F051
:1021800057FE0190FFE70498006800680399084033
:10219000884229D0FFE70298013020B3FFE7029878
:1021A00040B1FFE702F044FE0199401A02998842CB
:1021B00018D9FFE70498006800680399084088422E
:1021C0000FD0FFE70499086C40F004000864FFE7B3
:1021D0000499002081F83C00FFE703208DF81700E8
:1021E0005FE0FFE7FFE7CEE70398009080280FD07D
:1021F000FFE70098B0F5807F14D0FFE70098B0F5B6
:10220000007F1AD0FFE70098B0F5806F20D02FE054
:102210000499086C40F480300864049801688020B8
:1022200008603AE00499086C40F4003008640498AF
:1022300001684FF4807008602FE00499086C40F446
:1022400080200864049801684FF40070086024E05E
:102250000499086C40F4804008640499486C40F08C
:1022600008004864049801684FF48060086014E036
:102270000498406B01280BD1FFE70499086C40F4E7
:10228000806008640499486C40F002004864FFE7ED
:102290000498016810200860FFE700208DF81700FF
:1022A000FFE79DF8170006B080BD00BF80B584B081
:1022B000029000208DF8070002990968896801F0F2
:1022C0000401B0EB910F40F0E480FFE7FFE70298D4
:1022D00090F83C00012804D1FFE702208DF80F00A0
:1022E000E0E00299012081F83C00FFE7FFE7029857
:1022F000FFF7AEFD8DF807009DF80700002840F0BD
:10230000C080FFE70298006C40F4807040F60161E5
:1023100088430299086440F20830C5F20000006862
:10232000C00630B1FFE702980068B0F1A04F16D1A7
:10233000FFE70299086C20F4801008640298006896
:10234000C0688001002809D5FFE70298006C40F4BE
:10235000805020F4005002990864FFE728E00299B9
:10236000086C40F48010086402980068B0F1A04F37
:1023700009D0FFE70298006840F20011C5F20001A1
:10238000884208D1FFE70C20C5F2000000688001F8
:10239000002803D40BE0012048B9FFE70298006C45
:1023A00040F4805020F4005002990864FFE7FFE7F2
:1023B0000298006CC004002806D5FFE70299486C1B
:1023C00020F00600486403E0029900204864FFE71B
:1023D000FFE70299002081F83C00FFE702980168BE
:1023E0001C2008600298406908280DD1FFE7029878
:1023F0000168486820F00400486002980168486855
:1024000040F00800486006E002980168486840F023
:102410000C004860FFE70298406B012807D1FFE7F6
:1024200002980168486820F010004860FFE740F219
:102430000830C5F200000068C006D0B1FFE740F2E6
:102440000830C5F20000006800F01F00052810D019
:10245000FFE740F20830C5F20000006800F01F00FE
:10246000092806D0FFE702980068B0F1A04F07D115
:10247000FFE702980168886840F004008860FFE781
:1024800006E0FFE70299002081F83C00FFE7FFE744
:1024900003E002208DF80700FFE79DF807008DF8A4
:1024A0000F00FFE79DF80F0004B080BD80B584B039
:1024B000029000208DF80700FFE7029890F83C009A
:1024C000012804D1FFE702208DF80F0033E00299C4
:1024D000012081F83C00FFE7FFE702986C21FFF73D
:1024E0000FFB8DF807009DF80700C8B9FFE70298B9
:1024F0000168486820F01C0048600298FFF76AF9FC
:102500008DF807009DF8070048B9FFE70298006CB6
:1025100040F0010020F4885002990864FFE7FFE7CB
:10252000FFE70299002081F83C00FFE79DF80700D3
:102530008DF80F00FFE79DF80F0004B080BD00BFCD
:1025400080B586B004900391029200208DF80700B8
:1025500004990968896801F00401B0EB910F40F01B
:10256000DA80FFE7FFE7049890F83C00012804D1E7
:10257000FFE702208DF81700D6E00499012081F8CA
:102580003C00FFE7FFE740F20830C5F200000068BA
:10259000C006002840F0B480FFE70498FFF758FC1D
:1025A0008DF807009DF80700002840F0A180FFE7A4
:1025B0000498006C40F4807040F6016188430499EF
:1025C000086440F20830C5F200000068C00630B16F
:1025D000FFE704980068B0F1A04F16D1FFE7049917
:1025E000086C20F48010086404980068C0688001BA
:1025F000002809D5FFE70498006C40F4805020F4CF
:10260000005004990864FFE728E00499086C40F43E
:102610008010086404980068B0F1A04F09D0FFE76B
:102620000498006840F20011C5F20001884208D108
:10263000FFE70C20C5F2000000688001002803D4E9
:102640000BE0012048B9FFE70498006C40F480508B
:1026500020F4005004990864FFE7FFE70498006C39
:10266000C004002806D5FFE70499486C20F0060056
:10267000486403E0049900204864FFE7FFE70499F9
:10268000002081F83C00FFE70498816B42F2317032
:10269000C0F6000088620498816B42F2A570C0F613
:1026A0000000C8620498816B42F2BD70C0F6000061
:1026B0000863049801681C20086004980168486851
:1026C00040F01000486004980168C86840F00100BC
:1026D000C86004980168806B4031039A029B04F043
:1026E000F7FE04980168886840F00400886006E0FE
:1026F000FFE70499002081F83C00FFE7FFE709E0CD
:1027000001208DF80700FFE70499002081F83C00C4
:10271000FFE7FFE703E002208DF80700FFE79DF8E1
:1027200007008DF81700FFE79DF8170006B080BD81
:1027300080B582B001900198406A00900098006CCA
:1027400010F0500F26D1FFE70099086C40F400709C
:10275000086400980068C06810F4406F16D1FFE765
:102760000098407E90B9FFE70099086C20F48070D3
:1027700008640098006CC004002806D4FFE70099A4
:10278000086C40F001000864FFE7FFE70098FDF7E0
:102790003DFF05E00098806B016B01988847FFE7DB
:1027A00002B080BD80B582B001900198406A00906F
:1027B0000098FEF74BFE02B080BD00BF80B582B02E
:1027C00001900198406A00900099086C40F0400028
:1027D00008640099486C40F0040048640098FEF7D3
:1027E0003DFE02B080BD00BF80B584B002900020E5
:1027F0008DF80700FFE7029890F83C00012804D10B
:10280000FFE702208DF80F005BE00299012081F8BC
:102810003C00FFE7FFE702986C21FFF771F98DF8A4
:1028200007009DF80700002840D1FFE702980168E3
:10283000C86820F00100C8600298806B90F8210001
:10284000022811D1FFE70298806B04F0A7FE8DF8F3
:1028500007009DF8070030B1FFE70299086C40F0CF
:1028600040000864FFE7FFE702980168486820F02D
:10287000100048609DF8070030B9FFE70298FEF7A6
:10288000A9FF8DF8070003E00298FEF7A3FFFFE71A
:102890009DF8070048B9FFE70298006C40F001007E
:1028A00020F4885002990864FFE7FFE7FFE70299E8
:1028B000002081F83C00FFE79DF807008DF80F002D
:1028C000FFE79DF80F0004B080BD00BF81B000900D
:1028D00000980068006C01B0704700BF80B588B0F8
:1028E0000790002006900490039007980068006805
:1028F000029007980068406801909DF80800400722
:10290000002806D5FFE7019800F0040004280ED047
:10291000FFE79DF808000007002840F18B80FFE7E3
:102920009DF804000007002840F18480FFE7079825
:10293000006CC006002806D4FFE70799086C40F435
:1029400000700864FFE740F20830C5F2000000683C
:10295000C006D0B1FFE740F20830C5F200000068C1
:1029600000F01F00052810D0FFE740F20830C5F244
:102970000000006800F01F00092806D0FFE7079854
:102980000068B0F1A04F05D1FFE707980068C06864
:10299000049005E00C20C5F2000000680490FFE7F9
:1029A00007980068C06810F4406F3BD1FFE79DF8BE
:1029B00011008006002835D4FFE79DF808000007C5
:1029C00000282ED5FFE707980068806800F0040112
:1029D0000020B0EB910F18D1FFE707980168486815
:1029E00020F00C0048600799086C20F4807008649F
:1029F0000798006CC004002806D4FFE70799086C0C
:102A000040F001000864FFE70AE00799086C40F015
:102A1000100008640799486C40F001004864FFE723
:102A2000FFE7FFE70798FDF7F1FD079801680C2025
:102A30000860FFE79DF808008006002806D5FFE73C
:102A4000019800F0200020280ED0FFE79DF8080034
:102A50004006002840F1C680FFE79DF804004006CC
:102A6000002840F1BF80FFE70799086C40F4005050
:102A7000086440F20830C5F200000068C006D0B11A
:102A8000FFE740F20830C5F20000006800F01F00C8
:102A9000052810D0FFE740F20830C5F200000068BA
:102AA00000F01F00092806D0FFE707980068B0F182
:102AB000A04F05D1FFE707980068C068049005E0C3
:102AC0000C20C5F2000000680490FFE7079800683A
:102AD000C06C10F0C00F7DD1FFE79DF81300800798
:102AE00000280DD5FFE707980068C06810F4406F14
:102AF0006FD1FFE79DF811008006002869D4FFE739
:102B00009DF808004006002862D5FFE740F2083033
:102B1000C5F200000068C006D0B1FFE740F20830FF
:102B2000C5F20000006800F01F00062810D0FFE783
:102B300040F20830C5F20000006800F01F000728CE
:102B400006D0FFE707980068B0F1A04F05D1FFE776
:102B500007980068C068039005E00C20C5F20000EB
:102B600000680390FFE79DF80E00800600282ED431
:102B7000FFE707980068806800F008010020B0EBCC
:102B8000D10F18D1FFE707980168486820F060006E
:102B900048600799086C20F4805008640798006C1E
:102BA000C005002806D4FFE70799086C40F0010033
:102BB0000864FFE70AE00799086C40F01000086419
:102BC0000799486C40F001004864FFE7FFE7FFE722
:102BD000FFE7FFE7079800F0BBF80798016860205F
:102BE0000860FFE79DF808000006002813D5FFE7FE
:102BF0009DF80400000600280DD5FFE70799086C32
:102C000040F4803008640798FEF724FC07980168B8
:102C100080200860FFE79DF80900C00798B1FFE732
:102C20009DF80500C00770B1FFE70799086C40F4F4
:102C300000300864079800F08FF8079801684FF497
:102C400080700860FFE79DF809008007002814D510
:102C5000FFE79DF80500800700280ED5FFE70799DC
:102C6000086C40F480200864079800F079F8079811
:102C700001684FF400700860FFE79DF80800C00687
:102C8000002844D5FFE79DF80400C00600283ED583
:102C9000FFE70798406B012803D1FFE7012006906A
:102CA0001EE040F20030C5F20000059005988068F3
:102CB000C00650B9FFE707980068C068C00718B1A0
:102CC000FFE701200690FFE709E00598806810F40F
:102CD000404F03D0FFE701200690FFE7FFE7FFE743
:102CE000069801280ED1FFE70799086C40F4806030
:102CF00008640799486C40F0020048640798FEF7A2
:102D0000ADFBFFE70798016810200860FFE79DF81A
:102D100009004007002819D5FFE79DF80500400786
:102D2000002813D5FFE70799086C40F48040086439
:102D30000799486C40F008004864079801684FF410
:102D400080600860079800F00FF8FFE708B080BDCA
:102D500081B0009001B0704781B0009001B0704721
:102D600081B0009001B0704781B0009001B0704711
:102D700080B586B00490039100208DF80B00FFE72A
:102D8000049890F83C00012804D1FFE702208DF858
:102D9000170068E00499012081F83C00FFE7FFE795
:102DA0000498FEF717FD8DF80B009DF80B00002826
:102DB0004ED1FFE7049901200864049801688868EF
:102DC00020F0804088600398012807D1FFE704982D
:102DD0000168886840F080408860FFE704980168D7
:102DE000886840F00040886002F022F80190FFE718
:102DF000049800688068C00F08B3FFE702F018F875
:102E00000199401A0B2819D3FFE7049800688068DD
:102E1000C00F90B1FFE70498006C40F0100020F064
:102E2000020004990864FFE70499002081F83C003F
:102E3000FFE701208DF8170015E0FFE7D8E70498B9
:102E4000006C40F0010020F0020004990864FFE7E4
:102E5000FFE70499002081F83C00FFE79DF80B0094
:102E60008DF81700FFE79DF8170006B080BD00BF82
:102E700083B0019000910098012807D1FFE70198E5
:102E80000068D0F8B400000C029007E001980068D8
:102E9000D0F8B40000F07F000290FFE7029803B082
:102EA000704700BF86B004900391029200208DF815
:102EB0000700FFE7049890F83C00012804D1FFE7E1
:102EC00002208DF8170055E00499012081F83C009C
:102ED000FFE7FFE704980068806800F00301002026
:102EE0000129009005D1FFE7049800680068009070
:102EF000FFE70098C00738B3FFE7049800688068D0
:102F000010F00C0F20D1FFE7039801280ED1FFE746
:102F100004980068D0F8B40020F4FE00029940EA5A
:102F2000014004990968C1F8B4000CE004980068F5
:102F3000D0F8B40020F07F00029908430499096892
:102F4000C1F8B400FFE70AE00499086C40F02000E3
:102F500008640499486C40F001004864FFE7FFE70B
:102F60000499002081F83C00FFE79DF807008DF8E8
:102F70001700FFE79DF8170006B0704780B584B0D2
:102F8000029000208DF8070002990968896801F015
:102F90000801B0EBD10F40F08C80FFE7FFE702980B
:102FA00090F83C00012804D1FFE702208DF80F00C3
:102FB00088E00299012081F83C00FFE7FFE70298D2
:102FC000FEF746FF8DF807009DF80700002868D13E
:102FD000FFE70298006C40F4805042F20101884300
:102FE0000299086440F20830C5F200000068C0068B
:102FF00030B1FFE702980068B0F1A04F06D1FFE7BB
:103000000299086C20F48010086405E00299086CAD
:1030100040F480100864FFE70298006CC0050028A7
:1030200004D4FFE7029900204864FFE7FFE7029914
:10303000002081F83C00FFE70298016860200860EA
:1030400002980068C0688001002829D4FFE740F298
:103050000830C5F200000068C006D0B1FFE740F2BA
:103060000830C5F20000006800F01F00062810D0EC
:10307000FFE740F20830C5F20000006800F01F00D2
:10308000072806D0FFE702980068B0F1A04F07D1EB
:10309000FFE702980168886840F008008860FFE751
:1030A00006E0FFE70299002081F83C00FFE7FFE718
:1030B00003E002208DF80700FFE79DF807008DF878
:1030C0000F00FFE79DF80F0004B080BD80B584B00D
:1030D000029000208DF80700FFE7029890F83C006E
:1030E000012804D1FFE702208DF80F0055E0029976
:1030F000012081F83C00FFE7FFE702980068C06804
:103100008001002835D4FFE702986021FEF7F8FC23
:103110008DF807009DF8070050BBFFE70298006894
:10312000806800F004010020B0EB910F19D1FFE797
:103130000298006CC005002813D4FFE70298FEF740
:1031400049FB8DF807009DF8070048B9FFE7029892
:10315000006C40F0010020F4885002990864FFE7F9
:1031600005E00299086C20F480500864FFE7FFE74F
:1031700008E00299086C40F02000086401208DF8F6
:103180000700FFE7FFE70299002081F83C00FFE716
:103190009DF807008DF80F00FFE79DF80F0004B0C1
:1031A00080BD00BF80B586B00490039100200090E0
:1031B00004984069082803D1FFE74020019002E00D
:1031C00060200190FFE740F20830C5F2000000687F
:1031D000C00630B1FFE704980068B0F1A04F05D1F8
:1031E000FFE704980068C068009005E00C20C5F275
:1031F000000000680090FFE701F01AFE0290FFE770
:103200000498006800680199084228D1FFE70398F4
:10321000013018B3FFE7039840B1FFE701F008FE63
:103220000299401A0399884217D9FFE70498006869
:103230000068019908420FD1FFE70499086C40F03B
:1032400004000864FFE70499002081F83C00FFE7D0
:1032500003208DF8170042E0FFE7FFE7D0E704996D
:10326000086C40F40050086404980068C06C10F0CA
:10327000C00F13D0FFE79DF80300800700281FD47C
:10328000FFE704980068C06810F4406F18D1FFE7AA
:103290009DF801008006002812D4FFE70499086C0D
:1032A00020F4805008640498006CC005002806D4FF
:1032B000FFE70499086C40F001000864FFE7FFE7AE
:1032C0009DF801004006002805D4FFE70198049905
:1032D00009680860FFE700208DF81700FFE79DF8F8
:1032E000170006B080BD00BF80B584B002900020FA
:1032F0008DF8070002990968896801F00801B0EBB0
:10330000D10F40F0B480FFE7FFE7029890F83C004F
:10331000012804D1FFE702208DF80F00B0E00299E8
:10332000012081F83C00FFE7FFE70298FEF790FDDF
:103330008DF807009DF80700002840F09080FFE717
:103340000298006C40F4805042F2010188430299D7
:10335000086440F20830C5F200000068C00630B1D1
:10336000FFE702980068B0F1A04F06D1FFE702998D
:10337000086C20F48010086405E00299086C40F4A1
:1033800080100864FFE70298006CC005002804D490
:10339000FFE7029900204864FFE7FFE70299002059
:1033A00081F83C00FFE702980168602008600298FD
:1033B0000068C0688002002807D5FFE7029801680E
:1033C000486840F480604860FFE702984069082838
:1033D0000DD1FFE702980168486820F0200048609E
:1033E00002980168486840F04000486006E0029892
:1033F0000168486840F060004860FFE70298006894
:10340000C0688001002829D4FFE740F20830C5F2E7
:1034100000000068C006D0B1FFE740F20830C5F2F6
:103420000000006800F01F00062810D0FFE740F2FF
:103430000830C5F20000006800F01F00072806D021
:10344000FFE702980068B0F1A04F07D1FFE70298AC
:103450000168886840F008008860FFE706E0FFE741
:103460000299002081F83C00FFE7FFE703E002201B
:103470008DF80700FFE79DF807008DF80F00FFE7C4
:103480009DF80F0004B080BD80B584B0029000208C
:103490008DF80700FFE7029890F83C00012804D15E
:1034A000FFE702208DF80F005BE00299012081F810
:1034B0003C00FFE7FFE702980068C0688001002831
:1034C0003BD4FFE702986021FEF71AFB8DF8070056
:1034D0009DF8070080BBFFE702980168486820F468
:1034E0008C60486002980068806800F00401002049
:1034F000B0EB910F19D1FFE70298006CC0050028CE
:1035000013D4FFE70298FEF765F98DF807009DF8E0
:10351000070048B9FFE70298006C40F0010020F472
:10352000885002990864FFE705E00299086C20F4CE
:1035300080500864FFE7FFE708E00299086C40F05C
:103540002000086401208DF80700FFE7FFE70299DB
:10355000002081F83C00FFE79DF807008DF80F0080
:10356000FFE79DF80F0004B080BD00BF80B59AB0A2
:1035700018901791169200208DF8570001A850213D
:1035800012F03DFDFFE7189890F83C00012804D1A7
:10359000FFE702208DF86700ABE01899012081F861
:1035A0003C00FFE7FFE718980068806800F004011E
:1035B0000020B0EB910F40F09380FFE7189800686F
:1035C000B0F1A04F06D1FFE740F20010C5F20000B5
:1035D000019000E0FFE7019878B9FFE71899086CBF
:1035E00040F020000864FFE71899002081F83C00B3
:1035F000FFE701208DF867007BE01898FEF728FCB4
:103600008DF857009DF8570030B9FFE701A8FEF785
:103610001FFC8DF85700FFE79DF85700002857D191
:10362000FFE71898006C40F480704FF2FE11CFF65F
:10363000EF7108401899086418980068C068800104
:10364000002809D5FFE71898006C40F4805020F45A
:10365000005018990864FFE7FFE71899002081F8E7
:103660003C00FFE71899002048641898816B42F2EB
:103670003170C0F6000088621898816B42F2A57024
:10368000C0F60000C8621898816B42F2BD70C0F6A7
:103690000000086340F20030C5F200000090189866
:1036A00001681C20086018980168486840F0100004
:1036B00048601898806B00990C31179A169B03F09C
:1036C00007FF18980168886840F00400886006E0E9
:1036D000FFE71899002081F83C00FFE7FFE703E0CF
:1036E00002208DF85700FFE79DF857008DF867001E
:1036F000FFE79DF867001AB080BD00BF80B59AB0A3
:10370000189000208DF85F0002A8502112F077FC7D
:10371000FFE7189890F83C00012804D1FFE7022049
:103720008DF86700CBE01899012081F83C00FFE795
:10373000FFE718986C21FEF7E3F98DF85F009DF81C
:103740005F00002840F0B080FFE718980068B0F1F3
:10375000A04F06D1FFE740F20010C5F20000029032
:1037600000E0FFE7029878B9FFE71899086C40F08D
:1037700040000864FFE71899002081F83C00FFE74B
:1037800001208DF867009AE001F052FB1690FFE7E8
:103790001898006880684007002805D4FFE70120DA
:1037A0000021019059B904E001210846019031B986
:1037B000FFE702988068C0F380000190FFE701985E
:1037C000C00788B3FFE701F033FB1699401A0C28B5
:1037D00029D3FFE71898006880684007002803D4C1
:1037E000FFE7002078B902E0012060B9FFE7029806
:1037F00080684007002803D4FFE7002018B911E0D3
:10380000002078B9FFE71899086C40F010000864B0
:10381000FFE71899002081F83C00FFE701208DF8B0
:1038200067004CE0FFE7B3E71898806B03F0B6FE43
:103830008DF85F009DF85F0030B1FFE71899086CC4
:1038400040F040000864FFE718980168486820F0DD
:10385000100048609DF85F00C8B9FFE71898FDF7B1
:10386000B9FF012812D0FFE702A8FDF7B3FF012836
:103870000CD0FFE700208DF85F001898006C40F036
:10388000010020F4885018990864FFE70BE01898AD
:10389000FDF7A0FF02A8FDF79DFF1899086C40F006
:1038A00010000864FFE7FFE7FFE71899002081F8A0
:1038B0003C00FFE79DF85F008DF86700FFE79DF88B
:1038C00067001AB080BD00BF82B0019040F20030A6
:1038D000C5F2000000900098C06802B0704700BFB9
:1038E00084B00390029100200190029801380146B3
:1038F0000091032817D80099DFE801F0140E0802A0
:1039000003980068D0F88C00019012E003980068DA
:10391000D0F8880001900CE003980068D0F884008B
:10392000019006E0FFE703980068D0F8800001905E
:10393000FFE7019804B0704780B584B00290002082
:103940008DF80700FFE7029890F83C00012804D1A9
:10395000FFE702208DF80F003FE00299012081F877
:103960003C00FFE7FFE702980C21FEF7C9F88DF84D
:10397000070002980068806800F008010020B0EBA2
:10398000D10F19D1FFE70298006CC004002813D4AE
:10399000FFE70298FDF71EFF8DF807009DF807006E
:1039A00048B9FFE70298006C40F0010020F488500D
:1039B00002990864FFE705E00299086C20F4807022
:1039C0000864FFE7FFE70299002081F83C00FFE769
:1039D0009DF807008DF80F00FFE79DF80F0004B079
:1039E00080BD00BF80B584B0029000208DF8070034
:1039F000FFE7029890F83C00012804D1FFE702207D
:103A00008DF80F0045E00299012081F83C00FFE7A6
:103A1000FFE702980C21FEF773F88DF80700029873
:103A20000068806800F008010020B0EBD10F1FD1C2
:103A3000FFE70298006CC004002819D4FFE7029841
:103A40000168486820F01C0048600298FDF7C2FE3B
:103A50008DF807009DF8070048B9FFE70298006C51
:103A600040F0010020F4885002990864FFE705E067
:103A70000299086C20F480700864FFE7FFE7029960
:103A8000002081F83C00FFE79DF807008DF80F004B
:103A9000FFE79DF80F0004B080BD00BF80B584B083
:103AA000029000208DF80700FFE7029890F83C0094
:103AB000012804D1FFE702208DF80F0064E002998D
:103AC000012081F83C00FFE7FFE702980C21FEF798
:103AD00017F88DF8070002980068806800F0080168
:103AE0000020B0EBD10F3ED1FFE70298006CC0047C
:103AF000002838D4FFE702980168C86820F0010068
:103B0000C8600298806B03F049FD8DF807009DF8AE
:103B1000070030B1FFE70299086C40F040000864EC
:103B2000FFE702980168486820F0100048609DF89F
:103B3000070030B9FFE70298FDF74CFE8DF807004B
:103B400003E00298FDF746FEFFE79DF8070048B93D
:103B5000FFE70298006C40F0010020F488500299C1
:103B60000864FFE705E00299086C20F4807008649F
:103B7000FFE7FFE70299002081F83C00FFE79DF88E
:103B800007008DF80F00FFE79DF80F0004B080BD1F
:103B900080B59AB0189000208DF85F0002A85021DF
:103BA00012F02DFAFFE7189890F83C00012804D194
:103BB000FFE702208DF86700DDE01899012081F809
:103BC0003C00FFE7FFE718980C21FDF799FF8DF8FF
:103BD0005F0018980068806800F008010020B0EBD2
:103BE000D10F40F0B780FFE71898006CC0040028A0
:103BF00000F1B080FFE718980068B0F1A04F06D13F
:103C0000FFE740F20010C5F20000029000E0FFE77D
:103C1000029878B9FFE71899086C40F040000864F2
:103C2000FFE71899002081F83C00FFE701208DF89C
:103C30006700A0E001F0FCF81690FFE71898006814
:103C400080684007002805D4FFE70120002101908B
:103C500059B904E001210846019031B9FFE7029803
:103C60008068C0F380000190FFE70198C00788B327
:103C7000FFE701F0DDF81699401A0C2829D3FFE779
:103C80001898006880684007002803D4FFE70020E8
:103C900078B902E0012060B9FFE702988068400728
:103CA000002803D4FFE7002018B911E0002078B9FC
:103CB000FFE71899086C40F010000864FFE71899B6
:103CC000002081F83C00FFE701208DF8670052E0FA
:103CD000FFE7B3E71898806B03F060FC8DF85F0096
:103CE0009DF85F0030B1FFE71899086C40F0400084
:103CF0000864FFE718980168486820F010004860E1
:103D00009DF85F00C8B9FFE71898FDF763FD01282B
:103D100012D0FFE702A8FDF75DFD01280CD0FFE7F8
:103D200000208DF85F001898006C40F0010020F42E
:103D3000885018990864FFE70BE01898FDF74AFDD2
:103D400002A8FDF747FD1899086C40F010000864C0
:103D5000FFE705E01899086C20F480700864FFE71D
:103D6000FFE71899002081F83C00FFE79DF85F000D
:103D70008DF86700FFE79DF867001AB080BD00BFAF
:103D80009FB01D901C9100208DF86F0004901C982E
:103D9000C068012801D0FFE700E0FFE7FFE71D98BA
:103DA00090F83C00012804D1FFE702208DF87B0049
:103DB00078E21D99012081F83C00FFE7FFE71D989C
:103DC0000068806800F004010020B0EB910F40F023
:103DD0005582FFE71C984068042812D8FFE71D9819
:103DE0000068006B1C9A1168526802EB4202520094
:103DF0001F2393409843914008431D990968086325
:103E00004AE01C984068092815D8FFE71D9800680B
:103E1000406B1C9A1168526802EB42036FF01D025E
:103E200002EB43021F2393409843914008431D999E
:103E3000096848632FE01C9840680E2815D8FFE7F2
:103E40001D980068806B1C9A1168526802EB42034F
:103E50006FF03B0202EB43021F23934098439140D3
:103E600008431D990968886314E01D980068C06BB9
:103E70001C9A1168526802EB42036FF0590202EB80
:103E800043021F2393409843914008431D990968BA
:103E9000C863FFE7FFE7FFE71D980068806810F040
:103EA0000C0F40F0D980FFE71C9800680A2812D355
:103EB000FFE71D98006880691C990A68896802EB11
:103EC00042021E3A072393409843914008431D99AC
:103ED0000968886110E01D98006840691C990A68AB
:103EE000896802EB420207239340984391400843BC
:103EF0001D9909684861FFE71C9840691D99096888
:103F0000C96801F018018908884005901C9800696B
:103F1000013801460391032854D80399DFE801F0E2
:103F200002162A3E1D980068006E4FF20001C0F292
:103F3000FF3101401C980268059840EA82600843FE
:103F400040F000401D990968086684E01D980068EB
:103F5000406E4FF20001C0F2FF3101401C98026830
:103F6000059840EA8260084340F000401D990968C6
:103F7000486670E01D980068806E4FF20001C0F244
:103F8000FF3101401C980268059840EA82600843AE
:103F900040F000401D99096888665CE01D98006843
:103FA000C06E4FF20001C0F2FF3101401C98026860
:103FB000059840EA8260084340F000401D99096876
:103FC000C86648E01D980068006E00F0F8401C9933
:103FD0000968B0EB816F07D1FFE71D980168086E93
:103FE00020F000400866FFE71D980068406E00F072
:103FF000F8401C990968B0EB816F07D1FFE71D9865
:104000000168486E20F000404866FFE71D98006890
:10401000806E00F0F8401C990968B0EB816F07D101
:10402000FFE71D980168886E20F000408866FFE772
:104030001D980068C06E00F0F8401C990968B0EB4C
:10404000816F07D1FFE71D980168C86E20F000401E
:10405000C866FFE7FFE7FFE71D980068806800F08B
:10406000030100200129029005D1FFE71D98006897
:1040700000680290FFE70298C007002840F0FD802A
:10408000FFE71C98C06801280DD0FFE71C98016865
:10409000012000FA01F21D980168D1F8B0009043A8
:1040A000C1F8B00035E01C980168012000FA01F267
:1040B0001D980168D1F8B0001043C1F8B0001C98F9
:1040C00000680A2812D3FFE71D98006880691C99D0
:1040D0000A68896802EB42021B3A0723934098431F
:1040E000914008431D990968886111E01D98006896
:1040F00040691C990A68896802EB4202033207236F
:1041000093409843914008431D9909684861FFE72F
:10411000FFE740F20030C5F200001A901C980068DA
:10412000102806D1FFE71A9880680002002818D5E9
:10413000FFE71C980068112806D1FFE71A988068ED
:10414000C00100280DD5FFE71C980068122840F038
:104150009380FFE71A9880684002002800F18C8065
:10416000FFE71D980068B0F1A04F06D1FFE740F2CD
:104170000010C5F20000069003E04FF0A04006904A
:10418000FFE71D980068806800F003010020012906
:10419000019005D1FFE71D98006800680190FFE7D6
:1041A0000198C00700285DD1FFE7069890B1FFE7AE
:1041B0000698806800F0030100200129009004D1D6
:1041C000FFE7069800680090FFE70098C007002806
:1041D00048D1FFE71C980068102824D1FFE71D98FC
:1041E0000068B0F1A04F1ED1FFE71A99886840F42B
:1041F0000000886040F21000C2F2000000684DF636
:104200008361C4F21B31A0FB0110800C00EB800025
:1042100040000490FFE7049820B1FFE704980138BC
:104220000490F8E71DE01C98006811280CD1FFE706
:104230001D980068B0F1A04F06D1FFE71A99886871
:1042400040F0807088600BE01C980068122806D14E
:10425000FFE71A99886840F480008860FFE7FFE76D
:10426000FFE708E01D99086C40F020000864012079
:104270008DF86F00FFE7FFE7FFE708E01D99086C86
:1042800040F02000086401208DF86F00FFE7FFE791
:104290001D99002081F83C00FFE79DF86F008DF824
:1042A0007B00FFE79DF87B001FB07047A0B01E9019
:1042B0001D9100208DF87300059004901E980069F0
:1042C00008B1FFE7FFE71D98C068012801D0FFE7AC
:1042D00000E0FFE7FFE71E9890F83C00012804D1BA
:1042E000FFE702208DF87F00F2E21E99012081F89D
:1042F0003C00FFE7FFE71E98006928B1FFE71D9823
:104300008069012837D1FFE71D984068012828D12E
:10431000FFE71D98006A01280BD0FFE71D990A6886
:10432000086A496A40EA022001430498084304905D
:1043300006E01D980168049840EA01200490FFE718
:104340001E980068C06C42F20001C8F208210840C3
:10435000049908431E990968C86404981E998864E2
:1043600008E01E99086C40F02000086401208DF8D8
:104370007300FFE74FE01E98C06C10BBFFE71D986D
:1043800080691E99C8641E99002088641D98006A7F
:1043900001280DD0FFE71D9988690A6A496A01382A
:1043A000104340EA01021E99886C1043886407E0BC
:1043B0001D988069421E1E99886C10438864FFE72F
:1043C000FFE71E99886C1D9B1A685B6803EB430C22
:1043D000022303EB4C034FF01F0C0CFA03FC20EA02
:1043E0000C009A40104388641E99C86C0138C86458
:1043F0001E98C06C70B9FFE71E980068C06C42F24E
:104400000001C8F2082108401E9A1168926C1043FE
:10441000C864FFE7FFE71E980068806800F00801A5
:104420000020B0EBD10F30D1FFE71D98407F80B95D
:10443000FFE71E980068C06820F440101D990A7FAD
:10444000897F490541EA025108431E990968C860FD
:104450001AE01E980068C06820F440101D99897FFA
:1044600040EA41501E990968C8601D98007F0128E4
:1044700009D1FFE71E99086C40F020000864012074
:104480008DF87300FFE7FFE7FFE71E98006880687C
:1044900010F00C0F40F00081FFE71D98006A012822
:1044A0000DD1FFE71E980068C06820F000701D99CC
:1044B000497F40EA41601E990968C86014E01E986F
:1044C0000168C86820F00070C8601D98407F01280E
:1044D00009D1FFE71E99086C40F020000864012014
:1044E0008DF87300FFE7FFE71D9800680A2812D3D4
:1044F000FFE71E98006880691D990A68896802EBC9
:1045000042021E3A072393409843914008431E9964
:104510000968886110E01E98006840691D990A6862
:10452000896802EB42020723934098439140084375
:104530001E9909684861FFE71D9840691E9909683E
:10454000C96801F018018908884006901D98006923
:10455000013801460391032854D80399DFE801F09C
:1045600002162A3E1E980068006E4FF20001C0F24B
:10457000FF3101401D980268069840EA82600843B6
:1045800040F000401E990968086684E01E980068A3
:10459000406E4FF20001C0F2FF3101401D980268E9
:1045A000069840EA8260084340F000401E9909687E
:1045B000486670E01E980068806E4FF20001C0F2FD
:1045C000FF3101401D980268069840EA8260084366
:1045D00040F000401E99096888665CE01E980068FB
:1045E000C06E4FF20001C0F2FF3101401D98026819
:1045F000069840EA8260084340F000401E9909682E
:10460000C86648E01E980068006E00F0F8401D99EA
:104610000968B0EB816F07D1FFE71E980168086E4B
:1046200020F000400866FFE71E980068406E00F02A
:10463000F8401D990968B0EB816F07D1FFE71E981C
:104640000168486E20F000404866FFE71E98006849
:10465000806E00F0F8401D990968B0EB816F07D1BA
:10466000FFE71E980168886E20F000408866FFE72B
:104670001E980068C06E00F0F8401D990968B0EB04
:10468000816F07D1FFE71E980168C86E20F00040D7
:10469000C866FFE7FFE7FFE71E980068806800F044
:1046A000030100200129029005D1FFE71E98006850
:1046B00000680290FFE70298C007002840F0FD80E4
:1046C000FFE71D98C06801280DD0FFE71D9801681D
:1046D000012000FA01F21E980168D1F8B000904361
:1046E000C1F8B00035E01D980168012000FA01F220
:1046F0001E980168D1F8B0001043C1F8B0001D98B1
:1047000000680A2812D3FFE71E98006880691D9987
:104710000A68896802EB42021B3A072393409843D8
:10472000914008431E990968886111E01E9800684D
:1047300040691D990A68896802EB42020332072327
:1047400093409843914008431E9909684861FFE7E8
:10475000FFE740F20030C5F200001B901D98006892
:10476000102806D1FFE71B9880680002002818D5A2
:10477000FFE71D980068112806D1FFE71B988068A5
:10478000C00100280DD5FFE71D980068122840F0F1
:104790009380FFE71B9880684002002800F18C801E
:1047A000FFE71E980068B0F1A04F06D1FFE740F286
:1047B0000010C5F20000079003E04FF0A040079002
:1047C000FFE71E980068806800F0030100200129BF
:1047D000019005D1FFE71E98006800680190FFE78F
:1047E0000198C00700285DD1FFE7079890B1FFE767
:1047F0000798806800F0030100200129009004D18F
:10480000FFE7079800680090FFE70098C0070028BE
:1048100048D1FFE71D980068102824D1FFE71E98B3
:104820000068B0F1A04F1ED1FFE71B99886840F4E3
:104830000000886040F21000C2F2000000684DF6EF
:104840008361C4F21B31A0FB0110800C00EB8000DF
:1048500040000590FFE7059820B1FFE70598013873
:104860000590F8E71DE01D98006811280CD1FFE7BE
:104870001E980068B0F1A04F06D1FFE71B99886829
:1048800040F0807088600BE01D980068122806D107
:10489000FFE71B99886840F480008860FFE7FFE726
:1048A000FFE708E01E99086C40F020000864012032
:1048B0008DF87300FFE7FFE7FFE7FFE71E99002091
:1048C00081F83C00FFE79DF873008DF87F00FFE75B
:1048D0009DF87F0020B070478AB0089007910020B3
:1048E0008DF81B0007984068B0F5400F0CD0FFE72B
:1048F00007984068B0F1A07F06D0FFE707984068AE
:10490000B0F1E07F01D1FFE7FFE7FFE7089890F8FB
:104910003C00012804D1FFE702208DF827002AE19E
:104920000899012081F83C00FFE7FFE7089800683C
:10493000806810F00C0F40F00A81FFE707980068CC
:1049400001284AD1FFE708980068C0684FF6FF7158
:10495000C8F23F210840079A5168926841EA826193
:10496000084308990968C8600798006908990968A8
:10497000C96801F0180189088840059007984069C6
:1049800008990968C96801F01801890888400490ED
:1049900008980068006A00F0F020059A049941EA3E
:1049A0000241084308990968086208980168802054
:1049B00008600798007B012807D1FFE70898016885
:1049C000486840F08000486006E008980168486840
:1049D00020F080004860FFE7B8E008980068C068F1
:1049E00000F0180018280DD0FFE707980069089913
:1049F0000968C96801F018020421A1EB9201C840BE
:104A0000019004E00798006980000190FFE7019899
:104A1000059008980068C06800F0180018280DD0AC
:104A2000FFE70798406908990968C96801F018020A
:104A30000421A1EB9201C840009004E0079840696E
:104A400080000090FFE70098049007980068022813
:104A500032D1FFE707984068D0B1FFE708980068B7
:104A6000406A20F0FF10059A049941EA0241084388
:104A700008990968486207988168012000FA01F2E4
:104A800008980168D1F8A0001043C1F8A0000EE01A
:104A900008980168486A20F0FF1048620898016889
:104AA000D1F8A0006FF35200C1F8A000FFE74FF467
:104AB00080700390029031E007984068D0B1FFE722
:104AC00008980068806A20F0FF10059A049941EA6E
:104AD00002410843089909688862079881680120A3
:104AE00000FA01F208980168D1F8A4001043C1F857
:104AF000A4000EE008980168886A20F0FF10886220
:104B000008980168D1F8A4006FF35200C1F8A4001E
:104B1000FFE74FF4007003900290FFE703980899B5
:104B2000096808600798007B012807D1FFE7029A0F
:104B30000898016848681043486006E0029A08989F
:104B40000168486890434860FFE7FFE708E008997C
:104B5000086C40F02000086401208DF81B00FFE77E
:104B6000FFE70899002081F83C00FFE79DF81B0053
:104B70008DF82700FFE79DF827000AB0704700BFB7
:104B80009DB01B901A9100208DF867001A9800685C
:104B900008B1FFE7FFE71B980068B0F1A04F06D10E
:104BA000FFE740F20010C5F20000049003E04FF070
:104BB000A0400490FFE7049820B9FFE701208DF89A
:104BC0007300B4E0FFE71B9890F83C00012804D183
:104BD000FFE702208DF87300A9E01B99012081F8FE
:104BE0003C00FFE7FFE71B980068806800F00401C5
:104BF0000020B0EB910F40F08680FFE704988068BA
:104C000000F004010020B0EB910F7CD1FFE740F2EF
:104C10000030C5F2000018901A980068002840D0B3
:104C2000FFE71898806820F460401A9949681B9A39
:104C300092F8302041EA42310843189988601B9865
:104C40000068806800F0030100200129039005D16D
:104C5000FFE71B98006800680390FFE70398C00710
:104C6000F0B9FFE70498806800F0030100200129F3
:104C7000029004D1FFE7049800680290FFE70298D1
:104C8000C00768B9FFE71898806840F61F7188432D
:104C90001A9A116892681143084318998860FFE7CF
:104CA00030E01899886820F4604088601B9800689C
:104CB000806800F0030100200129019005D1FFE781
:104CC0001B98006800680190FFE70198C007C0B911
:104CD000FFE70498806800F003010020012900909C
:104CE00004D1FFE7049800680090FFE70098C00730
:104CF00038B9FFE71899886840F61F7290438860BA
:104D0000FFE7FFE708E01B99086C40F0200008640B
:104D100001208DF86700FFE7FFE71B99002081F86D
:104D20003C00FFE79DF867008DF87300FFE79DF8F2
:104D300073001DB07047000080B542F20001C4F25C
:104D40000201086840F010000860032002F0A6FE8F
:104D50000F2000F005F8FCF7FFFA002080BD00BF2F
:104D600080B582B0009040F21000C2F200000068EE
:104D700040F21801C2F200010A784FF47A71B1FBD7
:104D8000F2F1B0FBF1F002F087FF20B1FFE7012064
:104D90008DF8070018E000980F280DD8FFE700995C
:104DA0004FF0FF30002202F09FFE009840F21C01FD
:104DB000C2F20001086003E001208DF8070003E063
:104DC00000208DF80700FFE79DF8070002B080BDC6
:104DD000704700BF80B582B041F21001C4F20201F9
:104DE0004FF0FF320A6000200190086041F20C0190
:104DF000C4F202010A60086041F22801C4F2020113
:104E00000A60086000F004F8019802B080BD00BF9D
:104E1000704700BF40F21800C2F20000027840F66E
:104E2000E061C2F20001086810440860704700BFEA
:104E300040F6E060C2F200000068704740F21C00DB
:104E4000C2F200000068704780B582B08DF807009C
:104E500000208DF8060040F21800C2F20000007831
:104E60009DF80710884220D0FFE740F21801C2F2F7
:104E7000000108788DF805009DF80700087040F2E1
:104E80001C00C2F200000068FFF76AFF8DF8060000
:104E90009DF8060040B1FFE79DF8050040F21801BB
:104EA000C2F200010870FFE7FFE79DF8060002B0BC
:104EB00080BD00BF40F21800C2F2000000787047C9
:104EC00080B584B00390FFF7B3FF02900398019080
:104ED0000198013048B1FFE740F21800C2F200002B
:104EE0000178019808440190FFE7FFE7FFF7A0FF72
:104EF0000299401A0199884201D2FFE7F6E704B00F
:104F000080BD00BF4EF21001CEF20001086820F013
:104F100002000860704700BF4EF21001CEF200019F
:104F2000086840F002000860704700BF40F60000CB
:104F3000C0F20510704700BF42F20000CEF204003C
:104F40000068000C704700BF42F20000CEF204007F
:104F500000686FF31F3070474FF2AC70C1F6FF70FE
:104F6000006870474FF2B070C1F6FF70006870477C
:104F70004FF2B470C1F6FF700068704742F204014E
:104F8000CEF20401086840F001000860704700BFDD
:104F900042F20401CEF20401086820F0010008602A
:104FA000704700BF42F20401CEF20401086840F0ED
:104FB00002000860704700BF42F20401CEF2040113
:104FC000086820F002000860704700BF42F2040148
:104FD000CEF20401086840F004000860704700BF8A
:104FE00042F20401CEF20401086820F004000860D7
:104FF0007047000080B582B00020009041F20001AF
:10500000C4F20201086840F001000860FFF710FFD9
:105010000090FFE741F20000C4F202000068800740
:1050200000280CD4FFE7FFF703FF0099401A03287C
:1050300004D3FFE703208DF807008FE0EAE741F291
:105040000001C4F202010868102262F3C700086080
:1050500041F20401C4F2020108684CF20C02CFF6DE
:10506000FF0210400860FFF7E3FE0090FFE741F207
:105070000400C4F20200006810F00C0F0ED0FFE72D
:10508000FFF7D6FE0099401A41F28931884204D3D5
:10509000FFE703208DF8070060E0E8E740F2100129
:1050A000C2F2000141F20020C0F27A00086040F232
:1050B0001C00C2F200000068FFF752FE20B1FFE7BB
:1050C00001208DF8070049E041F20001C4F202011D
:1050D00008684FF6FF72CFF6F66210400860086865
:1050E00020F480200860FFF7A3FE0090FFE741F264
:1050F0000000C4F202000068800100280CD5FFE720
:10510000FFF796FE0099401A032804D3FFE7032017
:105110008DF8070022E0EAE741F20401C4F202013F
:105120000020086041F22C01C4F20201086041F243
:105130003001C4F20201086041F20801C4F2020128
:105140000A6842F41F020A60086040F2E042C4F2BA
:105150004222012111608DF80700FFE79DF807004A
:1051600002B080BD80B5AEB02C902C9828B9FFE776
:1051700001208DF8B70000F028BD2C980078C007FA
:10518000002800F03181FFE741F20400C4F2020080
:10519000006800F00C00042813D0FFE741F204007F
:1051A000C4F20200006800F00C00082843D1FFE7B9
:1051B00041F20400C4F202000068C00300283AD59E
:1051C000FFE7002038B9FFE741F20000C4F2020017
:1051D0000068279020E0012038B9FFE741F2200065
:1051E000C4F202000068269013E0012038B9FFE7FE
:1051F00041F20400C4F202000068259006E041F28A
:105200002400C4F2020000682590FFE7259826904C
:10521000FFE726982790FFE727988003002809D505
:10522000FFE72C98406828B9FFE701208DF8B70008
:1052300000F0CBBCD7E0FFE72C984068B0F5803F8A
:1052400009D1FFE741F20001C4F20201086840F40D
:105250008030086032E02C98406868B9FFE741F27E
:105260000001C4F20201086820F480300860086878
:1052700020F48020086020E02C984068B0F5A02F32
:105280000DD1FFE741F20001C4F20201086840F4C9
:1052900080200860086840F4803008600CE041F22B
:1052A0000001C4F20201086820F480300860086838
:1052B00020F480200860FFE7FFE7FFE7FFE741F207
:1052C0002C01C4F20201086820F00F002C9A9268A9
:1052D000104308602C984068002842D0FFE7FFF791
:1052E000A7FD2B90FFE7002038B9FFE741F200004F
:1052F000C4F202000068249020E0012038B9FFE7E2
:1053000041F22000C4F202000068239013E0012063
:1053100038B9FFE741F20400C4F2020000682290AD
:1053200006E041F22400C4F2020000682290FFE788
:1053300022982390FFE723982490FFE72498800386
:1053400000280DD4FFE7FFF773FD2B99401A65285D
:1053500005D3FFE703208DF8B70000F036BCC2E7A5
:1053600040E0FFF765FD2B90FFE7002038B9FFE72D
:1053700041F20000C4F202000068219020E0012008
:1053800038B9FFE741F22000C4F202000068209023
:1053900013E0012038B9FFE741F20400C4F2020033
:1053A00000681F9006E041F22400C4F20200006889
:1053B0001F90FFE71F982090FFE720982190FFE7BC
:1053C0002198800300280CD5FFE7FFF731FD2B99CA
:1053D000401A652804D3FFE703208DF8B700F4E3F3
:1053E000C3E7FFE7FFE7FFE72C9800788007002876
:1053F00040F10381FFE741F20400C4F202000068BB
:1054000010F00C0F13D0FFE741F20400C4F20200C9
:10541000006800F00C00082850D1FFE741F20400BA
:10542000C4F202000068C003002847D4FFE7002050
:1054300038B9FFE741F20000C4F2020000681E9094
:1054400020E0012038B9FFE741F22000C4F2020059
:1054500000681D9013E0012038B9FFE741F2040015
:10546000C4F2020000681C9006E041F22400C4F27D
:10547000020000681C90FFE71C981D90FFE71D9834
:105480001E90FFE71E988007002809D5FFE72C989B
:105490000069012804D0FFE701208DF8B70094E3EC
:1054A00041F20001C4F20201086820F0F8002C9AD1
:1054B000526940EAC2000860FFE79DE02C9800694D
:1054C000002852D0FFE70021C4F2422101200860E9
:1054D000FFF7AEFC2B90FFE7002038B9FFE741F261
:1054E0000000C4F2020000681B9020E0012038B9DF
:1054F000FFE741F22000C4F2020000681A9013E0B6
:10550000012038B9FFE741F20400C4F2020000684C
:10551000199006E041F22400C4F2020000681990DC
:10552000FFE719981A90FFE71A981B90FFE71B985E
:10553000800700280CD4FFE7FFF77AFC2B99401A6C
:10554000032804D3FFE703208DF8B7003DE3C3E74A
:1055500041F20001C4F20201086820F0F8002C9A20
:10556000526940EAC200086045E00021C4F24221CD
:1055700000200860FFF75CFC2B90FFE7002038B9A3
:10558000FFE741F20000C4F202000068189020E03A
:10559000012038B9FFE741F22000C4F202000068A0
:1055A000179013E0012038B9FFE741F20400C4F27C
:1055B00002000068169006E041F22400C4F20200E6
:1055C00000681690FFE716981790FFE71798189055
:1055D000FFE71898800700280CD5FFE7FFF728FCA5
:1055E0002B99401A032804D3FFE703208DF8B70056
:1055F000EBE2C3E7FFE7FFE7FFE72C98007800073F
:10560000002840F19580FFE72C988069002847D05A
:10561000FFE740F28041C4F2422101200860FFF719
:1056200007FC2B90FFE7012038B9FFE741F20000AB
:10563000C4F202000068159020E0012038B9FFE7AD
:1056400041F22000C4F202000068149013E001202F
:1056500038B9FFE741F20400C4F202000068139079
:1056600006E041F22400C4F2020000681390FFE754
:1056700013981490FFE714981590FFE7159880078A
:1056800000280CD4FFE7FFF7D3FB2B99401A03281F
:1056900004D3FFE703208DF8B70096E2C3E746E0A6
:1056A00040F28041C4F2422100200860FFF7C0FBB5
:1056B0002B90FFE7012038B9FFE741F20000C4F268
:1056C00002000068129020E0012038B9FFE741F2A3
:1056D0002000C4F202000068119013E0012038B9E4
:1056E000FFE741F20400C4F202000068109006E0F7
:1056F00041F22400C4F2020000681090FFE7109805
:105700001190FFE711981290FFE712988007002888
:105710000CD5FFE7FFF78CFB2B99401A032804D325
:10572000FFE703208DF8B7004FE2C3E7FFE7FFE78D
:105730002C9800784007002840F12781FFE70020DF
:105740008DF8A70041F21C00C4F202000068C000FE
:10575000002813D4FFE7FFE741F21C00C4F2020067
:10576000016841F080510160006800F0805028908D
:105770002898FFE701208DF8A700FFE747F2000017
:10578000C4F200000068C005002822D4FFE747F2F9
:105790000001C4F20001086840F480700860FFF75F
:1057A00047FB2B90FFE747F20000C4F200000068BF
:1057B000C00500280CD4FFE7FFF73AFB2B99401AED
:1057C000652804D3FFE703208DF8B700FDE1EAE781
:1057D000FFE7FFE72C98C068012809D1FFE741F2F5
:1057E0002001C4F20201086840F00100086031E0C5
:1057F0002C98C06868B9FFE741F22001C4F20201A9
:10580000086820F001000860086820F004000860C3
:105810001FE02C98C06805280DD1FFE741F2200158
:10582000C4F20201086840F004000860086840F013
:10583000010008600CE041F22001C4F20201086896
:1058400020F001000860086820F004000860FFE70D
:10585000FFE7FFE7FFE72C98C068002843D0FFE789
:10586000FFF7E6FA2B90FFE7012038B9FFE741F296
:105870000000C4F2020000680F9020E0002038B958
:10588000FFE741F22000C4F2020000680E9013E02E
:10589000012038B9FFE741F20400C4F202000068B9
:1058A0000D9006E041F22400C4F2020000680D9061
:1058B000FFE70D980E90FFE70E980F90FFE70F9807
:1058C000800700280ED4FFE7FFF7B2FA2B99401AA1
:1058D00041F28931884204D3FFE703208DF8B700F5
:1058E00073E1C1E742E0FFF7A3FA2B90FFE7012045
:1058F00038B9FFE741F20000C4F2020000680C90E2
:1059000020E0002038B9FFE741F22000C4F2020095
:1059100000680B9013E0012038B9FFE741F2040062
:10592000C4F2020000680A9006E041F22400C4F2CA
:10593000020000680A90FFE70A980B90FFE70B98B7
:105940000C90FFE70C98800700280ED5FFE7FFF7C3
:105950006FFA2B99401A41F28931884204D3FFE74C
:1059600003208DF8B70030E1C1E7FFE79DF8A700FD
:10597000012809D1FFE741F21C01C4F202010868C5
:1059800020F080500860FFE7FFE72C98C0690028EE
:1059900000F01781FFE741F20400C4F20200006842
:1059A00000F00C00082800F0E680FFE72C98C069A2
:1059B000022840F09980FFE76021C4F242210020D4
:1059C0000860FFF735FA2B90FFE7002038B9FFE7B2
:1059D00041F20000C4F202000068099020E00120BA
:1059E00038B9FFE741F22000C4F2020000680890D5
:1059F00013E0012038B9FFE741F20400C4F20200CD
:105A00000068079006E041F22400C4F2020000683A
:105A10000790FFE707980890FFE708980990FFE7CD
:105A20000998800100280CD5FFE7FFF701FA2B99B0
:105A3000401A032804D3FFE703208DF8B700C4E021
:105A4000C3E741F20401C4F20201086820F47410B3
:105A50002C9A136A526A1A43104308606021C4F2F8
:105A6000422101200860FFF7E3F92B90FFE70020B7
:105A700038B9FFE741F20000C4F202000068069066
:105A800020E0012038B9FFE741F22000C4F2020013
:105A90000068059013E0012038B9FFE741F20400E7
:105AA000C4F202000068049006E041F22400C4F24F
:105AB000020000680490FFE704980590FFE705984E
:105AC0000690FFE70698800100280CD4FFE7FFF757
:105AD000AFF92B99401A032804D3FFE703208DF870
