:020000040800F2
:10000000281500200101000883290008E1270008C5
:1000100081290008F9130008212F000800000000C2
:10002000000000000000000000000000F12C0008AB
:100030003314000800000000EF2C0008F32C000827
:100040001B0100081B0100081B0100081B01000820
:100050001B0100081B0100081B0100081B01000810
:100060001B0100081B0100081B010008FD1300080C
:100070001B0100081B0100081B0100081B010008F0
:100080001B0100081B0100081B0100081B010008E0
:100090001B0100081B0100081B0100081B010008D0
:1000A0001B0100081B0100081B0100081B010008C0
:1000B000712D00081B0100081B0100081B0100082E
:1000C0001B0100081B0100081B0100081B010008A0
:1000D0001B0100081B0100081B0100081B01000890
:1000E0001B0100081B0100081B010008DFF80CD0F1
:1000F00000F07EF9004800476D2F00082815002009
:100100000648804706480047FEE7FEE7FEE7FEE7B1
:10011000FEE7FEE7FEE7FEE7FEE7FEE76F2D0008DD
:10012000ED000008D2B201E000F8012B491EFBD21D
:1001300070470022F6E710B513460A4604461946F2
:10014000FFF7F0FF204610BDF0B480EA0102D40FA3
:100150004200B2EB410F02D20246084611464A0065
:1001600042D0C30DDDB2C1F3C752AD1A202D35DA2E
:10017000C1F3160141F4000204B15242C5F1200658
:1001800002FA06F12A411044B3EBD05F23D0C4B188
:10019000012DA0EBC35009DCF0BC4FF0004202EA95
:1001A000C352DBB200F5000000F0C5B8400000F11A
:1001B000807000EBC350A0F1807040EAD17049001C
:1001C00009E0490841EAC071A0EBC35000F5000006
:1001D000400800EBC350F0BC00F0A4B8614201221B
:1001E00002EB4101001BF6E7F0BC704781F00041D3
:1001F000AAE780F00040A7E780EA010210B502F00C
:100200000043400022D04A001FD0010E01EB1261D2
:10021000C0F35600C2F3560240F4000042F400025C
:10022000A0FB022000047F39140400D0401C50EAD7
:10023000124001D44000491EC2B20C0604EBD0109B
:10024000401C4008802A02D003E0002010BD20F0AE
:100250000100002900DA0020184310BD70B521F01C
:10026000004303430CD0C1F30A550024D5EB040529
:1002700064EB0403D617AD1AB34102DB002001463C
:1002800070BD201841EB025170BD9623002211462B
:1002900000F051B800F0004220F00040C10DC0F362
:1002A000160040F400007F2901DA002070479629EB
:1002B00003DCC1F19601C84001E096398840002A6C
:1002C000F4D04042704700F0004230F000400AD0C5
:1002D000C10D01F56071C0F3160042EA0151C20878
:1002E00040071143704700200146704701F000436A
:1002F00030B421F0004150EA010206D00A0DA2F507
:100300006072C1F31301002A02DC30BC0020704788
:10031000440F44EAC104C100E01830BC00EBC250F5
:10032000AFF300800029A8BF7047401C490008BFF8
:1003300020F00100704710B4B0FA80FC00FA0CF015
:1003400050EA010404BF10BC704749B1CCF120044D
:1003500021FA04F411FA0CF118BF012121430843DA
:10036000A3EB0C01CB1D4FEA00614FEA102042BF06
:10037000002010BC704700EBC35010440029A4BFFC
:1003800010BC7047401C490008BF20F0010010BCA1
:100390007047F0B4002802DCF0BC00207047C0F3C6
:1003A000C751C0F3160040F40000CA0701D1400055
:1003B000491E3F2202EB6105002211464FF4000660
:1003C00026FA01F31344D418844201D8001B1A46BC
:1003D0004000491C1729F3DD5100814202D24FF041
:1003E000FF3100E0002102EBC550F0BCFFF79ABFDF
:1003F000064C074D06E0E06840F0010394E8070072
:1004000098471034AC42F6D3FFF774FEC8B8000822
:10041000E8B800082DE9F04F81B001266FF0010423
:100420004FEA510E06EB510704EB51084FEA42091F
:1004300000240025009700BFAEB2B4424FEA440545
:100440002BD250F8361050F82570F20040F82510E5
:1004500045F00101043240F83670875850F821A069
:1004600040F8217040F802A0009AA118324450F8D8
:1004700031B050F832704FEAC10A4FEAC20C40F86E
:10048000317040F832B00AF104010CF104028758CF
:1004900050F801C0475040F802C006EB0E0100EBD7
:1004A000850650F83170D6E9025A4FEAC10CB760A0
:1004B0000CF1040740F83150A11CC2591D888CB2C0
:1004C00044454B44F26040F807A0B5D901B0BDE8FF
:1004D000F08F70B582B00446807825886268A38961
:1004E00001280E4608D1D4F810C030462946CDF870
:1004F00000C000F0C1FB03E03046294600F0C4F81C
:10050000E07801281CBF02B070BD2188E289A36891
:10051000304602B0BDE87040FFF77CBF43F6C80C20
:10052000827043F2C602C0F6000CC370C0F600022F
:10053000FF294FF0FF030180C0F804C00DDDB1F5C5
:10054000807F13D0B1F5805F15D0B1F5806F21D1D8
:1005500006324FF06A51042317E010290FD04029CA
:1005600018D17E324FF0725140230EE01E324FF010
:100570006E51102309E04FF06651012305E002F5AA
:10058000FF724FF076514FF480738381C381002353
:100590008260016158B270472DE9F04381B00C468A
:1005A00000219046B1EB920F054650D04FEA9809D2
:1005B000D5E900070146FFF71FFE064638463946D3
:1005C000FFF71AFE01463046FFF7BEFD02F050FD70
:1005D0002060D5E902060146FFF70EFE07463046C9
:1005E0003146FFF709FE01463846FFF7ADFD02F040
:1005F0003FFD6060D5E904060146FFF7FDFD0746B3
:1006000030463146FFF7F8FD01463846FFF79CFDBE
:1006100002F02EFDA060D5E9060605F1200701468F
:10062000FFF7EAFD054630463146FFF7E5FD014696
:100630002846FFF789FD04F1100602F019FDE0607D
:10064000B9F101093D463446B2D134463D4618F071
:10065000030715D0D5E900060146FFF7CDFD80461A
:1006600030463146FFF7C8FD01464046FFF76CFDB6
:1006700002F0FEFC44F8040B013F05F10805E9D146
:1006800001B0BDE8F08300002DE9F04FA5B08F0860
:10069000009000F1040B38011F90F8000B9107EB5C
:1006A00047011E901801C9000D90D8002091111D1E
:1006B0000C9003EB4300C0002491CDE92211394690
:1006C000059203930A9004971E9A1D910BEB020169
:1006D0005BF802901F9A1C9151F8048C0BEB0201FD
:1006E0005BF80270209A1B9151F804AC0BEB0201ED
:1006F0005BF8040C51F8044CDBF800501A915BF8DD
:10070000026051462190CDF84C901294FFF71CFDE9
:10071000179040462146FFF717FD169028463946A8
:10072000FFF712FD159048463146FFF70DFDDDF845
:100730008890149059F8041C21981891D9F8001049
:1007400019915146FFF752FD129904460E9040460A
:10075000FFF74CFD219028463946FFF747FD8246BA
:1007600013983146FFF742FD179F169E8146384683
:100770003146FFF7E9FC159DDDF850804BF8040C7D
:1007800028464146FFF7E0FCCBF8000020464946EA
:10079000FFF7DAFC2199044612905046FFF726FD38
:1007A0000F9038463146FFF721FD1090284641460C
:1007B000FFF71CFD11900E984946FFF717FD219990
:1007C00081465046FFF7C0FC2399824651F8045CED
:1007D0000F682499204651F8046C09681391294642
:1007E000FFF70AFDDDF83C80219040462946FFF7DF
:1007F00003FD109C189D179020462946FFF7FCFC2E
:1008000016902846119D2946FFF7F6FC1890484699
:100810003146FFF7F1FC159050463146FFF7ECFCEE
:10082000149040463946FFF7E7FC80461298394657
:10083000FFF7E2FC06462846199D2946FFF7DCFC37
:10084000074620462946FFF7D7FC139C054650462D
:100850002146FFF7D1FC824648462146FFF7CCFCF3
:10086000199021984146FFF76FFC81461798314651
:10087000FFF7BCFC064616983946FFF765FC0746AD
:1008800018982946FFF7B2FC054615985146FFF720
:100890005BFC044614981999FFF7A8FCDDE91C21BC
:1008A00042F8047C1B9A013942F8049C1A9A42F8D7
:1008B000044C1E9A4BF802501F9A4BF80260209A83
:1008C0004BF802000D98229A0BF1080B0244229279
:1008D0000C98239A024423920A98249A0244249260
:1008E0007FF4F2AE0B981428C0F04D8104980146B5
:1008F000844600BF03984FEA9C078000039080B2B3
:1009000007904FF0FF3000EB9C00069007EB47008C
:10091000C200F800DDF80080041D01973B010025AE
:1009200000270EA802914FEACC0B80E80418CDE90D
:100930000C3400BF059E4FEAC70E56F837000897E3
:1009400016900EF1040030584FEA071E159056F825
:100950000E0014900EF104003058139007EB47007E
:10096000C70056F830001290381D3058CDE909857F
:10097000119000BF08EB0401219151F8046C08EBC1
:10098000030158F803B0D8F80000D8F8047058F8FC
:1009900004A020914C6808EB020122951F9158F8A1
:1009A00002904D6859461B902397CDF890A0FFF711
:1009B0001DFC1D9030464946FFF718FC1E90384636
:1009C0002146FFF713FC1C9050462946FFF70EFC0A
:1009D00082461B985946FFF7B7FB07461A903046E8
:1009E0004946FFF7B1FB814623982146FFF7ACFB50
:1009F0001B9024982946FFF7A7FB1D9E054630460D
:100A00005146FFF7A1FBDDF870B01E9C18905846C8
:100A10002146FFF7EBFB2390384649464F46FFF748
:100A2000E5FBDDF86C90249048462946FFF7DEFB95
:100A3000179030465146FFF7D9FB8246584621466B
:100A4000FFF782FB83461A983946FFF77DFBC8F80B
:100A5000000048462946FFF777FB169C189DC8F80A
:100A6000040020462946FFF7C7FB23991E90204625
:100A7000FFF7C2FB149C24991C902046FFF7BCFB97
:100A8000179E1B9020463146FFF7B6FB129C1A902A
:100A900020465146D146FFF7AFFB1D9020465946F0
:100AA000FFF7AAFB159C239919902046FFF7A4FB9A
:100AB000824620462946FFF79FFB139D04462846A1
:100AC0003146FFF799FB249906462846FFF794FB29
:100AD000119D239028465946FFF78EFB83462846F2
:100AE0004946FFF789FB1E9905465046FFF72CFB48
:100AF00024901C982146FFF779FB82461B983146CB
:100B0000FFF722FB81461A982399FFF76FFB1D9987
:100B100007465846FFF718FB064619982946FFF77F
:100B200065FBDDE921150DF1380CDDE90C349CE89D
:100B3000041841F8049C209948F80470C1F804A0F6
:100B40001F9965444860249848F803000B9848F8BA
:100B500002608542D844FFF40DAFDDE907070A9D26
:100B600007440698DDF824800135854208F108081D
:100B70007FF6E0AE0298DDF804C013284FEA90003B
:100B800001463FF6B7AEDDF800A004980490DAF80D
:100B90000C009AE860012190DAE90474DAE906B9F8
:100BA00028463946FFF7D0FA229028463946FFF703
:100BB0001DFB249030462146FFF7C6FA0546304615
:100BC0002146FFF713FB2390404659464746FFF75F
:100BD000BBFA219C8046204649464E46FFF7B4FAB0
:100BE000814638465946FFF701FB07462046314605
:100BF000FFF7FCFA229E044630464146FFF7A4FA6E
:100C0000219028464946FFF79FFA209030464146FA
:100C1000FFF7ECFA229028464946FFF7E7FADDF89D
:100C200090B0814658462146FFF78EFADDF88C8059
:100C3000064640463946FFF7D9FA0546584621464A
:100C4000FFF7D4FA044640463946FFF77DFA21996A
:100C5000CAF800102099CAF804102299CAE90219AA
:100C6000CAE90465CAE9064004980AF1200A013875
:100C70008CD125B0BDE8F08F2DE9F04FA7B08F08DB
:100C8000019000F1040838012290F8002190180129
:100C90000C9107EB47011090D800C9000F9003EBAF
:100CA0004300239102F1040BC000394606920493DD
:100CB0000E90CDE925BB0597229A209108EB020101
:100CC00058F80250219A1F9151F8049C08EB020138
:100CD00058F80240239A1D9151F8046C08EB020168
:100CE0001E9151F804AC58F8021058F8040CD8F8CA
:100CF0000070119149462490169714951594FFF7AA
:100D000023FA199030465146FFF71EFA18903846DC
:100D10002946FFF719FA119D179020462946FFF73B
:100D200013FA5BF8041C07461A91DBF800101390C5
:100D300024981B914946CDF870B0FFF757FA044646
:100D4000129030465146FFF751FA249016981499A4
:100D5000FFF74CFA814615982946FFF747FA199D87
:100D6000189E834628463146FFF7EEF9DDF85CA071
:100D700048F8040C50463946FFF7E6F9C8F8000079
:100D8000204659465C46FFF731FA249907461490ED
:100D90004846FFF7D9F9119028463146FFF726FA61
:100DA000139983465046FFF721FA13901298214673
:100DB000FFF7CAF9249912904846FFF717FA2599C8
:100DC000824651F8045C0C682699384651F8046C48
:100DD000096815912946FFF70FFADDF84490249031
:100DE00048462946FFF708FA1A9D199058462946A1
:100DF000FFF702FA18902846139D2946FFF7FCF9E1
:100E0000129F1A9038463146FFF7F6F91790504670
:100E10003146FFF7F1F9169048462146FFF7ECF905
:100E2000064614982146FFF7E7F9814628461B9DA0
:100E30002946FFF7E1F9149058462946FFF7DCF9F7
:100E4000159C054650462146FFF7D6F9824638469E
:100E50002146FFF7D1F91B9024983146FFF7C6F9D8
:100E6000834619984946FFF76FF904461898149974
:100E7000FFF7BCF907461A982946FFF765F90546BA
:100E800017985146FFF7B2F9064616981B99FFF7D7
:100E90005BF91D9A209942F8047C1F9A013942F8A7
:100EA00004BC1E9ADDF870B042F8046C219A48F830
:100EB0000250229A48F80240239A48F802001098FB
:100EC000259A83440F9808F10808024425920E9849
:100ED000269A024426927FF4EFAE0C981428C0F0B4
:100EE0004A8105980146834604984FEA9B07800093
:100EF000049080B208904FF0FF3000EB9B00079009
:100F000007EB4700C200F800DDF804804FEACB0C85
:100F1000031D02973F01002400260391CDF844B041
:100F2000CDE90F2CCDE90D73DDF818E0F1005EF886
:100F3000360009961790081D5EF8000031011690E2
:100F40005EF801001590081D5EF80000149006EB95
:100F50004600C1005EF830001390081D5EF80000E6
:100F6000CDE90A84129000BF08EB0301239422917B
:100F700051F8044C08EB070158F807A0D8F8000016
:100F8000D8F8045021914E6808EB020158F803B0DC
:100F9000209158F802904F68514625902695FFF70A
:100FA00025F9249020464946FFF720F91F9028464E
:100FB0003146FFF71BF91E9058463946FFF716F9E0
:100FC00005461B9025985146FFF7BEF81D90204618
:100FD0004946FFF7B9F8814626983146FFF7B4F83D
:100FE0001C9058463946FFF7AFF8249F064638460E
:100FF0002946FFF7FBF81E9DDDF87CA025902846CA
:101000005146FFF7A1F81D9C199020464946FFF76D
:10101000EDF8DDF870B0269058463146FFF7E6F857
:101020001B9918903846FFF78FF8249028465146B0
:10103000FFF7DCF8824620464946FFF785F8C8F8F6
:10104000000058463146FFF77FF8179D2599C8F8EC
:1010500004002846FFF7D0F8199E1E902846314616
:10106000FFF7CAF8159D26991D902846FFF7C4F88A
:10107000189F1C9028463946FFF7BEF8139C249908
:101080001F902046FFF7B8F81B9020465146FFF707
:10109000B3F8169D1A9028463146FFF7ADF825990A
:1010A00006462846FFF7A8F8149C05462046394610
:1010B000FFF7A2F8269907462046FFF79DF8DDF8CE
:1010C0004890834648465146FFF796F824990446CF
:1010D0004846FFF791F825901E983146FFF786F8AD
:1010E00026901D982946FFF72FF881461C9839460F
:1010F000FFF77CF81F9982465846FFF725F8064609
:101100001B982146FFF772F805461A982599FFF7B4
:101110001BF8DDE92214DDE90D73DDE90F2C41F840
:1011200004AC219948F80360C1F804902099DDF8D7
:1011300044B0486026985C4448F807000C9848F88A
:1011400002508442E044FFF40FAFDDE908060B9C37
:1011500006440798DDF828800134844208F1080825
:101160007FF6E2AE0398DDF808B013284FEA90004E
:1011700001463FF6B9AEDDF804A005980590DAF80F
:101180000C009AE860012490DAE90474DAE906B9FF
:1011900028463946FEF7D8FF239028463946FFF700
:1011A00025F8269030462146FEF7CEFF054630460C
:1011B0002146FFF71BF82590404659464746FEF763
:1011C000C3FF249C8046204649464E46FEF7BCFF9E
:1011D000814638465946FFF709F80746204631460A
:1011E000FFF704F8239E044630464146FEF7ACFF65
:1011F000249028464946FEF7A7FF834630464146DD
:10120000FEF7F4FF239028464946FEF7EFFF269DA0
:10121000229028462146FEF7E9FF259E2190304680
:101220003946FEF791FF209028462146FEF78CFFB5
:10123000269030463946FEF7D9FFDDF8C08025906C
:1012400024984146FEF7D8FF249058464146FEF7C1
:10125000D3FF814623984146FEF7CEFF834622986E
:101260004146FEF7C9FF074621984146FEF7C4FFF5
:10127000054620984146FEF7BFFF044626984146A2
:10128000FEF7BAFF064625984146FEF7B5FF2499BA
:101290008AE8020ACAE90375CAE90546CAF81C00C9
:1012A00005980AF1200A01387FF468AF27B0BDE83D
:1012B000F08F000070B5044600688168C943C90713
:1012C00017D1816821F00101816000F099FC054689
:1012D0000AE000BF00F094FC401B022804D92068FB
:1012E0008068C043C00706D020688068C043C0073C
:1012F000F0D0002070BDA06A40F01000A062E06A4B
:1013000040F00100E062012070BD10B50146406A66
:10131000826A12F0500F05D0006A026BBDE81040DF
:1013200008461047816A41F400718162016889684A
:10133000C1F3424107290CD1017B51B9816A21F4E3
:1013400080718162816AC90403D4816A41F001011C
:10135000816200F0EFF810BD10B5406A816A41F07B
:1013600040018162C16A41F00401C16200F0E4F809
:1013700010BD10B5406A00F0DEF810BDF8B50026CB
:101380000446009600688168C943C9072DD081686A
:1013900041F001018160164816490068B0FBF1F088
:1013A00000E0401E00900028FBD100F029FC05461B
:1013B00016E000BF00F024FC401B022810D9206872
:1013C0008068C043C0070BD0A06A40F01000A06244
:1013D000E06A40F00100E06284F824600120F8BD7A
:1013E00020688068C043C007E4D10020F8BD000039
:1013F0001800002040420F00FEE70000014800F006
:10140000F9B90000500C002030B590F8405001248C
:10141000AC40C56B6C60046863604368102B036864
:1014200003D099600068C26030BD9A600068C160F6
:1014300030BD704772B6FEE7F8B50024009490F80E
:1014400024202546012A12D0012280F824204A684F
:101450001F23072A0DD20668776B521E02EB820209
:1014600093409F430B6893401F43776319E002202A
:10147000F8BD06680D2A0AD2376BD21F02EB820232
:1014800093409F430B6893401F43376309E0F76A1B
:101490000D3A02EB820293409F430B6893401F4337
:1014A000F7620A68072306680A2A0AD3F7680A3A25
:1014B00002EB420293409F438B6893401F43F760C7
:1014C00008E0376902EB420293409F438B689340E8
:1014D0001F4337610A68102A01D0112A20D1124B0C
:1014E00002689A4217D193681B0219D4936843F497
:1014F000000393600968102912D10C490C4A09684D
:10150000B1FBF2F101EB8101490000E0491E0091BD
:101510000029FBD104E0816A41F0200181620124AD
:1015200080F824502046F8BD002401401800002017
:1015300040420F0070477047704700002DE9F041AE
:101540004FF0000704003D467ED0A06A002628B96F
:10155000E66284F82460204600F07EF82046FFF71B
:10156000A9FEA16A01F01001014304D0A06A40F075
:101570001000A06268E0A16A21F4885141F00201E4
:10158000A1626268E169237B0A4347EA43010A4397
:10159000A1684FF48077B94208D0012906D0002114
:1015A00094F814C0BCF1010F02D00AE03946F7E705
:1015B000F3B1A36A43F02003A362E36A43F001039B
:1015C000E3622368D3F804C02CF4694C4CEA010CA4
:1015D000C3F804C023689968DFF870C001EA0C0101
:1015E00011439960A168B9420BD0012909D00CE0E0
:1015F000DFF85CC0A3690CEB43330B4343F4006199
:10160000DFE7218A0D05A5F580152168CB6A23F453
:1016100070032B43CB62216889680E4B19409142BD
:1016200008D1E662A16A21F0020141F00101A16244
:10163000BDE8F081A06A20F0020040F01000A06236
:10164000E06A40F00100E0620120F1E7FDF7E1FF10
:1016500000E0FFFFFE0E1FFF70B586B000250646B6
:10166000009501950295039500681A4988422ED18C
:101670001949886940F400708861886900F4007035
:101680000490886940F0040088618869694600F028
:101690000400049001200090032001900F4800F006
:1016A000B9F9104C0E48C4E900058020C4E9025085
:1016B00040002061800060612020C4E906052046CA
:1016C00000F042F908B1FFF7B5FE3462666206B079
:1016D00070BD0000002401400010024000080140DD
:1016E00008000240500C00202DE9F04789460446CE
:1016F0003B4900683B4F0E1D9046884201D0B842DE
:1017000007D1306810F4702F03D001252846BDE8BA
:10171000F08794F8240001280CD0012084F82400DC
:101720002046FFF72BFE05004FF0000004D084F8A0
:101730002400EBE70220EAE7A16A40F60162914348
:1017400041F48071A1622168B94218D1326812F463
:10175000702F14D0A16A41F48011A162316849054B
:1017600005D5A16A21F4005141F48051A162A16A1A
:10177000C9040AD5E16A21F00601E16206E0A26A25
:1017800022F48012A2624968E9E7E06284F824004A
:10179000216A15488862216A1448C862216A14487F
:1017A000086321686FF0020008602068816841F4D6
:1017B00080718160216843464A464C31206A00F0BE
:1017C000F1F820688168C1F342410729816803D09C
:1017D00041F48011816099E741F4A001FAE700002B
:1017E00000240140002801400B1300087313000877
:1017F000591300082DE9F05FC16B0C6801680B6894
:10180000D0F840C0042202FA0CF2494DDFF824A1BE
:10181000494E4A4FDFF828B1DFF828E122422CD0A8
:101820005A072AD50A68920603D40A6822F00402ED
:101830000A600168A94201D1042219E0514501D191
:10184000402215E0B14202D14FF4806210E0B9426B
:1018500002D14FF480420BE0594502D14FF480226F
:1018600006E0714502D14FF4800201E04FF0806242
:101870002F4908394A60C16A3BE04FF0020808FA74
:101880000CF818EA040F4FF000094FF0010235D0B0
:101890005FEA837832D50B689B0605D40B6823F08A
:1018A0000A030B6080F821200168A94201D10222BD
:1018B00019E0514501D1202215E0B14202D14FF487
:1018C000007210E0B94202D14FF400520BE05945CA
:1018D00002D14FF4003206E0714502D14FF40012FC
:1018E00001E04FF00072124908394A6080F82090F8
:1018F000816A00291AD0BDE8F05F0847082505FA7B
:101900000CF5254212D01B0710D50B6823F00E03EF
:101910000B6090F84010C36B02FA01F159608263CA
:1019200080F8212080F82090016BE2E7BDE8F09F6D
:10193000080002401C000240300002404400024007
:10194000580002406C00024030B528B308C8134963
:1019500014221944B1FBF2F18900C163104981637B
:10196000022141771A6843F6F0718A43D0E90014E6
:101970002143D0E902452C432143046921434469B2
:1019800021438469214311431960002141630122ED
:1019900042770177084630BD012030BDF8FFFDBF1A
:1019A0000000024070B5044690F820000025012890
:1019B0000CD0012084F8200094F821600020012E32
:1019C00006D084F820000225284670BD022070BD94
:1019D000022684F82160A0632068066826F00106CC
:1019E00006602046FFF710FDE06A002820680168C5
:1019F00002D041F00E0106E021F0040101602068F0
:101A0000016841F00A0101602068016841F00101AC
:101A10000160D9E72DE9F84FDFF8B8910024A9F16A
:101A2000040B23460F2709F1040AABF1040EC9E0A9
:101A30000125A5402A40AA427DD1674ED1F804C0B5
:101A4000ACEB0608B44532D014DCBCF1030F3AD03D
:101A500009DCBCF1000F2AD0BCF1010F1CD0BCF195
:101A6000020F31D11DE0BCF1110F17D0BCF1120FE4
:101A70002AD119E0B8F5881F19D006DCB8F5803FE7
:101A800015D0B8F5801F1FD111E0B8F5001F0ED09A
:101A9000B8F5041F18D10AE0CB6815E0CB681B1D10
:101AA00012E0CB6808330FE0CB680C330CE08B6896
:101AB0002BB1012B4FF0080303D0456104E0042350
:101AC00002E0056100E00023FF2A01D8064601E09C
:101AD00000F104064FEA840501D9A5F12005D6F8E6
:101AE000008007FA05FC28EA0C0803FA05F548EA25
:101AF0000508C6F800804D68ED0062D5374DAE6927
:101B000046F00106AE61AD6924F0030605F001055B
:101B10000095334D06EB050CDCF80850A607360F90
:101B200007FA06F825EA0805DFF8B880404503D132
:101B30004FF0000817E044E0DFF8AC80404502D1E8
:101B40004FF001080FE0DFF8A480404502D14FF0CC
:101B5000020808E0DFF89880404502D14FF0030802
:101B600001E04FF0040808FA06F848EA0508CCF846
:101B700008804D68D9F80060ED024D4601D5164346
:101B800000E096432E604D68DAF80060AD025546DD
:101B900001D5164300E096432E604D68DBF80060E7
:101BA000AD035D4601D5164300E096432E604D68B7
:101BB000DEF80060ED03754601D5164300E096435C
:101BC0002E60641C0D682A46E5407FF431AFBDE805
:101BD000F88F0000080401400000111000100240BE
:101BE0000000014000080140000C014000100140CD
:101BF000001401400AB1016170470904FBE70000CD
:101C000001488068704700000C000020024881688D
:101C100002781144816070470C000020074810B51D
:101C2000016841F010010160032000F075F80F20F9
:101C300000F006F800F024F8002010BD002002405B
:101C400070B50D4D04464FF47A712878B1FBF0F071
:101C50000A490968B1FBF0F000F052FB48B9102CBA
:101C600007D200222146501E00F036F800206C609A
:101C700070BD012070BD00000C0000201800002085
:101C80000C4808B5816941F001018161816901F069
:101C900001010091C16941F08051C161C06900F04A
:101CA000805000900448416821F0E06141F00071EB
:101CB000416008BD0010024000000140002809DB1F
:101CC00000F01F02012191404009800000F1E02056
:101CD000C0F8001170470000F0B40E4B1B680C46B2
:101CE000C3F30223C3F10705042D00D90425191DF0
:101CF000072901D2002300E0DB1E012606FA05F1C8
:101D0000491E214099409E40761E16403143F0BC4A
:101D100001F007B90CED00E0064900F00702086881
:101D20004FF6FF03184040EA0220034A10430860C0
:101D3000704700000CED00E00000FA052DE9F843C3
:101D400005460078354CC00754D0E0690026C00035
:101D500008D4E06940F08050E061E069012600F0BD
:101D6000805000902E480168C90512D40168804651
:101D700041F480710160FFF743FF074605E000BFB3
:101D8000FFF73EFFC01B642823D8D8F80000C00529
:101D9000F6D5206A10F4407021D0A98801F4407172
:101DA00081421CD0206A1F49012220F440700A6041
:101DB00000220A602062C00711D0FFF721FF07460A
:101DC00041F2883808E000BFFFF71AFFC11B414508
:101DD00002D90320BDE8F883206A8007F4D5206A81
:101DE000696820F44070084320621EB1E06920F069
:101DF0008050E0612878800705D56068A96820F4E4
:101E00004040084360602878C00605D56068E968EE
:101E100020F48000084360600020DBE700100240EF
:101E200000700040400442422DE9F0470F46050093
:101E300061D0434E306800F00700B84209D23068E4
:101E400020F0070038433060306800F00700B842E7
:101E500051D128683B4C810712D5400703D56068F3
:101E600040F4E06060602878000703D5606840F4C3
:101E7000605060606068A96820F0F000084360600E
:101E80002878C00728D06868012810D02168022867
:101E900010D0890700292EDA616821F0030101437F
:101EA0006160FFF7ADFE804641F288390DE02168A0
:101EB0008903EFE78901EDE7FFF7A2FEA0EB080138
:101EC000494502D90320BDE8F0876068696800F0E1
:101ED0000C00B0EB810FEFD1306800F00700B84282
:101EE0000BD9306820F0070038433060306800F0CC
:101EF0000700B84201D00120E5E72878400705D562
:101F00006068E96820F4E0600843606028780007B2
:101F100006D56068296920F4605040EAC10060601D
:101F200000F038F86168084AC1F30311515CC840F9
:101F30000649086006480068FFF782FE0020C2E7F5
:101F40000020024000100240AE30000818000020BF
:101F5000100000200448054900684968044AC1F39C
:101F60000221515CC8407047180000200010024058
:101F7000BE3000080448054900684968044AC1F3B6
:101F8000C221515CC8407047180000200010024078
:101F9000BE3000080E4A51680E4801F00C03042BB5
:101FA00011D0082B0FD10C48C1F38343C903C05C87
:101FB0000AD55168084AC1F34041921E515C054A56
:101FC0005043B0FBF1F070470449484370470000AC
:101FD0000010024000127A009E30000800093D0007
:101FE0002DE9F84F040070D02078C04DC00749D0CB
:101FF0006868C0F38100012807D06868C0F38100D9
:10200000022809D16868C00306D52868800339D53D
:1020100060680028E7D035E06068B0F5803F0BD0FD
:1020200010B1B0F5A02F11D0286820F480302860BE
:10203000286820F4802002E0286840F4803028607E
:10204000606890B1FFF7DCFD06460AE0286840F4BE
:1020500080202860F0E700BFFFF7D2FD801B6428D6
:1020600073D828688003F7D50CE0FFF7C9FD064652
:1020700005E000BFFFF7C4FD801B6428F0D8286886
:102080008003F7D420789A4E80074FF001094FF073
:10209000000839D5686810F00C0F07D06868C0F3E5
:1020A0008100022809D16868C00306D42868800727
:1020B00014D52069012808D110E02069B0B1C6F814
:1020C0000090FFF79DFD074605E00AE1FFF798FD48
:1020D000C01B0228C4D828688007F7D52868616922
:1020E00020F0F80040EAC10028600DE0C6F800804A
:1020F000FFF786FD074604E0FFF782FDC01B0228BC
:1021000023D828688007F7D4207800072CD5794891
:10211000A169D9B1C0F80090FFF772FD074604E04D
:10212000FFF76EFDC01B02280FD8686A8007F7D53D
:1021300071484FF4FA510068B0FBF1F0009000BF15
:102140000098411E0091FAD20EE080E0C0F80080B5
:10215000FFF756FD074604E0FFF752FDC01B0228BB
:1021600075D8686A8007F7D42078400760D5E86999
:102170000027C00008D4E86940F08050E861E869B1
:10218000012700F0805000905C480168C90513D415
:102190000168834641F480710160FFF731FD82469A
:1021A00006E000BFFFF72CFDA0EB0A0064284ED824
:1021B000DBF80000C005F5D5E06801280AD008B1B9
:1021C000052813D0286A20F001002862286A20F030
:1021D000040002E0286A40F001002862E06841F251
:1021E000883B98B1FFF70CFD82460BE0286A40F06F
:1021F00004002862EEE700BFFFF702FDA0EB0A0132
:1022000059455AD8286A8007F6D50CE0FFF7F8FC44
:10221000824605E0FFF7F4FCA0EB0A0159454CD8D3
:10222000286A8007F6D41FB1E86920F08050E86181
:10223000E06988B36968C1F38101022944D00228AA
:10224000C6F8608004D0FFF7DBFC044638E034E0D9
:10225000FFF7D6FC074604E0FFF7D2FCC01B0228BC
:102260002BD828688001F7D4206AB0F5803F05D1CB
:102270006868A16820F4003008436860D4E9080168
:102280000843696821F4741108436860C6F86090D7
:10229000FFF7B6FC044606E025E000BFFFF7B0FC00
:1022A000001B022809D828688001F7D51BE000BF71
:1022B000FFF7A6FC001B022802D90320BDE8F88F17
:1022C00028688001F4D40EE00128F7D06868226AFB
:1022D00000F48031914204D1616A00F470108842A8
:1022E00001D00120EAE70020E8E7000000100240EA
:1022F000000042428004424218000020007000406A
:1023000010B5401EB0F1807F01D3012010BD4FF009
:10231000E02460610F21601700F003FE0020A0613F
:1023200007202061002010BD7047704770B590F8FD
:102330003C20012A26D0012480F83C40022280F86B
:102340003D2003685A689D6822F070060A6832438F
:102350005A600D4B02689A4208D0B2F1804F05D006
:102360000A4B9A4202D00A4B9A4204D1496825F09E
:1023700080031943916080F83D40002180F83C10B3
:10238000084670BD022070BD002C014000040040D2
:102390000008004010B5040003D094F83D0010B1CF
:1023A00007E0012010BD002084F83C00204600F02A
:1023B0001FF8022084F83D00211D206800F0E2FC97
:1023C000012084F8460084F83E0084F83F0084F839
:1023D000400084F8410084F8420084F8430084F807
:1023E000440084F8450084F83D00002010BD000042
:1023F00008B50068B0F1804F12D10A48C16941F0B8
:102400000101C161C069002200F001000090114685
:102410001C20FFF761FCBDE808401C20FFF74EBC04
:1024200008BD00000010024090F83D10012901D0C5
:1024300001207047022180F83D1000680B49884256
:1024400008D0B0F1804F05D00949884202D009492F
:10245000884204D1816801F00701062903D0016890
:1024600041F001010160002070470000002C014094
:10247000000400400008004090F83D10012901D000
:1024800001207047022180F83D100168CA6842F0BF
:102490000102CA6000680B49884208D0B0F1804F41
:1024A00005D00949884202D00849884204D1816890
:1024B00001F00701062903D0016841F00101016024
:1024C00000207047002C014000040040000800403C
:1024D00001680A6A41F211131A4207D10A6A9B1075
:1024E0001A4203D10A6822F001020A60012180F831
:1024F0003D100020704770B5044690F83C00002560
:10250000012817D0012684F83C60022084F83D00A1
:102510002068826822F0770222F47F428260086895
:10252000502838D00DDC20284FD005DC90B310287F
:1025300011D14AE0022070BD302846D040280AD18F
:102540003BE060282FD070280DD0B0F5805F03D01D
:10255000B0F5005F12D0012584F83D60002084F8BA
:102560003C00284670BDCB68D1E90121206800F00D
:1025700045FC2068816841F0770109E0CB68D1E92A
:102580000121206800F03AFC2068816841F4804114
:102590008160E1E719E0CA684968206800F040FC02
:1025A0005021206806E0CA684968206800F049FCAC
:1025B0006021206800F02CFCCEE7CA6849682068DA
:1025C00000F02EFC40212068F4E722680146104606
:1025D000F0E770472DE9F04104460068C6680569D8
:1025E0004FF00007A90713D5B10711D5F91E0161F6
:1025F00001202077206880698007204602D0FFF7FD
:10260000E8FF04E000F07EF8204600F07CF8277731
:10261000680716D5700714D521686FF004000861AB
:10262000022020772068806910F4407F204602D085
:10263000FFF7CFFF04E000F065F8204600F063F8F4
:102640002777280715D5300713D521686FF00800C4
:102650000861042020772068C0698007204602D0E6
:10266000FFF7B7FF04E000F04DF8204600F04BF80C
:102670002777E80616D5F00614D521686FF010000C
:102680000861082020772068C06910F4407F204648
:1026900002D0FFF79EFF04E000F034F8204600F07F
:1026A00032F82777E80708D0F00706D021686FF0E6
:1026B00001000861204600F027F8280608D53006FA
:1026C00006D521686FF0800008612046FFF72CFED8
:1026D000680608D5700606D521686FF040000861CD
:1026E000204600F012F8A8060AD5B00608D52168E1
:1026F0006FF0200008612046BDE8F041FFF715BEED
:10270000BDE8F081704770477047704770B50400AE
:1027100004D094F84100002510B106E0012070BDFE
:1027200084F84050204600F023F8242084F841002B
:102730002068C16821F40051C160204600F094FB7C
:102740002068016921F4904101612068416921F00C
:102750002A0141612068C16841F40051C16065648B
:10276000202084F8410084F842006563002070BD99
:1027700030B585B00024009401940294039400685D
:102780001449884224D11448816941F4804181610F
:10279000816901F480410491816941F00401816102
:1027A00080690E4D00F0040004904FF4007000901A
:1027B000022001900320039069462846FFF72AF97A
:1027C0002815CDE90004694628460294FFF722F94E
:1027D00005B030BD00380140001002400008014043
:1027E000FEE70000FEB50024164800940194144949
:1027F0000294016089158160012505730475022624
:1028000006614FF460214460C161FEF797FE08B194
:10281000FEF710FE05200094CDE9015069460948F5
:10282000FEF70AFE08B1FEF705FE69460548019667
:10283000FEF702FE002801D0FEF7FCFDFEBD000001
:1028400000240140200C0020094808B5416941F0EE
:10285000010141614069002200F001000090114631
:102860000B20FFF739FABDE808400B20FFF726BA26
:102870000010024070B586B00024184800940194FE
:1028800002940394816941F020018161816901F022
:1028900020010491816941F004018161816901F0A5
:1028A00004010491816941F00801816180690C4E45
:1028B00000F008004FF440550490002229463046AD
:1028C000FFF798F901200095CDE90104022003905B
:1028D00069463046FFF79EF806B070BD0010024012
:1028E000000C014010B586B00024164800940194F5
:1028F0000294039404944FF08041059401604721B1
:10290000C0E901143121C0E903148461FFF742FDDD
:1029100008B1FEF78FFD4FF48050009069460948DA
:10292000FFF7E9FD08B1FEF785FD049404A9054809
:102930000594FFF7FBFC002801D0FEF77BFD06B0F5
:1029400010BD0000940C00200C4810B50A4901602D
:102950004FF4E1314160002181600C22C160C0E987
:1029600004128161C161FFF7D1FE002803D0BDE8E8
:102970001040FEF75FBD10BD00380140DC0C0020A8
:10298000FEE7FEE710B50021074C0A46002004EBE5
:10299000C1131A54401CC0B28028FAD3491CC9B2D2
:1029A0000829F3D310BD0000240D00202DE9F04FBD
:1029B0001E464FF0000904460D461746C846B14270
:1029C0000ED1BC4208DD2746144605E029462046C4
:1029D00000F062F8641C24B2BC42F7DDBDE8F08F61
:1029E000BC420DD1B54208DD1D460E4605E0294624
:1029F000204600F051F86D1C2DB2B542F7DDEDE731
:102A000003DD274614461D460E46B54205DD6842E5
:102A100005B2704206B24FF00109701B391B8842A3
:102A200007DD20462C4605463846374606464FF019
:102A30000108701B4200391B0FFA82FB421A520038
:102A40000FFA82FAC1EB400019E0604201B203E0E4
:102A5000684201B203E02146284601E029462046AB
:102A600000F01AF8BC42B9DA641C24B2002E02DA73
:102A700006EB0B0003E06D1C2DB206EB0A0006B25C
:102A8000B9F1000F03D0B8F1000FE1D0DDE7B8F1E4
:102A9000000FE3D0DFE7000010B57F2813D800292E
:102AA00011DB3F290FDCCA1701EB5272D410064B21
:102AB00022F0070203EBC41318448A1A0378012199
:102AC00091400B43037010BD240D002000B585B06C
:102AD00000214FF47A720020401C9042FCD3491C24
:102AE0009142F8D30D48816941F008018161806904
:102AF000694600F008000490112001900320039023
:102B0000000300900648FEF785FF012000F0B6F8AC
:102B1000012000F0BBF805B000BD0000001002402D
:102B2000000C014070B500240646802525FA04F00B
:102B3000304000D0012000F0A9F8012000F09EF8FC
:102B4000002000F09BF8641CE4B2082CEED30120B6
:102B500000F094F8BDE87040002000F08FB810B588
:102B6000012000F093F8012000F088F8002000F028
:102B70008DF8BDE81040002000F080B810B50020AE
:102B800000F084F8012000F079F8BDE81040012041
:102B900000F07CB810B5FFF799FFAE2000F07EF88A
:102BA000D52000F07BF8802000F078F8A82000F015
:102BB00075F83F2000F072F8D32000F06FF8002085
:102BC00000F06CF8402000F069F8A12000F066F8F1
:102BD000C82000F063F8DA2000F060F8122000F05E
:102BE0005DF8812000F05AF8CF2000F057F8D92086
:102BF00000F054F8F12000F051F8DB2000F04EF81E
:102C0000302000F04BF8A42000F048F8A62000F097
:102C100045F88D2000F042F8142000F03FF8AF2076
:102C200000F03CF8FFF7AEFEBDE8104000F012B82F
:102C300010B50C4640F0B00000F030F8102040EA2B
:102C4000141000F02BF804F00F00BDE8104000F065
:102C500025B8000070B5084D002400212046FFF77C
:102C6000E7FF05EBC410802100F029F8641CE4B2F2
:102C7000082CF2D370BD0000240D002002464FF452
:102C800080510148FEF7B6BF000C014002464FF4E8
:102C900000510148FEF7AEBF000C014010B50446DC
:102CA000FFF75DFF7820FFF73DFF0020FFF73AFFB9
:102CB0002046FFF737FFBDE81040FFF75FBF70B554
:102CC0000D460646FFF74BFF7820FFF72BFF40200D
:102CD000FFF728FF002404E0305DFFF723FF641CAA
:102CE000E4B2AC42F8D3BDE87040FFF747BF70478D
:102CF0007047FEF78BBF30B593B028216846FDF7CB
:102D000018FA14210AA8FDF714FA002501200F95DE
:102D100010951195010412958DE8230004904FF44D
:102D2000E010CDE90810022407946846FFF758F92F
:102D300008B172B6FEE70AA90F2081E831004FF40E
:102D40008060CDE90D0502210AA8FFF76DF808B1F2
:102D500072B6FEE74FF4004011900F940FA8FEF7F3
:102D6000EDFF002801D072B6FEE713B030BD70470A
:102D70000249012008700248FFF72CBC080000201F
:102D8000940C0020F0B50268194B1A4C1A4D4FF004
:102D90008047984205D0B84203D0A04201D0A84253
:102DA00003D122F070064A683243984205D0B842F7
:102DB00003D0A04201D0A84203D122F44074CA68D3
:102DC00022434C6922F08002224302608A68C26278
:102DD0000A688262984201D1096901630121416157
:102DE0000169C90703D0016921F001010161F0BD4A
:102DF000002C0140000400400008004010B5846829
:102E000042EA032224F47F440A432243826010BD35
:102E1000826822F070020A4342F007018160704725
:102E200010B5036A046A24F001040462846924F082
:102E3000F00444EA021423F00A020A4384610262A5
:102E400010BD10B5036A046A24F01004046284699A
:102E500023F0A00324F4704444EA023243EA01114F
:102E60008261016210BD000070B50446006801690E
:102E7000E26821F44051114301612169A0680843CF
:102E8000616908432168CA6841F20C639A430243AE
:102E9000CA6020684169A26921F44071114341610F
:102EA0001E492068884202D1FFF764F801E0FFF76D
:102EB00051F800EBC00101EB001260686421800052
:102EC000B2FBF0F3B3FBF1F36FF018067343B2FB00
:102ED000F0F5B2FBF0F605EB8305322303EB0515A5
:102EE000B5FBF1F5B6FBF1F605F0F00505EB0615BF
:102EF000B2FBF0F6B2FBF0F0B0FBF1F06FF01802AD
:102F0000504306EB800003EB0010B0FBF1F02168AA
:102F100000F00F002844886070BD000000380140B8
:102F2000FEE70907090E002804DB00F1E02080F825
:102F30000014704700F00F0000F1E02080F8141D2D
:102F4000704702E008C8121F08C1002AFAD1704772
:102F50007047002001E001C1121F002AFBD1704719
:102F600001490860704700001C00002086B0FEF791
:102F700055FEFFF7C0FEFFF77DFCFFF765FCFFF78E
:102F800031FCFFF7AFFCFFF7DFFCFFF703FE314832
:102F9000FFF772FA012230493048FEF7A5FB4FF4E3
:102FA00080790123002249466846FDF7B7FA2A4D89
:102FB0002B4E4FF000082D1F30780028FCD086F8EB
:102FC00000802C684746FF2C0BD86868FDF75DF938
:102FD000244941F8340001EBC400641C47602C60B4
:102FE000EAE71C48FFF774FA1E4968462F60FDF7B0
:102FF00070FA4A461C491B48FDF7CEFAFFF7C2FC9F
:10300000194FDFF868A000246FF00B0B57F824006D
:103010005146FDF7EBF8FDF756F90622FDF71EF9CC
:103020005A46FDF71BF9FDF761F9FDF733F900B2D8
:10303000C0F1400003B222B210464021FFF7B6FCB7
:10304000641CA4B2802CE1D3FFF704FE0148FFF713
:10305000EBF9B1E7940C002004000020200C0020C4
:103060000800002020000020200800200000FA4472
:1030700070B50546FDF78DF9044620F00040C0F11B
:10308000FF40C00F08D025F00040C0F1FF40C00F46
:1030900004BF0120FFF764FF204670BD0102020358
:1030A0000405060708090A0B0C0D0E0F101000008E
:1030B00000000000000001020304060708090000E8
:1030C00000000102030400040002000600010005E4
:1030D00000030007800080048002800680018005D4
:1030E0008003800740004004400240064001400544
:1030F00040034007C000C004C002C006C001C005B4
:10310000C003C00720002004200220062001200563
:1031100020032007A000A004A002A006A001A00593
:10312000A003A00760006004600260066001600503
:1031300060036007E000E004E002E006E001E00573
:10314000E003E00710001004100210061001100543
:1031500010031007900090049002900690019005D3
:103160009003900750005004500250065001500543
:1031700050035007D000D004D002D006D001D005B3
:10318000D003D00730003004300230063001300563
:1031900030033007B000B004B002B006B001B00593
:1031A000B003B00770007004700270067001700503
:1031B00070037007F000F004F002F006F001F00573
:1031C000F003F007080008040802080608010805D3
:1031D0000803080788008804880288068801880593
:1031E0008803880748004804480248064801480503
:1031F00048034807C800C804C802C806C801C80573
:10320000C803C80728002804280228062801280522
:1032100028032807A800A804A802A806A801A80552
:10322000A803A807680068046802680668016805C2
:1032300068036807E800E804E802E806E801E80532
:10324000E803E80718001804180218061801180502
:103250001803180798009804980298069801980592
:103260009803980758005804580258065801580502
:1032700058035807D800D804D802D806D801D80572
:10328000D803D80738003804380238063801380522
:1032900038033807B800B804B802B806B801B80552
:1032A000B803B807780078047802780678017805C2
:1032B00078037807F800F804F802F806F801F80532
:1032C000F803F807040004040402040604010405DA
:1032D00004030407840084048402840684018405B2
:1032E0008403840744004404440244064401440522
:1032F00044034407C400C404C402C406C401C40592
:10330000C403C40724002404240224062401240541
:1033100024032407A400A404A402A406A401A40571
:10332000A403A407640064046402640664016405E1
:1033300064036407E400E404E402E406E401E40551
:10334000E403E40714001404140214061401140521
:1033500014031407940094049402940694019405B1
:103360009403940754005404540254065401540521
:1033700054035407D400D404D402D406D401D40591
:10338000D403D40734003404340234063401340541
:1033900034033407B400B404B402B406B401B40571
:1033A000B403B407740074047402740674017405E1
:1033B00074037407F400F404F402F406F401F40551
:1033C000F403F4070C000C040C020C060C010C05B1
:1033D0000C030C078C008C048C028C068C018C0571
:1033E0008C038C074C004C044C024C064C014C05E1
:1033F0004C034C07CC00CC04CC02CC06CC01CC0551
:10340000CC03CC072C002C042C022C062C012C0500
:103410002C032C07AC00AC04AC02AC06AC01AC0530
:10342000AC03AC076C006C046C026C066C016C05A0
:103430006C036C07EC00EC04EC02EC06EC01EC0510
:10344000EC03EC071C001C041C021C061C011C05E0
:103450001C031C079C009C049C029C069C019C0570
:103460009C039C075C005C045C025C065C015C05E0
:103470005C035C07DC00DC04DC02DC06DC01DC0550
:10348000DC03DC073C003C043C023C063C013C0500
:103490003C033C07BC00BC04BC02BC06BC01BC0530
:1034A000BC03BC077C007C047C027C067C017C05A0
:1034B0007C037C07FC00FC04FC02FC06FC01FC0510
:1034C000FC03FC07020002040202020602010205DC
:1034D00002030207820082048202820682018205C0
:1034E0008203820742004204420242064201420530
:1034F00042034207C200C204C202C206C201C205A0
:10350000C203C2072200220422022206220122054F
:1035100022032207A200A204A202A206A201A2057F
:10352000A203A207620062046202620662016205EF
:1035300062036207E200E204E202E206E201E2055F
:10354000E203E2071200120412021206120112052F
:1035500012031207920092049202920692019205BF
:10356000920392075200520452025206520152052F
:1035700052035207D200D204D202D206D201D2059F
:10358000D203D2073200320432023206320132054F
:1035900032033207B200B204B202B206B201B2057F
:1035A000B203B207720072047202720672017205EF
:1035B00072037207F200F204F202F206F201F2055F
:1035C000F203F2070A000A040A020A060A010A05BF
:1035D0000A030A078A008A048A028A068A018A057F
:1035E0008A038A074A004A044A024A064A014A05EF
:1035F0004A034A07CA00CA04CA02CA06CA01CA055F
:10360000CA03CA072A002A042A022A062A012A050E
:103610002A032A07AA00AA04AA02AA06AA01AA053E
:10362000AA03AA076A006A046A026A066A016A05AE
:103630006A036A07EA00EA04EA02EA06EA01EA051E
:10364000EA03EA071A001A041A021A061A011A05EE
:103650001A031A079A009A049A029A069A019A057E
:103660009A039A075A005A045A025A065A015A05EE
:103670005A035A07DA00DA04DA02DA06DA01DA055E
:10368000DA03DA073A003A043A023A063A013A050E
:103690003A033A07BA00BA04BA02BA06BA01BA053E
:1036A000BA03BA077A007A047A027A067A017A05AE
:1036B0007A037A07FA00FA04FA02FA06FA01FA051E
:1036C000FA03FA07060006040602060606010605C6
:1036D000060306078600860486028606860186059E
:1036E000860386074600460446024606460146050E
:1036F00046034607C600C604C602C606C601C6057E
:10370000C603C6072600260426022606260126052D
:1037100026032607A600A604A602A606A601A6055D
:10372000A603A607660066046602660666016605CD
:1037300066036607E600E604E602E606E601E6053D
:10374000E603E6071600160416021606160116050D
:10375000160316079600960496029606960196059D
:10376000960396075600560456025606560156050D
:1037700056035607D600D604D602D606D601D6057D
:10378000D603D6073600360436023606360136052D
:1037900036033607B600B604B602B606B601B6055D
:1037A000B603B607760076047602760676017605CD
:1037B00076037607F600F604F602F606F601F6053D
:1037C000F603F6070E000E040E020E060E010E059D
:1037D0000E030E078E008E048E028E068E018E055D
:1037E0008E038E074E004E044E024E064E014E05CD
:1037F0004E034E07CE00CE04CE02CE06CE01CE053D
:10380000CE03CE072E002E042E022E062E012E05EC
:103810002E032E07AE00AE04AE02AE06AE01AE051C
:10382000AE03AE076E006E046E026E066E016E058C
:103830006E036E07EE00EE04EE02EE06EE01EE05FC
:10384000EE03EE071E001E041E021E061E011E05CC
:103850001E031E079E009E049E029E069E019E055C
:103860009E039E075E005E045E025E065E015E05CC
:103870005E035E07DE00DE04DE02DE06DE01DE053C
:10388000DE03DE073E003E043E023E063E013E05EC
:103890003E033E07BE00BE04BE02BE06BE01BE051C
:1038A000BE03BE077E007E047E027E067E017E058C
:1038B0007E037E07FE00FE04FE02FE06FE01FE05FC
:1038C000FE03FE07010000000000803F0000000032
:1038D000ECFF7F3FD40FC93AB1FF7F3FC70F493B91
:1038E0004EFF7F3FC1CB963BC4FE7F3F890FC93B54
:1038F00013FE7F3F3053FB3B39FD7F3F59CB163CD6
:1039000039FC7F3F02ED2F3C11FB7F3F900E493C7D
:10391000C1F97F3F0030623C4AF87F3F4B517B3C0E
:10392000ACF67F3F38398A3CE6F47F3FB6C9963C17
:10393000F8F27F3F1C5AA33CE3F07F3F69EAAF3CBB
:10394000A7EE7F3F9B7ABC3C43EC7F3FB00AC93C6B
:10395000B8E97F3FA69AD53C05E77F3F7B2AE23C4A
:103960002BE47F3F2DBAEE3C29E17F3FB949FB3C78
:1039700000DE7F3F90EC033DAFDA7F3F2F340A3DFE
:1039800037D77F3FB87B103D98D37F3F2CC3163D80
:10399000D1CF7F3F880A1D3DE2CB7F3FCC51233DF5
:1039A000CCC77F3FF698293D8FC37F3F07E02F3D6F
:1039B0002ABF7F3FFC26363D9EBA7F3FD56D3C3DFA
:1039C000EAB57F3F91B4423D0FB17F3F2FFB483DA9
:1039D0000DAC7F3FAF414F3DE3A67F3F0E88553D85
:1039E00091A17F3F4CCE5B3D189C7F3F6814623DA8
:1039F00078967F3F625A683DB1907F3F38A06E3D18
:103A0000C28A7F3FE9E5743DAB847F3F742B7B3DE9
:103A10006D7E7F3F6CB8803D08787F3F0ADB833D39
:103A20007B717F3F94FD863DC76A7F3F0A208A3DB8
:103A3000EC637F3F6A428D3DE95C7F3FB464903D1B
:103A4000BF557F3FE786933D6D4E7F3F05A9963D6D
:103A5000F4467F3F0ACB993D543F7F3FF9EC9C3DB4
:103A60008D377F3FCF0EA03D9D2F7F3F8C30A33DF4
:103A700087277F3F3052A63D491F7F3FBA73A93D3C
:103A8000E4167F3F2B95AC3D580E7F3F80B6AF3D8F
:103A9000A4057F3FBBD7B23DC9FC7E3FDAF8B53DF8
:103AA000C7F37E3FDD19B93D9DEA7E3FC33ABC3D79
:103AB0004CE17E3F8D5BBF3DD4D77E3F397CC23D1C
:103AC00034CE7E3FC69CC53D6DC47E3F36BDC83DED
:103AD0007FBA7E3F86DDCB3D69B07E3FB7FDCE3DF0
:103AE0002DA67E3FC81DD23DC99B7E3FB93DD53D29
:103AF0003D917E3F895DD83D8B867E3F377DDB3DA6
:103B0000B17B7E3FC49CDE3DB0707E3F2EBCE13D6C
:103B100088657E3F76DBE43D385A7E3F9AFAE73D82
:103B2000C14E7E3F9A19EB3D23437E3F7638EE3DF2
:103B30005E377E3F2E57F13D722B7E3FC075F43DC0
:103B40005E1F7E3F2C94F73D24137E3F73B2FA3DF7
:103B5000C2067E3F92D0FD3D38FA7D3F4577003E5C
:103B600088ED7D3F2E06023EB1E07D3F0295033E8B
:103B7000B2D37D3FC223053E8CC67D3F6EB2063E6A
:103B800040B97D3F0541083ECCAB7D3F86CF093E25
:103B9000309E7D3FF35D0B3E6E907D3F4AEC0C3EC8
:103BA00085827D3F8B7A0E3E74747D3FB708103E50
:103BB0003D667D3FCC96113EDE577D3FCA24133EC5
:103BC00059497D3FB2B2143EAC3A7D3F8340163E28
:103BD000D82B7D3F3DCE173EDD1C7D3FE05B193E7F
:103BE000BC0D7D3F6BE91A3E73FE7C3FDE761C3ECA
:103BF00003EF7C3F38041E3E6CDF7C3F7B911F3E11
:103C0000AECF7C3FA51E213EC9BF7C3FB6AB223E56
:103C1000BDAF7C3FAD38243E8A9F7C3F8CC5253E9E
:103C2000318F7C3F5152273EB07E7C3FFCDE283EE8
:103C3000086E7C3F8D6B2A3E3A5D7C3F04F82B3E3C
:103C4000444C7C3F61842D3E283B7C3FA2102F3E9C
:103C5000E5297C3FC99C303E7A187C3FD428323E0F
:103C6000E9067C3FC4B4333E31F57B3F9840353E96
:103C700053E37B3F50CC363E4DD17B3FEC57383E33
:103C800020BF7B3F6CE3393ECDAC7B3FCF6E3B3EEC
:103C9000539A7B3F15FA3C3EB2877B3F3E853E3EC2
:103CA000EA747B3F4910403EFC617B3F379B413EBD
:103CB000E74E7B3F0726433EAB3B7B3FB9B0443EDC
:103CC00048287B3F4D3B463EBE147B3FC2C5473E26
:103CD0000E017B3F1850493E37ED7A3F4FDA4A3E9E
:103CE0003AD97A3F67644C3E16C57A3F60EE4D3E46
:103CF000CBB07A3F38784F3E599C7A3FF101513E24
:103D0000C1877A3F898B523E02737A3F0115543E38
:103D10001C5E7A3F589E553E10497A3F8F27573E8A
:103D2000DD337A3FA4B0583E841E7A3F97395A3E1D
:103D300004097A3F6AC25B3E5EF3793F1A4B5D3EEF
:103D400091DD793FA8D35E3E9DC7793F135C603E0D
:103D500083B1793F5CE4613E439B793F836C633E72
:103D6000DC84793F86F4643E4E6E793F667C663E25
:103D70009A57793F2204683EC040793FBA8B693E2A
:103D8000BF29793F2F136B3E9812793F7F9A6C3E83
:103D90004AFB783FAB216E3ED6E3783FB2A86F3E38
:103DA0003BCC783F942F713E7BB4783F51B6723E46
:103DB000939C783FE83C743E8684783F5AC3753EB6
:103DC000526C783FA649773EF853783FCCCF783E87
:103DD000773B783FCB557A3ED122783FA4DB7B3EC0
:103DE000040A783F56617D3E10F1773FE1E67E3E62
:103DF000F7D7773F2236803EB7BE773FC0F8803E88
:103E000051A5773F4ABB813EC58B773FC07D823E3F
:103E10001372773F2240833E3A58773F7002843EC8
:103E20003C3E773FAAC4843E1724773FCE86853E2A
:103E3000CC09773FDF48863E5BEF763FDA0A873E64
:103E4000C4D4763FC1CC873E07BA763F938E883E76
:103E5000249F763F5050893E1B84763FF8118A3E5E
:103E6000EC68763F8AD38A3E974D763F07958B3E26
:103E70001B32763F6E568C3E7A16763FC0178D3ECB
:103E8000B3FA753FFCD88D3EC6DE753F229A8E3E52
:103E9000B3C2753F325B8F3E7BA6753F2C1C903EB4
:103EA0001C8A753F10DD903E976D753FDD9D913EFC
:103EB000ED50753F945E923E1D34753F351F933E25
:103EC0002717753FBFDF933E0BFA743F31A0943E36
:103ED000C9DC743F8D60953E62BF743FD220963E30
:103EE000D5A1743F00E1963E2284743F17A1973E0E
:103EF0004966743F1661983E4B48743FFE20993ED8
:103F0000272A743FCEE0993EDD0B743F86A09A3E8F
:103F10006EED733F27609B3ED9CE733FAF1F9C3E33
:103F20001FB0733F20DF9C3E3F91733F789E9D3EC4
:103F30003972733FB85D9E3E0E53733FDF1C9F3E48
:103F4000BE33733FEEDB9F3E4714733FE59AA03EBE
:103F5000ACF4723FC259A13EEBD4723F8718A23E27
:103F600004B5723F33D7A23EF894723FC595A33E85
:103F7000C774723F3F54A43E7054723F9F12A53ED7
:103F8000F433723FE5D0A53E5213723F128FA63E26
:103F90008CF2713F254DA73E9FD1713F1F0BA83E6C
:103FA0008EB0713FFEC8A83E578F713FC486A93EB0
:103FB000FB6D713F6F44AA3E7A4C713F0102AB3EEC
:103FC000D42A713F77BFAB3E0809713FD47CAC3E29
:103FD00017E7703F153AAD3E02C5703F3CF7AD3E66
:103FE000C6A2703F49B4AE3E6680703F3A71AF3EA4
:103FF000E15D703F102EB03E373B703FCBEAB03EE4
:104000006718703F6BA7B13E73F56F3FEF63B23E29
:104010005AD26F3F5820B33E1BAF6F3FA5DCB33E73
:10402000B88B6F3FD698B43E30686F3FEC54B53EC6
:1040300083446F3FE610B63EB0206F3FC3CCB63E20
:10404000BAFC6E3F8488B73E9ED86E3F2A44B83E85
:104050005DB46E3FB2FFB83EF88F6E3F1EBBB93EF7
:104060006D6B6E3F6E76BA3EBE466E3FA031BB3E74
:10407000EB216E3FB6ECBB3EF2FC6D3FAFA7BC3E02
:10408000D5D76D3F8B62BD3E93B26D3F4A1DBE3E9C
:104090002D8D6D3FEBD7BE3EA1676D3F6F92BF3E4A
:1040A000F2416D3FD54CC03E1D1C6D3F1E07C13E09
:1040B00024F66C3F48C1C13E07D06C3F557BC23EE1
:1040C000C5A96C3F4435C33E5E836C3F15EFC33ECC
:1040D000D45C6C3FC8A8C43E24366C3F5C62C53ECD
:1040E000500F6C3FD21BC63E58E86B3F29D5C63EE9
:1040F0003BC16B3F628EC73EFB996B3F7C47C83E1E
:1041000095726B3F7700C93E0C4B6B3F53B9C93E6C
:104110005E236B3F1072CA3E8CFB6A3FAE2ACB3ED9
:1041200095D36A3F2CE3CB3E7BAB6A3F8B9BCC3E67
:104130003C836A3FCA53CD3ED95A6A3FEA0BCE3E12
:1041400052326A3FEAC3CE3EA7096A3FCA7BCF3EDE
:10415000D7E0693F8A33D03EE4B7693F2AEBD03ECF
:10416000CC8E693FAAA2D13E9165693F095AD23EE1
:10417000323C693F4811D33EAE12693F67C8D33E17
:1041800007E9683F647FD43E3CBF683F4136D53E77
:104190004C95683FFDECD53E396B683F99A3D63E00
:1041A0000341683F135AD73EA816683F6B10D83EAC
:1041B0002AEC673FA3C6D83E87C1673FB97CD93E8A
:1041C000C196673FAD32DA3ED86B673F80E8DA3E92
:1041D000CA40673F319EDB3E9915673FC153DC3EC5
:1041E00045EA663F2E09DD3ECCBE663F79BEDD3E28
:1041F0003093663FA273DE3E7167663FA928DF3EBB
:104200008E3B663F8DDDDF3E880F663F4F92E03E7E
:104210005EE3653FEE46E13E10B7653F6AFBE13E77
:10422000A08A653FC4AFE23E0B5E653FFA63E33EA2
:104230005431653F0E18E43E7904653FFECBE43E01
:104240007BD7643FCB7FE53E59AA643F7533E63E9A
:10425000147D643FFBE6E63EAC4F643F5D9AE73E6B
:104260002122643F9C4DE83E73F4633FB700E93E72
:10427000A1C6633FAEB3E93EAC98633F8166EA3EB8
:10428000956A633F3019EB3E5A3C633FBBCBEB3E34
:10429000FC0D633F217EEC3E7BDF623F6330ED3EF1
:1042A000D7B0623F80E2ED3E1082623F7994EE3EED
:1042B0002653623F4C46EF3E1A24623FFBF7EF3E27
:1042C000EAF4613F85A9F03E98C5613FEA5AF13EA4
:1042D0002296613F290CF23E8A66613F43BDF23E61
:1042E000D036613F386EF33EF206613F071FF43E61
:1042F000F2D6603FB1CFF43ECFA6603F3580F53EA9
:104300008976603F9330F63E2146603FCBE0F63E33
:104310009615603FDC90F73EE9E45F3FC840F83E09
:1043200019B45F3F8EF0F83E27835F3F2DA0F93E22
:1043300012525F3FA54FFA3EDB205F3FF7FEFA3E89
:1043400081EF5E3F22AEFB3E05BE5E3F275DFC3E39
:10435000678C5E3F040CFD3EA65A5E3FBBBAFD3E35
:10436000C3285E3F4A69FE3EBEF65D3FB217FF3E80
:1043700097C45D3FF3C5FF3E4D925D3F063A003F57
:10438000E15F5D3FFF90003F532D5D3FE4E7003F5D
:10439000A3FA5C3FB53E013FD1C75C3F7395013F37
:1043A000DD945C3F1CEC013FC7615C3FB142023FC2
:1043B0008E2E5C3F3299023F34FB5B3F9FEF023F02
:1043C000B8C75B3FF845033F1A945B3F3D9C033FF2
:1043D0005A605B3F6DF2033F792C5B3F8948043F95
:1043E00075F85A3F919E043F50C45A3F84F4043FED
:1043F00009905A3F624A053FA05B5A3F2CA0053FF7
:1044000016275A3FE2F5053F6AF2593F824B063FB5
:104410009CBD593F0EA1063FAD88593F86F6063F29
:104420009C53593FE84B073F6A1E593F36A1073F4F
:1044300017E9583F6FF6073FA1B3583F924B083F2B
:104440000B7E583FA1A0083F5348583F9BF5083FBB
:104450007912583F7F4A093F7FDC573F4E9F093F03
:1044600063A6573F09F4093F2670573FAD480A3FFE
:10447000C739573F3D9D0A3F4803573FB7F10A3FB1
:10448000A7CC563F1C460B3FE595563F6B9A0B3F1A
:10449000025F563FA5EE0B3FFE27563FC9420C3F39
:1044A000D9F0553FD7960C3F93B9553FD0EA0C3F12
:1044B0002C82553FB33E0D3FA44A553F81920D3F9C
:1044C000FB12553F38E60D3F31DB543FDA390E3FE2
:1044D00047A3543F658D0E3F3B6B543FDBE00E3FDF
:1044E0000F33543F3B340F3FC3FA533F84870F3F92
:1044F00055C2533FB8DA0F3FC789533FD52D103F00
:104500001851533FDC80103F4918533FCDD3103F23
:1045100059DF523FA726113F49A6523F6B79113F01
:10452000186D523F19CC113FC633523FB01E123F97
:1045300054FA513F3071123FC2C0513F9AC3123FEB
:104540001087513FEE15133F3D4D513F2A68133FF1
:104550004A13513F50BA133F37D9503F5F0C143FB5
:10456000039F503F585E143FAF64503F39B0143F33
:104570003B2A503F0402153FA8EF4F3FB753153F6A
:10458000F4B44F3F54A5153F1F7A4F3FD9F6153F5E
:104590002B3F4F3F4748163F17044F3F9F99163F09
:1045A000E4C84E3FDFEA163F908D4E3F073C173F71
:1045B0001C524E3F188D173F89164E3F12DE173F93
:1045C000D5DA4D3FF52E183F029F4D3FC07F183F73
:1045D00010634D3F73D0183FFD264D3F0F21193F0B
:1045E000CBEA4C3F9471193F79AE4C3F00C2193F62
:1045F00008724C3F55121A3F78354C3F93621A3F70
:10460000C7F84B3FB8B21A3FF8BB4B3FC6021B3F3F
:10461000097F4B3FBB521B3FFA414B3F99A21B3FC7
:10462000CC044B3F5FF21B3F7FC74A3F0C421C3F0D
:10463000138A4A3FA2911C3F874C4A3F1FE11C3F0F
:10464000DC0E4A3F84301D3F12D1493FD17F1D3FD0
:104650002993493F06CF1D3F2155493F221E1E3F4A
:10466000FA16493F266D1E3FB3D8483F12BC1E3F85
:104670004E9A483FE50A1F3FCA5B483F9F591F3F7C
:10468000271D483F41A81F3F65DE473FCBF61F3F30
:10469000849F473F3B45203F8560473F9393203FA2
:1046A0006721473FD2E1203F2AE2463FF92F213FD1
:1046B000CEA2463F067E213F5463463FFBCB213FBF
:1046C000BB23463FD719223F03E4453F9967223F6A
:1046D0002DA4453F43B5223F3964453FD302233FD4
:1046E0002624453F4B50233FF5E3443FA99D233FFC
:1046F000A5A3443FEEEA233F3763443F1A38243FE3
:10470000AB22443F2C85243F00E2433F25D2243F87
:1047100038A1433F041F253F5160433FCB6B253FEA
:104720004C1F433F77B8253F29DE423F0A05263F0D
:10473000E89C423F8451263F895B423FE39D263FF0
:104740000B1A423F2AEA263F70D8413F5636273F90
:10475000B796413F6882273FE154413F61CE273FF2
:10476000EC12413F401A283FDAD0403F0566283F0F
:10477000A98E403FB0B1283F5C4C403F41FD283FEF
:10478000F009403FB848293F67C73F3F1594293F8C
:10479000C0843F3F57DF293FFC413F3F802A2A3FEB
:1047A0001BFF3E3F8E752A3F1BBC3E3F82C02A3F07
:1047B000FF783E3F5B0B2B3FC5353E3F1B562B3FE3
:1047C0006EF23D3FBFA02B3FF9AE3D3F4AEB2B3F82
:1047D000676B3D3FB9352C3FB8273D3F0F802C3FDD
:1047E000ECE33C3F49CA2C3F03A03C3F69142D3FFA
:1047F000FC5B3C3F6F5E2D3FD9173C3F59A82D3FD6
:1048000098D33B3F29F22D3F3B8F3B3FDE3B2E3F72
:10481000C14A3B3F78852E3F29063B3FF7CE2E3FCE
:1048200075C13A3F5B182F3FA47C3A3FA5612F3FEB
:10483000B7373A3FD3AA2F3FACF2393FE6F32F3FC9
:1048400085AD393FDE3C303F4268393FBB85303F64
:10485000E122393F7CCE303F65DD383F2217313FC2
:10486000CB97383FAD5F313F1652383F1DA8313FDF
:10487000430C383F71F0313F55C6373FAA38323FBD
:104880004A80373FC780323F233A373FC9C8323F5B
:10489000DFF3363FAF10333F7FAD363F7A58333FBB
:1048A0000467363F29A0333F6C20363FBCE7333FD7
:1048B000B8D9353F342F343FE792353F8F76343FB8
:1048C000FB4B353FCFBD343FF304353FF304353F59
:1048D000CFBD343FFB4B353F8F76343FE792353FBA
:1048E000342F343FB8D9353FBCE7333F6C20363FD7
:1048F00029A0333F0467363F7A58333F7FAD363FB8
:10490000AF10333FDFF3363FC9C8323F233A373F5A
:10491000C780323F4A80373FAA38323F55C6373FBB
:1049200071F0313F430C383F1DA8313F1652383FDC
:10493000AD5F313FCB97383F2217313F65DD383FC0
:104940007CCE303FE122393FBB85303F4268393F62
:10495000DE3C303F85AD393FE6F32F3FACF2393FC7
:10496000D3AA2F3FB7373A3FA5612F3FA47C3A3FE8
:104970005B182F3F75C13A3FF7CE2E3F29063B3FCC
:1049800078852E3FC14A3B3FDE3B2E3F3B8F3B3F6E
:1049900029F22D3F98D33B3F59A82D3FD9173C3FD3
:1049A0006F5E2D3FFC5B3C3F69142D3F03A03C3FF5
:1049B00049CA2C3FECE33C3F0F802C3FB8273D3FDA
:1049C000B9352C3F676B3D3F4AEB2B3FF9AE3D3F7E
:1049D000BFA02B3F6EF23D3F1B562B3FC5353E3FE0
:1049E0005B0B2B3FFF783E3F82C02A3F1BBC3E3F04
:1049F0008E752A3F1BFF3E3F802A2A3FFC413F3FE6
:104A000057DF293FC0843F3F1594293F67C73F3F89
:104A1000B848293FF009403F41FD283F5C4C403FEA
:104A2000B0B1283FA98E403F0566283FDAD0403F0D
:104A3000401A283FEC12413F61CE273FE154413FED
:104A40006882273FB796413F5636273F70D8413F8F
:104A50002AEA263F0B1A423FE39D263F895B423FED
:104A60008451263FE89C423F0A05263F29DE423F0B
:104A700077B8253F4C1F433FCB6B253F5160433FE9
:104A8000041F253F38A1433F25D2243F00E2433F86
:104A90002C85243FAB22443F1A38243F3763443FE0
:104AA000EEEA233FA5A3443FA99D233FF5E3443FFE
:104AB0004B50233F2624453FD302233F3964453FD3
:104AC00043B5223F2DA4453F9967223F03E4453F6C
:104AD000D719223FBB23463FFBCB213F5463463FC0
:104AE000067E213FCEA2463FF92F213F2AE2463FD4
:104AF000D2E1203F6721473F9393203F8560473FA6
:104B00003B45203F849F473FCBF61F3F65DE473F35
:104B100041A81F3F271D483F9F591F3FCA5B483F81
:104B2000E50A1F3F4E9A483F12BC1E3FB3D8483F8C
:104B3000266D1E3FFA16493F221E1E3F2155493F52
:104B400006CF1D3F2993493FD17F1D3F12D1493FD9
:104B500084301D3FDC0E4A3F1FE11C3F874C4A3F1B
:104B6000A2911C3F138A4A3F0C421C3F7FC74A3F19
:104B70005FF21B3FCC044B3F99A21B3FFA414B3FD6
:104B8000BB521B3F097F4B3FC6021B3FF8BB4B3F4D
:104B9000B8B21A3FC7F84B3F93621A3F78354C3F83
:104BA00055121A3F08724C3F00C2193F79AE4C3F74
:104BB0009471193FCBEA4C3F0F21193FFD264D3F21
:104BC00073D0183F10634D3FC07F183F029F4D3F89
:104BD000F52E183FD5DA4D3F12DE173F89164E3FAE
:104BE000188D173F1C524E3F073C173F908D4E3F8C
:104BF000DFEA163FE4C84E3F9F99163F17044F3F28
:104C00004748163F2B3F4F3FD9F6153F1F7A4F3F7E
:104C100054A5153FF4B44F3FB753153FA8EF4F3F8E
:104C20000402153F3B2A503F39B0143FAF64503F58
:104C3000585E143F039F503F5F0C143F37D9503FDD
:104C400050BA133F4A13513F2A68133F3D4D513F1D
:104C5000EE15133F1087513F9AC3123FC2C0513F18
:104C60003071123F54FA513FB01E123FC633523FCB
:104C700019CC113F186D523F6B79113F49A6523F35
:104C8000A726113F59DF523FCDD3103F4918533F5C
:104C9000DC80103F1851533FD52D103FC789533F3B
:104CA000B8DA0F3F55C2533F84870F3FC3FA533FD3
:104CB0003B340F3F0F33543FDBE00E3F3B6B543F21
:104CC000658D0E3F47A3543FDA390E3F31DB543F29
:104CD00038E60D3FFB12553F81920D3FA44A553FE8
:104CE000B33E0D3F2C82553FD0EA0C3F93B9553F60
:104CF000D7960C3FD9F0553FC9420C3FFE27563F8F
:104D0000A5EE0B3F025F563F6B9A0B3FE595563F72
:104D10001C460B3FA7CC563FB7F10A3F4803573F0D
:104D20003D9D0A3FC739573FAD480A3F2670573F60
:104D300009F4093F63A6573F4E9F093F7FDC573F69
:104D40007F4A093F7912583F9BF5083F5348583F27
:104D5000A1A0083F0B7E583F924B083FA1B3583F9C
:104D60006FF6073F17E9583F36A1073F6A1E593FC4
:104D7000E84B073F9C53593F86F6063FAD88593FA5
:104D80000EA1063F9CBD593F824B063F6AF2593F38
:104D9000E2F5053F16275A3F2CA0053FA05B5A3F7E
:104DA000624A053F09905A3F84F4043F50C45A3F79
:104DB000919E043F75F85A3F8948043F792C5B3F28
:104DC0006DF2033F5A605B3F3D9C033F1A945B3F8B
:104DD000F845033FB8C75B3F9FEF023F34FB5B3FA3
:104DE0003299023F8E2E5C3FB142023FC7615C3F69
:104DF0001CEC013FDD945C3F7395013FD1C75C3FE4
:104E0000B53E013FA3FA5C3FE4E7003F532D5D3F11
:104E1000FF90003FE15F5D3F063A003F4D925D3FEE
:104E2000F3C5FF3E97C45D3FB217FF3EBEF65D3F40
:104E30004A69FE3EC3285E3FBBBAFD3EA65A5E3FAE
:104E4000040CFD3E678C5E3F275DFC3E05BE5E3F69
:104E500022AEFB3E81EF5E3FF7FEFA3EDB205F3F76
:104E6000A54FFA3E12525F3F2DA0F93E27835F3FC8
:104E70008EF0F83E19B45F3FC840F83EE9E45F3F6A
:104E8000DC90F73E9615603FCBE0F63E2146603F52
:104E90009330F63E8976603F3580F53ECFA6603F81
:104EA000B1CFF43EF2D6603F071FF43EF206613FF9
:104EB000386EF33ED036613F43BDF23E8A66613FB5
:104EC000290CF23E2296613FEA5AF13E98C5613FB5
:104ED00085A9F03EEAF4613FFBF7EF3E1A24623FFA
:104EE0004C46EF3E2653623F7994EE3E1082623F7D
:104EF00080E2ED3ED7B0623F6330ED3E7BDF623F44
:104F0000217EEC3EFC0D633FBBCBEB3E5A3C633F46
:104F10003019EB3E956A633F8166EA3EAC98633F89
:104F2000AEB3E93EA1C6633FB700E93E73F4633F09
:104F30009C4DE83E2122643F5D9AE73EAC4F643FC2
:104F4000FBE6E63E147D643F7533E63E59AA643FB6
:104F5000CB7FE53E7BD7643FFECBE43E7904653FE3
:104F60000E18E43E5431653FFA63E33E0B5E653F45
:104F7000C4AFE23EA08A653F6AFBE13E10B7653FE1
:104F8000EE46E13E5EE3653F4F92E03E880F663FAE
:104F90008DDDDF3E8E3B663FA928DF3E7167663FB1
:104FA000A273DE3E3093663F79BEDD3ECCBE663FE7
:104FB0002E09DD3E45EA663FC153DC3E9915673F49
:104FC000319EDB3ECA40673F80E8DA3ED86B673FE0
:104FD000AD32DA3EC196673FB97CD93E87C1673FA3
:104FE000A3C6D83E2AEC673F6B10D83EA816683F90
:104FF000135AD73E0341683F99A3D63E396B683FA9
:10500000FDECD53E4C95683F4136D53E3CBF683FF0
:10501000647FD43E07E9683F67C8D33EAE12693F5C
:105020004811D33E323C693F095AD23E9165693FEF
:10503000AAA2D13ECC8E693F2AEBD03EE4B7693FAD
:105040008A33D03ED7E0693FCA7BCF3EA7096A3F8B
:10505000EAC3CE3E52326A3FEA0BCE3ED95A6A3F8D
:10506000CA53CD3E3C836A3F8B9BCC3E7BAB6A3FB1
:105070002CE3CB3E95D36A3FAE2ACB3E8CFB6A3FF6
:105080001072CA3E5E236B3F53B9C93E0C4B6B3F57
:105090007700C93E95726B3F7C47C83EFB996B3FDA
:1050A000628EC73E3BC16B3F29D5C63E58E86B3F79
:1050B000D21BC63E500F6C3F5C62C53E24366C3F2F
:1050C000C8A8C43ED45C6C3F15EFC33E5E836C3F02
:1050D0004435C33EC5A96C3F557BC23E07D06C3FEB
:1050E00048C1C13E24F66C3F1E07C13E1D1C6D3FEA
:1050F000D54CC03EF2416D3F6F92BF3EA1676D3F00
:10510000EBD7BE3E2D8D6D3F4A1DBE3E93B26D3F27
:105110008B62BD3ED5D76D3FAFA7BC3EF2FC6D3F65
:10512000B6ECBB3EEB216E3FA031BB3EBE466E3FB0
:105130006E76BA3E6D6B6E3F1EBBB93EF88F6E3F0A
:10514000B2FFB83E5DB46E3F2A44B83E9ED86E3F73
:105150008488B73EBAFC6E3FC3CCB63EB0206F3FEA
:10516000E610B63E83446F3FEC54B53E30686F3F67
:10517000D698B43EB88B6F3FA5DCB33E1BAF6F3FF4
:105180005820B33E5AD26F3FEF63B23E73F56F3F84
:105190006BA7B13E6718703FCBEAB03E373B703F1C
:1051A000102EB03EE15D703F3A71AF3E6680703FB9
:1051B00049B4AE3EC6A2703F3CF7AD3E02C5703F5B
:1051C000153AAD3E17E7703FD47CAC3E0809713FFD
:1051D00077BFAB3ED42A713F0102AB3E7A4C713FA0
:1051E0006F44AA3EFB6D713FC486A93E578F713F45
:1051F000FEC8A83E8EB0713F1F0BA83E9FD1713FE5
:10520000254DA73E8CF2713F128FA63E5213723F7E
:10521000E5D0A53EF433723F9F12A53E7054723F15
:105220003F54A43EC774723FC595A33EF894723FA5
:1052300033D7A23E04B5723F8718A23EEBD4723F2B
:10524000C259A13EACF4723FE59AA03E4714733FA9
:10525000EEDB9F3EBE33733FDF1C9F3E0E53733F1A
:10526000B85D9E3E3972733F789E9D3E3F91733F7D
:1052700020DF9C3E1FB0733FAF1F9C3ED9CE733FD3
:1052800027609B3E6EED733F86A09A3EDD0B743F18
:10529000CEE0993E272A743FFE20993E4B48743F4A
:1052A0001661983E4966743F17A1973E2284743F69
:1052B00000E1963ED5A1743FD220963E62BF743F76
:1052C0008D60953EC9DC743F31A0943E0BFA743F6B
:1052D000BFDF933E2717753F351F933E1D34753F43
:1052E000945E923EED50753FDD9D913E976D753F0A
:1052F00010DD903E1C8A753F2C1C903E7BA6753FAE
:10530000325B8F3EB3C2753F229A8E3EC6DE753F3A
:10531000FCD88D3EB3FA753FC0178D3E7A16763FA6
:105320006E568C3E1B32763F07958B3E974D763FEF
:105330008AD38A3EEC68763FF8118A3E1B84763F1A
:105340005050893E249F763F938E883E07BA763F21
:10535000C1CC873EC4D4763FDA0A873E5BEF763F06
:10536000DF48863ECC09773FCE86853E1724773FBF
:10537000AAC4843E3C3E773F7002843E3A58773F51
:105380002240833E1372773FC07D823EC58B773FBC
:105390004ABB813E51A5773FC0F8803EB7BE773FFC
:1053A0002236803EF7D7773FE1E67E3E10F1773F29
:1053B00056617D3E040A783FA4DB7B3ED122783FD4
:1053C000CB557A3E773B783FCCCF783EF853783F49
:1053D000A649773E526C783F5AC3753E8684783F23
:1053E000E83C743E939C783F51B6723E7BB4783F64
:1053F000942F713E3BCC783FB2A86F3ED6E3783F06
:10540000AB216E3E4AFB783F7F9A6C3E9812793F03
:105410002F136B3EBF29793FBA8B693EC040793F5D
:105420002204683E9A57793F667C663E4E6E793F0D
:1054300086F4643EDC84793F836C633E439B793F12
:105440005CE4613E83B1793F135C603E9DC7793F68
:10545000A8D35E3E91DD793F1A4B5D3E5EF3793F06
:105460006AC25B3E04097A3F97395A3E841E7A3FEE
:10547000A4B0583EDD337A3F8F27573E10497A3F1C
:10548000589E553E1C5E7A3F0115543E02737A3F8A
:10549000898B523EC1877A3FF101513E599C7A3F38
:1054A00038784F3ECBB07A3F60EE4D3E16C57A3F1E
:1054B00067644C3E3AD97A3F4FDA4A3E37ED7A3F3D
:1054C0001850493E0E017B3FC2C5473EBE147B3F8C
:1054D0004D3B463E48287B3FB9B0443EAB3B7B3F0B
:1054E0000726433EE74E7B3F379B413EFC617B3FB7
:1054F0004910403EEA747B3F3E853E3EB2877B3F8B
:1055000015FA3C3E539A7B3FCF6E3B3ECDAC7B3F82
:105510006CE3393E20BF7B3FEC57383E4DD17B3F9B
:1055200050CC363E53E37B3F9840353E31F57B3FD0
:10553000C4B4333EE9067C3FD428323E7A187C3F1F
:10554000C99C303EE5297C3FA2102F3E283B7C3F82
:1055500061842D3E444C7C3F04F82B3E3A5D7C3FF9
:105560008D6B2A3E086E7C3FFCDE283EB07E7C3F81
:105570005152273E318F7C3F8CC5253E8A9F7C3F10
:10558000AD38243EBDAF7C3FB6AB223EC9BF7C3FA9
:10559000A51E213EAECF7C3F7B911F3E6CDF7C3F42
:1055A00038041E3E03EF7C3FDE761C3E73FE7C3FDC
:1055B0006BE91A3EBC0D7D3FE05B193EDD1C7D3F73
:1055C0003DCE173ED82B7D3F8340163EAC3A7D3F03
:1055D000B2B2143E59497D3FCA24133EDE577D3F87
:1055E000CC96113E3D667D3FB708103E74747D3FFA
:1055F0008B7A0E3E85827D3F4AEC0C3E6E907D3F5D
:10560000F35D0B3E309E7D3F86CF093ECCAB7D3FA8
:105610000541083E40B97D3F6EB2063E8CC67D3FD7
:10562000C223053EB2D37D3F0295033EB1E07D3FEC
:105630002E06023E88ED7D3F4577003E38FA7D3FDD
:1056400092D0FD3DC2067E3F73B2FA3D24137E3FE9
:105650002C94F73D5E1F7E3FC075F43D722B7E3F5C
:105660002E57F13D5E377E3F7638EE3D23437E3F39
:105670009A19EB3DC14E7E3F9AFAE73D385A7E3F7C
:1056800076DBE43D88657E3F2EBCE13DB0707E3F19
:10569000C49CDE3DB17B7E3F377DDB3D8B867E3F0C
:1056A000895DD83D3D917E3FB93DD53DC99B7E3F4B
:1056B000C81DD23D2DA67E3FB7FDCE3D69B07E3FD1
:1056C00086DDCB3D7FBA7E3F36BDC83D6DC47E3F93
:1056D000C69CC53D34CE7E3F397CC23DD4D77E3F8B
:1056E0008D5BBF3D4CE17E3FC33ABC3D9DEA7E3FB2
:1056F000DD19B93DC7F37E3FDAF8B53DC9FC7E3F01
:10570000BBD7B23DA4057F3F80B6AF3D580E7F3F6B
:105710002B95AC3DE4167F3FBA73A93D491F7F3FEF
:105720003052A63D87277F3F8C30A33D9D2F7F3F82
:10573000CF0EA03D8D377F3FF9EC9C3D543F7F3F1E
:105740000ACB993DF4467F3F05A9963D6D4E7F3FBC
:10575000E786933DBF557F3FB464903DE95C7F3F52
:105760006A428D3DEC637F3F0A208A3DC76A7F3FD6
:1057700094FD863D7B717F3F0ADB833D08787F3F48
:105780006CB8803D6D7E7F3F742B7B3DAB847F3F4B
:10579000E9E5743DC28A7F3F38A06E3DB1907F3FFE
:1057A000625A683D78967F3F6814623D189C7F3F3F
:1057B0004CCE5B3D91A17F3F0E88553DE3A67F3FD8
:1057C000AF414F3D0DAC7F3F2FFB483D0FB17F3FB9
:1057D00091B4423DEAB57F3FD56D3C3D9EBA7F3FD7
:1057E000FC26363D2ABF7F3F07E02F3D8FC37F3F1A
:1057F000F698293DCCC77F3FCC51233DE2CB7F3F7C
:10580000880A1D3DD1CF7F3F2CC3163D98D37F3FE3
:10581000B87B103D37D77F3F2F340A3DAFDA7F3F4B
:1058200090EC033D00DE7F3FB949FB3C29E17F3F1F
:105830002DBAEE3C2BE47F3F7B2AE23C05E77F3F1D
:10584000A69AD53CB8E97F3FB00AC93C43EC7F3FFC
:105850009B7ABC3CA7EE7F3F69EAAF3CE3F07F3F19
:105860001C5AA33CF8F27F3FB6C9963CE6F47F3F52
:1058700038398A3CACF67F3F4B517B3C4AF87F3F3E
:105880000030623CC1F97F3F900E493C11FB7F3FE5
:1058900002ED2F3C39FC7F3F59CB163C39FD7F3F51
:1058A0003053FB3B13FE7F3F890FC93BC4FE7F3F54
:1058B000C1CB963B4EFF7F3FC70F493BB1FF7F3FB8
:1058C000D40FC93AECFF7F3F000000000000803F8A
:1058D000D40FC9BAECFF7F3FC70F49BBB1FF7F3F71
:1058E000C1CB96BB4EFF7F3F890FC9BBC4FE7F3F34
:1058F0003053FBBB13FE7F3F59CB16BC39FD7F3FB6
:1059000002ED2FBC39FC7F3F900E49BC11FB7F3F5D
:10591000003062BCC1F97F3F4B517BBC4AF87F3FEE
:1059200038398ABCACF67F3FB6C996BCE6F47F3FF7
:105930001C5AA3BCF8F27F3F69EAAFBCE3F07F3F9B
:105940009B7ABCBCA7EE7F3FB00AC9BC43EC7F3F4B
:10595000A69AD5BCB8E97F3F7B2AE2BC05E77F3F2A
:105960002DBAEEBC2BE47F3FB949FBBC29E17F3F58
:1059700090EC03BD00DE7F3F2F340ABDAFDA7F3FDE
:10598000B87B10BD37D77F3F2CC316BD98D37F3F60
:10599000880A1DBDD1CF7F3FCC5123BDE2CB7F3FD5
:1059A000F69829BDCCC77F3F07E02FBD8FC37F3F4F
:1059B000FC2636BD2ABF7F3FD56D3CBD9EBA7F3FDA
:1059C00091B442BDEAB57F3F2FFB48BD0FB17F3F89
:1059D000AF414FBD0DAC7F3F0E8855BDE3A67F3F65
:1059E0004CCE5BBD91A17F3F681462BD189C7F3F88
:1059F000625A68BD78967F3F38A06EBDB1907F3FF8
:105A0000E9E574BDC28A7F3F742B7BBDAB847F3FC9
:105A10006CB880BD6D7E7F3F0ADB83BD08787F3F19
:105A200094FD86BD7B717F3F0A208ABDC76A7F3F98
:105A30006A428DBDEC637F3FB46490BDE95C7F3FFB
:105A4000E78693BDBF557F3F05A996BD6D4E7F3F4D
:105A50000ACB99BDF4467F3FF9EC9CBD543F7F3F94
:105A6000CF0EA0BD8D377F3F8C30A3BD9D2F7F3FD4
:105A70003052A6BD87277F3FBA73A9BD491F7F3F1C
:105A80002B95ACBDE4167F3F80B6AFBD580E7F3F6F
:105A9000BBD7B2BDA4057F3FDAF8B5BDC9FC7E3FD8
:105AA000DD19B9BDC7F37E3FC33ABCBD9DEA7E3F59
:105AB0008D5BBFBD4CE17E3F397CC2BDD4D77E3FFC
:105AC000C69CC5BD34CE7E3F36BDC8BD6DC47E3FCD
:105AD00086DDCBBD7FBA7E3FB7FDCEBD69B07E3FD0
